{
  "contractName": "Dao",
  "abi": [
    {
      "inputs": [
        {
          "internalType": "string",
          "name": "_name",
          "type": "string"
        },
        {
          "internalType": "contract IERC20",
          "name": "_dao_token",
          "type": "address"
        },
        {
          "internalType": "contract Pool",
          "name": "_pool",
          "type": "address"
        },
        {
          "internalType": "address",
          "name": "_initiator",
          "type": "address"
        }
      ],
      "stateMutability": "nonpayable",
      "type": "constructor"
    },
    {
      "inputs": [],
      "name": "dao_token",
      "outputs": [
        {
          "internalType": "contract IERC20",
          "name": "",
          "type": "address"
        }
      ],
      "stateMutability": "view",
      "type": "function"
    },
    {
      "inputs": [],
      "name": "initiator",
      "outputs": [
        {
          "internalType": "address",
          "name": "",
          "type": "address"
        }
      ],
      "stateMutability": "view",
      "type": "function"
    },
    {
      "inputs": [],
      "name": "name",
      "outputs": [
        {
          "internalType": "string",
          "name": "",
          "type": "string"
        }
      ],
      "stateMutability": "view",
      "type": "function"
    },
    {
      "inputs": [],
      "name": "proposal_id",
      "outputs": [
        {
          "internalType": "uint256",
          "name": "",
          "type": "uint256"
        }
      ],
      "stateMutability": "view",
      "type": "function"
    },
    {
      "inputs": [
        {
          "internalType": "uint256",
          "name": "_amount",
          "type": "uint256"
        },
        {
          "internalType": "address",
          "name": "stake_for",
          "type": "address"
        }
      ],
      "name": "stake",
      "outputs": [],
      "stateMutability": "nonpayable",
      "type": "function"
    },
    {
      "inputs": [
        {
          "internalType": "uint256",
          "name": "_amount",
          "type": "uint256"
        },
        {
          "internalType": "address",
          "name": "_stake_for",
          "type": "address"
        }
      ],
      "name": "auto_stake",
      "outputs": [],
      "stateMutability": "nonpayable",
      "type": "function"
    },
    {
      "inputs": [
        {
          "internalType": "address",
          "name": "_user",
          "type": "address"
        }
      ],
      "name": "get_stake",
      "outputs": [
        {
          "internalType": "uint256",
          "name": "",
          "type": "uint256"
        }
      ],
      "stateMutability": "view",
      "type": "function"
    },
    {
      "inputs": [
        {
          "internalType": "uint256",
          "name": "_amount",
          "type": "uint256"
        }
      ],
      "name": "claim",
      "outputs": [],
      "stateMutability": "nonpayable",
      "type": "function"
    },
    {
      "inputs": [
        {
          "internalType": "string",
          "name": "_title",
          "type": "string"
        },
        {
          "internalType": "string",
          "name": "_description",
          "type": "string"
        },
        {
          "internalType": "bytes",
          "name": "_tx_to_execute",
          "type": "bytes"
        }
      ],
      "name": "propose_tx",
      "outputs": [],
      "stateMutability": "nonpayable",
      "type": "function"
    },
    {
      "inputs": [
        {
          "internalType": "string",
          "name": "_title",
          "type": "string"
        },
        {
          "internalType": "string",
          "name": "_description",
          "type": "string"
        },
        {
          "internalType": "contract IERC721",
          "name": "_asset_address",
          "type": "address"
        },
        {
          "internalType": "uint256",
          "name": "_asset_id",
          "type": "uint256"
        }
      ],
      "name": "propose_sell",
      "outputs": [],
      "stateMutability": "nonpayable",
      "type": "function"
    },
    {
      "inputs": [
        {
          "internalType": "uint256",
          "name": "_proposal_id",
          "type": "uint256"
        }
      ],
      "name": "get_proposal",
      "outputs": [
        {
          "components": [
            {
              "internalType": "enum Dao.proposal_status",
              "name": "status",
              "type": "uint8"
            },
            {
              "internalType": "string",
              "name": "title",
              "type": "string"
            },
            {
              "internalType": "string",
              "name": "description",
              "type": "string"
            },
            {
              "internalType": "bytes",
              "name": "tx",
              "type": "bytes"
            },
            {
              "components": [
                {
                  "internalType": "address",
                  "name": "addr",
                  "type": "address"
                },
                {
                  "internalType": "uint256",
                  "name": "id",
                  "type": "uint256"
                }
              ],
              "internalType": "struct Dao.Asset",
              "name": "asset",
              "type": "tuple"
            },
            {
              "internalType": "uint256",
              "name": "votes_for",
              "type": "uint256"
            },
            {
              "internalType": "uint256",
              "name": "votes_against",
              "type": "uint256"
            },
            {
              "internalType": "uint256",
              "name": "threshold",
              "type": "uint256"
            }
          ],
          "internalType": "struct Dao.Proposal",
          "name": "",
          "type": "tuple"
        }
      ],
      "stateMutability": "view",
      "type": "function"
    },
    {
      "inputs": [
        {
          "internalType": "uint256",
          "name": "_proposal_id",
          "type": "uint256"
        },
        {
          "internalType": "bool",
          "name": "_vote",
          "type": "bool"
        }
      ],
      "name": "vote",
      "outputs": [],
      "stateMutability": "nonpayable",
      "type": "function"
    },
    {
      "inputs": [
        {
          "internalType": "uint256",
          "name": "_proposal_id",
          "type": "uint256"
        }
      ],
      "name": "votes_distribution",
      "outputs": [
        {
          "internalType": "uint256[2]",
          "name": "",
          "type": "uint256[2]"
        }
      ],
      "stateMutability": "view",
      "type": "function"
    },
    {
      "inputs": [
        {
          "internalType": "address",
          "name": "_asset_address",
          "type": "address"
        },
        {
          "internalType": "uint256",
          "name": "_asset_id",
          "type": "uint256"
        }
      ],
      "name": "add_asset",
      "outputs": [],
      "stateMutability": "nonpayable",
      "type": "function"
    },
    {
      "inputs": [
        {
          "internalType": "uint256",
          "name": "_asset_type",
          "type": "uint256"
        }
      ],
      "name": "get_asset",
      "outputs": [
        {
          "components": [
            {
              "internalType": "address",
              "name": "addr",
              "type": "address"
            },
            {
              "internalType": "uint256",
              "name": "id",
              "type": "uint256"
            }
          ],
          "internalType": "struct Dao.Asset[]",
          "name": "",
          "type": "tuple[]"
        }
      ],
      "stateMutability": "view",
      "type": "function"
    },
    {
      "inputs": [
        {
          "internalType": "address",
          "name": "operator",
          "type": "address"
        },
        {
          "internalType": "address",
          "name": "from",
          "type": "address"
        },
        {
          "internalType": "uint256",
          "name": "tokenId",
          "type": "uint256"
        },
        {
          "internalType": "bytes",
          "name": "data",
          "type": "bytes"
        }
      ],
      "name": "onERC721Received",
      "outputs": [
        {
          "internalType": "bytes4",
          "name": "",
          "type": "bytes4"
        }
      ],
      "stateMutability": "pure",
      "type": "function"
    }
  ],
  "bytecode": "0x60806040523480156200001157600080fd5b506040516200355a3803806200355a833981810160405281019062000037919062000283565b83600190805190602001906200004f9291906200011c565b50826000806101000a81548173ffffffffffffffffffffffffffffffffffffffff021916908373ffffffffffffffffffffffffffffffffffffffff16021790555081600760006101000a81548173ffffffffffffffffffffffffffffffffffffffff021916908373ffffffffffffffffffffffffffffffffffffffff16021790555080600360006101000a81548173ffffffffffffffffffffffffffffffffffffffff021916908373ffffffffffffffffffffffffffffffffffffffff1602179055505050505062000522565b8280546200012a90620003f9565b90600052602060002090601f0160209004810192826200014e57600085556200019a565b82601f106200016957805160ff19168380011785556200019a565b828001600101855582156200019a579182015b82811115620001995782518255916020019190600101906200017c565b5b509050620001a99190620001ad565b5090565b5b80821115620001c8576000816000905550600101620001ae565b5090565b6000620001e3620001dd8462000331565b62000308565b905082815260208101848484011115620001fc57600080fd5b62000209848285620003c3565b509392505050565b6000815190506200022281620004d4565b92915050565b6000815190506200023981620004ee565b92915050565b600081519050620002508162000508565b92915050565b600082601f8301126200026857600080fd5b81516200027a848260208601620001cc565b91505092915050565b600080600080608085870312156200029a57600080fd5b600085015167ffffffffffffffff811115620002b557600080fd5b620002c38782880162000256565b9450506020620002d68782880162000228565b9350506040620002e9878288016200023f565b9250506060620002fc8782880162000211565b91505092959194509250565b60006200031462000327565b90506200032282826200042f565b919050565b6000604051905090565b600067ffffffffffffffff8211156200034f576200034e62000494565b5b6200035a82620004c3565b9050602081019050919050565b60006200037482620003a3565b9050919050565b6000620003888262000367565b9050919050565b60006200039c8262000367565b9050919050565b600073ffffffffffffffffffffffffffffffffffffffff82169050919050565b60005b83811015620003e3578082015181840152602081019050620003c6565b83811115620003f3576000848401525b50505050565b600060028204905060018216806200041257607f821691505b6020821081141562000429576200042862000465565b5b50919050565b6200043a82620004c3565b810181811067ffffffffffffffff821117156200045c576200045b62000494565b5b80604052505050565b7f4e487b7100000000000000000000000000000000000000000000000000000000600052602260045260246000fd5b7f4e487b7100000000000000000000000000000000000000000000000000000000600052604160045260246000fd5b6000601f19601f8301169050919050565b620004df8162000367565b8114620004eb57600080fd5b50565b620004f9816200037b565b81146200050557600080fd5b50565b62000513816200038f565b81146200051f57600080fd5b50565b61302880620005326000396000f3fe608060405234801561001057600080fd5b50600436106101005760003560e01c8063561f4a6a116100975780637acb7757116100665780637acb7757146102c1578063c9d27afe146102dd578063e4dd26cf146102f9578063e9a4b6911461031557610100565b8063561f4a6a146102395780635c39fcc114610255578063688e1d3114610273578063698839fd1461029157610100565b806317eb2f09116100d357806317eb2f091461019f578063379607f5146101cf5780633eda5200146101eb578063528f9d551461021b57610100565b806306fdde03146101055780630f9e4fb51461012357806310b1939f1461013f578063150b7a021461016f575b600080fd5b61010d610331565b60405161011a91906128e3565b60405180910390f35b61013d600480360381019061013891906121dd565b6103bf565b005b6101596004803603810190610154919061236c565b610738565b6040516101669190612870565b60405180910390f35b6101896004803603810190610184919061215d565b6108dc565b60405161019691906128ad565b60405180910390f35b6101b960048036038101906101b4919061236c565b6108f1565b6040516101c69190612892565b60405180910390f35b6101e960048036038101906101e4919061236c565b610941565b005b6102056004803603810190610200919061236c565b610af3565b60405161021291906129a5565b60405180910390f35b610223610df0565b60405161023091906129c7565b60405180910390f35b610253600480360381019061024e91906123be565b610df6565b005b61025d610f22565b60405161026a91906127cc565b60405180910390f35b61027b610f48565b60405161028891906128c8565b60405180910390f35b6102ab60048036038101906102a6919061210b565b610f6c565b6040516102b891906129c7565b60405180910390f35b6102db60048036038101906102d691906123be565b610fb5565b005b6102f760048036038101906102f291906123fa565b611220565b005b610313600480360381019061030e9190612242565b611503565b005b61032f600480360381019061032a91906122d9565b611840565b005b6001805461033e90612d0a565b80601f016020809104026020016040519081016040528092919081815260200182805461036a90612d0a565b80156103b75780601f1061038c576101008083540402835291602001916103b7565b820191906000526020600020905b81548152906001019060200180831161039a57829003601f168201915b505050505081565b60001515600460000160008473ffffffffffffffffffffffffffffffffffffffff1673ffffffffffffffffffffffffffffffffffffffff168152602001908152602001600020600083815260200190815260200160002060009054906101000a900460ff16151514610466576040517f08c379a000000000000000000000000000000000000000000000000000000000815260040161045d90612965565b60405180910390fd5b6000811461061b5760008290503073ffffffffffffffffffffffffffffffffffffffff168173ffffffffffffffffffffffffffffffffffffffff16636352211e846040518263ffffffff1660e01b81526004016104c391906129c7565b60206040518083038186803b1580156104db57600080fd5b505afa1580156104ef573d6000803e3d6000fd5b505050506040513d601f19601f820116820180604052508101906105139190612134565b73ffffffffffffffffffffffffffffffffffffffff1614610569576040517f08c379a000000000000000000000000000000000000000000000000000000000815260040161056090612985565b60405180910390fd5b600460010160405180604001604052808573ffffffffffffffffffffffffffffffffffffffff16815260200184815250908060018154018082558091505060019003906000526020600020906002020160009091909190915060008201518160000160006101000a81548173ffffffffffffffffffffffffffffffffffffffff021916908373ffffffffffffffffffffffffffffffffffffffff160217905550602082015181600101555050506106c8565b600460020160405180604001604052808473ffffffffffffffffffffffffffffffffffffffff16815260200183815250908060018154018082558091505060019003906000526020600020906002020160009091909190915060008201518160000160006101000a81548173ffffffffffffffffffffffffffffffffffffffff021916908373ffffffffffffffffffffffffffffffffffffffff1602179055506020820151816001015550505b6001600460000160008473ffffffffffffffffffffffffffffffffffffffff1673ffffffffffffffffffffffffffffffffffffffff168152602001908152602001600020600083815260200190815260200160002060006101000a81548160ff0219169083151502179055505050565b60606000821415610805576004600101805480602002602001604051908101604052809291908181526020016000905b828210156107fa57838290600052602060002090600202016040518060400160405290816000820160009054906101000a900473ffffffffffffffffffffffffffffffffffffffff1673ffffffffffffffffffffffffffffffffffffffff1673ffffffffffffffffffffffffffffffffffffffff16815260200160018201548152505081526020019060010190610768565b5050505090506108d7565b60018214156108d0576004600201805480602002602001604051908101604052809291908181526020016000905b828210156108c557838290600052602060002090600202016040518060400160405290816000820160009054906101000a900473ffffffffffffffffffffffffffffffffffffffff1673ffffffffffffffffffffffffffffffffffffffff1673ffffffffffffffffffffffffffffffffffffffff16815260200160018201548152505081526020019060010190610833565b5050505090506108d7565b6060809150505b919050565b600063150b7a0260e01b905095945050505050565b6108f9611d60565b60405180604001604052806008600085815260200190815260200160002060060154815260200160086000858152602001908152602001600020600701548152509050919050565b6000600a60003373ffffffffffffffffffffffffffffffffffffffff1673ffffffffffffffffffffffffffffffffffffffff16815260200190815260200160002054905081811015610a405760008054906101000a900473ffffffffffffffffffffffffffffffffffffffff1673ffffffffffffffffffffffffffffffffffffffff1663a9059cbb33836040518363ffffffff1660e01b81526004016109e8929190612847565b602060405180830381600087803b158015610a0257600080fd5b505af1158015610a16573d6000803e3d6000fd5b505050506040513d601f19601f82011682018060405250810190610a3a9190612219565b50610aef565b60008054906101000a900473ffffffffffffffffffffffffffffffffffffffff1673ffffffffffffffffffffffffffffffffffffffff1663a9059cbb33846040518363ffffffff1660e01b8152600401610a9b929190612847565b602060405180830381600087803b158015610ab557600080fd5b505af1158015610ac9573d6000803e3d6000fd5b505050506040513d601f19601f82011682018060405250810190610aed9190612219565b505b5050565b610afb611d82565b60086000838152602001908152602001600020604051806101000160405290816000820160009054906101000a900460ff166002811115610b65577f4e487b7100000000000000000000000000000000000000000000000000000000600052602160045260246000fd5b6002811115610b9d577f4e487b7100000000000000000000000000000000000000000000000000000000600052602160045260246000fd5b8152602001600182018054610bb190612d0a565b80601f0160208091040260200160405190810160405280929190818152602001828054610bdd90612d0a565b8015610c2a5780601f10610bff57610100808354040283529160200191610c2a565b820191906000526020600020905b815481529060010190602001808311610c0d57829003601f168201915b50505050508152602001600282018054610c4390612d0a565b80601f0160208091040260200160405190810160405280929190818152602001828054610c6f90612d0a565b8015610cbc5780601f10610c9157610100808354040283529160200191610cbc565b820191906000526020600020905b815481529060010190602001808311610c9f57829003601f168201915b50505050508152602001600382018054610cd590612d0a565b80601f0160208091040260200160405190810160405280929190818152602001828054610d0190612d0a565b8015610d4e5780601f10610d2357610100808354040283529160200191610d4e565b820191906000526020600020905b815481529060010190602001808311610d3157829003601f168201915b50505050508152602001600482016040518060400160405290816000820160009054906101000a900473ffffffffffffffffffffffffffffffffffffffff1673ffffffffffffffffffffffffffffffffffffffff1673ffffffffffffffffffffffffffffffffffffffff168152602001600182015481525050815260200160068201548152602001600782015481526020016008820154815250509050919050565b60025481565b60008054906101000a900473ffffffffffffffffffffffffffffffffffffffff1673ffffffffffffffffffffffffffffffffffffffff166323b872dd600760009054906101000a900473ffffffffffffffffffffffffffffffffffffffff1630856040518463ffffffff1660e01b8152600401610e7593929190612810565b602060405180830381600087803b158015610e8f57600080fd5b505af1158015610ea3573d6000803e3d6000fd5b505050506040513d601f19601f82011682018060405250810190610ec79190612219565b5081600a60008373ffffffffffffffffffffffffffffffffffffffff1673ffffffffffffffffffffffffffffffffffffffff1681526020019081526020016000206000828254610f179190612b18565b925050819055505050565b600360009054906101000a900473ffffffffffffffffffffffffffffffffffffffff1681565b60008054906101000a900473ffffffffffffffffffffffffffffffffffffffff1681565b6000600a60008373ffffffffffffffffffffffffffffffffffffffff1673ffffffffffffffffffffffffffffffffffffffff168152602001908152602001600020549050919050565b8160008054906101000a900473ffffffffffffffffffffffffffffffffffffffff1673ffffffffffffffffffffffffffffffffffffffff1663dd62ed3e83306040518363ffffffff1660e01b81526004016110119291906127e7565b60206040518083038186803b15801561102957600080fd5b505afa15801561103d573d6000803e3d6000fd5b505050506040513d601f19601f820116820180604052508101906110619190612395565b10156111165760008054906101000a900473ffffffffffffffffffffffffffffffffffffffff1673ffffffffffffffffffffffffffffffffffffffff1663095ea7b330846040518363ffffffff1660e01b81526004016110c2929190612847565b602060405180830381600087803b1580156110dc57600080fd5b505af11580156110f0573d6000803e3d6000fd5b505050506040513d601f19601f820116820180604052508101906111149190612219565b505b60008054906101000a900473ffffffffffffffffffffffffffffffffffffffff1673ffffffffffffffffffffffffffffffffffffffff166323b872dd3330856040518463ffffffff1660e01b815260040161117393929190612810565b602060405180830381600087803b15801561118d57600080fd5b505af11580156111a1573d6000803e3d6000fd5b505050506040513d601f19601f820116820180604052508101906111c59190612219565b5081600a60008373ffffffffffffffffffffffffffffffffffffffff1673ffffffffffffffffffffffffffffffffffffffff16815260200190815260200160002060008282546112159190612b18565b925050819055505050565b6000600a60003373ffffffffffffffffffffffffffffffffffffffff1673ffffffffffffffffffffffffffffffffffffffff1681526020019081526020016000205414156112a3576040517f08c379a000000000000000000000000000000000000000000000000000000000815260040161129a90612905565b60405180910390fd5b600015156009600084815260200190815260200160002060003373ffffffffffffffffffffffffffffffffffffffff1673ffffffffffffffffffffffffffffffffffffffff16815260200190815260200160002060009054906101000a900460ff16151514611347576040517f08c379a000000000000000000000000000000000000000000000000000000000815260040161133e90612925565b60405180910390fd5b6001151581151514156113c557600a60003373ffffffffffffffffffffffffffffffffffffffff1673ffffffffffffffffffffffffffffffffffffffff168152602001908152602001600020546008600084815260200190815260200160002060060160008282546113b99190612b18565b92505081905550611432565b600a60003373ffffffffffffffffffffffffffffffffffffffff1673ffffffffffffffffffffffffffffffffffffffff1681526020019081526020016000205460086000848152602001908152602001600020600701600082825461142a9190612b18565b925050819055505b60006008600084815260200190815260200160002060070154600860008581526020019081526020016000206006015461146c9190612b18565b905060016009600085815260200190815260200160002060003373ffffffffffffffffffffffffffffffffffffffff1673ffffffffffffffffffffffffffffffffffffffff16815260200190815260200160002060006101000a81548160ff021916908315150217905550600860008481526020019081526020016000206008015481106114fe576114fd83611b02565b5b505050565b6000600a60003373ffffffffffffffffffffffffffffffffffffffff1673ffffffffffffffffffffffffffffffffffffffff168152602001908152602001600020541415611586576040517f08c379a000000000000000000000000000000000000000000000000000000000815260040161157d90612945565b60405180910390fd5b6001600260008282546115999190612b18565b925050819055506000604051806101000160405280600060028111156115e8577f4e487b7100000000000000000000000000000000000000000000000000000000600052602160045260246000fd5b81526020018581526020018481526020018381526020016040518060400160405280600073ffffffffffffffffffffffffffffffffffffffff168152602001600081525081526020016000815260200160008152602001600460008054906101000a900473ffffffffffffffffffffffffffffffffffffffff1673ffffffffffffffffffffffffffffffffffffffff166318160ddd6040518163ffffffff1660e01b815260040160206040518083038186803b1580156116a757600080fd5b505afa1580156116bb573d6000803e3d6000fd5b505050506040513d601f19601f820116820180604052508101906116df9190612395565b60036116eb9190612b9f565b6116f59190612b6e565b81525090508060086000600254815260200190815260200160002060008201518160000160006101000a81548160ff02191690836002811115611761577f4e487b7100000000000000000000000000000000000000000000000000000000600052602160045260246000fd5b02179055506020820151816001019080519060200190611782929190611e05565b50604082015181600201908051906020019061179f929190611e05565b5060608201518160030190805190602001906117bc929190611e8b565b5060808201518160040160008201518160000160006101000a81548173ffffffffffffffffffffffffffffffffffffffff021916908373ffffffffffffffffffffffffffffffffffffffff16021790555060208201518160010155505060a0820151816006015560c0820151816007015560e0820151816008015590505050505050565b6001600260008282546118539190612b18565b925050819055506060600060405180604001604052808573ffffffffffffffffffffffffffffffffffffffff1681526020018481525090506000604051806101000160405280600060028111156118d3577f4e487b7100000000000000000000000000000000000000000000000000000000600052602160045260246000fd5b81526020018881526020018781526020018481526020018381526020016000815260200160008152602001600460008054906101000a900473ffffffffffffffffffffffffffffffffffffffff1673ffffffffffffffffffffffffffffffffffffffff166318160ddd6040518163ffffffff1660e01b815260040160206040518083038186803b15801561196657600080fd5b505afa15801561197a573d6000803e3d6000fd5b505050506040513d601f19601f8201168201806040525081019061199e9190612395565b60036119aa9190612b9f565b6119b49190612b6e565b81525090508060086000600254815260200190815260200160002060008201518160000160006101000a81548160ff02191690836002811115611a20577f4e487b7100000000000000000000000000000000000000000000000000000000600052602160045260246000fd5b02179055506020820151816001019080519060200190611a41929190611e05565b506040820151816002019080519060200190611a5e929190611e05565b506060820151816003019080519060200190611a7b929190611e8b565b5060808201518160040160008201518160000160006101000a81548173ffffffffffffffffffffffffffffffffffffffff021916908373ffffffffffffffffffffffffffffffffffffffff16021790555060208201518160010155505060a0820151816006015560c0820151816007015560e0820151816008015590505050505050505050565b600860008281526020019081526020016000206007015460086000838152602001908152602001600020600601541115611cf75760016008600083815260200190815260200160002060000160006101000a81548160ff02191690836002811115611b96577f4e487b7100000000000000000000000000000000000000000000000000000000600052602160045260246000fd5b0217905550600073ffffffffffffffffffffffffffffffffffffffff166008600083815260200190815260200160002060040160000160009054906101000a900473ffffffffffffffffffffffffffffffffffffffff1673ffffffffffffffffffffffffffffffffffffffff1614611cf25760006008600083815260200190815260200160002060040160000160009054906101000a900473ffffffffffffffffffffffffffffffffffffffff1690508073ffffffffffffffffffffffffffffffffffffffff166323b872dd30600360009054906101000a900473ffffffffffffffffffffffffffffffffffffffff1660086000878152602001908152602001600020600401600101546040518463ffffffff1660e01b8152600401611cbe93929190612810565b600060405180830381600087803b158015611cd857600080fd5b505af1158015611cec573d6000803e3d6000fd5b50505050505b611d5d565b60026008600083815260200190815260200160002060000160006101000a81548160ff02191690836002811115611d57577f4e487b7100000000000000000000000000000000000000000000000000000000600052602160045260246000fd5b02179055505b50565b6040518060400160405280600290602082028036833780820191505090505090565b60405180610100016040528060006002811115611dc8577f4e487b7100000000000000000000000000000000000000000000000000000000600052602160045260246000fd5b8152602001606081526020016060815260200160608152602001611dea611f11565b81526020016000815260200160008152602001600081525090565b828054611e1190612d0a565b90600052602060002090601f016020900481019282611e335760008555611e7a565b82601f10611e4c57805160ff1916838001178555611e7a565b82800160010185558215611e7a579182015b82811115611e79578251825591602001919060010190611e5e565b5b509050611e879190611f41565b5090565b828054611e9790612d0a565b90600052602060002090601f016020900481019282611eb95760008555611f00565b82601f10611ed257805160ff1916838001178555611f00565b82800160010185558215611f00579182015b82811115611eff578251825591602001919060010190611ee4565b5b509050611f0d9190611f41565b5090565b6040518060400160405280600073ffffffffffffffffffffffffffffffffffffffff168152602001600081525090565b5b80821115611f5a576000816000905550600101611f42565b5090565b6000611f71611f6c84612a07565b6129e2565b905082815260208101848484011115611f8957600080fd5b611f94848285612cc8565b509392505050565b6000611faf611faa84612a38565b6129e2565b905082815260208101848484011115611fc757600080fd5b611fd2848285612cc8565b509392505050565b600081359050611fe981612f96565b92915050565b600081519050611ffe81612f96565b92915050565b60008135905061201381612fad565b92915050565b60008151905061202881612fad565b92915050565b60008083601f84011261204057600080fd5b8235905067ffffffffffffffff81111561205957600080fd5b60208301915083600182028301111561207157600080fd5b9250929050565b600082601f83011261208957600080fd5b8135612099848260208601611f5e565b91505092915050565b6000813590506120b181612fc4565b92915050565b600082601f8301126120c857600080fd5b81356120d8848260208601611f9c565b91505092915050565b6000813590506120f081612fdb565b92915050565b60008151905061210581612fdb565b92915050565b60006020828403121561211d57600080fd5b600061212b84828501611fda565b91505092915050565b60006020828403121561214657600080fd5b600061215484828501611fef565b91505092915050565b60008060008060006080868803121561217557600080fd5b600061218388828901611fda565b955050602061219488828901611fda565b94505060406121a5888289016120e1565b935050606086013567ffffffffffffffff8111156121c257600080fd5b6121ce8882890161202e565b92509250509295509295909350565b600080604083850312156121f057600080fd5b60006121fe85828601611fda565b925050602061220f858286016120e1565b9150509250929050565b60006020828403121561222b57600080fd5b600061223984828501612019565b91505092915050565b60008060006060848603121561225757600080fd5b600084013567ffffffffffffffff81111561227157600080fd5b61227d868287016120b7565b935050602084013567ffffffffffffffff81111561229a57600080fd5b6122a6868287016120b7565b925050604084013567ffffffffffffffff8111156122c357600080fd5b6122cf86828701612078565b9150509250925092565b600080600080608085870312156122ef57600080fd5b600085013567ffffffffffffffff81111561230957600080fd5b612315878288016120b7565b945050602085013567ffffffffffffffff81111561233257600080fd5b61233e878288016120b7565b935050604061234f878288016120a2565b9250506060612360878288016120e1565b91505092959194509250565b60006020828403121561237e57600080fd5b600061238c848285016120e1565b91505092915050565b6000602082840312156123a757600080fd5b60006123b5848285016120f6565b91505092915050565b600080604083850312156123d157600080fd5b60006123df858286016120e1565b92505060206123f085828601611fda565b9150509250929050565b6000806040838503121561240d57600080fd5b600061241b858286016120e1565b925050602061242c85828601612004565b9150509250929050565b600061244283836126c0565b60408301905092915050565b600061245a83836127ae565b60208301905092915050565b61246f81612bf9565b82525050565b61247e81612bf9565b82525050565b600061248f82612a83565b6124998185612ac9565b93506124a483612a69565b8060005b838110156124d55781516124bc8882612436565b97506124c783612aaf565b9250506001810190506124a8565b5085935050505092915050565b6124eb81612a8e565b6124f58184612ada565b925061250082612a79565b8060005b83811015612531578151612518878261244e565b965061252383612abc565b925050600181019050612504565b505050505050565b61254281612c17565b82525050565b600061255382612a99565b61255d8185612ae5565b935061256d818560208601612cd7565b61257681612e58565b840191505092915050565b61258a81612c92565b82525050565b61259981612cb6565b82525050565b60006125aa82612aa4565b6125b48185612af6565b93506125c4818560208601612cd7565b6125cd81612e58565b840191505092915050565b60006125e382612aa4565b6125ed8185612b07565b93506125fd818560208601612cd7565b61260681612e58565b840191505092915050565b600061261e602b83612b07565b915061262982612e69565b604082019050919050565b6000612641601b83612b07565b915061264c82612eb8565b602082019050919050565b6000612664603c83612b07565b915061266f82612ee1565b604082019050919050565b6000612687601c83612b07565b915061269282612f30565b602082019050919050565b60006126aa601783612b07565b91506126b582612f59565b602082019050919050565b6040820160008201516126d66000850182612466565b5060208201516126e960208501826127ae565b50505050565b6000610120830160008301516127086000860182612590565b5060208301518482036020860152612720828261259f565b9150506040830151848203604086015261273a828261259f565b915050606083015184820360608601526127548282612548565b915050608083015161276960808601826126c0565b5060a083015161277c60c08601826127ae565b5060c083015161278f60e08601826127ae565b5060e08301516127a36101008601826127ae565b508091505092915050565b6127b781612c88565b82525050565b6127c681612c88565b82525050565b60006020820190506127e16000830184612475565b92915050565b60006040820190506127fc6000830185612475565b6128096020830184612475565b9392505050565b60006060820190506128256000830186612475565b6128326020830185612475565b61283f60408301846127bd565b949350505050565b600060408201905061285c6000830185612475565b61286960208301846127bd565b9392505050565b6000602082019050818103600083015261288a8184612484565b905092915050565b60006040820190506128a760008301846124e2565b92915050565b60006020820190506128c26000830184612539565b92915050565b60006020820190506128dd6000830184612581565b92915050565b600060208201905081810360008301526128fd81846125d8565b905092915050565b6000602082019050818103600083015261291e81612611565b9050919050565b6000602082019050818103600083015261293e81612634565b9050919050565b6000602082019050818103600083015261295e81612657565b9050919050565b6000602082019050818103600083015261297e8161267a565b9050919050565b6000602082019050818103600083015261299e8161269d565b9050919050565b600060208201905081810360008301526129bf81846126ef565b905092915050565b60006020820190506129dc60008301846127bd565b92915050565b60006129ec6129fd565b90506129f88282612d3c565b919050565b6000604051905090565b600067ffffffffffffffff821115612a2257612a21612e29565b5b612a2b82612e58565b9050602081019050919050565b600067ffffffffffffffff821115612a5357612a52612e29565b5b612a5c82612e58565b9050602081019050919050565b6000819050602082019050919050565b6000819050919050565b600081519050919050565b600060029050919050565b600081519050919050565b600081519050919050565b6000602082019050919050565b6000602082019050919050565b600082825260208201905092915050565b600081905092915050565b600082825260208201905092915050565b600082825260208201905092915050565b600082825260208201905092915050565b6000612b2382612c88565b9150612b2e83612c88565b9250827fffffffffffffffffffffffffffffffffffffffffffffffffffffffffffffffff03821115612b6357612b62612d6d565b5b828201905092915050565b6000612b7982612c88565b9150612b8483612c88565b925082612b9457612b93612d9c565b5b828204905092915050565b6000612baa82612c88565b9150612bb583612c88565b9250817fffffffffffffffffffffffffffffffffffffffffffffffffffffffffffffffff0483118215151615612bee57612bed612d6d565b5b828202905092915050565b6000612c0482612c68565b9050919050565b60008115159050919050565b60007fffffffff0000000000000000000000000000000000000000000000000000000082169050919050565b6000612c4e82612bf9565b9050919050565b6000819050612c6382612f82565b919050565b600073ffffffffffffffffffffffffffffffffffffffff82169050919050565b6000819050919050565b6000612c9d82612ca4565b9050919050565b6000612caf82612c68565b9050919050565b6000612cc182612c55565b9050919050565b82818337600083830152505050565b60005b83811015612cf5578082015181840152602081019050612cda565b83811115612d04576000848401525b50505050565b60006002820490506001821680612d2257607f821691505b60208210811415612d3657612d35612dfa565b5b50919050565b612d4582612e58565b810181811067ffffffffffffffff82111715612d6457612d63612e29565b5b80604052505050565b7f4e487b7100000000000000000000000000000000000000000000000000000000600052601160045260246000fd5b7f4e487b7100000000000000000000000000000000000000000000000000000000600052601260045260246000fd5b7f4e487b7100000000000000000000000000000000000000000000000000000000600052602160045260246000fd5b7f4e487b7100000000000000000000000000000000000000000000000000000000600052602260045260246000fd5b7f4e487b7100000000000000000000000000000000000000000000000000000000600052604160045260246000fd5b6000601f19601f8301169050919050565b7f506c65617365207374616b6520796f757220676f7665726e616e636520746f6b60008201527f656e7320746f20766f7465000000000000000000000000000000000000000000602082015250565b7f5468697320757365722068617320616c726561647920766f7465640000000000600082015250565b7f506c65617365207374616b6520796f757220676f7665726e616e636520746f6b60008201527f656e7320746f206372656174652061206e65772070726f706f73616c00000000602082015250565b7f5468697320617373657420697320616c7265616479206c6f636b656400000000600082015250565b7f546869732061737365742069736e2774206c6f636b6564000000000000000000600082015250565b60038110612f9357612f92612dcb565b5b50565b612f9f81612bf9565b8114612faa57600080fd5b50565b612fb681612c0b565b8114612fc157600080fd5b50565b612fcd81612c43565b8114612fd857600080fd5b50565b612fe481612c88565b8114612fef57600080fd5b5056fea264697066735822122030a1fc95ad1c049f934c27326d75415845e17cceff05e9be165841a59ae8655764736f6c63430008040033",
  "immutableReferences": {},
  "source": "pragma solidity ^0.8.0;\nimport \"@openzeppelin/contracts/token/ERC20/IERC20.sol\";\nimport \"@openzeppelin/contracts/token/ERC721/IERC721.sol\";\nimport \"@openzeppelin/contracts/token/ERC721/IERC721Receiver.sol\";\nimport \"./Pool.sol\";\n\ncontract Dao is IERC721Receiver {\n\n    IERC20 public dao_token;\n    string public name;\n    uint public proposal_id;\n    address public initiator;\n\n    enum proposal_status{ ACTIVE, PASSED, FAILED }\n\n    struct Asset {\n        address addr;  // Address of stored asset\n        uint id;  // Should be zero for ERC20 and non-zero for ERC721\n    }\n\n    struct Vault {\n        mapping(address => mapping(uint => bool)) asset_locked;\n        Asset[] erc721;  // Locked NFTs\n        Asset[] erc20;  // Locked ERC20\n    }\n\n    struct Proposal {\n        proposal_status status;\n        string title;\n        string description;\n        bytes tx;  // Transaction to be executed when proposal passes.\n        Asset asset;\n        uint votes_for;  // Amount of \"For\" votes\n        uint votes_against;  // Amount of \"Against\" votes\n        uint threshold;  // Amount of voting power which took a part in voting process for the proposal to be closed\n    }\n\n    Vault vault;\n    Pool pool_contract;\n    mapping(uint => Proposal) proposals;  // Sale proposals by their ids\n    // Store whether the user has voted or not.\n    mapping(uint => mapping(address => bool)) vote_tracker; \n    mapping(address => uint) stakes;  // Staked voting power: user => amount. DEPRECATED\n\n    constructor(string memory _name,\n                IERC20 _dao_token,\n                Pool _pool,\n                address _initiator) {\n        name = _name;\n        dao_token = _dao_token;\n        pool_contract = _pool;\n        initiator = _initiator;\n    }\n\n    function stake(uint _amount, address stake_for) public {\n        if (dao_token.allowance(stake_for, address(this)) < _amount) {\n            dao_token.approve(address(this), _amount);\n        }\n        dao_token.transferFrom(msg.sender, address(this), _amount);\n        stakes[stake_for] += _amount;\n    }\n\n    function auto_stake(uint _amount, address _stake_for) public {\n        dao_token.transferFrom(address(pool_contract), address(this), _amount);\n        stakes[_stake_for] += _amount;\n    }\n\n    function get_stake(address _user) public view returns (uint){\n        return stakes[_user];\n    }\n\n    function claim(uint _amount) public {  // 50\n        uint user_stake = stakes[msg.sender];  // 2\n        if (user_stake < _amount) {  // 2*50 < 50\n            dao_token.transfer(msg.sender, user_stake);\n        } else {\n            dao_token.transfer(msg.sender, _amount);\n            }\n        \n    }\n\n    function propose_tx(string memory _title, string memory _description, bytes memory _tx_to_execute) public {\n        require(stakes[msg.sender] != 0, \"Please stake your governance tokens to create a new proposal\");\n        proposal_id += 1;\n        Proposal memory proposal = Proposal(proposal_status.ACTIVE,\n                                            _title,\n                                            _description,\n                                            _tx_to_execute,\n                                            Asset(address(0x0), 0),\n                                            0, 0,\n                                            (3*dao_token.totalSupply())/4);\n        proposals[proposal_id] = proposal;\n    }\n\n    function propose_sell(string memory _title, string memory _description, IERC721 _asset_address, uint _asset_id) public {\n        proposal_id += 1;\n        bytes memory empty;\n        Asset memory asset = Asset(address(_asset_address), _asset_id);\n        Proposal memory proposal = Proposal(proposal_status.ACTIVE,\n                                    _title,\n                                    _description,\n                                    empty,\n                                    asset,\n                                    0, 0,\n                                    (3*dao_token.totalSupply())/4);\n\n        proposals[proposal_id] = proposal;\n    }\n\n    function get_proposal(uint _proposal_id) public view returns (Proposal memory) {\n        return proposals[_proposal_id];\n    }\n\n    function vote(uint _proposal_id, bool _vote) public {  // vote: true - \"For\", false - \"Against\"\n        require(stakes[msg.sender] != 0, \"Please stake your governance tokens to vote\");\n        require(vote_tracker[_proposal_id][msg.sender] == false, \"This user has already voted\");\n        if (_vote == true) {\n            proposals[_proposal_id].votes_for += stakes[msg.sender];\n        } else {\n            proposals[_proposal_id].votes_against += stakes[msg.sender];\n        }\n        uint total_votes = proposals[_proposal_id].votes_for + proposals[_proposal_id].votes_against;\n        // Mark that the user has voted for this proposal.\n        vote_tracker[_proposal_id][msg.sender] = true;\n        if (total_votes >= proposals[_proposal_id].threshold) {\n            outcome(_proposal_id);\n        }\n    }\n\n    function votes_distribution(uint _proposal_id) public view returns (uint[2] memory){\n        return [proposals[_proposal_id].votes_for, proposals[_proposal_id].votes_against];\n    }\n\n    function outcome(uint _proposal_id) internal {\n        if (proposals[_proposal_id].votes_for > proposals[_proposal_id].votes_against) {\n            proposals[_proposal_id].status = proposal_status.PASSED;\n            if (proposals[_proposal_id].asset.addr != address(0x0)) {\n                IERC721 asset = IERC721(proposals[_proposal_id].asset.addr);\n                asset.transferFrom(address(this), initiator, proposals[_proposal_id].asset.id);\n            }\n        } else {\n            proposals[_proposal_id].status = proposal_status.FAILED;\n        }\n    }\n\n    function add_asset(address _asset_address, uint _asset_id) public {  // Check struct Asset for details\n        require(vault.asset_locked[_asset_address][_asset_id] == false, \"This asset is already locked\");\n        if (_asset_id != 0) {  // NFT\n            IERC721 asset = IERC721(_asset_address);\n            require(asset.ownerOf(_asset_id) == address(this), \"This asset isn't locked\");\n            vault.erc721.push(Asset(_asset_address, _asset_id));\n        } else {  // ERC20\n            vault.erc20.push(Asset(_asset_address, _asset_id));\n        }\n        vault.asset_locked[_asset_address][_asset_id] = true;\n    }\n\n    function get_asset(uint _asset_type) public view returns(Asset[] memory) {\n        /*\n        Get locked assets. UI should iterate over them checking the owner is this DAO\n        _asset_type: 0 - \"erc721\" / 1 - \"erc20\"\n        */\n        if (_asset_type == 0) {\n            return vault.erc721;\n        } else {\n            if (_asset_type == 1) {\n                return vault.erc20;\n            }\n        }\n        Asset[] memory empty;\n        return empty;\n    }\n\n    function onERC721Received(address operator,\n                              address from,\n                              uint256 tokenId,\n                              bytes calldata data) public pure override returns (bytes4) {\n        return this.onERC721Received.selector;\n    }\n\n}\n",
  "sourcePath": "/Users/y.sosunov/git/definition-hackathon/onchain/contracts/Dao.sol",
  "compiler": {
    "name": "solc",
    "version": "0.8.4+commit.c7e474f2.Emscripten.clang"
  },
  "schemaVersion": "3.3.4",
  "updatedAt": "2021-09-26T12:30:49.073Z",
  "devdoc": {
    "kind": "dev",
    "methods": {
      "onERC721Received(address,address,uint256,bytes)": {
        "details": "Whenever an {IERC721} `tokenId` token is transferred to this contract via {IERC721-safeTransferFrom} by `operator` from `from`, this function is called. It must return its Solidity selector to confirm the token transfer. If any other value is returned or the interface is not implemented by the recipient, the transfer will be reverted. The selector can be obtained in Solidity with `IERC721.onERC721Received.selector`."
      }
    },
    "version": 1
  },
  "userdoc": {
    "kind": "user",
    "methods": {},
    "version": 1
  }
}