{
  "contractName": "Dao",
  "abi": [
    {
      "inputs": [
        {
          "internalType": "string",
          "name": "_name",
          "type": "string"
        },
        {
          "internalType": "contract IERC20",
          "name": "_dao_token",
          "type": "address"
        }
      ],
      "stateMutability": "nonpayable",
      "type": "constructor"
    },
    {
      "inputs": [],
      "name": "dao_token",
      "outputs": [
        {
          "internalType": "contract IERC20",
          "name": "",
          "type": "address"
        }
      ],
      "stateMutability": "view",
      "type": "function"
    },
    {
      "inputs": [],
      "name": "name",
      "outputs": [
        {
          "internalType": "string",
          "name": "",
          "type": "string"
        }
      ],
      "stateMutability": "view",
      "type": "function"
    },
    {
      "inputs": [],
      "name": "pool",
      "outputs": [
        {
          "internalType": "contract Pool",
          "name": "",
          "type": "address"
        }
      ],
      "stateMutability": "view",
      "type": "function"
    },
    {
      "inputs": [],
      "name": "proposal_id",
      "outputs": [
        {
          "internalType": "uint256",
          "name": "",
          "type": "uint256"
        }
      ],
      "stateMutability": "view",
      "type": "function"
    },
    {
      "inputs": [
        {
          "internalType": "uint256",
          "name": "_amount",
          "type": "uint256"
        }
      ],
      "name": "stake",
      "outputs": [],
      "stateMutability": "nonpayable",
      "type": "function"
    },
    {
      "inputs": [
        {
          "internalType": "uint256",
          "name": "_amount",
          "type": "uint256"
        }
      ],
      "name": "claim",
      "outputs": [],
      "stateMutability": "nonpayable",
      "type": "function"
    },
    {
      "inputs": [
        {
          "internalType": "string",
          "name": "_title",
          "type": "string"
        },
        {
          "internalType": "string",
          "name": "_description",
          "type": "string"
        },
        {
          "internalType": "bytes",
          "name": "_tx_to_execute",
          "type": "bytes"
        }
      ],
      "name": "propose",
      "outputs": [],
      "stateMutability": "nonpayable",
      "type": "function"
    },
    {
      "inputs": [
        {
          "internalType": "uint256",
          "name": "_proposal_id",
          "type": "uint256"
        },
        {
          "internalType": "bool",
          "name": "_vote",
          "type": "bool"
        }
      ],
      "name": "vote",
      "outputs": [],
      "stateMutability": "nonpayable",
      "type": "function"
    },
    {
      "inputs": [
        {
          "internalType": "address",
          "name": "_asset_address",
          "type": "address"
        },
        {
          "internalType": "uint256",
          "name": "_asset_id",
          "type": "uint256"
        }
      ],
      "name": "add_asset",
      "outputs": [],
      "stateMutability": "nonpayable",
      "type": "function"
    },
    {
      "inputs": [
        {
          "internalType": "uint256",
          "name": "_asset_type",
          "type": "uint256"
        }
      ],
      "name": "get_asset",
      "outputs": [
        {
          "components": [
            {
              "internalType": "address",
              "name": "addr",
              "type": "address"
            },
            {
              "internalType": "uint256",
              "name": "id",
              "type": "uint256"
            }
          ],
          "internalType": "struct Dao.Asset[]",
          "name": "",
          "type": "tuple[]"
        }
      ],
      "stateMutability": "view",
      "type": "function"
    },
    {
      "inputs": [
        {
          "internalType": "address",
          "name": "operator",
          "type": "address"
        },
        {
          "internalType": "address",
          "name": "from",
          "type": "address"
        },
        {
          "internalType": "uint256",
          "name": "tokenId",
          "type": "uint256"
        },
        {
          "internalType": "bytes",
          "name": "data",
          "type": "bytes"
        }
      ],
      "name": "onERC721Received",
      "outputs": [
        {
          "internalType": "bytes4",
          "name": "",
          "type": "bytes4"
        }
      ],
      "stateMutability": "pure",
      "type": "function"
    }
  ],
  "bytecode": "0x60806040523480156200001157600080fd5b5060405162002558380380620025588339818101604052810190620000379190620001d1565b81600190805190602001906200004f92919062000098565b50806000806101000a81548173ffffffffffffffffffffffffffffffffffffffff021916908373ffffffffffffffffffffffffffffffffffffffff1602179055505050620003fd565b828054620000a69062000308565b90600052602060002090601f016020900481019282620000ca576000855562000116565b82601f10620000e557805160ff191683800117855562000116565b8280016001018555821562000116579182015b8281111562000115578251825591602001919060010190620000f8565b5b50905062000125919062000129565b5090565b5b80821115620001445760008160009055506001016200012a565b5090565b60006200015f620001598462000254565b6200022b565b9050828152602081018484840111156200017857600080fd5b62000185848285620002d2565b509392505050565b6000815190506200019e81620003e3565b92915050565b600082601f830112620001b657600080fd5b8151620001c884826020860162000148565b91505092915050565b60008060408385031215620001e557600080fd5b600083015167ffffffffffffffff8111156200020057600080fd5b6200020e85828601620001a4565b925050602062000221858286016200018d565b9150509250929050565b6000620002376200024a565b90506200024582826200033e565b919050565b6000604051905090565b600067ffffffffffffffff821115620002725762000271620003a3565b5b6200027d82620003d2565b9050602081019050919050565b60006200029782620002b2565b9050919050565b6000620002ab826200028a565b9050919050565b600073ffffffffffffffffffffffffffffffffffffffff82169050919050565b60005b83811015620002f2578082015181840152602081019050620002d5565b8381111562000302576000848401525b50505050565b600060028204905060018216806200032157607f821691505b6020821081141562000338576200033762000374565b5b50919050565b6200034982620003d2565b810181811067ffffffffffffffff821117156200036b576200036a620003a3565b5b80604052505050565b7f4e487b7100000000000000000000000000000000000000000000000000000000600052602260045260246000fd5b7f4e487b7100000000000000000000000000000000000000000000000000000000600052604160045260246000fd5b6000601f19601f8301169050919050565b620003ee816200029e565b8114620003fa57600080fd5b50565b61214b806200040d6000396000f3fe608060405234801561001057600080fd5b50600436106100a95760003560e01c8063379607f511610071578063379607f514610166578063528f9d5514610182578063688e1d31146101a0578063a694fc3a146101be578063c9d27afe146101da578063f8c0e00f146101f6576100a9565b806306fdde03146100ae5780630f9e4fb5146100cc57806310b1939f146100e8578063150b7a021461011857806316f0115b14610148575b600080fd5b6100b6610212565b6040516100c39190611b38565b60405180910390f35b6100e660048036038101906100e191906116c4565b6102a0565b005b61010260048036038101906100fd91906117c0565b61061a565b60405161010f9190611ac5565b60405180910390f35b610132600480360381019061012d9190611644565b6107be565b60405161013f9190611ae7565b60405180910390f35b6101506107d3565b60405161015d9190611b1d565b60405180910390f35b610180600480360381019061017b91906117c0565b6107f9565b005b61018a610a67565b6040516101979190611bda565b60405180910390f35b6101a8610a6d565b6040516101b59190611b02565b60405180910390f35b6101d860048036038101906101d391906117c0565b610a91565b005b6101f460048036038101906101ef9190611812565b610cfb565b005b610210600480360381019061020b9190611729565b610f3b565b005b6001805461021f90611eb0565b80601f016020809104026020016040519081016040528092919081815260200182805461024b90611eb0565b80156102985780601f1061026d57610100808354040283529160200191610298565b820191906000526020600020905b81548152906001019060200180831161027b57829003601f168201915b505050505081565b60001515600460000160008473ffffffffffffffffffffffffffffffffffffffff1673ffffffffffffffffffffffffffffffffffffffff168152602001908152602001600020600083815260200190815260200160002060009054906101000a900460ff16151514610347576040517f08c379a000000000000000000000000000000000000000000000000000000000815260040161033e90611b9a565b60405180910390fd5b600081146104fd5760008290503073ffffffffffffffffffffffffffffffffffffffff168173ffffffffffffffffffffffffffffffffffffffff16636352211e846040518263ffffffff1660e01b81526004016103a49190611bda565b60206040518083038186803b1580156103bc57600080fd5b505afa1580156103d0573d6000803e3d6000fd5b505050506040513d601f19601f820116820180604052508101906103f4919061161b565b73ffffffffffffffffffffffffffffffffffffffff16141561044b576040517f08c379a000000000000000000000000000000000000000000000000000000000815260040161044290611bba565b60405180910390fd5b600460010160405180604001604052808573ffffffffffffffffffffffffffffffffffffffff16815260200184815250908060018154018082558091505060019003906000526020600020906002020160009091909190915060008201518160000160006101000a81548173ffffffffffffffffffffffffffffffffffffffff021916908373ffffffffffffffffffffffffffffffffffffffff160217905550602082015181600101555050506105aa565b600460020160405180604001604052808473ffffffffffffffffffffffffffffffffffffffff16815260200183815250908060018154018082558091505060019003906000526020600020906002020160009091909190915060008201518160000160006101000a81548173ffffffffffffffffffffffffffffffffffffffff021916908373ffffffffffffffffffffffffffffffffffffffff1602179055506020820151816001015550505b6001600460000160008473ffffffffffffffffffffffffffffffffffffffff1673ffffffffffffffffffffffffffffffffffffffff168152602001908152602001600020600083815260200190815260200160002060006101000a81548160ff0219169083151502179055505050565b606060008214156106e7576004600101805480602002602001604051908101604052809291908181526020016000905b828210156106dc57838290600052602060002090600202016040518060400160405290816000820160009054906101000a900473ffffffffffffffffffffffffffffffffffffffff1673ffffffffffffffffffffffffffffffffffffffff1673ffffffffffffffffffffffffffffffffffffffff1681526020016001820154815250508152602001906001019061064a565b5050505090506107b9565b60018214156107b2576004600201805480602002602001604051908101604052809291908181526020016000905b828210156107a757838290600052602060002090600202016040518060400160405290816000820160009054906101000a900473ffffffffffffffffffffffffffffffffffffffff1673ffffffffffffffffffffffffffffffffffffffff1673ffffffffffffffffffffffffffffffffffffffff16815260200160018201548152505081526020019060010190610715565b5050505090506107b9565b6060809150505b919050565b600063150b7a0260e01b905095945050505050565b600360009054906101000a900473ffffffffffffffffffffffffffffffffffffffff1681565b6000600860003373ffffffffffffffffffffffffffffffffffffffff1673ffffffffffffffffffffffffffffffffffffffff168152602001908152602001600020549050818110156108f85760008054906101000a900473ffffffffffffffffffffffffffffffffffffffff1673ffffffffffffffffffffffffffffffffffffffff1663a9059cbb33836040518363ffffffff1660e01b81526004016108a0929190611a9c565b602060405180830381600087803b1580156108ba57600080fd5b505af11580156108ce573d6000803e3d6000fd5b505050506040513d601f19601f820116820180604052508101906108f29190611700565b50610a63565b818110156109b35760008054906101000a900473ffffffffffffffffffffffffffffffffffffffff1673ffffffffffffffffffffffffffffffffffffffff1663a9059cbb33836040518363ffffffff1660e01b815260040161095b929190611a9c565b602060405180830381600087803b15801561097557600080fd5b505af1158015610989573d6000803e3d6000fd5b505050506040513d601f19601f820116820180604052508101906109ad9190611700565b50610a62565b60008054906101000a900473ffffffffffffffffffffffffffffffffffffffff1673ffffffffffffffffffffffffffffffffffffffff1663a9059cbb33846040518363ffffffff1660e01b8152600401610a0e929190611a9c565b602060405180830381600087803b158015610a2857600080fd5b505af1158015610a3c573d6000803e3d6000fd5b505050506040513d601f19601f82011682018060405250810190610a609190611700565b505b5b5050565b60025481565b60008054906101000a900473ffffffffffffffffffffffffffffffffffffffff1681565b8060008054906101000a900473ffffffffffffffffffffffffffffffffffffffff1673ffffffffffffffffffffffffffffffffffffffff1663dd62ed3e33306040518363ffffffff1660e01b8152600401610aed929190611a3c565b60206040518083038186803b158015610b0557600080fd5b505afa158015610b19573d6000803e3d6000fd5b505050506040513d601f19601f82011682018060405250810190610b3d91906117e9565b1015610bf25760008054906101000a900473ffffffffffffffffffffffffffffffffffffffff1673ffffffffffffffffffffffffffffffffffffffff1663095ea7b330836040518363ffffffff1660e01b8152600401610b9e929190611a9c565b602060405180830381600087803b158015610bb857600080fd5b505af1158015610bcc573d6000803e3d6000fd5b505050506040513d601f19601f82011682018060405250810190610bf09190611700565b505b60008054906101000a900473ffffffffffffffffffffffffffffffffffffffff1673ffffffffffffffffffffffffffffffffffffffff166323b872dd3330846040518463ffffffff1660e01b8152600401610c4f93929190611a65565b602060405180830381600087803b158015610c6957600080fd5b505af1158015610c7d573d6000803e3d6000fd5b505050506040513d601f19601f82011682018060405250810190610ca19190611700565b5080600860003373ffffffffffffffffffffffffffffffffffffffff1673ffffffffffffffffffffffffffffffffffffffff1681526020019081526020016000206000828254610cf19190611cd1565b9250508190555050565b60008060009054906101000a900473ffffffffffffffffffffffffffffffffffffffff1673ffffffffffffffffffffffffffffffffffffffff166370a08231336040518263ffffffff1660e01b8152600401610d579190611a21565b60206040518083038186803b158015610d6f57600080fd5b505afa158015610d83573d6000803e3d6000fd5b505050506040513d601f19601f82011682018060405250810190610da791906117e9565b1415610de8576040517f08c379a0000000000000000000000000000000000000000000000000000000008152600401610ddf90611b5a565b60405180910390fd5b600115158115151415610e6657600860003373ffffffffffffffffffffffffffffffffffffffff1673ffffffffffffffffffffffffffffffffffffffff16815260200190815260200160002054600760008481526020019081526020016000206004016000828254610e5a9190611cd1565b92505081905550610ed3565b600860003373ffffffffffffffffffffffffffffffffffffffff1673ffffffffffffffffffffffffffffffffffffffff16815260200190815260200160002054600760008481526020019081526020016000206005016000828254610ecb9190611cd1565b925050819055505b600060076000848152602001908152602001600020600501546007600085815260200190815260200160002060040154610f0d9190611cd1565b905060076000848152602001908152602001600020600601548110610f3657610f3583611253565b5b505050565b60008060009054906101000a900473ffffffffffffffffffffffffffffffffffffffff1673ffffffffffffffffffffffffffffffffffffffff166370a08231336040518263ffffffff1660e01b8152600401610f979190611a21565b60206040518083038186803b158015610faf57600080fd5b505afa158015610fc3573d6000803e3d6000fd5b505050506040513d601f19601f82011682018060405250810190610fe791906117e9565b1415611028576040517f08c379a000000000000000000000000000000000000000000000000000000000815260040161101f90611b7a565b60405180910390fd5b60016002600082825461103b9190611cd1565b9250508190555060006040518060e0016040528060006002811115611089577f4e487b7100000000000000000000000000000000000000000000000000000000600052602160045260246000fd5b81526020018581526020018481526020018381526020016000815260200160008152602001600460008054906101000a900473ffffffffffffffffffffffffffffffffffffffff1673ffffffffffffffffffffffffffffffffffffffff166318160ddd6040518163ffffffff1660e01b815260040160206040518083038186803b15801561111657600080fd5b505afa15801561112a573d6000803e3d6000fd5b505050506040513d601f19601f8201168201806040525081019061114e91906117e9565b600361115a9190611d58565b6111649190611d27565b81525090508060076000600254815260200190815260200160002060008201518160000160006101000a81548160ff021916908360028111156111d0577f4e487b7100000000000000000000000000000000000000000000000000000000600052602160045260246000fd5b021790555060208201518160010190805190602001906111f192919061135a565b50604082015181600201908051906020019061120e92919061135a565b50606082015181600301908051906020019061122b9291906113e0565b506080820151816004015560a0820151816005015560c0820151816006015590505050505050565b6007600082815260200190815260200160002060050154600760008381526020019081526020016000206004015411156112f15760016007600083815260200190815260200160002060000160006101000a81548160ff021916908360028111156112e7577f4e487b7100000000000000000000000000000000000000000000000000000000600052602160045260246000fd5b0217905550611357565b60026007600083815260200190815260200160002060000160006101000a81548160ff02191690836002811115611351577f4e487b7100000000000000000000000000000000000000000000000000000000600052602160045260246000fd5b02179055505b50565b82805461136690611eb0565b90600052602060002090601f01602090048101928261138857600085556113cf565b82601f106113a157805160ff19168380011785556113cf565b828001600101855582156113cf579182015b828111156113ce5782518255916020019190600101906113b3565b5b5090506113dc9190611466565b5090565b8280546113ec90611eb0565b90600052602060002090601f01602090048101928261140e5760008555611455565b82601f1061142757805160ff1916838001178555611455565b82800160010185558215611455579182015b82811115611454578251825591602001919060010190611439565b5b5090506114629190611466565b5090565b5b8082111561147f576000816000905550600101611467565b5090565b600061149661149184611c1a565b611bf5565b9050828152602081018484840111156114ae57600080fd5b6114b9848285611e6e565b509392505050565b60006114d46114cf84611c4b565b611bf5565b9050828152602081018484840111156114ec57600080fd5b6114f7848285611e6e565b509392505050565b60008135905061150e816120d0565b92915050565b600081519050611523816120d0565b92915050565b600081359050611538816120e7565b92915050565b60008151905061154d816120e7565b92915050565b60008083601f84011261156557600080fd5b8235905067ffffffffffffffff81111561157e57600080fd5b60208301915083600182028301111561159657600080fd5b9250929050565b600082601f8301126115ae57600080fd5b81356115be848260208601611483565b91505092915050565b600082601f8301126115d857600080fd5b81356115e88482602086016114c1565b91505092915050565b600081359050611600816120fe565b92915050565b600081519050611615816120fe565b92915050565b60006020828403121561162d57600080fd5b600061163b84828501611514565b91505092915050565b60008060008060006080868803121561165c57600080fd5b600061166a888289016114ff565b955050602061167b888289016114ff565b945050604061168c888289016115f1565b935050606086013567ffffffffffffffff8111156116a957600080fd5b6116b588828901611553565b92509250509295509295909350565b600080604083850312156116d757600080fd5b60006116e5858286016114ff565b92505060206116f6858286016115f1565b9150509250929050565b60006020828403121561171257600080fd5b60006117208482850161153e565b91505092915050565b60008060006060848603121561173e57600080fd5b600084013567ffffffffffffffff81111561175857600080fd5b611764868287016115c7565b935050602084013567ffffffffffffffff81111561178157600080fd5b61178d868287016115c7565b925050604084013567ffffffffffffffff8111156117aa57600080fd5b6117b68682870161159d565b9150509250925092565b6000602082840312156117d257600080fd5b60006117e0848285016115f1565b91505092915050565b6000602082840312156117fb57600080fd5b600061180984828501611606565b91505092915050565b6000806040838503121561182557600080fd5b6000611833858286016115f1565b925050602061184485828601611529565b9150509250929050565b600061185a83836119d4565b60408301905092915050565b61186f81611db2565b82525050565b61187e81611db2565b82525050565b600061188f82611c8c565b6118998185611caf565b93506118a483611c7c565b8060005b838110156118d55781516118bc888261184e565b97506118c783611ca2565b9250506001810190506118a8565b5085935050505092915050565b6118eb81611dd0565b82525050565b6118fa81611e26565b82525050565b61190981611e4a565b82525050565b600061191a82611c97565b6119248185611cc0565b9350611934818560208601611e7d565b61193d81611fcf565b840191505092915050565b6000611955602b83611cc0565b915061196082611fe0565b604082019050919050565b6000611978603c83611cc0565b91506119838261202f565b604082019050919050565b600061199b601c83611cc0565b91506119a68261207e565b602082019050919050565b60006119be601783611cc0565b91506119c9826120a7565b602082019050919050565b6040820160008201516119ea6000850182611866565b5060208201516119fd6020850182611a03565b50505050565b611a0c81611e1c565b82525050565b611a1b81611e1c565b82525050565b6000602082019050611a366000830184611875565b92915050565b6000604082019050611a516000830185611875565b611a5e6020830184611875565b9392505050565b6000606082019050611a7a6000830186611875565b611a876020830185611875565b611a946040830184611a12565b949350505050565b6000604082019050611ab16000830185611875565b611abe6020830184611a12565b9392505050565b60006020820190508181036000830152611adf8184611884565b905092915050565b6000602082019050611afc60008301846118e2565b92915050565b6000602082019050611b1760008301846118f1565b92915050565b6000602082019050611b326000830184611900565b92915050565b60006020820190508181036000830152611b52818461190f565b905092915050565b60006020820190508181036000830152611b7381611948565b9050919050565b60006020820190508181036000830152611b938161196b565b9050919050565b60006020820190508181036000830152611bb38161198e565b9050919050565b60006020820190508181036000830152611bd3816119b1565b9050919050565b6000602082019050611bef6000830184611a12565b92915050565b6000611bff611c10565b9050611c0b8282611ee2565b919050565b6000604051905090565b600067ffffffffffffffff821115611c3557611c34611fa0565b5b611c3e82611fcf565b9050602081019050919050565b600067ffffffffffffffff821115611c6657611c65611fa0565b5b611c6f82611fcf565b9050602081019050919050565b6000819050602082019050919050565b600081519050919050565b600081519050919050565b6000602082019050919050565b600082825260208201905092915050565b600082825260208201905092915050565b6000611cdc82611e1c565b9150611ce783611e1c565b9250827fffffffffffffffffffffffffffffffffffffffffffffffffffffffffffffffff03821115611d1c57611d1b611f13565b5b828201905092915050565b6000611d3282611e1c565b9150611d3d83611e1c565b925082611d4d57611d4c611f42565b5b828204905092915050565b6000611d6382611e1c565b9150611d6e83611e1c565b9250817fffffffffffffffffffffffffffffffffffffffffffffffffffffffffffffffff0483118215151615611da757611da6611f13565b5b828202905092915050565b6000611dbd82611dfc565b9050919050565b60008115159050919050565b60007fffffffff0000000000000000000000000000000000000000000000000000000082169050919050565b600073ffffffffffffffffffffffffffffffffffffffff82169050919050565b6000819050919050565b6000611e3182611e38565b9050919050565b6000611e4382611dfc565b9050919050565b6000611e5582611e5c565b9050919050565b6000611e6782611dfc565b9050919050565b82818337600083830152505050565b60005b83811015611e9b578082015181840152602081019050611e80565b83811115611eaa576000848401525b50505050565b60006002820490506001821680611ec857607f821691505b60208210811415611edc57611edb611f71565b5b50919050565b611eeb82611fcf565b810181811067ffffffffffffffff82111715611f0a57611f09611fa0565b5b80604052505050565b7f4e487b7100000000000000000000000000000000000000000000000000000000600052601160045260246000fd5b7f4e487b7100000000000000000000000000000000000000000000000000000000600052601260045260246000fd5b7f4e487b7100000000000000000000000000000000000000000000000000000000600052602260045260246000fd5b7f4e487b7100000000000000000000000000000000000000000000000000000000600052604160045260246000fd5b6000601f19601f8301169050919050565b7f506c65617365207374616b6520796f757220676f7665726e616e636520746f6b60008201527f656e7320746f20766f7465000000000000000000000000000000000000000000602082015250565b7f506c65617365207374616b6520796f757220676f7665726e616e636520746f6b60008201527f656e7320746f206372656174652061206e65772070726f706f73616c00000000602082015250565b7f5468697320617373657420697320616c7265616479206c6f636b656400000000600082015250565b7f546869732061737365742069736e2774206c6f636b6564000000000000000000600082015250565b6120d981611db2565b81146120e457600080fd5b50565b6120f081611dc4565b81146120fb57600080fd5b50565b61210781611e1c565b811461211257600080fd5b5056fea26469706673582212209cf0324afc99659533d28313481be1e18f81ad26bcb6bd08f354eaa6c93d815e64736f6c63430008040033",
  "immutableReferences": {},
  "source": "pragma solidity ^0.8.0;\nimport \"@openzeppelin/contracts/token/ERC20/IERC20.sol\";\nimport \"@openzeppelin/contracts/token/ERC721/IERC721.sol\";\nimport \"@openzeppelin/contracts/token/ERC721/IERC721Receiver.sol\";\nimport \"./Pool.sol\";\n\ncontract Dao is IERC721Receiver {\n\n    IERC20 public dao_token;\n    string public name;\n    uint public proposal_id;\n    Pool public pool;\n\n    enum proposal_status{ ACTIVE, PASSED, FAILED }\n\n    struct Proposal {\n        proposal_status status;\n        string title;\n        string description;\n        bytes tx;  // Transaction to be executed when proposal passes\n        uint votes_for;  // Amount of \"For\" votes\n        uint votes_against;  // Amount of \"Against\" votes\n        uint threshold;  // Amount of voting power which took a part in voting process for the proposal to be closed\n    }\n\n    struct Asset {\n        address addr;  // Address of stored asset\n        uint id;  // Should be zero for ERC20 and non-zero for ERC721\n    }\n\n    struct Vault {\n        mapping(address => mapping(uint => bool)) asset_locked;\n        Asset[] erc721;  // Locked NFTs\n        Asset[] erc20;  // Locked ERC20\n    }\n\n    Vault vault;\n    mapping(uint => Proposal) proposals;  // All proposals by their ids\n    mapping(address => uint) stakes;  // Staked voting power: user => amount\n\n    constructor(string memory _name,\n                IERC20 _dao_token) {\n        name = _name;\n        dao_token = _dao_token;\n    }\n\n    function stake(uint _amount) public {\n        if (dao_token.allowance(msg.sender, address(this)) < _amount) {\n            dao_token.approve(address(this), _amount);\n        }\n        dao_token.transferFrom(msg.sender, address(this), _amount);\n        stakes[msg.sender] += _amount;\n    }\n\n    function claim(uint _amount) public {  // 50\n        uint user_stake = stakes[msg.sender];  // 2\n        if (user_stake < _amount) {  // 2*50 < 50\n            dao_token.transfer(msg.sender, user_stake);\n        } else {\n            if (user_stake < _amount) {\n                dao_token.transfer(msg.sender, user_stake);\n            } else {\n                dao_token.transfer(msg.sender, _amount);\n            }\n        }\n    }\n\n    function propose(string memory _title, string memory _description, bytes memory _tx_to_execute) public {\n        require(dao_token.balanceOf(msg.sender) != 0, \"Please stake your governance tokens to create a new proposal\");\n        proposal_id += 1;\n        Proposal memory proposal = Proposal(proposal_status.ACTIVE,\n                                            _title,\n                                            _description,\n                                            _tx_to_execute,\n                                            0, 0,\n                                            (3*dao_token.totalSupply())/4);\n        proposals[proposal_id] = proposal;\n    }\n\n    function vote(uint _proposal_id, bool _vote) public {  // vote: true - \"For\", false - \"Against\"\n        require(dao_token.balanceOf(msg.sender) != 0, \"Please stake your governance tokens to vote\");\n        if (_vote == true) {\n            proposals[_proposal_id].votes_for += stakes[msg.sender];\n        } else {\n            proposals[_proposal_id].votes_against += stakes[msg.sender];\n        }\n        uint total_votes = proposals[_proposal_id].votes_for + proposals[_proposal_id].votes_against;\n        if (total_votes >= proposals[_proposal_id].threshold) {\n            outcome(_proposal_id);\n        }\n    }\n\n    function outcome(uint _proposal_id) internal {\n        if (proposals[_proposal_id].votes_for > proposals[_proposal_id].votes_against) {\n            proposals[_proposal_id].status = proposal_status.PASSED;\n        } else {\n        proposals[_proposal_id].status = proposal_status.FAILED;\n        }\n    }\n\n    function add_asset(address _asset_address, uint _asset_id) public {  // Check struct Asset for details\n        require(vault.asset_locked[_asset_address][_asset_id] == false, \"This asset is already locked\");\n        if (_asset_id != 0) {  // NFT\n            IERC721 asset = IERC721(_asset_address);\n            require(asset.ownerOf(_asset_id) != address(this), \"This asset isn't locked\");\n            vault.erc721.push(Asset(_asset_address, _asset_id));\n        } else {  // ERC20\n            vault.erc20.push(Asset(_asset_address, _asset_id));\n        }\n        vault.asset_locked[_asset_address][_asset_id] = true;\n    }\n\n    function get_asset(uint _asset_type) public view returns(Asset[] memory) {\n        /*\n        Get locked assets. UI should iterate over them checking the owner is this DAO\n        _asset_type: 0 - \"erc721\" / 1 - \"erc20\"\n        */\n        if (_asset_type == 0) {\n            return vault.erc721;\n        } else {\n            if (_asset_type == 1) {\n                return vault.erc20;\n            }\n        }\n        Asset[] memory empty;\n        return empty;\n    }\n\n    function onERC721Received(address operator,\n                              address from,\n                              uint256 tokenId,\n                              bytes calldata data) public pure override returns (bytes4) {\n        return this.onERC721Received.selector;\n    }\n\n}\n",
  "sourcePath": "/Users/y.sosunov/git/definition-hackathon/onchain/contracts/Dao.sol",
  "compiler": {
    "name": "solc",
    "version": "0.8.4+commit.c7e474f2.Emscripten.clang"
  },
  "schemaVersion": "3.3.4",
  "updatedAt": "2021-09-25T15:13:59.793Z",
  "devdoc": {
    "kind": "dev",
    "methods": {
      "onERC721Received(address,address,uint256,bytes)": {
        "details": "Whenever an {IERC721} `tokenId` token is transferred to this contract via {IERC721-safeTransferFrom} by `operator` from `from`, this function is called. It must return its Solidity selector to confirm the token transfer. If any other value is returned or the interface is not implemented by the recipient, the transfer will be reverted. The selector can be obtained in Solidity with `IERC721.onERC721Received.selector`."
      }
    },
    "version": 1
  },
  "userdoc": {
    "kind": "user",
    "methods": {},
    "version": 1
  }
}