{
  "contractName": "Dao",
  "abi": [
    {
      "inputs": [
        {
          "internalType": "string",
          "name": "_name",
          "type": "string"
        },
        {
          "internalType": "contract IERC20",
          "name": "_dao_token",
          "type": "address"
        }
      ],
      "stateMutability": "nonpayable",
      "type": "constructor"
    },
    {
      "inputs": [],
      "name": "dao_token",
      "outputs": [
        {
          "internalType": "contract IERC20",
          "name": "",
          "type": "address"
        }
      ],
      "stateMutability": "view",
      "type": "function"
    },
    {
      "inputs": [],
      "name": "name",
      "outputs": [
        {
          "internalType": "string",
          "name": "",
          "type": "string"
        }
      ],
      "stateMutability": "view",
      "type": "function"
    },
    {
      "inputs": [],
      "name": "proposal_id",
      "outputs": [
        {
          "internalType": "uint256",
          "name": "",
          "type": "uint256"
        }
      ],
      "stateMutability": "view",
      "type": "function"
    },
    {
      "inputs": [
        {
          "internalType": "uint256",
          "name": "_amount",
          "type": "uint256"
        }
      ],
      "name": "stake",
      "outputs": [],
      "stateMutability": "nonpayable",
      "type": "function"
    },
    {
      "inputs": [
        {
          "internalType": "uint256",
          "name": "_amount",
          "type": "uint256"
        }
      ],
      "name": "claim",
      "outputs": [],
      "stateMutability": "nonpayable",
      "type": "function"
    },
    {
      "inputs": [
        {
          "internalType": "string",
          "name": "_title",
          "type": "string"
        },
        {
          "internalType": "string",
          "name": "_description",
          "type": "string"
        },
        {
          "internalType": "bytes",
          "name": "_tx_to_execute",
          "type": "bytes"
        }
      ],
      "name": "propose_tx",
      "outputs": [],
      "stateMutability": "nonpayable",
      "type": "function"
    },
    {
      "inputs": [
        {
          "internalType": "string",
          "name": "_title",
          "type": "string"
        },
        {
          "internalType": "string",
          "name": "_description",
          "type": "string"
        },
        {
          "internalType": "contract IERC721",
          "name": "_asset_address",
          "type": "address"
        },
        {
          "internalType": "uint256",
          "name": "_asset_id",
          "type": "uint256"
        }
      ],
      "name": "propose_sell",
      "outputs": [],
      "stateMutability": "nonpayable",
      "type": "function"
    },
    {
      "inputs": [
        {
          "internalType": "uint256",
          "name": "_proposal_id",
          "type": "uint256"
        }
      ],
      "name": "get_proposal",
      "outputs": [
        {
          "components": [
            {
              "internalType": "enum Dao.proposal_status",
              "name": "status",
              "type": "uint8"
            },
            {
              "internalType": "string",
              "name": "title",
              "type": "string"
            },
            {
              "internalType": "string",
              "name": "description",
              "type": "string"
            },
            {
              "internalType": "bytes",
              "name": "tx",
              "type": "bytes"
            },
            {
              "components": [
                {
                  "internalType": "address",
                  "name": "addr",
                  "type": "address"
                },
                {
                  "internalType": "uint256",
                  "name": "id",
                  "type": "uint256"
                }
              ],
              "internalType": "struct Dao.Asset",
              "name": "asset",
              "type": "tuple"
            },
            {
              "internalType": "uint256",
              "name": "votes_for",
              "type": "uint256"
            },
            {
              "internalType": "uint256",
              "name": "votes_against",
              "type": "uint256"
            },
            {
              "internalType": "uint256",
              "name": "threshold",
              "type": "uint256"
            }
          ],
          "internalType": "struct Dao.Proposal",
          "name": "",
          "type": "tuple"
        }
      ],
      "stateMutability": "view",
      "type": "function"
    },
    {
      "inputs": [
        {
          "internalType": "uint256",
          "name": "_proposal_id",
          "type": "uint256"
        },
        {
          "internalType": "bool",
          "name": "_vote",
          "type": "bool"
        }
      ],
      "name": "vote",
      "outputs": [],
      "stateMutability": "nonpayable",
      "type": "function"
    },
    {
      "inputs": [
        {
          "internalType": "uint256",
          "name": "_proposal_id",
          "type": "uint256"
        }
      ],
      "name": "votes_distribution",
      "outputs": [
        {
          "internalType": "uint256[2]",
          "name": "",
          "type": "uint256[2]"
        }
      ],
      "stateMutability": "view",
      "type": "function"
    },
    {
      "inputs": [
        {
          "internalType": "address",
          "name": "_asset_address",
          "type": "address"
        },
        {
          "internalType": "uint256",
          "name": "_asset_id",
          "type": "uint256"
        }
      ],
      "name": "add_asset",
      "outputs": [],
      "stateMutability": "nonpayable",
      "type": "function"
    },
    {
      "inputs": [
        {
          "internalType": "uint256",
          "name": "_asset_type",
          "type": "uint256"
        }
      ],
      "name": "get_asset",
      "outputs": [
        {
          "components": [
            {
              "internalType": "address",
              "name": "addr",
              "type": "address"
            },
            {
              "internalType": "uint256",
              "name": "id",
              "type": "uint256"
            }
          ],
          "internalType": "struct Dao.Asset[]",
          "name": "",
          "type": "tuple[]"
        }
      ],
      "stateMutability": "view",
      "type": "function"
    },
    {
      "inputs": [
        {
          "internalType": "address",
          "name": "operator",
          "type": "address"
        },
        {
          "internalType": "address",
          "name": "from",
          "type": "address"
        },
        {
          "internalType": "uint256",
          "name": "tokenId",
          "type": "uint256"
        },
        {
          "internalType": "bytes",
          "name": "data",
          "type": "bytes"
        }
      ],
      "name": "onERC721Received",
      "outputs": [
        {
          "internalType": "bytes4",
          "name": "",
          "type": "bytes4"
        }
      ],
      "stateMutability": "pure",
      "type": "function"
    }
  ],
  "bytecode": "0x60806040523480156200001157600080fd5b5060405162003059380380620030598339818101604052810190620000379190620001d1565b81600190805190602001906200004f92919062000098565b50806000806101000a81548173ffffffffffffffffffffffffffffffffffffffff021916908373ffffffffffffffffffffffffffffffffffffffff1602179055505050620003fd565b828054620000a69062000308565b90600052602060002090601f016020900481019282620000ca576000855562000116565b82601f10620000e557805160ff191683800117855562000116565b8280016001018555821562000116579182015b8281111562000115578251825591602001919060010190620000f8565b5b50905062000125919062000129565b5090565b5b80821115620001445760008160009055506001016200012a565b5090565b60006200015f620001598462000254565b6200022b565b9050828152602081018484840111156200017857600080fd5b62000185848285620002d2565b509392505050565b6000815190506200019e81620003e3565b92915050565b600082601f830112620001b657600080fd5b8151620001c884826020860162000148565b91505092915050565b60008060408385031215620001e557600080fd5b600083015167ffffffffffffffff8111156200020057600080fd5b6200020e85828601620001a4565b925050602062000221858286016200018d565b9150509250929050565b6000620002376200024a565b90506200024582826200033e565b919050565b6000604051905090565b600067ffffffffffffffff821115620002725762000271620003a3565b5b6200027d82620003d2565b9050602081019050919050565b60006200029782620002b2565b9050919050565b6000620002ab826200028a565b9050919050565b600073ffffffffffffffffffffffffffffffffffffffff82169050919050565b60005b83811015620002f2578082015181840152602081019050620002d5565b8381111562000302576000848401525b50505050565b600060028204905060018216806200032157607f821691505b6020821081141562000338576200033762000374565b5b50919050565b6200034982620003d2565b810181811067ffffffffffffffff821117156200036b576200036a620003a3565b5b80604052505050565b7f4e487b7100000000000000000000000000000000000000000000000000000000600052602260045260246000fd5b7f4e487b7100000000000000000000000000000000000000000000000000000000600052604160045260246000fd5b6000601f19601f8301169050919050565b620003ee816200029e565b8114620003fa57600080fd5b50565b612c4c806200040d6000396000f3fe608060405234801561001057600080fd5b50600436106100cf5760003560e01c80633eda52001161008c578063a694fc3a11610066578063a694fc3a14610226578063c9d27afe14610242578063e4dd26cf1461025e578063e9a4b6911461027a576100cf565b80633eda5200146101ba578063528f9d55146101ea578063688e1d3114610208576100cf565b806306fdde03146100d45780630f9e4fb5146100f257806310b1939f1461010e578063150b7a021461013e57806317eb2f091461016e578063379607f51461019e575b600080fd5b6100dc610296565b6040516100e99190612550565b60405180910390f35b61010c60048036038101906101079190611ea9565b610324565b005b61012860048036038101906101239190612038565b61069d565b60405161013591906124dd565b60405180910390f35b61015860048036038101906101539190611e29565b610841565b604051610165919061251a565b60405180910390f35b61018860048036038101906101839190612038565b610856565b60405161019591906124ff565b60405180910390f35b6101b860048036038101906101b39190612038565b6108a6565b005b6101d460048036038101906101cf9190612038565b610b14565b6040516101e191906125f2565b60405180910390f35b6101f2610e11565b6040516101ff9190612614565b60405180910390f35b610210610e17565b60405161021d9190612535565b60405180910390f35b610240600480360381019061023b9190612038565b610e3b565b005b61025c6004803603810190610257919061208a565b6110a5565b005b61027860048036038101906102739190611f0e565b6112e5565b005b610294600480360381019061028f9190611fa5565b61168c565b005b600180546102a390612957565b80601f01602080910402602001604051908101604052809291908181526020018280546102cf90612957565b801561031c5780601f106102f15761010080835404028352916020019161031c565b820191906000526020600020905b8154815290600101906020018083116102ff57829003601f168201915b505050505081565b60001515600360000160008473ffffffffffffffffffffffffffffffffffffffff1673ffffffffffffffffffffffffffffffffffffffff168152602001908152602001600020600083815260200190815260200160002060009054906101000a900460ff161515146103cb576040517f08c379a00000000000000000000000000000000000000000000000000000000081526004016103c2906125b2565b60405180910390fd5b600081146105805760008290503073ffffffffffffffffffffffffffffffffffffffff168173ffffffffffffffffffffffffffffffffffffffff16636352211e846040518263ffffffff1660e01b81526004016104289190612614565b60206040518083038186803b15801561044057600080fd5b505afa158015610454573d6000803e3d6000fd5b505050506040513d601f19601f820116820180604052508101906104789190611e00565b73ffffffffffffffffffffffffffffffffffffffff16146104ce576040517f08c379a00000000000000000000000000000000000000000000000000000000081526004016104c5906125d2565b60405180910390fd5b600360010160405180604001604052808573ffffffffffffffffffffffffffffffffffffffff16815260200184815250908060018154018082558091505060019003906000526020600020906002020160009091909190915060008201518160000160006101000a81548173ffffffffffffffffffffffffffffffffffffffff021916908373ffffffffffffffffffffffffffffffffffffffff1602179055506020820151816001015550505061062d565b600360020160405180604001604052808473ffffffffffffffffffffffffffffffffffffffff16815260200183815250908060018154018082558091505060019003906000526020600020906002020160009091909190915060008201518160000160006101000a81548173ffffffffffffffffffffffffffffffffffffffff021916908373ffffffffffffffffffffffffffffffffffffffff1602179055506020820151816001015550505b6001600360000160008473ffffffffffffffffffffffffffffffffffffffff1673ffffffffffffffffffffffffffffffffffffffff168152602001908152602001600020600083815260200190815260200160002060006101000a81548160ff0219169083151502179055505050565b6060600082141561076a576003600101805480602002602001604051908101604052809291908181526020016000905b8282101561075f57838290600052602060002090600202016040518060400160405290816000820160009054906101000a900473ffffffffffffffffffffffffffffffffffffffff1673ffffffffffffffffffffffffffffffffffffffff1673ffffffffffffffffffffffffffffffffffffffff168152602001600182015481525050815260200190600101906106cd565b50505050905061083c565b6001821415610835576003600201805480602002602001604051908101604052809291908181526020016000905b8282101561082a57838290600052602060002090600202016040518060400160405290816000820160009054906101000a900473ffffffffffffffffffffffffffffffffffffffff1673ffffffffffffffffffffffffffffffffffffffff1673ffffffffffffffffffffffffffffffffffffffff16815260200160018201548152505081526020019060010190610798565b50505050905061083c565b6060809150505b919050565b600063150b7a0260e01b905095945050505050565b61085e611a55565b60405180604001604052806006600085815260200190815260200160002060060154815260200160066000858152602001908152602001600020600701548152509050919050565b6000600760003373ffffffffffffffffffffffffffffffffffffffff1673ffffffffffffffffffffffffffffffffffffffff168152602001908152602001600020549050818110156109a55760008054906101000a900473ffffffffffffffffffffffffffffffffffffffff1673ffffffffffffffffffffffffffffffffffffffff1663a9059cbb33836040518363ffffffff1660e01b815260040161094d9291906124b4565b602060405180830381600087803b15801561096757600080fd5b505af115801561097b573d6000803e3d6000fd5b505050506040513d601f19601f8201168201806040525081019061099f9190611ee5565b50610b10565b81811015610a605760008054906101000a900473ffffffffffffffffffffffffffffffffffffffff1673ffffffffffffffffffffffffffffffffffffffff1663a9059cbb33836040518363ffffffff1660e01b8152600401610a089291906124b4565b602060405180830381600087803b158015610a2257600080fd5b505af1158015610a36573d6000803e3d6000fd5b505050506040513d601f19601f82011682018060405250810190610a5a9190611ee5565b50610b0f565b60008054906101000a900473ffffffffffffffffffffffffffffffffffffffff1673ffffffffffffffffffffffffffffffffffffffff1663a9059cbb33846040518363ffffffff1660e01b8152600401610abb9291906124b4565b602060405180830381600087803b158015610ad557600080fd5b505af1158015610ae9573d6000803e3d6000fd5b505050506040513d601f19601f82011682018060405250810190610b0d9190611ee5565b505b5b5050565b610b1c611a77565b60066000838152602001908152602001600020604051806101000160405290816000820160009054906101000a900460ff166002811115610b86577f4e487b7100000000000000000000000000000000000000000000000000000000600052602160045260246000fd5b6002811115610bbe577f4e487b7100000000000000000000000000000000000000000000000000000000600052602160045260246000fd5b8152602001600182018054610bd290612957565b80601f0160208091040260200160405190810160405280929190818152602001828054610bfe90612957565b8015610c4b5780601f10610c2057610100808354040283529160200191610c4b565b820191906000526020600020905b815481529060010190602001808311610c2e57829003601f168201915b50505050508152602001600282018054610c6490612957565b80601f0160208091040260200160405190810160405280929190818152602001828054610c9090612957565b8015610cdd5780601f10610cb257610100808354040283529160200191610cdd565b820191906000526020600020905b815481529060010190602001808311610cc057829003601f168201915b50505050508152602001600382018054610cf690612957565b80601f0160208091040260200160405190810160405280929190818152602001828054610d2290612957565b8015610d6f5780601f10610d4457610100808354040283529160200191610d6f565b820191906000526020600020905b815481529060010190602001808311610d5257829003601f168201915b50505050508152602001600482016040518060400160405290816000820160009054906101000a900473ffffffffffffffffffffffffffffffffffffffff1673ffffffffffffffffffffffffffffffffffffffff1673ffffffffffffffffffffffffffffffffffffffff168152602001600182015481525050815260200160068201548152602001600782015481526020016008820154815250509050919050565b60025481565b60008054906101000a900473ffffffffffffffffffffffffffffffffffffffff1681565b8060008054906101000a900473ffffffffffffffffffffffffffffffffffffffff1673ffffffffffffffffffffffffffffffffffffffff1663dd62ed3e33306040518363ffffffff1660e01b8152600401610e97929190612454565b60206040518083038186803b158015610eaf57600080fd5b505afa158015610ec3573d6000803e3d6000fd5b505050506040513d601f19601f82011682018060405250810190610ee79190612061565b1015610f9c5760008054906101000a900473ffffffffffffffffffffffffffffffffffffffff1673ffffffffffffffffffffffffffffffffffffffff1663095ea7b330836040518363ffffffff1660e01b8152600401610f489291906124b4565b602060405180830381600087803b158015610f6257600080fd5b505af1158015610f76573d6000803e3d6000fd5b505050506040513d601f19601f82011682018060405250810190610f9a9190611ee5565b505b60008054906101000a900473ffffffffffffffffffffffffffffffffffffffff1673ffffffffffffffffffffffffffffffffffffffff166323b872dd3330846040518463ffffffff1660e01b8152600401610ff99392919061247d565b602060405180830381600087803b15801561101357600080fd5b505af1158015611027573d6000803e3d6000fd5b505050506040513d601f19601f8201168201806040525081019061104b9190611ee5565b5080600760003373ffffffffffffffffffffffffffffffffffffffff1673ffffffffffffffffffffffffffffffffffffffff168152602001908152602001600020600082825461109b9190612765565b9250508190555050565b60008060009054906101000a900473ffffffffffffffffffffffffffffffffffffffff1673ffffffffffffffffffffffffffffffffffffffff166370a08231336040518263ffffffff1660e01b81526004016111019190612439565b60206040518083038186803b15801561111957600080fd5b505afa15801561112d573d6000803e3d6000fd5b505050506040513d601f19601f820116820180604052508101906111519190612061565b1415611192576040517f08c379a000000000000000000000000000000000000000000000000000000000815260040161118990612572565b60405180910390fd5b60011515811515141561121057600760003373ffffffffffffffffffffffffffffffffffffffff1673ffffffffffffffffffffffffffffffffffffffff168152602001908152602001600020546006600084815260200190815260200160002060060160008282546112049190612765565b9250508190555061127d565b600760003373ffffffffffffffffffffffffffffffffffffffff1673ffffffffffffffffffffffffffffffffffffffff168152602001908152602001600020546006600084815260200190815260200160002060070160008282546112759190612765565b925050819055505b6000600660008481526020019081526020016000206007015460066000858152602001908152602001600020600601546112b79190612765565b9050600660008481526020019081526020016000206008015481106112e0576112df8361194e565b5b505050565b60008060009054906101000a900473ffffffffffffffffffffffffffffffffffffffff1673ffffffffffffffffffffffffffffffffffffffff166370a08231336040518263ffffffff1660e01b81526004016113419190612439565b60206040518083038186803b15801561135957600080fd5b505afa15801561136d573d6000803e3d6000fd5b505050506040513d601f19601f820116820180604052508101906113919190612061565b14156113d2576040517f08c379a00000000000000000000000000000000000000000000000000000000081526004016113c990612592565b60405180910390fd5b6001600260008282546113e59190612765565b92505081905550600060405180610100016040528060006002811115611434577f4e487b7100000000000000000000000000000000000000000000000000000000600052602160045260246000fd5b81526020018581526020018481526020018381526020016040518060400160405280600073ffffffffffffffffffffffffffffffffffffffff168152602001600081525081526020016000815260200160008152602001600460008054906101000a900473ffffffffffffffffffffffffffffffffffffffff1673ffffffffffffffffffffffffffffffffffffffff166318160ddd6040518163ffffffff1660e01b815260040160206040518083038186803b1580156114f357600080fd5b505afa158015611507573d6000803e3d6000fd5b505050506040513d601f19601f8201168201806040525081019061152b9190612061565b600361153791906127ec565b61154191906127bb565b81525090508060066000600254815260200190815260200160002060008201518160000160006101000a81548160ff021916908360028111156115ad577f4e487b7100000000000000000000000000000000000000000000000000000000600052602160045260246000fd5b021790555060208201518160010190805190602001906115ce929190611afa565b5060408201518160020190805190602001906115eb929190611afa565b506060820151816003019080519060200190611608929190611b80565b5060808201518160040160008201518160000160006101000a81548173ffffffffffffffffffffffffffffffffffffffff021916908373ffffffffffffffffffffffffffffffffffffffff16021790555060208201518160010155505060a0820151816006015560c0820151816007015560e0820151816008015590505050505050565b60016002600082825461169f9190612765565b925050819055506060600060405180604001604052808573ffffffffffffffffffffffffffffffffffffffff16815260200184815250905060006040518061010001604052806000600281111561171f577f4e487b7100000000000000000000000000000000000000000000000000000000600052602160045260246000fd5b81526020018881526020018781526020018481526020018381526020016000815260200160008152602001600460008054906101000a900473ffffffffffffffffffffffffffffffffffffffff1673ffffffffffffffffffffffffffffffffffffffff166318160ddd6040518163ffffffff1660e01b815260040160206040518083038186803b1580156117b257600080fd5b505afa1580156117c6573d6000803e3d6000fd5b505050506040513d601f19601f820116820180604052508101906117ea9190612061565b60036117f691906127ec565b61180091906127bb565b81525090508060066000600254815260200190815260200160002060008201518160000160006101000a81548160ff0219169083600281111561186c577f4e487b7100000000000000000000000000000000000000000000000000000000600052602160045260246000fd5b0217905550602082015181600101908051906020019061188d929190611afa565b5060408201518160020190805190602001906118aa929190611afa565b5060608201518160030190805190602001906118c7929190611b80565b5060808201518160040160008201518160000160006101000a81548173ffffffffffffffffffffffffffffffffffffffff021916908373ffffffffffffffffffffffffffffffffffffffff16021790555060208201518160010155505060a0820151816006015560c0820151816007015560e0820151816008015590505050505050505050565b6006600082815260200190815260200160002060070154600660008381526020019081526020016000206006015411156119ec5760016006600083815260200190815260200160002060000160006101000a81548160ff021916908360028111156119e2577f4e487b7100000000000000000000000000000000000000000000000000000000600052602160045260246000fd5b0217905550611a52565b60026006600083815260200190815260200160002060000160006101000a81548160ff02191690836002811115611a4c577f4e487b7100000000000000000000000000000000000000000000000000000000600052602160045260246000fd5b02179055505b50565b6040518060400160405280600290602082028036833780820191505090505090565b60405180610100016040528060006002811115611abd577f4e487b7100000000000000000000000000000000000000000000000000000000600052602160045260246000fd5b8152602001606081526020016060815260200160608152602001611adf611c06565b81526020016000815260200160008152602001600081525090565b828054611b0690612957565b90600052602060002090601f016020900481019282611b285760008555611b6f565b82601f10611b4157805160ff1916838001178555611b6f565b82800160010185558215611b6f579182015b82811115611b6e578251825591602001919060010190611b53565b5b509050611b7c9190611c36565b5090565b828054611b8c90612957565b90600052602060002090601f016020900481019282611bae5760008555611bf5565b82601f10611bc757805160ff1916838001178555611bf5565b82800160010185558215611bf5579182015b82811115611bf4578251825591602001919060010190611bd9565b5b509050611c029190611c36565b5090565b6040518060400160405280600073ffffffffffffffffffffffffffffffffffffffff168152602001600081525090565b5b80821115611c4f576000816000905550600101611c37565b5090565b6000611c66611c6184612654565b61262f565b905082815260208101848484011115611c7e57600080fd5b611c89848285612915565b509392505050565b6000611ca4611c9f84612685565b61262f565b905082815260208101848484011115611cbc57600080fd5b611cc7848285612915565b509392505050565b600081359050611cde81612bba565b92915050565b600081519050611cf381612bba565b92915050565b600081359050611d0881612bd1565b92915050565b600081519050611d1d81612bd1565b92915050565b60008083601f840112611d3557600080fd5b8235905067ffffffffffffffff811115611d4e57600080fd5b602083019150836001820283011115611d6657600080fd5b9250929050565b600082601f830112611d7e57600080fd5b8135611d8e848260208601611c53565b91505092915050565b600081359050611da681612be8565b92915050565b600082601f830112611dbd57600080fd5b8135611dcd848260208601611c91565b91505092915050565b600081359050611de581612bff565b92915050565b600081519050611dfa81612bff565b92915050565b600060208284031215611e1257600080fd5b6000611e2084828501611ce4565b91505092915050565b600080600080600060808688031215611e4157600080fd5b6000611e4f88828901611ccf565b9550506020611e6088828901611ccf565b9450506040611e7188828901611dd6565b935050606086013567ffffffffffffffff811115611e8e57600080fd5b611e9a88828901611d23565b92509250509295509295909350565b60008060408385031215611ebc57600080fd5b6000611eca85828601611ccf565b9250506020611edb85828601611dd6565b9150509250929050565b600060208284031215611ef757600080fd5b6000611f0584828501611d0e565b91505092915050565b600080600060608486031215611f2357600080fd5b600084013567ffffffffffffffff811115611f3d57600080fd5b611f4986828701611dac565b935050602084013567ffffffffffffffff811115611f6657600080fd5b611f7286828701611dac565b925050604084013567ffffffffffffffff811115611f8f57600080fd5b611f9b86828701611d6d565b9150509250925092565b60008060008060808587031215611fbb57600080fd5b600085013567ffffffffffffffff811115611fd557600080fd5b611fe187828801611dac565b945050602085013567ffffffffffffffff811115611ffe57600080fd5b61200a87828801611dac565b935050604061201b87828801611d97565b925050606061202c87828801611dd6565b91505092959194509250565b60006020828403121561204a57600080fd5b600061205884828501611dd6565b91505092915050565b60006020828403121561207357600080fd5b600061208184828501611deb565b91505092915050565b6000806040838503121561209d57600080fd5b60006120ab85828601611dd6565b92505060206120bc85828601611cf9565b9150509250929050565b60006120d2838361232d565b60408301905092915050565b60006120ea838361241b565b60208301905092915050565b6120ff81612846565b82525050565b61210e81612846565b82525050565b600061211f826126d0565b6121298185612716565b9350612134836126b6565b8060005b8381101561216557815161214c88826120c6565b9750612157836126fc565b925050600181019050612138565b5085935050505092915050565b61217b816126db565b6121858184612727565b9250612190826126c6565b8060005b838110156121c15781516121a887826120de565b96506121b383612709565b925050600181019050612194565b505050505050565b6121d281612864565b82525050565b60006121e3826126e6565b6121ed8185612732565b93506121fd818560208601612924565b61220681612aa5565b840191505092915050565b61221a816128df565b82525050565b61222981612903565b82525050565b600061223a826126f1565b6122448185612743565b9350612254818560208601612924565b61225d81612aa5565b840191505092915050565b6000612273826126f1565b61227d8185612754565b935061228d818560208601612924565b61229681612aa5565b840191505092915050565b60006122ae602b83612754565b91506122b982612ab6565b604082019050919050565b60006122d1603c83612754565b91506122dc82612b05565b604082019050919050565b60006122f4601c83612754565b91506122ff82612b54565b602082019050919050565b6000612317601783612754565b915061232282612b7d565b602082019050919050565b60408201600082015161234360008501826120f6565b506020820151612356602085018261241b565b50505050565b6000610120830160008301516123756000860182612220565b506020830151848203602086015261238d828261222f565b915050604083015184820360408601526123a7828261222f565b915050606083015184820360608601526123c182826121d8565b91505060808301516123d6608086018261232d565b5060a08301516123e960c086018261241b565b5060c08301516123fc60e086018261241b565b5060e083015161241061010086018261241b565b508091505092915050565b612424816128d5565b82525050565b612433816128d5565b82525050565b600060208201905061244e6000830184612105565b92915050565b60006040820190506124696000830185612105565b6124766020830184612105565b9392505050565b60006060820190506124926000830186612105565b61249f6020830185612105565b6124ac604083018461242a565b949350505050565b60006040820190506124c96000830185612105565b6124d6602083018461242a565b9392505050565b600060208201905081810360008301526124f78184612114565b905092915050565b60006040820190506125146000830184612172565b92915050565b600060208201905061252f60008301846121c9565b92915050565b600060208201905061254a6000830184612211565b92915050565b6000602082019050818103600083015261256a8184612268565b905092915050565b6000602082019050818103600083015261258b816122a1565b9050919050565b600060208201905081810360008301526125ab816122c4565b9050919050565b600060208201905081810360008301526125cb816122e7565b9050919050565b600060208201905081810360008301526125eb8161230a565b9050919050565b6000602082019050818103600083015261260c818461235c565b905092915050565b6000602082019050612629600083018461242a565b92915050565b600061263961264a565b90506126458282612989565b919050565b6000604051905090565b600067ffffffffffffffff82111561266f5761266e612a76565b5b61267882612aa5565b9050602081019050919050565b600067ffffffffffffffff8211156126a05761269f612a76565b5b6126a982612aa5565b9050602081019050919050565b6000819050602082019050919050565b6000819050919050565b600081519050919050565b600060029050919050565b600081519050919050565b600081519050919050565b6000602082019050919050565b6000602082019050919050565b600082825260208201905092915050565b600081905092915050565b600082825260208201905092915050565b600082825260208201905092915050565b600082825260208201905092915050565b6000612770826128d5565b915061277b836128d5565b9250827fffffffffffffffffffffffffffffffffffffffffffffffffffffffffffffffff038211156127b0576127af6129ba565b5b828201905092915050565b60006127c6826128d5565b91506127d1836128d5565b9250826127e1576127e06129e9565b5b828204905092915050565b60006127f7826128d5565b9150612802836128d5565b9250817fffffffffffffffffffffffffffffffffffffffffffffffffffffffffffffffff048311821515161561283b5761283a6129ba565b5b828202905092915050565b6000612851826128b5565b9050919050565b60008115159050919050565b60007fffffffff0000000000000000000000000000000000000000000000000000000082169050919050565b600061289b82612846565b9050919050565b60008190506128b082612ba6565b919050565b600073ffffffffffffffffffffffffffffffffffffffff82169050919050565b6000819050919050565b60006128ea826128f1565b9050919050565b60006128fc826128b5565b9050919050565b600061290e826128a2565b9050919050565b82818337600083830152505050565b60005b83811015612942578082015181840152602081019050612927565b83811115612951576000848401525b50505050565b6000600282049050600182168061296f57607f821691505b6020821081141561298357612982612a47565b5b50919050565b61299282612aa5565b810181811067ffffffffffffffff821117156129b1576129b0612a76565b5b80604052505050565b7f4e487b7100000000000000000000000000000000000000000000000000000000600052601160045260246000fd5b7f4e487b7100000000000000000000000000000000000000000000000000000000600052601260045260246000fd5b7f4e487b7100000000000000000000000000000000000000000000000000000000600052602160045260246000fd5b7f4e487b7100000000000000000000000000000000000000000000000000000000600052602260045260246000fd5b7f4e487b7100000000000000000000000000000000000000000000000000000000600052604160045260246000fd5b6000601f19601f8301169050919050565b7f506c65617365207374616b6520796f757220676f7665726e616e636520746f6b60008201527f656e7320746f20766f7465000000000000000000000000000000000000000000602082015250565b7f506c65617365207374616b6520796f757220676f7665726e616e636520746f6b60008201527f656e7320746f206372656174652061206e65772070726f706f73616c00000000602082015250565b7f5468697320617373657420697320616c7265616479206c6f636b656400000000600082015250565b7f546869732061737365742069736e2774206c6f636b6564000000000000000000600082015250565b60038110612bb757612bb6612a18565b5b50565b612bc381612846565b8114612bce57600080fd5b50565b612bda81612858565b8114612be557600080fd5b50565b612bf181612890565b8114612bfc57600080fd5b50565b612c08816128d5565b8114612c1357600080fd5b5056fea26469706673582212203dbb7a127f3c30f90fd732f819da9d2feda9ca0bab57a2d534b9e4380f8faf7e64736f6c63430008040033",
  "immutableReferences": {},
  "source": "pragma solidity ^0.8.0;\nimport \"@openzeppelin/contracts/token/ERC20/IERC20.sol\";\nimport \"@openzeppelin/contracts/token/ERC721/IERC721.sol\";\nimport \"@openzeppelin/contracts/token/ERC721/IERC721Receiver.sol\";\n\ncontract Dao is IERC721Receiver {\n\n    IERC20 public dao_token;\n    string public name;\n    uint public proposal_id;\n\n    enum proposal_status{ ACTIVE, PASSED, FAILED }\n\n    struct Proposal {\n        proposal_status status;\n        string title;\n        string description;\n        bytes tx;  // Transaction to be executed when proposal passes\n        Asset asset;\n        uint votes_for;  // Amount of \"For\" votes\n        uint votes_against;  // Amount of \"Against\" votes\n        uint threshold;  // Amount of voting power which took a part in voting process for the proposal to be closed\n    }\n\n    struct Asset {\n        address addr;  // Address of stored asset\n        uint id;  // Should be zero for ERC20 and non-zero for ERC721\n    }\n\n    struct Vault {\n        mapping(address => mapping(uint => bool)) asset_locked;\n        Asset[] erc721;  // Locked NFTs\n        Asset[] erc20;  // Locked ERC20\n    }\n\n    Vault vault;\n    mapping(uint => Proposal) proposals;  // Sale proposals by their ids\n    mapping(address => uint) stakes;  // Staked voting power: user => amount\n\n    constructor(string memory _name,\n                IERC20 _dao_token) {\n        name = _name;\n        dao_token = _dao_token;\n    }\n\n    function stake(uint _amount) public {\n        if (dao_token.allowance(msg.sender, address(this)) < _amount) {\n            dao_token.approve(address(this), _amount);\n        }\n        dao_token.transferFrom(msg.sender, address(this), _amount);\n        stakes[msg.sender] += _amount;\n    }\n\n    function claim(uint _amount) public {  // 50\n        uint user_stake = stakes[msg.sender];  // 2\n        if (user_stake < _amount) {  // 2*50 < 50\n            dao_token.transfer(msg.sender, user_stake);\n        } else {\n            if (user_stake < _amount) {\n                dao_token.transfer(msg.sender, user_stake);\n            } else {\n                dao_token.transfer(msg.sender, _amount);\n            }\n        }\n    }\n\n    function propose_tx(string memory _title, string memory _description, bytes memory _tx_to_execute) public {\n        require(dao_token.balanceOf(msg.sender) != 0, \"Please stake your governance tokens to create a new proposal\");\n        proposal_id += 1;\n        Proposal memory proposal = Proposal(proposal_status.ACTIVE,\n                                            _title,\n                                            _description,\n                                            _tx_to_execute,\n                                            Asset(address(0x0), 0),\n                                            0, 0,\n                                            (3*dao_token.totalSupply())/4);\n        proposals[proposal_id] = proposal;\n    }\n\n    function propose_sell(string memory _title, string memory _description, IERC721 _asset_address, uint _asset_id) public {\n        proposal_id += 1;\n        bytes memory empty;\n        Asset memory asset = Asset(address(_asset_address), _asset_id);\n        Proposal memory proposal = Proposal(proposal_status.ACTIVE,\n                                    _title,\n                                    _description,\n                                    empty,\n                                    asset,\n                                    0, 0,\n                                    (3*dao_token.totalSupply())/4);\n        proposals[proposal_id] = proposal;\n    }\n\n    function get_proposal(uint _proposal_id) public view returns (Proposal memory) {\n        return proposals[_proposal_id];\n    }\n\n    function vote(uint _proposal_id, bool _vote) public {  // vote: true - \"For\", false - \"Against\"\n        require(dao_token.balanceOf(msg.sender) != 0, \"Please stake your governance tokens to vote\");\n        if (_vote == true) {\n            proposals[_proposal_id].votes_for += stakes[msg.sender];\n        } else {\n            proposals[_proposal_id].votes_against += stakes[msg.sender];\n        }\n        uint total_votes = proposals[_proposal_id].votes_for + proposals[_proposal_id].votes_against;\n        if (total_votes >= proposals[_proposal_id].threshold) {\n            outcome(_proposal_id);\n        }\n    }\n\n    function votes_distribution(uint _proposal_id) public view returns (uint[2] memory){\n        return [proposals[_proposal_id].votes_for, proposals[_proposal_id].votes_against];\n    }\n\n    function outcome(uint _proposal_id) internal {\n        if (proposals[_proposal_id].votes_for > proposals[_proposal_id].votes_against) {\n            proposals[_proposal_id].status = proposal_status.PASSED;\n        } else {\n        proposals[_proposal_id].status = proposal_status.FAILED;\n        }\n    }\n\n    function add_asset(address _asset_address, uint _asset_id) public {  // Check struct Asset for details\n        require(vault.asset_locked[_asset_address][_asset_id] == false, \"This asset is already locked\");\n        if (_asset_id != 0) {  // NFT\n            IERC721 asset = IERC721(_asset_address);\n            require(asset.ownerOf(_asset_id) == address(this), \"This asset isn't locked\");\n            vault.erc721.push(Asset(_asset_address, _asset_id));\n        } else {  // ERC20\n            vault.erc20.push(Asset(_asset_address, _asset_id));\n        }\n        vault.asset_locked[_asset_address][_asset_id] = true;\n    }\n\n    function get_asset(uint _asset_type) public view returns(Asset[] memory) {\n        /*\n        Get locked assets. UI should iterate over them checking the owner is this DAO\n        _asset_type: 0 - \"erc721\" / 1 - \"erc20\"\n        */\n        if (_asset_type == 0) {\n            return vault.erc721;\n        } else {\n            if (_asset_type == 1) {\n                return vault.erc20;\n            }\n        }\n        Asset[] memory empty;\n        return empty;\n    }\n\n    function onERC721Received(address operator,\n                              address from,\n                              uint256 tokenId,\n                              bytes calldata data) public pure override returns (bytes4) {\n        return this.onERC721Received.selector;\n    }\n\n}\n",
  "sourcePath": "/Users/y.sosunov/git/definition-hackathon/onchain/contracts/Dao.sol",
  "compiler": {
    "name": "solc",
    "version": "0.8.4+commit.c7e474f2.Emscripten.clang"
  },
  "schemaVersion": "3.3.4",
  "updatedAt": "2021-09-26T06:27:27.399Z",
  "devdoc": {
    "kind": "dev",
    "methods": {
      "onERC721Received(address,address,uint256,bytes)": {
        "details": "Whenever an {IERC721} `tokenId` token is transferred to this contract via {IERC721-safeTransferFrom} by `operator` from `from`, this function is called. It must return its Solidity selector to confirm the token transfer. If any other value is returned or the interface is not implemented by the recipient, the transfer will be reverted. The selector can be obtained in Solidity with `IERC721.onERC721Received.selector`."
      }
    },
    "version": 1
  },
  "userdoc": {
    "kind": "user",
    "methods": {},
    "version": 1
  }
}