{
  "contractName": "Dao",
  "abi": [
    {
      "inputs": [
        {
          "internalType": "string",
          "name": "_name",
          "type": "string"
        },
        {
          "internalType": "contract IERC20",
          "name": "_dao_token",
          "type": "address"
        },
        {
          "internalType": "contract Pool",
          "name": "_pool",
          "type": "address"
        }
      ],
      "stateMutability": "nonpayable",
      "type": "constructor"
    },
    {
      "inputs": [],
      "name": "dao_token",
      "outputs": [
        {
          "internalType": "contract IERC20",
          "name": "",
          "type": "address"
        }
      ],
      "stateMutability": "view",
      "type": "function"
    },
    {
      "inputs": [],
      "name": "name",
      "outputs": [
        {
          "internalType": "string",
          "name": "",
          "type": "string"
        }
      ],
      "stateMutability": "view",
      "type": "function"
    },
    {
      "inputs": [],
      "name": "proposal_id",
      "outputs": [
        {
          "internalType": "uint256",
          "name": "",
          "type": "uint256"
        }
      ],
      "stateMutability": "view",
      "type": "function"
    },
    {
      "inputs": [
        {
          "internalType": "uint256",
          "name": "_amount",
          "type": "uint256"
        },
        {
          "internalType": "address",
          "name": "stake_for",
          "type": "address"
        }
      ],
      "name": "stake",
      "outputs": [],
      "stateMutability": "nonpayable",
      "type": "function"
    },
    {
      "inputs": [
        {
          "internalType": "uint256",
          "name": "_amount",
          "type": "uint256"
        },
        {
          "internalType": "address",
          "name": "_stake_for",
          "type": "address"
        }
      ],
      "name": "auto_stake",
      "outputs": [],
      "stateMutability": "nonpayable",
      "type": "function"
    },
    {
      "inputs": [
        {
          "internalType": "address",
          "name": "_user",
          "type": "address"
        }
      ],
      "name": "get_stake",
      "outputs": [
        {
          "internalType": "uint256",
          "name": "",
          "type": "uint256"
        }
      ],
      "stateMutability": "view",
      "type": "function"
    },
    {
      "inputs": [
        {
          "internalType": "uint256",
          "name": "_amount",
          "type": "uint256"
        }
      ],
      "name": "claim",
      "outputs": [],
      "stateMutability": "nonpayable",
      "type": "function"
    },
    {
      "inputs": [
        {
          "internalType": "string",
          "name": "_title",
          "type": "string"
        },
        {
          "internalType": "string",
          "name": "_description",
          "type": "string"
        },
        {
          "internalType": "bytes",
          "name": "_tx_to_execute",
          "type": "bytes"
        }
      ],
      "name": "propose_tx",
      "outputs": [],
      "stateMutability": "nonpayable",
      "type": "function"
    },
    {
      "inputs": [
        {
          "internalType": "string",
          "name": "_title",
          "type": "string"
        },
        {
          "internalType": "string",
          "name": "_description",
          "type": "string"
        },
        {
          "internalType": "contract IERC721",
          "name": "_asset_address",
          "type": "address"
        },
        {
          "internalType": "uint256",
          "name": "_asset_id",
          "type": "uint256"
        }
      ],
      "name": "propose_sell",
      "outputs": [],
      "stateMutability": "nonpayable",
      "type": "function"
    },
    {
      "inputs": [
        {
          "internalType": "uint256",
          "name": "_proposal_id",
          "type": "uint256"
        }
      ],
      "name": "get_proposal",
      "outputs": [
        {
          "components": [
            {
              "internalType": "enum Dao.proposal_status",
              "name": "status",
              "type": "uint8"
            },
            {
              "internalType": "string",
              "name": "title",
              "type": "string"
            },
            {
              "internalType": "string",
              "name": "description",
              "type": "string"
            },
            {
              "internalType": "bytes",
              "name": "tx",
              "type": "bytes"
            },
            {
              "components": [
                {
                  "internalType": "address",
                  "name": "addr",
                  "type": "address"
                },
                {
                  "internalType": "uint256",
                  "name": "id",
                  "type": "uint256"
                }
              ],
              "internalType": "struct Dao.Asset",
              "name": "asset",
              "type": "tuple"
            },
            {
              "internalType": "uint256",
              "name": "votes_for",
              "type": "uint256"
            },
            {
              "internalType": "uint256",
              "name": "votes_against",
              "type": "uint256"
            },
            {
              "internalType": "uint256",
              "name": "threshold",
              "type": "uint256"
            }
          ],
          "internalType": "struct Dao.Proposal",
          "name": "",
          "type": "tuple"
        }
      ],
      "stateMutability": "view",
      "type": "function"
    },
    {
      "inputs": [
        {
          "internalType": "uint256",
          "name": "_proposal_id",
          "type": "uint256"
        },
        {
          "internalType": "bool",
          "name": "_vote",
          "type": "bool"
        }
      ],
      "name": "vote",
      "outputs": [],
      "stateMutability": "nonpayable",
      "type": "function"
    },
    {
      "inputs": [
        {
          "internalType": "uint256",
          "name": "_proposal_id",
          "type": "uint256"
        }
      ],
      "name": "votes_distribution",
      "outputs": [
        {
          "internalType": "uint256[2]",
          "name": "",
          "type": "uint256[2]"
        }
      ],
      "stateMutability": "view",
      "type": "function"
    },
    {
      "inputs": [
        {
          "internalType": "address",
          "name": "_asset_address",
          "type": "address"
        },
        {
          "internalType": "uint256",
          "name": "_asset_id",
          "type": "uint256"
        }
      ],
      "name": "add_asset",
      "outputs": [],
      "stateMutability": "nonpayable",
      "type": "function"
    },
    {
      "inputs": [
        {
          "internalType": "uint256",
          "name": "_asset_type",
          "type": "uint256"
        }
      ],
      "name": "get_asset",
      "outputs": [
        {
          "components": [
            {
              "internalType": "address",
              "name": "addr",
              "type": "address"
            },
            {
              "internalType": "uint256",
              "name": "id",
              "type": "uint256"
            }
          ],
          "internalType": "struct Dao.Asset[]",
          "name": "",
          "type": "tuple[]"
        }
      ],
      "stateMutability": "view",
      "type": "function"
    },
    {
      "inputs": [
        {
          "internalType": "address",
          "name": "operator",
          "type": "address"
        },
        {
          "internalType": "address",
          "name": "from",
          "type": "address"
        },
        {
          "internalType": "uint256",
          "name": "tokenId",
          "type": "uint256"
        },
        {
          "internalType": "bytes",
          "name": "data",
          "type": "bytes"
        }
      ],
      "name": "onERC721Received",
      "outputs": [
        {
          "internalType": "bytes4",
          "name": "",
          "type": "bytes4"
        }
      ],
      "stateMutability": "pure",
      "type": "function"
    }
  ],
  "bytecode": "0x60806040523480156200001157600080fd5b50604051620033103803806200331083398181016040528101906200003791906200022a565b82600190805190602001906200004f929190620000da565b50816000806101000a81548173ffffffffffffffffffffffffffffffffffffffff021916908373ffffffffffffffffffffffffffffffffffffffff16021790555080600660006101000a81548173ffffffffffffffffffffffffffffffffffffffff021916908373ffffffffffffffffffffffffffffffffffffffff16021790555050505062000499565b828054620000e8906200038a565b90600052602060002090601f0160209004810192826200010c576000855562000158565b82601f106200012757805160ff191683800117855562000158565b8280016001018555821562000158579182015b82811115620001575782518255916020019190600101906200013a565b5b5090506200016791906200016b565b5090565b5b80821115620001865760008160009055506001016200016c565b5090565b6000620001a16200019b84620002c2565b62000299565b905082815260208101848484011115620001ba57600080fd5b620001c784828562000354565b509392505050565b600081519050620001e08162000465565b92915050565b600081519050620001f7816200047f565b92915050565b600082601f8301126200020f57600080fd5b8151620002218482602086016200018a565b91505092915050565b6000806000606084860312156200024057600080fd5b600084015167ffffffffffffffff8111156200025b57600080fd5b6200026986828701620001fd565b93505060206200027c86828701620001cf565b92505060406200028f86828701620001e6565b9150509250925092565b6000620002a5620002b8565b9050620002b38282620003c0565b919050565b6000604051905090565b600067ffffffffffffffff821115620002e057620002df62000425565b5b620002eb8262000454565b9050602081019050919050565b6000620003058262000334565b9050919050565b60006200031982620002f8565b9050919050565b60006200032d82620002f8565b9050919050565b600073ffffffffffffffffffffffffffffffffffffffff82169050919050565b60005b838110156200037457808201518184015260208101905062000357565b8381111562000384576000848401525b50505050565b60006002820490506001821680620003a357607f821691505b60208210811415620003ba57620003b9620003f6565b5b50919050565b620003cb8262000454565b810181811067ffffffffffffffff82111715620003ed57620003ec62000425565b5b80604052505050565b7f4e487b7100000000000000000000000000000000000000000000000000000000600052602260045260246000fd5b7f4e487b7100000000000000000000000000000000000000000000000000000000600052604160045260246000fd5b6000601f19601f8301169050919050565b62000470816200030c565b81146200047c57600080fd5b50565b6200048a8162000320565b81146200049657600080fd5b50565b612e6780620004a96000396000f3fe608060405234801561001057600080fd5b50600436106100f55760003560e01c8063528f9d55116100975780637acb7757116100665780637acb775714610298578063c9d27afe146102b4578063e4dd26cf146102d0578063e9a4b691146102ec576100f5565b8063528f9d5514610210578063561f4a6a1461022e578063688e1d311461024a578063698839fd14610268576100f5565b8063150b7a02116100d3578063150b7a021461016457806317eb2f0914610194578063379607f5146101c45780633eda5200146101e0576100f5565b806306fdde03146100fa5780630f9e4fb51461011857806310b1939f14610134575b600080fd5b610102610308565b60405161010f9190612722565b60405180910390f35b610132600480360381019061012d9190612037565b610396565b005b61014e600480360381019061014991906121c6565b61070f565b60405161015b91906126af565b60405180910390f35b61017e60048036038101906101799190611fb7565b6108b3565b60405161018b91906126ec565b60405180910390f35b6101ae60048036038101906101a991906121c6565b6108c8565b6040516101bb91906126d1565b60405180910390f35b6101de60048036038101906101d991906121c6565b610918565b005b6101fa60048036038101906101f591906121c6565b610aca565b60405161020791906127e4565b60405180910390f35b610218610dc7565b6040516102259190612806565b60405180910390f35b61024860048036038101906102439190612218565b610dcd565b005b610252610ef9565b60405161025f9190612707565b60405180910390f35b610282600480360381019061027d9190611f65565b610f1d565b60405161028f9190612806565b60405180910390f35b6102b260048036038101906102ad9190612218565b610f66565b005b6102ce60048036038101906102c99190612254565b6111d1565b005b6102ea60048036038101906102e5919061209c565b6114b4565b005b61030660048036038101906103019190612133565b6117f1565b005b6001805461031590612b49565b80601f016020809104026020016040519081016040528092919081815260200182805461034190612b49565b801561038e5780601f106103635761010080835404028352916020019161038e565b820191906000526020600020905b81548152906001019060200180831161037157829003601f168201915b505050505081565b60001515600360000160008473ffffffffffffffffffffffffffffffffffffffff1673ffffffffffffffffffffffffffffffffffffffff168152602001908152602001600020600083815260200190815260200160002060009054906101000a900460ff1615151461043d576040517f08c379a0000000000000000000000000000000000000000000000000000000008152600401610434906127a4565b60405180910390fd5b600081146105f25760008290503073ffffffffffffffffffffffffffffffffffffffff168173ffffffffffffffffffffffffffffffffffffffff16636352211e846040518263ffffffff1660e01b815260040161049a9190612806565b60206040518083038186803b1580156104b257600080fd5b505afa1580156104c6573d6000803e3d6000fd5b505050506040513d601f19601f820116820180604052508101906104ea9190611f8e565b73ffffffffffffffffffffffffffffffffffffffff1614610540576040517f08c379a0000000000000000000000000000000000000000000000000000000008152600401610537906127c4565b60405180910390fd5b600360010160405180604001604052808573ffffffffffffffffffffffffffffffffffffffff16815260200184815250908060018154018082558091505060019003906000526020600020906002020160009091909190915060008201518160000160006101000a81548173ffffffffffffffffffffffffffffffffffffffff021916908373ffffffffffffffffffffffffffffffffffffffff1602179055506020820151816001015550505061069f565b600360020160405180604001604052808473ffffffffffffffffffffffffffffffffffffffff16815260200183815250908060018154018082558091505060019003906000526020600020906002020160009091909190915060008201518160000160006101000a81548173ffffffffffffffffffffffffffffffffffffffff021916908373ffffffffffffffffffffffffffffffffffffffff1602179055506020820151816001015550505b6001600360000160008473ffffffffffffffffffffffffffffffffffffffff1673ffffffffffffffffffffffffffffffffffffffff168152602001908152602001600020600083815260200190815260200160002060006101000a81548160ff0219169083151502179055505050565b606060008214156107dc576003600101805480602002602001604051908101604052809291908181526020016000905b828210156107d157838290600052602060002090600202016040518060400160405290816000820160009054906101000a900473ffffffffffffffffffffffffffffffffffffffff1673ffffffffffffffffffffffffffffffffffffffff1673ffffffffffffffffffffffffffffffffffffffff1681526020016001820154815250508152602001906001019061073f565b5050505090506108ae565b60018214156108a7576003600201805480602002602001604051908101604052809291908181526020016000905b8282101561089c57838290600052602060002090600202016040518060400160405290816000820160009054906101000a900473ffffffffffffffffffffffffffffffffffffffff1673ffffffffffffffffffffffffffffffffffffffff1673ffffffffffffffffffffffffffffffffffffffff1681526020016001820154815250508152602001906001019061080a565b5050505090506108ae565b6060809150505b919050565b600063150b7a0260e01b905095945050505050565b6108d0611bba565b60405180604001604052806007600085815260200190815260200160002060060154815260200160076000858152602001908152602001600020600701548152509050919050565b6000600960003373ffffffffffffffffffffffffffffffffffffffff1673ffffffffffffffffffffffffffffffffffffffff16815260200190815260200160002054905081811015610a175760008054906101000a900473ffffffffffffffffffffffffffffffffffffffff1673ffffffffffffffffffffffffffffffffffffffff1663a9059cbb33836040518363ffffffff1660e01b81526004016109bf929190612686565b602060405180830381600087803b1580156109d957600080fd5b505af11580156109ed573d6000803e3d6000fd5b505050506040513d601f19601f82011682018060405250810190610a119190612073565b50610ac6565b60008054906101000a900473ffffffffffffffffffffffffffffffffffffffff1673ffffffffffffffffffffffffffffffffffffffff1663a9059cbb33846040518363ffffffff1660e01b8152600401610a72929190612686565b602060405180830381600087803b158015610a8c57600080fd5b505af1158015610aa0573d6000803e3d6000fd5b505050506040513d601f19601f82011682018060405250810190610ac49190612073565b505b5050565b610ad2611bdc565b60076000838152602001908152602001600020604051806101000160405290816000820160009054906101000a900460ff166002811115610b3c577f4e487b7100000000000000000000000000000000000000000000000000000000600052602160045260246000fd5b6002811115610b74577f4e487b7100000000000000000000000000000000000000000000000000000000600052602160045260246000fd5b8152602001600182018054610b8890612b49565b80601f0160208091040260200160405190810160405280929190818152602001828054610bb490612b49565b8015610c015780601f10610bd657610100808354040283529160200191610c01565b820191906000526020600020905b815481529060010190602001808311610be457829003601f168201915b50505050508152602001600282018054610c1a90612b49565b80601f0160208091040260200160405190810160405280929190818152602001828054610c4690612b49565b8015610c935780601f10610c6857610100808354040283529160200191610c93565b820191906000526020600020905b815481529060010190602001808311610c7657829003601f168201915b50505050508152602001600382018054610cac90612b49565b80601f0160208091040260200160405190810160405280929190818152602001828054610cd890612b49565b8015610d255780601f10610cfa57610100808354040283529160200191610d25565b820191906000526020600020905b815481529060010190602001808311610d0857829003601f168201915b50505050508152602001600482016040518060400160405290816000820160009054906101000a900473ffffffffffffffffffffffffffffffffffffffff1673ffffffffffffffffffffffffffffffffffffffff1673ffffffffffffffffffffffffffffffffffffffff168152602001600182015481525050815260200160068201548152602001600782015481526020016008820154815250509050919050565b60025481565b60008054906101000a900473ffffffffffffffffffffffffffffffffffffffff1673ffffffffffffffffffffffffffffffffffffffff166323b872dd600660009054906101000a900473ffffffffffffffffffffffffffffffffffffffff1630856040518463ffffffff1660e01b8152600401610e4c9392919061264f565b602060405180830381600087803b158015610e6657600080fd5b505af1158015610e7a573d6000803e3d6000fd5b505050506040513d601f19601f82011682018060405250810190610e9e9190612073565b5081600960008373ffffffffffffffffffffffffffffffffffffffff1673ffffffffffffffffffffffffffffffffffffffff1681526020019081526020016000206000828254610eee9190612957565b925050819055505050565b60008054906101000a900473ffffffffffffffffffffffffffffffffffffffff1681565b6000600960008373ffffffffffffffffffffffffffffffffffffffff1673ffffffffffffffffffffffffffffffffffffffff168152602001908152602001600020549050919050565b8160008054906101000a900473ffffffffffffffffffffffffffffffffffffffff1673ffffffffffffffffffffffffffffffffffffffff1663dd62ed3e83306040518363ffffffff1660e01b8152600401610fc2929190612626565b60206040518083038186803b158015610fda57600080fd5b505afa158015610fee573d6000803e3d6000fd5b505050506040513d601f19601f8201168201806040525081019061101291906121ef565b10156110c75760008054906101000a900473ffffffffffffffffffffffffffffffffffffffff1673ffffffffffffffffffffffffffffffffffffffff1663095ea7b330846040518363ffffffff1660e01b8152600401611073929190612686565b602060405180830381600087803b15801561108d57600080fd5b505af11580156110a1573d6000803e3d6000fd5b505050506040513d601f19601f820116820180604052508101906110c59190612073565b505b60008054906101000a900473ffffffffffffffffffffffffffffffffffffffff1673ffffffffffffffffffffffffffffffffffffffff166323b872dd3330856040518463ffffffff1660e01b81526004016111249392919061264f565b602060405180830381600087803b15801561113e57600080fd5b505af1158015611152573d6000803e3d6000fd5b505050506040513d601f19601f820116820180604052508101906111769190612073565b5081600960008373ffffffffffffffffffffffffffffffffffffffff1673ffffffffffffffffffffffffffffffffffffffff16815260200190815260200160002060008282546111c69190612957565b925050819055505050565b6000600960003373ffffffffffffffffffffffffffffffffffffffff1673ffffffffffffffffffffffffffffffffffffffff168152602001908152602001600020541415611254576040517f08c379a000000000000000000000000000000000000000000000000000000000815260040161124b90612744565b60405180910390fd5b600015156008600084815260200190815260200160002060003373ffffffffffffffffffffffffffffffffffffffff1673ffffffffffffffffffffffffffffffffffffffff16815260200190815260200160002060009054906101000a900460ff161515146112f8576040517f08c379a00000000000000000000000000000000000000000000000000000000081526004016112ef90612764565b60405180910390fd5b60011515811515141561137657600960003373ffffffffffffffffffffffffffffffffffffffff1673ffffffffffffffffffffffffffffffffffffffff1681526020019081526020016000205460076000848152602001908152602001600020600601600082825461136a9190612957565b925050819055506113e3565b600960003373ffffffffffffffffffffffffffffffffffffffff1673ffffffffffffffffffffffffffffffffffffffff168152602001908152602001600020546007600084815260200190815260200160002060070160008282546113db9190612957565b925050819055505b60006007600084815260200190815260200160002060070154600760008581526020019081526020016000206006015461141d9190612957565b905060016008600085815260200190815260200160002060003373ffffffffffffffffffffffffffffffffffffffff1673ffffffffffffffffffffffffffffffffffffffff16815260200190815260200160002060006101000a81548160ff021916908315150217905550600760008481526020019081526020016000206008015481106114af576114ae83611ab3565b5b505050565b6000600960003373ffffffffffffffffffffffffffffffffffffffff1673ffffffffffffffffffffffffffffffffffffffff168152602001908152602001600020541415611537576040517f08c379a000000000000000000000000000000000000000000000000000000000815260040161152e90612784565b60405180910390fd5b60016002600082825461154a9190612957565b92505081905550600060405180610100016040528060006002811115611599577f4e487b7100000000000000000000000000000000000000000000000000000000600052602160045260246000fd5b81526020018581526020018481526020018381526020016040518060400160405280600073ffffffffffffffffffffffffffffffffffffffff168152602001600081525081526020016000815260200160008152602001600460008054906101000a900473ffffffffffffffffffffffffffffffffffffffff1673ffffffffffffffffffffffffffffffffffffffff166318160ddd6040518163ffffffff1660e01b815260040160206040518083038186803b15801561165857600080fd5b505afa15801561166c573d6000803e3d6000fd5b505050506040513d601f19601f8201168201806040525081019061169091906121ef565b600361169c91906129de565b6116a691906129ad565b81525090508060076000600254815260200190815260200160002060008201518160000160006101000a81548160ff02191690836002811115611712577f4e487b7100000000000000000000000000000000000000000000000000000000600052602160045260246000fd5b02179055506020820151816001019080519060200190611733929190611c5f565b506040820151816002019080519060200190611750929190611c5f565b50606082015181600301908051906020019061176d929190611ce5565b5060808201518160040160008201518160000160006101000a81548173ffffffffffffffffffffffffffffffffffffffff021916908373ffffffffffffffffffffffffffffffffffffffff16021790555060208201518160010155505060a0820151816006015560c0820151816007015560e0820151816008015590505050505050565b6001600260008282546118049190612957565b925050819055506060600060405180604001604052808573ffffffffffffffffffffffffffffffffffffffff168152602001848152509050600060405180610100016040528060006002811115611884577f4e487b7100000000000000000000000000000000000000000000000000000000600052602160045260246000fd5b81526020018881526020018781526020018481526020018381526020016000815260200160008152602001600460008054906101000a900473ffffffffffffffffffffffffffffffffffffffff1673ffffffffffffffffffffffffffffffffffffffff166318160ddd6040518163ffffffff1660e01b815260040160206040518083038186803b15801561191757600080fd5b505afa15801561192b573d6000803e3d6000fd5b505050506040513d601f19601f8201168201806040525081019061194f91906121ef565b600361195b91906129de565b61196591906129ad565b81525090508060076000600254815260200190815260200160002060008201518160000160006101000a81548160ff021916908360028111156119d1577f4e487b7100000000000000000000000000000000000000000000000000000000600052602160045260246000fd5b021790555060208201518160010190805190602001906119f2929190611c5f565b506040820151816002019080519060200190611a0f929190611c5f565b506060820151816003019080519060200190611a2c929190611ce5565b5060808201518160040160008201518160000160006101000a81548173ffffffffffffffffffffffffffffffffffffffff021916908373ffffffffffffffffffffffffffffffffffffffff16021790555060208201518160010155505060a0820151816006015560c0820151816007015560e0820151816008015590505050505050505050565b600760008281526020019081526020016000206007015460076000838152602001908152602001600020600601541115611b515760016007600083815260200190815260200160002060000160006101000a81548160ff02191690836002811115611b47577f4e487b7100000000000000000000000000000000000000000000000000000000600052602160045260246000fd5b0217905550611bb7565b60026007600083815260200190815260200160002060000160006101000a81548160ff02191690836002811115611bb1577f4e487b7100000000000000000000000000000000000000000000000000000000600052602160045260246000fd5b02179055505b50565b6040518060400160405280600290602082028036833780820191505090505090565b60405180610100016040528060006002811115611c22577f4e487b7100000000000000000000000000000000000000000000000000000000600052602160045260246000fd5b8152602001606081526020016060815260200160608152602001611c44611d6b565b81526020016000815260200160008152602001600081525090565b828054611c6b90612b49565b90600052602060002090601f016020900481019282611c8d5760008555611cd4565b82601f10611ca657805160ff1916838001178555611cd4565b82800160010185558215611cd4579182015b82811115611cd3578251825591602001919060010190611cb8565b5b509050611ce19190611d9b565b5090565b828054611cf190612b49565b90600052602060002090601f016020900481019282611d135760008555611d5a565b82601f10611d2c57805160ff1916838001178555611d5a565b82800160010185558215611d5a579182015b82811115611d59578251825591602001919060010190611d3e565b5b509050611d679190611d9b565b5090565b6040518060400160405280600073ffffffffffffffffffffffffffffffffffffffff168152602001600081525090565b5b80821115611db4576000816000905550600101611d9c565b5090565b6000611dcb611dc684612846565b612821565b905082815260208101848484011115611de357600080fd5b611dee848285612b07565b509392505050565b6000611e09611e0484612877565b612821565b905082815260208101848484011115611e2157600080fd5b611e2c848285612b07565b509392505050565b600081359050611e4381612dd5565b92915050565b600081519050611e5881612dd5565b92915050565b600081359050611e6d81612dec565b92915050565b600081519050611e8281612dec565b92915050565b60008083601f840112611e9a57600080fd5b8235905067ffffffffffffffff811115611eb357600080fd5b602083019150836001820283011115611ecb57600080fd5b9250929050565b600082601f830112611ee357600080fd5b8135611ef3848260208601611db8565b91505092915050565b600081359050611f0b81612e03565b92915050565b600082601f830112611f2257600080fd5b8135611f32848260208601611df6565b91505092915050565b600081359050611f4a81612e1a565b92915050565b600081519050611f5f81612e1a565b92915050565b600060208284031215611f7757600080fd5b6000611f8584828501611e34565b91505092915050565b600060208284031215611fa057600080fd5b6000611fae84828501611e49565b91505092915050565b600080600080600060808688031215611fcf57600080fd5b6000611fdd88828901611e34565b9550506020611fee88828901611e34565b9450506040611fff88828901611f3b565b935050606086013567ffffffffffffffff81111561201c57600080fd5b61202888828901611e88565b92509250509295509295909350565b6000806040838503121561204a57600080fd5b600061205885828601611e34565b925050602061206985828601611f3b565b9150509250929050565b60006020828403121561208557600080fd5b600061209384828501611e73565b91505092915050565b6000806000606084860312156120b157600080fd5b600084013567ffffffffffffffff8111156120cb57600080fd5b6120d786828701611f11565b935050602084013567ffffffffffffffff8111156120f457600080fd5b61210086828701611f11565b925050604084013567ffffffffffffffff81111561211d57600080fd5b61212986828701611ed2565b9150509250925092565b6000806000806080858703121561214957600080fd5b600085013567ffffffffffffffff81111561216357600080fd5b61216f87828801611f11565b945050602085013567ffffffffffffffff81111561218c57600080fd5b61219887828801611f11565b93505060406121a987828801611efc565b92505060606121ba87828801611f3b565b91505092959194509250565b6000602082840312156121d857600080fd5b60006121e684828501611f3b565b91505092915050565b60006020828403121561220157600080fd5b600061220f84828501611f50565b91505092915050565b6000806040838503121561222b57600080fd5b600061223985828601611f3b565b925050602061224a85828601611e34565b9150509250929050565b6000806040838503121561226757600080fd5b600061227585828601611f3b565b925050602061228685828601611e5e565b9150509250929050565b600061229c838361251a565b60408301905092915050565b60006122b48383612608565b60208301905092915050565b6122c981612a38565b82525050565b6122d881612a38565b82525050565b60006122e9826128c2565b6122f38185612908565b93506122fe836128a8565b8060005b8381101561232f5781516123168882612290565b9750612321836128ee565b925050600181019050612302565b5085935050505092915050565b612345816128cd565b61234f8184612919565b925061235a826128b8565b8060005b8381101561238b57815161237287826122a8565b965061237d836128fb565b92505060018101905061235e565b505050505050565b61239c81612a56565b82525050565b60006123ad826128d8565b6123b78185612924565b93506123c7818560208601612b16565b6123d081612c97565b840191505092915050565b6123e481612ad1565b82525050565b6123f381612af5565b82525050565b6000612404826128e3565b61240e8185612935565b935061241e818560208601612b16565b61242781612c97565b840191505092915050565b600061243d826128e3565b6124478185612946565b9350612457818560208601612b16565b61246081612c97565b840191505092915050565b6000612478602b83612946565b915061248382612ca8565b604082019050919050565b600061249b601b83612946565b91506124a682612cf7565b602082019050919050565b60006124be603c83612946565b91506124c982612d20565b604082019050919050565b60006124e1601c83612946565b91506124ec82612d6f565b602082019050919050565b6000612504601783612946565b915061250f82612d98565b602082019050919050565b60408201600082015161253060008501826122c0565b5060208201516125436020850182612608565b50505050565b60006101208301600083015161256260008601826123ea565b506020830151848203602086015261257a82826123f9565b9150506040830151848203604086015261259482826123f9565b915050606083015184820360608601526125ae82826123a2565b91505060808301516125c3608086018261251a565b5060a08301516125d660c0860182612608565b5060c08301516125e960e0860182612608565b5060e08301516125fd610100860182612608565b508091505092915050565b61261181612ac7565b82525050565b61262081612ac7565b82525050565b600060408201905061263b60008301856122cf565b61264860208301846122cf565b9392505050565b600060608201905061266460008301866122cf565b61267160208301856122cf565b61267e6040830184612617565b949350505050565b600060408201905061269b60008301856122cf565b6126a86020830184612617565b9392505050565b600060208201905081810360008301526126c981846122de565b905092915050565b60006040820190506126e6600083018461233c565b92915050565b60006020820190506127016000830184612393565b92915050565b600060208201905061271c60008301846123db565b92915050565b6000602082019050818103600083015261273c8184612432565b905092915050565b6000602082019050818103600083015261275d8161246b565b9050919050565b6000602082019050818103600083015261277d8161248e565b9050919050565b6000602082019050818103600083015261279d816124b1565b9050919050565b600060208201905081810360008301526127bd816124d4565b9050919050565b600060208201905081810360008301526127dd816124f7565b9050919050565b600060208201905081810360008301526127fe8184612549565b905092915050565b600060208201905061281b6000830184612617565b92915050565b600061282b61283c565b90506128378282612b7b565b919050565b6000604051905090565b600067ffffffffffffffff82111561286157612860612c68565b5b61286a82612c97565b9050602081019050919050565b600067ffffffffffffffff82111561289257612891612c68565b5b61289b82612c97565b9050602081019050919050565b6000819050602082019050919050565b6000819050919050565b600081519050919050565b600060029050919050565b600081519050919050565b600081519050919050565b6000602082019050919050565b6000602082019050919050565b600082825260208201905092915050565b600081905092915050565b600082825260208201905092915050565b600082825260208201905092915050565b600082825260208201905092915050565b600061296282612ac7565b915061296d83612ac7565b9250827fffffffffffffffffffffffffffffffffffffffffffffffffffffffffffffffff038211156129a2576129a1612bac565b5b828201905092915050565b60006129b882612ac7565b91506129c383612ac7565b9250826129d3576129d2612bdb565b5b828204905092915050565b60006129e982612ac7565b91506129f483612ac7565b9250817fffffffffffffffffffffffffffffffffffffffffffffffffffffffffffffffff0483118215151615612a2d57612a2c612bac565b5b828202905092915050565b6000612a4382612aa7565b9050919050565b60008115159050919050565b60007fffffffff0000000000000000000000000000000000000000000000000000000082169050919050565b6000612a8d82612a38565b9050919050565b6000819050612aa282612dc1565b919050565b600073ffffffffffffffffffffffffffffffffffffffff82169050919050565b6000819050919050565b6000612adc82612ae3565b9050919050565b6000612aee82612aa7565b9050919050565b6000612b0082612a94565b9050919050565b82818337600083830152505050565b60005b83811015612b34578082015181840152602081019050612b19565b83811115612b43576000848401525b50505050565b60006002820490506001821680612b6157607f821691505b60208210811415612b7557612b74612c39565b5b50919050565b612b8482612c97565b810181811067ffffffffffffffff82111715612ba357612ba2612c68565b5b80604052505050565b7f4e487b7100000000000000000000000000000000000000000000000000000000600052601160045260246000fd5b7f4e487b7100000000000000000000000000000000000000000000000000000000600052601260045260246000fd5b7f4e487b7100000000000000000000000000000000000000000000000000000000600052602160045260246000fd5b7f4e487b7100000000000000000000000000000000000000000000000000000000600052602260045260246000fd5b7f4e487b7100000000000000000000000000000000000000000000000000000000600052604160045260246000fd5b6000601f19601f8301169050919050565b7f506c65617365207374616b6520796f757220676f7665726e616e636520746f6b60008201527f656e7320746f20766f7465000000000000000000000000000000000000000000602082015250565b7f5468697320757365722068617320616c726561647920766f7465640000000000600082015250565b7f506c65617365207374616b6520796f757220676f7665726e616e636520746f6b60008201527f656e7320746f206372656174652061206e65772070726f706f73616c00000000602082015250565b7f5468697320617373657420697320616c7265616479206c6f636b656400000000600082015250565b7f546869732061737365742069736e2774206c6f636b6564000000000000000000600082015250565b60038110612dd257612dd1612c0a565b5b50565b612dde81612a38565b8114612de957600080fd5b50565b612df581612a4a565b8114612e0057600080fd5b50565b612e0c81612a82565b8114612e1757600080fd5b50565b612e2381612ac7565b8114612e2e57600080fd5b5056fea26469706673582212200ca22f7b44cb0564db5caf9178da190799fe322c03cbea4ae77c38861840f17264736f6c63430008040033",
  "immutableReferences": {},
  "source": "pragma solidity ^0.8.0;\nimport \"@openzeppelin/contracts/token/ERC20/IERC20.sol\";\nimport \"@openzeppelin/contracts/token/ERC721/IERC721.sol\";\nimport \"@openzeppelin/contracts/token/ERC721/IERC721Receiver.sol\";\nimport \"./Pool.sol\";\n\ncontract Dao is IERC721Receiver {\n\n    IERC20 public dao_token;\n    string public name;\n    uint public proposal_id;\n\n    enum proposal_status{ ACTIVE, PASSED, FAILED }\n\n    struct Asset {\n        address addr;  // Address of stored asset\n        uint id;  // Should be zero for ERC20 and non-zero for ERC721\n    }\n\n    struct Vault {\n        mapping(address => mapping(uint => bool)) asset_locked;\n        Asset[] erc721;  // Locked NFTs\n        Asset[] erc20;  // Locked ERC20\n    }\n\n    struct Proposal {\n        proposal_status status;\n        string title;\n        string description;\n        bytes tx;  // Transaction to be executed when proposal passes.\n        Asset asset;\n        uint votes_for;  // Amount of \"For\" votes\n        uint votes_against;  // Amount of \"Against\" votes\n        uint threshold;  // Amount of voting power which took a part in voting process for the proposal to be closed\n    }\n\n    Vault vault;\n    Pool pool_contract;\n    mapping(uint => Proposal) proposals;  // Sale proposals by their ids\n    // Store whether the user has voted or not.\n    mapping(uint => mapping(address => bool)) vote_tracker; \n    mapping(address => uint) stakes;  // Staked voting power: user => amount. DEPRECATED\n\n    constructor(string memory _name,\n                IERC20 _dao_token,\n                Pool _pool) {\n        name = _name;\n        dao_token = _dao_token;\n        pool_contract = _pool;\n    }\n\n    function stake(uint _amount, address stake_for) public {\n        if (dao_token.allowance(stake_for, address(this)) < _amount) {\n            dao_token.approve(address(this), _amount);\n        }\n        dao_token.transferFrom(msg.sender, address(this), _amount);\n        stakes[stake_for] += _amount;\n    }\n\n    function auto_stake(uint _amount, address _stake_for) public {\n        dao_token.transferFrom(address(pool_contract), address(this), _amount);\n        stakes[_stake_for] += _amount;\n    }\n\n    function get_stake(address _user) public view returns (uint){\n        return stakes[_user];\n    }\n\n    function claim(uint _amount) public {  // 50\n        uint user_stake = stakes[msg.sender];  // 2\n        if (user_stake < _amount) {  // 2*50 < 50\n            dao_token.transfer(msg.sender, user_stake);\n        } else {\n            dao_token.transfer(msg.sender, _amount);\n            }\n        \n    }\n\n    function propose_tx(string memory _title, string memory _description, bytes memory _tx_to_execute) public {\n        require(stakes[msg.sender] != 0, \"Please stake your governance tokens to create a new proposal\");\n        proposal_id += 1;\n        Proposal memory proposal = Proposal(proposal_status.ACTIVE,\n                                            _title,\n                                            _description,\n                                            _tx_to_execute,\n                                            Asset(address(0x0), 0),\n                                            0, 0,\n                                            (3*dao_token.totalSupply())/4);\n        proposals[proposal_id] = proposal;\n    }\n\n    function propose_sell(string memory _title, string memory _description, IERC721 _asset_address, uint _asset_id) public {\n        proposal_id += 1;\n        bytes memory empty;\n        Asset memory asset = Asset(address(_asset_address), _asset_id);\n        Proposal memory proposal = Proposal(proposal_status.ACTIVE,\n                                    _title,\n                                    _description,\n                                    empty,\n                                    asset,\n                                    0, 0,\n                                    (3*dao_token.totalSupply())/4);\n\n        proposals[proposal_id] = proposal;\n    }\n\n    function get_proposal(uint _proposal_id) public view returns (Proposal memory) {\n        return proposals[_proposal_id];\n    }\n\n    function vote(uint _proposal_id, bool _vote) public {  // vote: true - \"For\", false - \"Against\"\n        require(stakes[msg.sender] != 0, \"Please stake your governance tokens to vote\");\n        require(vote_tracker[_proposal_id][msg.sender] == false, \"This user has already voted\");\n        if (_vote == true) {\n            proposals[_proposal_id].votes_for += stakes[msg.sender];\n        } else {\n            proposals[_proposal_id].votes_against += stakes[msg.sender];\n        }\n        uint total_votes = proposals[_proposal_id].votes_for + proposals[_proposal_id].votes_against;\n        // Mark that the user has voted for this proposal.\n        vote_tracker[_proposal_id][msg.sender] = true;\n        if (total_votes >= proposals[_proposal_id].threshold) {\n            outcome(_proposal_id);\n        }\n    }\n\n    function votes_distribution(uint _proposal_id) public view returns (uint[2] memory){\n        return [proposals[_proposal_id].votes_for, proposals[_proposal_id].votes_against];\n    }\n\n    function outcome(uint _proposal_id) internal {\n        if (proposals[_proposal_id].votes_for > proposals[_proposal_id].votes_against) {\n            proposals[_proposal_id].status = proposal_status.PASSED;\n        } else {\n            proposals[_proposal_id].status = proposal_status.FAILED;\n        }\n    }\n\n    function add_asset(address _asset_address, uint _asset_id) public {  // Check struct Asset for details\n        require(vault.asset_locked[_asset_address][_asset_id] == false, \"This asset is already locked\");\n        if (_asset_id != 0) {  // NFT\n            IERC721 asset = IERC721(_asset_address);\n            require(asset.ownerOf(_asset_id) == address(this), \"This asset isn't locked\");\n            vault.erc721.push(Asset(_asset_address, _asset_id));\n        } else {  // ERC20\n            vault.erc20.push(Asset(_asset_address, _asset_id));\n        }\n        vault.asset_locked[_asset_address][_asset_id] = true;\n    }\n\n    function get_asset(uint _asset_type) public view returns(Asset[] memory) {\n        /*\n        Get locked assets. UI should iterate over them checking the owner is this DAO\n        _asset_type: 0 - \"erc721\" / 1 - \"erc20\"\n        */\n        if (_asset_type == 0) {\n            return vault.erc721;\n        } else {\n            if (_asset_type == 1) {\n                return vault.erc20;\n            }\n        }\n        Asset[] memory empty;\n        return empty;\n    }\n\n    function onERC721Received(address operator,\n                              address from,\n                              uint256 tokenId,\n                              bytes calldata data) public pure override returns (bytes4) {\n        return this.onERC721Received.selector;\n    }\n\n}\n",
  "sourcePath": "/Users/y.sosunov/git/definition-hackathon/onchain/contracts/Dao.sol",
  "compiler": {
    "name": "solc",
    "version": "0.8.4+commit.c7e474f2.Emscripten.clang"
  },
  "schemaVersion": "3.3.4",
  "updatedAt": "2021-09-26T11:00:16.477Z",
  "devdoc": {
    "kind": "dev",
    "methods": {
      "onERC721Received(address,address,uint256,bytes)": {
        "details": "Whenever an {IERC721} `tokenId` token is transferred to this contract via {IERC721-safeTransferFrom} by `operator` from `from`, this function is called. It must return its Solidity selector to confirm the token transfer. If any other value is returned or the interface is not implemented by the recipient, the transfer will be reverted. The selector can be obtained in Solidity with `IERC721.onERC721Received.selector`."
      }
    },
    "version": 1
  },
  "userdoc": {
    "kind": "user",
    "methods": {},
    "version": 1
  }
}