{
  "contractName": "Dao",
  "abi": [
    {
      "inputs": [
        {
          "internalType": "string",
          "name": "_name",
          "type": "string"
        },
        {
          "internalType": "contract IERC20",
          "name": "_dao_token",
          "type": "address"
        }
      ],
      "stateMutability": "nonpayable",
      "type": "constructor"
    },
    {
      "inputs": [],
      "name": "dao_token",
      "outputs": [
        {
          "internalType": "contract IERC20",
          "name": "",
          "type": "address"
        }
      ],
      "stateMutability": "view",
      "type": "function"
    },
    {
      "inputs": [],
      "name": "name",
      "outputs": [
        {
          "internalType": "string",
          "name": "",
          "type": "string"
        }
      ],
      "stateMutability": "view",
      "type": "function"
    },
    {
      "inputs": [],
      "name": "proposal_id",
      "outputs": [
        {
          "internalType": "uint256",
          "name": "",
          "type": "uint256"
        }
      ],
      "stateMutability": "view",
      "type": "function"
    },
    {
      "inputs": [
        {
          "internalType": "uint256",
          "name": "_amount",
          "type": "uint256"
        }
      ],
      "name": "stake",
      "outputs": [],
      "stateMutability": "nonpayable",
      "type": "function"
    },
    {
      "inputs": [
        {
          "internalType": "uint256",
          "name": "_amount",
          "type": "uint256"
        }
      ],
      "name": "claim",
      "outputs": [],
      "stateMutability": "nonpayable",
      "type": "function"
    },
    {
      "inputs": [
        {
          "internalType": "string",
          "name": "_title",
          "type": "string"
        },
        {
          "internalType": "string",
          "name": "_description",
          "type": "string"
        },
        {
          "internalType": "bytes",
          "name": "_tx_to_execute",
          "type": "bytes"
        }
      ],
      "name": "propose",
      "outputs": [],
      "stateMutability": "nonpayable",
      "type": "function"
    },
    {
      "inputs": [
        {
          "internalType": "uint256",
          "name": "_proposal_id",
          "type": "uint256"
        },
        {
          "internalType": "bool",
          "name": "_vote",
          "type": "bool"
        }
      ],
      "name": "vote",
      "outputs": [],
      "stateMutability": "nonpayable",
      "type": "function"
    },
    {
      "inputs": [
        {
          "internalType": "uint256",
          "name": "_proposal_id",
          "type": "uint256"
        }
      ],
      "name": "votes_distribution",
      "outputs": [
        {
          "internalType": "uint256[2]",
          "name": "",
          "type": "uint256[2]"
        }
      ],
      "stateMutability": "nonpayable",
      "type": "function"
    },
    {
      "inputs": [
        {
          "internalType": "address",
          "name": "_asset_address",
          "type": "address"
        },
        {
          "internalType": "uint256",
          "name": "_asset_id",
          "type": "uint256"
        }
      ],
      "name": "add_asset",
      "outputs": [],
      "stateMutability": "nonpayable",
      "type": "function"
    },
    {
      "inputs": [
        {
          "internalType": "uint256",
          "name": "_asset_type",
          "type": "uint256"
        }
      ],
      "name": "get_asset",
      "outputs": [
        {
          "components": [
            {
              "internalType": "address",
              "name": "addr",
              "type": "address"
            },
            {
              "internalType": "uint256",
              "name": "id",
              "type": "uint256"
            }
          ],
          "internalType": "struct Dao.Asset[]",
          "name": "",
          "type": "tuple[]"
        }
      ],
      "stateMutability": "view",
      "type": "function"
    },
    {
      "inputs": [
        {
          "internalType": "address",
          "name": "operator",
          "type": "address"
        },
        {
          "internalType": "address",
          "name": "from",
          "type": "address"
        },
        {
          "internalType": "uint256",
          "name": "tokenId",
          "type": "uint256"
        },
        {
          "internalType": "bytes",
          "name": "data",
          "type": "bytes"
        }
      ],
      "name": "onERC721Received",
      "outputs": [
        {
          "internalType": "bytes4",
          "name": "",
          "type": "bytes4"
        }
      ],
      "stateMutability": "pure",
      "type": "function"
    }
  ],
  "bytecode": "0x60806040523480156200001157600080fd5b506040516200261f3803806200261f8339818101604052810190620000379190620001d1565b81600190805190602001906200004f92919062000098565b50806000806101000a81548173ffffffffffffffffffffffffffffffffffffffff021916908373ffffffffffffffffffffffffffffffffffffffff1602179055505050620003fd565b828054620000a69062000308565b90600052602060002090601f016020900481019282620000ca576000855562000116565b82601f10620000e557805160ff191683800117855562000116565b8280016001018555821562000116579182015b8281111562000115578251825591602001919060010190620000f8565b5b50905062000125919062000129565b5090565b5b80821115620001445760008160009055506001016200012a565b5090565b60006200015f620001598462000254565b6200022b565b9050828152602081018484840111156200017857600080fd5b62000185848285620002d2565b509392505050565b6000815190506200019e81620003e3565b92915050565b600082601f830112620001b657600080fd5b8151620001c884826020860162000148565b91505092915050565b60008060408385031215620001e557600080fd5b600083015167ffffffffffffffff8111156200020057600080fd5b6200020e85828601620001a4565b925050602062000221858286016200018d565b9150509250929050565b6000620002376200024a565b90506200024582826200033e565b919050565b6000604051905090565b600067ffffffffffffffff821115620002725762000271620003a3565b5b6200027d82620003d2565b9050602081019050919050565b60006200029782620002b2565b9050919050565b6000620002ab826200028a565b9050919050565b600073ffffffffffffffffffffffffffffffffffffffff82169050919050565b60005b83811015620002f2578082015181840152602081019050620002d5565b8381111562000302576000848401525b50505050565b600060028204905060018216806200032157607f821691505b6020821081141562000338576200033762000374565b5b50919050565b6200034982620003d2565b810181811067ffffffffffffffff821117156200036b576200036a620003a3565b5b80604052505050565b7f4e487b7100000000000000000000000000000000000000000000000000000000600052602260045260246000fd5b7f4e487b7100000000000000000000000000000000000000000000000000000000600052604160045260246000fd5b6000601f19601f8301169050919050565b620003ee816200029e565b8114620003fa57600080fd5b50565b612212806200040d6000396000f3fe608060405234801561001057600080fd5b50600436106100a95760003560e01c8063379607f511610071578063379607f514610178578063528f9d5514610194578063688e1d31146101b2578063a694fc3a146101d0578063c9d27afe146101ec578063f8c0e00f14610208576100a9565b806306fdde03146100ae5780630f9e4fb5146100cc57806310b1939f146100e8578063150b7a021461011857806317eb2f0914610148575b600080fd5b6100b6610224565b6040516100c39190611bf6565b60405180910390f35b6100e660048036038101906100e19190611722565b6102b2565b005b61010260048036038101906100fd919061181e565b61062c565b60405161010f9190611b83565b60405180910390f35b610132600480360381019061012d91906116a2565b6107d0565b60405161013f9190611bc0565b60405180910390f35b610162600480360381019061015d919061181e565b6107e5565b60405161016f9190611ba5565b60405180910390f35b610192600480360381019061018d919061181e565b610835565b005b61019c610aa3565b6040516101a99190611c98565b60405180910390f35b6101ba610aa9565b6040516101c79190611bdb565b60405180910390f35b6101ea60048036038101906101e5919061181e565b610acd565b005b61020660048036038101906102019190611870565b610d37565b005b610222600480360381019061021d9190611787565b610f77565b005b6001805461023190611f77565b80601f016020809104026020016040519081016040528092919081815260200182805461025d90611f77565b80156102aa5780601f1061027f576101008083540402835291602001916102aa565b820191906000526020600020905b81548152906001019060200180831161028d57829003601f168201915b505050505081565b60001515600360000160008473ffffffffffffffffffffffffffffffffffffffff1673ffffffffffffffffffffffffffffffffffffffff168152602001908152602001600020600083815260200190815260200160002060009054906101000a900460ff16151514610359576040517f08c379a000000000000000000000000000000000000000000000000000000000815260040161035090611c58565b60405180910390fd5b6000811461050f5760008290503073ffffffffffffffffffffffffffffffffffffffff168173ffffffffffffffffffffffffffffffffffffffff16636352211e846040518263ffffffff1660e01b81526004016103b69190611c98565b60206040518083038186803b1580156103ce57600080fd5b505afa1580156103e2573d6000803e3d6000fd5b505050506040513d601f19601f820116820180604052508101906104069190611679565b73ffffffffffffffffffffffffffffffffffffffff16141561045d576040517f08c379a000000000000000000000000000000000000000000000000000000000815260040161045490611c78565b60405180910390fd5b600360010160405180604001604052808573ffffffffffffffffffffffffffffffffffffffff16815260200184815250908060018154018082558091505060019003906000526020600020906002020160009091909190915060008201518160000160006101000a81548173ffffffffffffffffffffffffffffffffffffffff021916908373ffffffffffffffffffffffffffffffffffffffff160217905550602082015181600101555050506105bc565b600360020160405180604001604052808473ffffffffffffffffffffffffffffffffffffffff16815260200183815250908060018154018082558091505060019003906000526020600020906002020160009091909190915060008201518160000160006101000a81548173ffffffffffffffffffffffffffffffffffffffff021916908373ffffffffffffffffffffffffffffffffffffffff1602179055506020820151816001015550505b6001600360000160008473ffffffffffffffffffffffffffffffffffffffff1673ffffffffffffffffffffffffffffffffffffffff168152602001908152602001600020600083815260200190815260200160002060006101000a81548160ff0219169083151502179055505050565b606060008214156106f9576003600101805480602002602001604051908101604052809291908181526020016000905b828210156106ee57838290600052602060002090600202016040518060400160405290816000820160009054906101000a900473ffffffffffffffffffffffffffffffffffffffff1673ffffffffffffffffffffffffffffffffffffffff1673ffffffffffffffffffffffffffffffffffffffff1681526020016001820154815250508152602001906001019061065c565b5050505090506107cb565b60018214156107c4576003600201805480602002602001604051908101604052809291908181526020016000905b828210156107b957838290600052602060002090600202016040518060400160405290816000820160009054906101000a900473ffffffffffffffffffffffffffffffffffffffff1673ffffffffffffffffffffffffffffffffffffffff1673ffffffffffffffffffffffffffffffffffffffff16815260200160018201548152505081526020019060010190610727565b5050505090506107cb565b6060809150505b919050565b600063150b7a0260e01b905095945050505050565b6107ed611396565b60405180604001604052806006600085815260200190815260200160002060040154815260200160066000858152602001908152602001600020600501548152509050919050565b6000600760003373ffffffffffffffffffffffffffffffffffffffff1673ffffffffffffffffffffffffffffffffffffffff168152602001908152602001600020549050818110156109345760008054906101000a900473ffffffffffffffffffffffffffffffffffffffff1673ffffffffffffffffffffffffffffffffffffffff1663a9059cbb33836040518363ffffffff1660e01b81526004016108dc929190611b5a565b602060405180830381600087803b1580156108f657600080fd5b505af115801561090a573d6000803e3d6000fd5b505050506040513d601f19601f8201168201806040525081019061092e919061175e565b50610a9f565b818110156109ef5760008054906101000a900473ffffffffffffffffffffffffffffffffffffffff1673ffffffffffffffffffffffffffffffffffffffff1663a9059cbb33836040518363ffffffff1660e01b8152600401610997929190611b5a565b602060405180830381600087803b1580156109b157600080fd5b505af11580156109c5573d6000803e3d6000fd5b505050506040513d601f19601f820116820180604052508101906109e9919061175e565b50610a9e565b60008054906101000a900473ffffffffffffffffffffffffffffffffffffffff1673ffffffffffffffffffffffffffffffffffffffff1663a9059cbb33846040518363ffffffff1660e01b8152600401610a4a929190611b5a565b602060405180830381600087803b158015610a6457600080fd5b505af1158015610a78573d6000803e3d6000fd5b505050506040513d601f19601f82011682018060405250810190610a9c919061175e565b505b5b5050565b60025481565b60008054906101000a900473ffffffffffffffffffffffffffffffffffffffff1681565b8060008054906101000a900473ffffffffffffffffffffffffffffffffffffffff1673ffffffffffffffffffffffffffffffffffffffff1663dd62ed3e33306040518363ffffffff1660e01b8152600401610b29929190611afa565b60206040518083038186803b158015610b4157600080fd5b505afa158015610b55573d6000803e3d6000fd5b505050506040513d601f19601f82011682018060405250810190610b799190611847565b1015610c2e5760008054906101000a900473ffffffffffffffffffffffffffffffffffffffff1673ffffffffffffffffffffffffffffffffffffffff1663095ea7b330836040518363ffffffff1660e01b8152600401610bda929190611b5a565b602060405180830381600087803b158015610bf457600080fd5b505af1158015610c08573d6000803e3d6000fd5b505050506040513d601f19601f82011682018060405250810190610c2c919061175e565b505b60008054906101000a900473ffffffffffffffffffffffffffffffffffffffff1673ffffffffffffffffffffffffffffffffffffffff166323b872dd3330846040518463ffffffff1660e01b8152600401610c8b93929190611b23565b602060405180830381600087803b158015610ca557600080fd5b505af1158015610cb9573d6000803e3d6000fd5b505050506040513d601f19601f82011682018060405250810190610cdd919061175e565b5080600760003373ffffffffffffffffffffffffffffffffffffffff1673ffffffffffffffffffffffffffffffffffffffff1681526020019081526020016000206000828254610d2d9190611dbc565b9250508190555050565b60008060009054906101000a900473ffffffffffffffffffffffffffffffffffffffff1673ffffffffffffffffffffffffffffffffffffffff166370a08231336040518263ffffffff1660e01b8152600401610d939190611adf565b60206040518083038186803b158015610dab57600080fd5b505afa158015610dbf573d6000803e3d6000fd5b505050506040513d601f19601f82011682018060405250810190610de39190611847565b1415610e24576040517f08c379a0000000000000000000000000000000000000000000000000000000008152600401610e1b90611c18565b60405180910390fd5b600115158115151415610ea257600760003373ffffffffffffffffffffffffffffffffffffffff1673ffffffffffffffffffffffffffffffffffffffff16815260200190815260200160002054600660008481526020019081526020016000206004016000828254610e969190611dbc565b92505081905550610f0f565b600760003373ffffffffffffffffffffffffffffffffffffffff1673ffffffffffffffffffffffffffffffffffffffff16815260200190815260200160002054600660008481526020019081526020016000206005016000828254610f079190611dbc565b925050819055505b600060066000848152602001908152602001600020600501546006600085815260200190815260200160002060040154610f499190611dbc565b905060066000848152602001908152602001600020600601548110610f7257610f718361128f565b5b505050565b60008060009054906101000a900473ffffffffffffffffffffffffffffffffffffffff1673ffffffffffffffffffffffffffffffffffffffff166370a08231336040518263ffffffff1660e01b8152600401610fd39190611adf565b60206040518083038186803b158015610feb57600080fd5b505afa158015610fff573d6000803e3d6000fd5b505050506040513d601f19601f820116820180604052508101906110239190611847565b1415611064576040517f08c379a000000000000000000000000000000000000000000000000000000000815260040161105b90611c38565b60405180910390fd5b6001600260008282546110779190611dbc565b9250508190555060006040518060e00160405280600060028111156110c5577f4e487b7100000000000000000000000000000000000000000000000000000000600052602160045260246000fd5b81526020018581526020018481526020018381526020016000815260200160008152602001600460008054906101000a900473ffffffffffffffffffffffffffffffffffffffff1673ffffffffffffffffffffffffffffffffffffffff166318160ddd6040518163ffffffff1660e01b815260040160206040518083038186803b15801561115257600080fd5b505afa158015611166573d6000803e3d6000fd5b505050506040513d601f19601f8201168201806040525081019061118a9190611847565b60036111969190611e43565b6111a09190611e12565b81525090508060066000600254815260200190815260200160002060008201518160000160006101000a81548160ff0219169083600281111561120c577f4e487b7100000000000000000000000000000000000000000000000000000000600052602160045260246000fd5b0217905550602082015181600101908051906020019061122d9291906113b8565b50604082015181600201908051906020019061124a9291906113b8565b50606082015181600301908051906020019061126792919061143e565b506080820151816004015560a0820151816005015560c0820151816006015590505050505050565b60066000828152602001908152602001600020600501546006600083815260200190815260200160002060040154111561132d5760016006600083815260200190815260200160002060000160006101000a81548160ff02191690836002811115611323577f4e487b7100000000000000000000000000000000000000000000000000000000600052602160045260246000fd5b0217905550611393565b60026006600083815260200190815260200160002060000160006101000a81548160ff0219169083600281111561138d577f4e487b7100000000000000000000000000000000000000000000000000000000600052602160045260246000fd5b02179055505b50565b6040518060400160405280600290602082028036833780820191505090505090565b8280546113c490611f77565b90600052602060002090601f0160209004810192826113e6576000855561142d565b82601f106113ff57805160ff191683800117855561142d565b8280016001018555821561142d579182015b8281111561142c578251825591602001919060010190611411565b5b50905061143a91906114c4565b5090565b82805461144a90611f77565b90600052602060002090601f01602090048101928261146c57600085556114b3565b82601f1061148557805160ff19168380011785556114b3565b828001600101855582156114b3579182015b828111156114b2578251825591602001919060010190611497565b5b5090506114c091906114c4565b5090565b5b808211156114dd5760008160009055506001016114c5565b5090565b60006114f46114ef84611cd8565b611cb3565b90508281526020810184848401111561150c57600080fd5b611517848285611f35565b509392505050565b600061153261152d84611d09565b611cb3565b90508281526020810184848401111561154a57600080fd5b611555848285611f35565b509392505050565b60008135905061156c81612197565b92915050565b60008151905061158181612197565b92915050565b600081359050611596816121ae565b92915050565b6000815190506115ab816121ae565b92915050565b60008083601f8401126115c357600080fd5b8235905067ffffffffffffffff8111156115dc57600080fd5b6020830191508360018202830111156115f457600080fd5b9250929050565b600082601f83011261160c57600080fd5b813561161c8482602086016114e1565b91505092915050565b600082601f83011261163657600080fd5b813561164684826020860161151f565b91505092915050565b60008135905061165e816121c5565b92915050565b600081519050611673816121c5565b92915050565b60006020828403121561168b57600080fd5b600061169984828501611572565b91505092915050565b6000806000806000608086880312156116ba57600080fd5b60006116c88882890161155d565b95505060206116d98882890161155d565b94505060406116ea8882890161164f565b935050606086013567ffffffffffffffff81111561170757600080fd5b611713888289016115b1565b92509250509295509295909350565b6000806040838503121561173557600080fd5b60006117438582860161155d565b92505060206117548582860161164f565b9150509250929050565b60006020828403121561177057600080fd5b600061177e8482850161159c565b91505092915050565b60008060006060848603121561179c57600080fd5b600084013567ffffffffffffffff8111156117b657600080fd5b6117c286828701611625565b935050602084013567ffffffffffffffff8111156117df57600080fd5b6117eb86828701611625565b925050604084013567ffffffffffffffff81111561180857600080fd5b611814868287016115fb565b9150509250925092565b60006020828403121561183057600080fd5b600061183e8482850161164f565b91505092915050565b60006020828403121561185957600080fd5b600061186784828501611664565b91505092915050565b6000806040838503121561188357600080fd5b60006118918582860161164f565b92505060206118a285828601611587565b9150509250929050565b60006118b88383611a92565b60408301905092915050565b60006118d08383611ac1565b60208301905092915050565b6118e581611e9d565b82525050565b6118f481611e9d565b82525050565b600061190582611d54565b61190f8185611d8f565b935061191a83611d3a565b8060005b8381101561194b57815161193288826118ac565b975061193d83611d75565b92505060018101905061191e565b5085935050505092915050565b61196181611d5f565b61196b8184611da0565b925061197682611d4a565b8060005b838110156119a757815161198e87826118c4565b965061199983611d82565b92505060018101905061197a565b505050505050565b6119b881611ebb565b82525050565b6119c781611f11565b82525050565b60006119d882611d6a565b6119e28185611dab565b93506119f2818560208601611f44565b6119fb81612096565b840191505092915050565b6000611a13602b83611dab565b9150611a1e826120a7565b604082019050919050565b6000611a36603c83611dab565b9150611a41826120f6565b604082019050919050565b6000611a59601c83611dab565b9150611a6482612145565b602082019050919050565b6000611a7c601783611dab565b9150611a878261216e565b602082019050919050565b604082016000820151611aa860008501826118dc565b506020820151611abb6020850182611ac1565b50505050565b611aca81611f07565b82525050565b611ad981611f07565b82525050565b6000602082019050611af460008301846118eb565b92915050565b6000604082019050611b0f60008301856118eb565b611b1c60208301846118eb565b9392505050565b6000606082019050611b3860008301866118eb565b611b4560208301856118eb565b611b526040830184611ad0565b949350505050565b6000604082019050611b6f60008301856118eb565b611b7c6020830184611ad0565b9392505050565b60006020820190508181036000830152611b9d81846118fa565b905092915050565b6000604082019050611bba6000830184611958565b92915050565b6000602082019050611bd560008301846119af565b92915050565b6000602082019050611bf060008301846119be565b92915050565b60006020820190508181036000830152611c1081846119cd565b905092915050565b60006020820190508181036000830152611c3181611a06565b9050919050565b60006020820190508181036000830152611c5181611a29565b9050919050565b60006020820190508181036000830152611c7181611a4c565b9050919050565b60006020820190508181036000830152611c9181611a6f565b9050919050565b6000602082019050611cad6000830184611ad0565b92915050565b6000611cbd611cce565b9050611cc98282611fa9565b919050565b6000604051905090565b600067ffffffffffffffff821115611cf357611cf2612067565b5b611cfc82612096565b9050602081019050919050565b600067ffffffffffffffff821115611d2457611d23612067565b5b611d2d82612096565b9050602081019050919050565b6000819050602082019050919050565b6000819050919050565b600081519050919050565b600060029050919050565b600081519050919050565b6000602082019050919050565b6000602082019050919050565b600082825260208201905092915050565b600081905092915050565b600082825260208201905092915050565b6000611dc782611f07565b9150611dd283611f07565b9250827fffffffffffffffffffffffffffffffffffffffffffffffffffffffffffffffff03821115611e0757611e06611fda565b5b828201905092915050565b6000611e1d82611f07565b9150611e2883611f07565b925082611e3857611e37612009565b5b828204905092915050565b6000611e4e82611f07565b9150611e5983611f07565b9250817fffffffffffffffffffffffffffffffffffffffffffffffffffffffffffffffff0483118215151615611e9257611e91611fda565b5b828202905092915050565b6000611ea882611ee7565b9050919050565b60008115159050919050565b60007fffffffff0000000000000000000000000000000000000000000000000000000082169050919050565b600073ffffffffffffffffffffffffffffffffffffffff82169050919050565b6000819050919050565b6000611f1c82611f23565b9050919050565b6000611f2e82611ee7565b9050919050565b82818337600083830152505050565b60005b83811015611f62578082015181840152602081019050611f47565b83811115611f71576000848401525b50505050565b60006002820490506001821680611f8f57607f821691505b60208210811415611fa357611fa2612038565b5b50919050565b611fb282612096565b810181811067ffffffffffffffff82111715611fd157611fd0612067565b5b80604052505050565b7f4e487b7100000000000000000000000000000000000000000000000000000000600052601160045260246000fd5b7f4e487b7100000000000000000000000000000000000000000000000000000000600052601260045260246000fd5b7f4e487b7100000000000000000000000000000000000000000000000000000000600052602260045260246000fd5b7f4e487b7100000000000000000000000000000000000000000000000000000000600052604160045260246000fd5b6000601f19601f8301169050919050565b7f506c65617365207374616b6520796f757220676f7665726e616e636520746f6b60008201527f656e7320746f20766f7465000000000000000000000000000000000000000000602082015250565b7f506c65617365207374616b6520796f757220676f7665726e616e636520746f6b60008201527f656e7320746f206372656174652061206e65772070726f706f73616c00000000602082015250565b7f5468697320617373657420697320616c7265616479206c6f636b656400000000600082015250565b7f546869732061737365742069736e2774206c6f636b6564000000000000000000600082015250565b6121a081611e9d565b81146121ab57600080fd5b50565b6121b781611eaf565b81146121c257600080fd5b50565b6121ce81611f07565b81146121d957600080fd5b5056fea2646970667358221220c5e3d9d515dc0770a6844b904a7cf49cd518b11b6abc7594d8886234dc479c6f64736f6c63430008040033",
  "immutableReferences": {},
  "source": "pragma solidity ^0.8.0;\nimport \"@openzeppelin/contracts/token/ERC20/IERC20.sol\";\nimport \"@openzeppelin/contracts/token/ERC721/IERC721.sol\";\nimport \"@openzeppelin/contracts/token/ERC721/IERC721Receiver.sol\";\n\ncontract Dao is IERC721Receiver {\n\n    IERC20 public dao_token;\n    string public name;\n    uint public proposal_id;\n\n    enum proposal_status{ ACTIVE, PASSED, FAILED }\n\n    struct Proposal {\n        proposal_status status;\n        string title;\n        string description;\n        bytes tx;  // Transaction to be executed when proposal passes\n        uint votes_for;  // Amount of \"For\" votes\n        uint votes_against;  // Amount of \"Against\" votes\n        uint threshold;  // Amount of voting power which took a part in voting process for the proposal to be closed\n    }\n\n    struct Asset {\n        address addr;  // Address of stored asset\n        uint id;  // Should be zero for ERC20 and non-zero for ERC721\n    }\n\n    struct Vault {\n        mapping(address => mapping(uint => bool)) asset_locked;\n        Asset[] erc721;  // Locked NFTs\n        Asset[] erc20;  // Locked ERC20\n    }\n\n    Vault vault;\n    mapping(uint => Proposal) proposals;  // All proposals by their ids\n    mapping(address => uint) stakes;  // Staked voting power: user => amount\n\n    constructor(string memory _name,\n                IERC20 _dao_token) {\n        name = _name;\n        dao_token = _dao_token;\n    }\n\n    function stake(uint _amount) public {\n        if (dao_token.allowance(msg.sender, address(this)) < _amount) {\n            dao_token.approve(address(this), _amount);\n        }\n        dao_token.transferFrom(msg.sender, address(this), _amount);\n        stakes[msg.sender] += _amount;\n    }\n\n    function claim(uint _amount) public {  // 50\n        uint user_stake = stakes[msg.sender];  // 2\n        if (user_stake < _amount) {  // 2*50 < 50\n            dao_token.transfer(msg.sender, user_stake);\n        } else {\n            if (user_stake < _amount) {\n                dao_token.transfer(msg.sender, user_stake);\n            } else {\n                dao_token.transfer(msg.sender, _amount);\n            }\n        }\n    }\n\n    function propose(string memory _title, string memory _description, bytes memory _tx_to_execute) public {\n        require(dao_token.balanceOf(msg.sender) != 0, \"Please stake your governance tokens to create a new proposal\");\n        proposal_id += 1;\n        Proposal memory proposal = Proposal(proposal_status.ACTIVE,\n                                            _title,\n                                            _description,\n                                            _tx_to_execute,\n                                            0, 0,\n                                            (3*dao_token.totalSupply())/4);\n        proposals[proposal_id] = proposal;\n    }\n\n    function vote(uint _proposal_id, bool _vote) public {  // vote: true - \"For\", false - \"Against\"\n        require(dao_token.balanceOf(msg.sender) != 0, \"Please stake your governance tokens to vote\");\n        if (_vote == true) {\n            proposals[_proposal_id].votes_for += stakes[msg.sender];\n        } else {\n            proposals[_proposal_id].votes_against += stakes[msg.sender];\n        }\n        uint total_votes = proposals[_proposal_id].votes_for + proposals[_proposal_id].votes_against;\n        if (total_votes >= proposals[_proposal_id].threshold) {\n            outcome(_proposal_id);\n        }\n    }\n\n    function votes_distribution(uint _proposal_id) public returns (uint[2] memory){\n        return [proposals[_proposal_id].votes_for, proposals[_proposal_id].votes_against];\n    }\n\n    function outcome(uint _proposal_id) internal {\n        if (proposals[_proposal_id].votes_for > proposals[_proposal_id].votes_against) {\n            proposals[_proposal_id].status = proposal_status.PASSED;\n        } else {\n        proposals[_proposal_id].status = proposal_status.FAILED;\n        }\n    }\n\n    function add_asset(address _asset_address, uint _asset_id) public {  // Check struct Asset for details\n        require(vault.asset_locked[_asset_address][_asset_id] == false, \"This asset is already locked\");\n        if (_asset_id != 0) {  // NFT\n            IERC721 asset = IERC721(_asset_address);\n            require(asset.ownerOf(_asset_id) != address(this), \"This asset isn't locked\");\n            vault.erc721.push(Asset(_asset_address, _asset_id));\n        } else {  // ERC20\n            vault.erc20.push(Asset(_asset_address, _asset_id));\n        }\n        vault.asset_locked[_asset_address][_asset_id] = true;\n    }\n\n    function get_asset(uint _asset_type) public view returns(Asset[] memory) {\n        /*\n        Get locked assets. UI should iterate over them checking the owner is this DAO\n        _asset_type: 0 - \"erc721\" / 1 - \"erc20\"\n        */\n        if (_asset_type == 0) {\n            return vault.erc721;\n        } else {\n            if (_asset_type == 1) {\n                return vault.erc20;\n            }\n        }\n        Asset[] memory empty;\n        return empty;\n    }\n\n    function onERC721Received(address operator,\n                              address from,\n                              uint256 tokenId,\n                              bytes calldata data) public pure override returns (bytes4) {\n        return this.onERC721Received.selector;\n    }\n\n}\n",
  "sourcePath": "/Users/y.sosunov/git/definition-hackathon/onchain/contracts/Dao.sol",
  "compiler": {
    "name": "solc",
    "version": "0.8.4+commit.c7e474f2.Emscripten.clang"
  },
  "schemaVersion": "3.3.4",
  "updatedAt": "2021-09-25T16:34:19.227Z",
  "devdoc": {
    "kind": "dev",
    "methods": {
      "onERC721Received(address,address,uint256,bytes)": {
        "details": "Whenever an {IERC721} `tokenId` token is transferred to this contract via {IERC721-safeTransferFrom} by `operator` from `from`, this function is called. It must return its Solidity selector to confirm the token transfer. If any other value is returned or the interface is not implemented by the recipient, the transfer will be reverted. The selector can be obtained in Solidity with `IERC721.onERC721Received.selector`."
      }
    },
    "version": 1
  },
  "userdoc": {
    "kind": "user",
    "methods": {},
    "version": 1
  }
}