{
  "contractName": "Dao",
  "abi": [
    {
      "inputs": [
        {
          "internalType": "string",
          "name": "_name",
          "type": "string"
        },
        {
          "internalType": "contract IERC20",
          "name": "_dao_token",
          "type": "address"
        }
      ],
      "stateMutability": "nonpayable",
      "type": "constructor"
    },
    {
      "inputs": [],
      "name": "dao_token",
      "outputs": [
        {
          "internalType": "contract IERC20",
          "name": "",
          "type": "address"
        }
      ],
      "stateMutability": "view",
      "type": "function"
    },
    {
      "inputs": [],
      "name": "name",
      "outputs": [
        {
          "internalType": "string",
          "name": "",
          "type": "string"
        }
      ],
      "stateMutability": "view",
      "type": "function"
    },
    {
      "inputs": [],
      "name": "proposal_id",
      "outputs": [
        {
          "internalType": "uint256",
          "name": "",
          "type": "uint256"
        }
      ],
      "stateMutability": "view",
      "type": "function"
    },
    {
      "inputs": [
        {
          "internalType": "uint256",
          "name": "_amount",
          "type": "uint256"
        }
      ],
      "name": "stake",
      "outputs": [],
      "stateMutability": "nonpayable",
      "type": "function"
    },
    {
      "inputs": [
        {
          "internalType": "uint256",
          "name": "_amount",
          "type": "uint256"
        }
      ],
      "name": "claim",
      "outputs": [],
      "stateMutability": "nonpayable",
      "type": "function"
    },
    {
      "inputs": [
        {
          "internalType": "string",
          "name": "_title",
          "type": "string"
        },
        {
          "internalType": "string",
          "name": "_description",
          "type": "string"
        },
        {
          "internalType": "bytes",
          "name": "_tx_to_execute",
          "type": "bytes"
        }
      ],
      "name": "propose_tx",
      "outputs": [],
      "stateMutability": "nonpayable",
      "type": "function"
    },
    {
      "inputs": [
        {
          "internalType": "string",
          "name": "_title",
          "type": "string"
        },
        {
          "internalType": "string",
          "name": "_description",
          "type": "string"
        },
        {
          "internalType": "contract IERC721",
          "name": "_asset_address",
          "type": "address"
        },
        {
          "internalType": "uint256",
          "name": "_asset_id",
          "type": "uint256"
        }
      ],
      "name": "propose_sell",
      "outputs": [],
      "stateMutability": "nonpayable",
      "type": "function"
    },
    {
      "inputs": [
        {
          "internalType": "uint256",
          "name": "_proposal_id",
          "type": "uint256"
        },
        {
          "internalType": "bool",
          "name": "_vote",
          "type": "bool"
        }
      ],
      "name": "vote",
      "outputs": [],
      "stateMutability": "nonpayable",
      "type": "function"
    },
    {
      "inputs": [
        {
          "internalType": "uint256",
          "name": "_proposal_id",
          "type": "uint256"
        }
      ],
      "name": "votes_distribution",
      "outputs": [
        {
          "internalType": "uint256[2]",
          "name": "",
          "type": "uint256[2]"
        }
      ],
      "stateMutability": "nonpayable",
      "type": "function"
    },
    {
      "inputs": [
        {
          "internalType": "address",
          "name": "_asset_address",
          "type": "address"
        },
        {
          "internalType": "uint256",
          "name": "_asset_id",
          "type": "uint256"
        }
      ],
      "name": "add_asset",
      "outputs": [],
      "stateMutability": "nonpayable",
      "type": "function"
    },
    {
      "inputs": [
        {
          "internalType": "uint256",
          "name": "_asset_type",
          "type": "uint256"
        }
      ],
      "name": "get_asset",
      "outputs": [
        {
          "components": [
            {
              "internalType": "address",
              "name": "addr",
              "type": "address"
            },
            {
              "internalType": "uint256",
              "name": "id",
              "type": "uint256"
            }
          ],
          "internalType": "struct Dao.Asset[]",
          "name": "",
          "type": "tuple[]"
        }
      ],
      "stateMutability": "view",
      "type": "function"
    },
    {
      "inputs": [
        {
          "internalType": "address",
          "name": "operator",
          "type": "address"
        },
        {
          "internalType": "address",
          "name": "from",
          "type": "address"
        },
        {
          "internalType": "uint256",
          "name": "tokenId",
          "type": "uint256"
        },
        {
          "internalType": "bytes",
          "name": "data",
          "type": "bytes"
        }
      ],
      "name": "onERC721Received",
      "outputs": [
        {
          "internalType": "bytes4",
          "name": "",
          "type": "bytes4"
        }
      ],
      "stateMutability": "pure",
      "type": "function"
    }
  ],
  "bytecode": "0x60806040523480156200001157600080fd5b5060405162002a6738038062002a678339818101604052810190620000379190620001d1565b81600190805190602001906200004f92919062000098565b50806000806101000a81548173ffffffffffffffffffffffffffffffffffffffff021916908373ffffffffffffffffffffffffffffffffffffffff1602179055505050620003fd565b828054620000a69062000308565b90600052602060002090601f016020900481019282620000ca576000855562000116565b82601f10620000e557805160ff191683800117855562000116565b8280016001018555821562000116579182015b8281111562000115578251825591602001919060010190620000f8565b5b50905062000125919062000129565b5090565b5b80821115620001445760008160009055506001016200012a565b5090565b60006200015f620001598462000254565b6200022b565b9050828152602081018484840111156200017857600080fd5b62000185848285620002d2565b509392505050565b6000815190506200019e81620003e3565b92915050565b600082601f830112620001b657600080fd5b8151620001c884826020860162000148565b91505092915050565b60008060408385031215620001e557600080fd5b600083015167ffffffffffffffff8111156200020057600080fd5b6200020e85828601620001a4565b925050602062000221858286016200018d565b9150509250929050565b6000620002376200024a565b90506200024582826200033e565b919050565b6000604051905090565b600067ffffffffffffffff821115620002725762000271620003a3565b5b6200027d82620003d2565b9050602081019050919050565b60006200029782620002b2565b9050919050565b6000620002ab826200028a565b9050919050565b600073ffffffffffffffffffffffffffffffffffffffff82169050919050565b60005b83811015620002f2578082015181840152602081019050620002d5565b8381111562000302576000848401525b50505050565b600060028204905060018216806200032157607f821691505b6020821081141562000338576200033762000374565b5b50919050565b6200034982620003d2565b810181811067ffffffffffffffff821117156200036b576200036a620003a3565b5b80604052505050565b7f4e487b7100000000000000000000000000000000000000000000000000000000600052602260045260246000fd5b7f4e487b7100000000000000000000000000000000000000000000000000000000600052604160045260246000fd5b6000601f19601f8301169050919050565b620003ee816200029e565b8114620003fa57600080fd5b50565b61265a806200040d6000396000f3fe608060405234801561001057600080fd5b50600436106100b45760003560e01c8063528f9d5511610071578063528f9d551461019f578063688e1d31146101bd578063a694fc3a146101db578063c9d27afe146101f7578063e4dd26cf14610213578063e9a4b6911461022f576100b4565b806306fdde03146100b95780630f9e4fb5146100d757806310b1939f146100f3578063150b7a021461012357806317eb2f0914610153578063379607f514610183575b600080fd5b6100c161024b565b6040516100ce9190612015565b60405180910390f35b6100f160048036038101906100ec9190611aae565b6102d9565b005b61010d60048036038101906101089190611c3d565b610652565b60405161011a9190611fa2565b60405180910390f35b61013d60048036038101906101389190611a2e565b6107f6565b60405161014a9190611fdf565b60405180910390f35b61016d60048036038101906101689190611c3d565b61080b565b60405161017a9190611fc4565b60405180910390f35b61019d60048036038101906101989190611c3d565b61085b565b005b6101a7610ac9565b6040516101b491906120b7565b60405180910390f35b6101c5610acf565b6040516101d29190611ffa565b60405180910390f35b6101f560048036038101906101f09190611c3d565b610af3565b005b610211600480360381019061020c9190611c8f565b610d5d565b005b61022d60048036038101906102289190611b13565b610f9d565b005b61024960048036038101906102449190611baa565b611344565b005b60018054610258906123a8565b80601f0160208091040260200160405190810160405280929190818152602001828054610284906123a8565b80156102d15780601f106102a6576101008083540402835291602001916102d1565b820191906000526020600020905b8154815290600101906020018083116102b457829003601f168201915b505050505081565b60001515600360000160008473ffffffffffffffffffffffffffffffffffffffff1673ffffffffffffffffffffffffffffffffffffffff168152602001908152602001600020600083815260200190815260200160002060009054906101000a900460ff16151514610380576040517f08c379a000000000000000000000000000000000000000000000000000000000815260040161037790612077565b60405180910390fd5b600081146105355760008290503073ffffffffffffffffffffffffffffffffffffffff168173ffffffffffffffffffffffffffffffffffffffff16636352211e846040518263ffffffff1660e01b81526004016103dd91906120b7565b60206040518083038186803b1580156103f557600080fd5b505afa158015610409573d6000803e3d6000fd5b505050506040513d601f19601f8201168201806040525081019061042d9190611a05565b73ffffffffffffffffffffffffffffffffffffffff1614610483576040517f08c379a000000000000000000000000000000000000000000000000000000000815260040161047a90612097565b60405180910390fd5b600360010160405180604001604052808573ffffffffffffffffffffffffffffffffffffffff16815260200184815250908060018154018082558091505060019003906000526020600020906002020160009091909190915060008201518160000160006101000a81548173ffffffffffffffffffffffffffffffffffffffff021916908373ffffffffffffffffffffffffffffffffffffffff160217905550602082015181600101555050506105e2565b600360020160405180604001604052808473ffffffffffffffffffffffffffffffffffffffff16815260200183815250908060018154018082558091505060019003906000526020600020906002020160009091909190915060008201518160000160006101000a81548173ffffffffffffffffffffffffffffffffffffffff021916908373ffffffffffffffffffffffffffffffffffffffff1602179055506020820151816001015550505b6001600360000160008473ffffffffffffffffffffffffffffffffffffffff1673ffffffffffffffffffffffffffffffffffffffff168152602001908152602001600020600083815260200190815260200160002060006101000a81548160ff0219169083151502179055505050565b6060600082141561071f576003600101805480602002602001604051908101604052809291908181526020016000905b8282101561071457838290600052602060002090600202016040518060400160405290816000820160009054906101000a900473ffffffffffffffffffffffffffffffffffffffff1673ffffffffffffffffffffffffffffffffffffffff1673ffffffffffffffffffffffffffffffffffffffff16815260200160018201548152505081526020019060010190610682565b5050505090506107f1565b60018214156107ea576003600201805480602002602001604051908101604052809291908181526020016000905b828210156107df57838290600052602060002090600202016040518060400160405290816000820160009054906101000a900473ffffffffffffffffffffffffffffffffffffffff1673ffffffffffffffffffffffffffffffffffffffff1673ffffffffffffffffffffffffffffffffffffffff1681526020016001820154815250508152602001906001019061074d565b5050505090506107f1565b6060809150505b919050565b600063150b7a0260e01b905095945050505050565b61081361170d565b60405180604001604052806006600085815260200190815260200160002060060154815260200160066000858152602001908152602001600020600701548152509050919050565b6000600760003373ffffffffffffffffffffffffffffffffffffffff1673ffffffffffffffffffffffffffffffffffffffff1681526020019081526020016000205490508181101561095a5760008054906101000a900473ffffffffffffffffffffffffffffffffffffffff1673ffffffffffffffffffffffffffffffffffffffff1663a9059cbb33836040518363ffffffff1660e01b8152600401610902929190611f79565b602060405180830381600087803b15801561091c57600080fd5b505af1158015610930573d6000803e3d6000fd5b505050506040513d601f19601f820116820180604052508101906109549190611aea565b50610ac5565b81811015610a155760008054906101000a900473ffffffffffffffffffffffffffffffffffffffff1673ffffffffffffffffffffffffffffffffffffffff1663a9059cbb33836040518363ffffffff1660e01b81526004016109bd929190611f79565b602060405180830381600087803b1580156109d757600080fd5b505af11580156109eb573d6000803e3d6000fd5b505050506040513d601f19601f82011682018060405250810190610a0f9190611aea565b50610ac4565b60008054906101000a900473ffffffffffffffffffffffffffffffffffffffff1673ffffffffffffffffffffffffffffffffffffffff1663a9059cbb33846040518363ffffffff1660e01b8152600401610a70929190611f79565b602060405180830381600087803b158015610a8a57600080fd5b505af1158015610a9e573d6000803e3d6000fd5b505050506040513d601f19601f82011682018060405250810190610ac29190611aea565b505b5b5050565b60025481565b60008054906101000a900473ffffffffffffffffffffffffffffffffffffffff1681565b8060008054906101000a900473ffffffffffffffffffffffffffffffffffffffff1673ffffffffffffffffffffffffffffffffffffffff1663dd62ed3e33306040518363ffffffff1660e01b8152600401610b4f929190611f19565b60206040518083038186803b158015610b6757600080fd5b505afa158015610b7b573d6000803e3d6000fd5b505050506040513d601f19601f82011682018060405250810190610b9f9190611c66565b1015610c545760008054906101000a900473ffffffffffffffffffffffffffffffffffffffff1673ffffffffffffffffffffffffffffffffffffffff1663095ea7b330836040518363ffffffff1660e01b8152600401610c00929190611f79565b602060405180830381600087803b158015610c1a57600080fd5b505af1158015610c2e573d6000803e3d6000fd5b505050506040513d601f19601f82011682018060405250810190610c529190611aea565b505b60008054906101000a900473ffffffffffffffffffffffffffffffffffffffff1673ffffffffffffffffffffffffffffffffffffffff166323b872dd3330846040518463ffffffff1660e01b8152600401610cb193929190611f42565b602060405180830381600087803b158015610ccb57600080fd5b505af1158015610cdf573d6000803e3d6000fd5b505050506040513d601f19601f82011682018060405250810190610d039190611aea565b5080600760003373ffffffffffffffffffffffffffffffffffffffff1673ffffffffffffffffffffffffffffffffffffffff1681526020019081526020016000206000828254610d5391906121db565b9250508190555050565b60008060009054906101000a900473ffffffffffffffffffffffffffffffffffffffff1673ffffffffffffffffffffffffffffffffffffffff166370a08231336040518263ffffffff1660e01b8152600401610db99190611efe565b60206040518083038186803b158015610dd157600080fd5b505afa158015610de5573d6000803e3d6000fd5b505050506040513d601f19601f82011682018060405250810190610e099190611c66565b1415610e4a576040517f08c379a0000000000000000000000000000000000000000000000000000000008152600401610e4190612037565b60405180910390fd5b600115158115151415610ec857600760003373ffffffffffffffffffffffffffffffffffffffff1673ffffffffffffffffffffffffffffffffffffffff16815260200190815260200160002054600660008481526020019081526020016000206006016000828254610ebc91906121db565b92505081905550610f35565b600760003373ffffffffffffffffffffffffffffffffffffffff1673ffffffffffffffffffffffffffffffffffffffff16815260200190815260200160002054600660008481526020019081526020016000206007016000828254610f2d91906121db565b925050819055505b600060066000848152602001908152602001600020600701546006600085815260200190815260200160002060060154610f6f91906121db565b905060066000848152602001908152602001600020600801548110610f9857610f9783611606565b5b505050565b60008060009054906101000a900473ffffffffffffffffffffffffffffffffffffffff1673ffffffffffffffffffffffffffffffffffffffff166370a08231336040518263ffffffff1660e01b8152600401610ff99190611efe565b60206040518083038186803b15801561101157600080fd5b505afa158015611025573d6000803e3d6000fd5b505050506040513d601f19601f820116820180604052508101906110499190611c66565b141561108a576040517f08c379a000000000000000000000000000000000000000000000000000000000815260040161108190612057565b60405180910390fd5b60016002600082825461109d91906121db565b925050819055506000604051806101000160405280600060028111156110ec577f4e487b7100000000000000000000000000000000000000000000000000000000600052602160045260246000fd5b81526020018581526020018481526020018381526020016040518060400160405280600073ffffffffffffffffffffffffffffffffffffffff168152602001600081525081526020016000815260200160008152602001600460008054906101000a900473ffffffffffffffffffffffffffffffffffffffff1673ffffffffffffffffffffffffffffffffffffffff166318160ddd6040518163ffffffff1660e01b815260040160206040518083038186803b1580156111ab57600080fd5b505afa1580156111bf573d6000803e3d6000fd5b505050506040513d601f19601f820116820180604052508101906111e39190611c66565b60036111ef9190612262565b6111f99190612231565b81525090508060066000600254815260200190815260200160002060008201518160000160006101000a81548160ff02191690836002811115611265577f4e487b7100000000000000000000000000000000000000000000000000000000600052602160045260246000fd5b0217905550602082015181600101908051906020019061128692919061172f565b5060408201518160020190805190602001906112a392919061172f565b5060608201518160030190805190602001906112c09291906117b5565b5060808201518160040160008201518160000160006101000a81548173ffffffffffffffffffffffffffffffffffffffff021916908373ffffffffffffffffffffffffffffffffffffffff16021790555060208201518160010155505060a0820151816006015560c0820151816007015560e0820151816008015590505050505050565b60016002600082825461135791906121db565b925050819055506060600060405180604001604052808573ffffffffffffffffffffffffffffffffffffffff1681526020018481525090506000604051806101000160405280600060028111156113d7577f4e487b7100000000000000000000000000000000000000000000000000000000600052602160045260246000fd5b81526020018881526020018781526020018481526020018381526020016000815260200160008152602001600460008054906101000a900473ffffffffffffffffffffffffffffffffffffffff1673ffffffffffffffffffffffffffffffffffffffff166318160ddd6040518163ffffffff1660e01b815260040160206040518083038186803b15801561146a57600080fd5b505afa15801561147e573d6000803e3d6000fd5b505050506040513d601f19601f820116820180604052508101906114a29190611c66565b60036114ae9190612262565b6114b89190612231565b81525090508060066000600254815260200190815260200160002060008201518160000160006101000a81548160ff02191690836002811115611524577f4e487b7100000000000000000000000000000000000000000000000000000000600052602160045260246000fd5b0217905550602082015181600101908051906020019061154592919061172f565b50604082015181600201908051906020019061156292919061172f565b50606082015181600301908051906020019061157f9291906117b5565b5060808201518160040160008201518160000160006101000a81548173ffffffffffffffffffffffffffffffffffffffff021916908373ffffffffffffffffffffffffffffffffffffffff16021790555060208201518160010155505060a0820151816006015560c0820151816007015560e0820151816008015590505050505050505050565b6006600082815260200190815260200160002060070154600660008381526020019081526020016000206006015411156116a45760016006600083815260200190815260200160002060000160006101000a81548160ff0219169083600281111561169a577f4e487b7100000000000000000000000000000000000000000000000000000000600052602160045260246000fd5b021790555061170a565b60026006600083815260200190815260200160002060000160006101000a81548160ff02191690836002811115611704577f4e487b7100000000000000000000000000000000000000000000000000000000600052602160045260246000fd5b02179055505b50565b6040518060400160405280600290602082028036833780820191505090505090565b82805461173b906123a8565b90600052602060002090601f01602090048101928261175d57600085556117a4565b82601f1061177657805160ff19168380011785556117a4565b828001600101855582156117a4579182015b828111156117a3578251825591602001919060010190611788565b5b5090506117b1919061183b565b5090565b8280546117c1906123a8565b90600052602060002090601f0160209004810192826117e3576000855561182a565b82601f106117fc57805160ff191683800117855561182a565b8280016001018555821561182a579182015b8281111561182957825182559160200191906001019061180e565b5b509050611837919061183b565b5090565b5b8082111561185457600081600090555060010161183c565b5090565b600061186b611866846120f7565b6120d2565b90508281526020810184848401111561188357600080fd5b61188e848285612366565b509392505050565b60006118a96118a484612128565b6120d2565b9050828152602081018484840111156118c157600080fd5b6118cc848285612366565b509392505050565b6000813590506118e3816125c8565b92915050565b6000815190506118f8816125c8565b92915050565b60008135905061190d816125df565b92915050565b600081519050611922816125df565b92915050565b60008083601f84011261193a57600080fd5b8235905067ffffffffffffffff81111561195357600080fd5b60208301915083600182028301111561196b57600080fd5b9250929050565b600082601f83011261198357600080fd5b8135611993848260208601611858565b91505092915050565b6000813590506119ab816125f6565b92915050565b600082601f8301126119c257600080fd5b81356119d2848260208601611896565b91505092915050565b6000813590506119ea8161260d565b92915050565b6000815190506119ff8161260d565b92915050565b600060208284031215611a1757600080fd5b6000611a25848285016118e9565b91505092915050565b600080600080600060808688031215611a4657600080fd5b6000611a54888289016118d4565b9550506020611a65888289016118d4565b9450506040611a76888289016119db565b935050606086013567ffffffffffffffff811115611a9357600080fd5b611a9f88828901611928565b92509250509295509295909350565b60008060408385031215611ac157600080fd5b6000611acf858286016118d4565b9250506020611ae0858286016119db565b9150509250929050565b600060208284031215611afc57600080fd5b6000611b0a84828501611913565b91505092915050565b600080600060608486031215611b2857600080fd5b600084013567ffffffffffffffff811115611b4257600080fd5b611b4e868287016119b1565b935050602084013567ffffffffffffffff811115611b6b57600080fd5b611b77868287016119b1565b925050604084013567ffffffffffffffff811115611b9457600080fd5b611ba086828701611972565b9150509250925092565b60008060008060808587031215611bc057600080fd5b600085013567ffffffffffffffff811115611bda57600080fd5b611be6878288016119b1565b945050602085013567ffffffffffffffff811115611c0357600080fd5b611c0f878288016119b1565b9350506040611c208782880161199c565b9250506060611c31878288016119db565b91505092959194509250565b600060208284031215611c4f57600080fd5b6000611c5d848285016119db565b91505092915050565b600060208284031215611c7857600080fd5b6000611c86848285016119f0565b91505092915050565b60008060408385031215611ca257600080fd5b6000611cb0858286016119db565b9250506020611cc1858286016118fe565b9150509250929050565b6000611cd78383611eb1565b60408301905092915050565b6000611cef8383611ee0565b60208301905092915050565b611d04816122bc565b82525050565b611d13816122bc565b82525050565b6000611d2482612173565b611d2e81856121ae565b9350611d3983612159565b8060005b83811015611d6a578151611d518882611ccb565b9750611d5c83612194565b925050600181019050611d3d565b5085935050505092915050565b611d808161217e565b611d8a81846121bf565b9250611d9582612169565b8060005b83811015611dc6578151611dad8782611ce3565b9650611db8836121a1565b925050600181019050611d99565b505050505050565b611dd7816122da565b82525050565b611de681612342565b82525050565b6000611df782612189565b611e0181856121ca565b9350611e11818560208601612375565b611e1a816124c7565b840191505092915050565b6000611e32602b836121ca565b9150611e3d826124d8565b604082019050919050565b6000611e55603c836121ca565b9150611e6082612527565b604082019050919050565b6000611e78601c836121ca565b9150611e8382612576565b602082019050919050565b6000611e9b6017836121ca565b9150611ea68261259f565b602082019050919050565b604082016000820151611ec76000850182611cfb565b506020820151611eda6020850182611ee0565b50505050565b611ee981612338565b82525050565b611ef881612338565b82525050565b6000602082019050611f136000830184611d0a565b92915050565b6000604082019050611f2e6000830185611d0a565b611f3b6020830184611d0a565b9392505050565b6000606082019050611f576000830186611d0a565b611f646020830185611d0a565b611f716040830184611eef565b949350505050565b6000604082019050611f8e6000830185611d0a565b611f9b6020830184611eef565b9392505050565b60006020820190508181036000830152611fbc8184611d19565b905092915050565b6000604082019050611fd96000830184611d77565b92915050565b6000602082019050611ff46000830184611dce565b92915050565b600060208201905061200f6000830184611ddd565b92915050565b6000602082019050818103600083015261202f8184611dec565b905092915050565b6000602082019050818103600083015261205081611e25565b9050919050565b6000602082019050818103600083015261207081611e48565b9050919050565b6000602082019050818103600083015261209081611e6b565b9050919050565b600060208201905081810360008301526120b081611e8e565b9050919050565b60006020820190506120cc6000830184611eef565b92915050565b60006120dc6120ed565b90506120e882826123da565b919050565b6000604051905090565b600067ffffffffffffffff82111561211257612111612498565b5b61211b826124c7565b9050602081019050919050565b600067ffffffffffffffff82111561214357612142612498565b5b61214c826124c7565b9050602081019050919050565b6000819050602082019050919050565b6000819050919050565b600081519050919050565b600060029050919050565b600081519050919050565b6000602082019050919050565b6000602082019050919050565b600082825260208201905092915050565b600081905092915050565b600082825260208201905092915050565b60006121e682612338565b91506121f183612338565b9250827fffffffffffffffffffffffffffffffffffffffffffffffffffffffffffffffff038211156122265761222561240b565b5b828201905092915050565b600061223c82612338565b915061224783612338565b9250826122575761225661243a565b5b828204905092915050565b600061226d82612338565b915061227883612338565b9250817fffffffffffffffffffffffffffffffffffffffffffffffffffffffffffffffff04831182151516156122b1576122b061240b565b5b828202905092915050565b60006122c782612318565b9050919050565b60008115159050919050565b60007fffffffff0000000000000000000000000000000000000000000000000000000082169050919050565b6000612311826122bc565b9050919050565b600073ffffffffffffffffffffffffffffffffffffffff82169050919050565b6000819050919050565b600061234d82612354565b9050919050565b600061235f82612318565b9050919050565b82818337600083830152505050565b60005b83811015612393578082015181840152602081019050612378565b838111156123a2576000848401525b50505050565b600060028204905060018216806123c057607f821691505b602082108114156123d4576123d3612469565b5b50919050565b6123e3826124c7565b810181811067ffffffffffffffff8211171561240257612401612498565b5b80604052505050565b7f4e487b7100000000000000000000000000000000000000000000000000000000600052601160045260246000fd5b7f4e487b7100000000000000000000000000000000000000000000000000000000600052601260045260246000fd5b7f4e487b7100000000000000000000000000000000000000000000000000000000600052602260045260246000fd5b7f4e487b7100000000000000000000000000000000000000000000000000000000600052604160045260246000fd5b6000601f19601f8301169050919050565b7f506c65617365207374616b6520796f757220676f7665726e616e636520746f6b60008201527f656e7320746f20766f7465000000000000000000000000000000000000000000602082015250565b7f506c65617365207374616b6520796f757220676f7665726e616e636520746f6b60008201527f656e7320746f206372656174652061206e65772070726f706f73616c00000000602082015250565b7f5468697320617373657420697320616c7265616479206c6f636b656400000000600082015250565b7f546869732061737365742069736e2774206c6f636b6564000000000000000000600082015250565b6125d1816122bc565b81146125dc57600080fd5b50565b6125e8816122ce565b81146125f357600080fd5b50565b6125ff81612306565b811461260a57600080fd5b50565b61261681612338565b811461262157600080fd5b5056fea26469706673582212208fc5522d9caf3016f556481ae93df9d452ca139f3f2bec95472b64d66a8ca62664736f6c63430008040033",
  "immutableReferences": {},
  "source": "pragma solidity ^0.8.0;\nimport \"@openzeppelin/contracts/token/ERC20/IERC20.sol\";\nimport \"@openzeppelin/contracts/token/ERC721/IERC721.sol\";\nimport \"@openzeppelin/contracts/token/ERC721/IERC721Receiver.sol\";\n\ncontract Dao is IERC721Receiver {\n\n    IERC20 public dao_token;\n    string public name;\n    uint public proposal_id;\n\n    enum proposal_status{ ACTIVE, PASSED, FAILED }\n\n    struct Proposal {\n        proposal_status status;\n        string title;\n        string description;\n        bytes tx;  // Transaction to be executed when proposal passes\n        Asset asset;\n        uint votes_for;  // Amount of \"For\" votes\n        uint votes_against;  // Amount of \"Against\" votes\n        uint threshold;  // Amount of voting power which took a part in voting process for the proposal to be closed\n    }\n\n    struct Asset {\n        address addr;  // Address of stored asset\n        uint id;  // Should be zero for ERC20 and non-zero for ERC721\n    }\n\n    struct Vault {\n        mapping(address => mapping(uint => bool)) asset_locked;\n        Asset[] erc721;  // Locked NFTs\n        Asset[] erc20;  // Locked ERC20\n    }\n\n    Vault vault;\n    mapping(uint => Proposal) proposals;  // Sale proposals by their ids\n    mapping(address => uint) stakes;  // Staked voting power: user => amount\n\n    constructor(string memory _name,\n                IERC20 _dao_token) {\n        name = _name;\n        dao_token = _dao_token;\n    }\n\n    function stake(uint _amount) public {\n        if (dao_token.allowance(msg.sender, address(this)) < _amount) {\n            dao_token.approve(address(this), _amount);\n        }\n        dao_token.transferFrom(msg.sender, address(this), _amount);\n        stakes[msg.sender] += _amount;\n    }\n\n    function claim(uint _amount) public {  // 50\n        uint user_stake = stakes[msg.sender];  // 2\n        if (user_stake < _amount) {  // 2*50 < 50\n            dao_token.transfer(msg.sender, user_stake);\n        } else {\n            if (user_stake < _amount) {\n                dao_token.transfer(msg.sender, user_stake);\n            } else {\n                dao_token.transfer(msg.sender, _amount);\n            }\n        }\n    }\n\n    function propose_tx(string memory _title, string memory _description, bytes memory _tx_to_execute) public {\n        require(dao_token.balanceOf(msg.sender) != 0, \"Please stake your governance tokens to create a new proposal\");\n        proposal_id += 1;\n        Proposal memory proposal = Proposal(proposal_status.ACTIVE,\n                                            _title,\n                                            _description,\n                                            _tx_to_execute,\n                                            Asset(address(0x0), 0),\n                                            0, 0,\n                                            (3*dao_token.totalSupply())/4);\n        proposals[proposal_id] = proposal;\n    }\n\n    function propose_sell(string memory _title, string memory _description, IERC721 _asset_address, uint _asset_id) public {\n        proposal_id += 1;\n        bytes memory empty;\n        Asset memory asset = Asset(address(_asset_address), _asset_id);\n        Proposal memory proposal = Proposal(proposal_status.ACTIVE,\n                                    _title,\n                                    _description,\n                                    empty,\n                                    asset,\n                                    0, 0,\n                                    (3*dao_token.totalSupply())/4);\n        proposals[proposal_id] = proposal;\n    }\n\n    function vote(uint _proposal_id, bool _vote) public {  // vote: true - \"For\", false - \"Against\"\n        require(dao_token.balanceOf(msg.sender) != 0, \"Please stake your governance tokens to vote\");\n        if (_vote == true) {\n            proposals[_proposal_id].votes_for += stakes[msg.sender];\n        } else {\n            proposals[_proposal_id].votes_against += stakes[msg.sender];\n        }\n        uint total_votes = proposals[_proposal_id].votes_for + proposals[_proposal_id].votes_against;\n        if (total_votes >= proposals[_proposal_id].threshold) {\n            outcome(_proposal_id);\n        }\n    }\n\n    function votes_distribution(uint _proposal_id) public returns (uint[2] memory){\n        return [proposals[_proposal_id].votes_for, proposals[_proposal_id].votes_against];\n    }\n\n    function outcome(uint _proposal_id) internal {\n        if (proposals[_proposal_id].votes_for > proposals[_proposal_id].votes_against) {\n            proposals[_proposal_id].status = proposal_status.PASSED;\n        } else {\n        proposals[_proposal_id].status = proposal_status.FAILED;\n        }\n    }\n\n    function add_asset(address _asset_address, uint _asset_id) public {  // Check struct Asset for details\n        require(vault.asset_locked[_asset_address][_asset_id] == false, \"This asset is already locked\");\n        if (_asset_id != 0) {  // NFT\n            IERC721 asset = IERC721(_asset_address);\n            require(asset.ownerOf(_asset_id) == address(this), \"This asset isn't locked\");\n            vault.erc721.push(Asset(_asset_address, _asset_id));\n        } else {  // ERC20\n            vault.erc20.push(Asset(_asset_address, _asset_id));\n        }\n        vault.asset_locked[_asset_address][_asset_id] = true;\n    }\n\n    function get_asset(uint _asset_type) public view returns(Asset[] memory) {\n        /*\n        Get locked assets. UI should iterate over them checking the owner is this DAO\n        _asset_type: 0 - \"erc721\" / 1 - \"erc20\"\n        */\n        if (_asset_type == 0) {\n            return vault.erc721;\n        } else {\n            if (_asset_type == 1) {\n                return vault.erc20;\n            }\n        }\n        Asset[] memory empty;\n        return empty;\n    }\n\n    function onERC721Received(address operator,\n                              address from,\n                              uint256 tokenId,\n                              bytes calldata data) public pure override returns (bytes4) {\n        return this.onERC721Received.selector;\n    }\n\n}\n",
  "sourcePath": "/Users/y.sosunov/git/definition-hackathon/onchain/contracts/Dao.sol",
  "compiler": {
    "name": "solc",
    "version": "0.8.4+commit.c7e474f2.Emscripten.clang"
  },
  "schemaVersion": "3.3.4",
  "updatedAt": "2021-09-26T05:48:40.097Z",
  "devdoc": {
    "kind": "dev",
    "methods": {
      "onERC721Received(address,address,uint256,bytes)": {
        "details": "Whenever an {IERC721} `tokenId` token is transferred to this contract via {IERC721-safeTransferFrom} by `operator` from `from`, this function is called. It must return its Solidity selector to confirm the token transfer. If any other value is returned or the interface is not implemented by the recipient, the transfer will be reverted. The selector can be obtained in Solidity with `IERC721.onERC721Received.selector`."
      }
    },
    "version": 1
  },
  "userdoc": {
    "kind": "user",
    "methods": {},
    "version": 1
  }
}