{
  "contractName": "Dao",
  "abi": [
    {
      "inputs": [
        {
          "internalType": "string",
          "name": "_name",
          "type": "string"
        },
        {
          "internalType": "contract IERC20",
          "name": "_dao_token",
          "type": "address"
        }
      ],
      "stateMutability": "nonpayable",
      "type": "constructor"
    },
    {
      "inputs": [],
      "name": "dao_token",
      "outputs": [
        {
          "internalType": "contract IERC20",
          "name": "",
          "type": "address"
        }
      ],
      "stateMutability": "view",
      "type": "function"
    },
    {
      "inputs": [],
      "name": "name",
      "outputs": [
        {
          "internalType": "string",
          "name": "",
          "type": "string"
        }
      ],
      "stateMutability": "view",
      "type": "function"
    },
    {
      "inputs": [],
      "name": "proposal_id",
      "outputs": [
        {
          "internalType": "uint256",
          "name": "",
          "type": "uint256"
        }
      ],
      "stateMutability": "view",
      "type": "function"
    },
    {
      "inputs": [
        {
          "internalType": "uint256",
          "name": "_amount",
          "type": "uint256"
        },
        {
          "internalType": "address",
          "name": "stake_for",
          "type": "address"
        }
      ],
      "name": "stake",
      "outputs": [],
      "stateMutability": "nonpayable",
      "type": "function"
    },
    {
      "inputs": [
        {
          "internalType": "uint256",
          "name": "_amount",
          "type": "uint256"
        }
      ],
      "name": "claim",
      "outputs": [],
      "stateMutability": "nonpayable",
      "type": "function"
    },
    {
      "inputs": [
        {
          "internalType": "string",
          "name": "_title",
          "type": "string"
        },
        {
          "internalType": "string",
          "name": "_description",
          "type": "string"
        },
        {
          "internalType": "bytes",
          "name": "_tx_to_execute",
          "type": "bytes"
        }
      ],
      "name": "propose_tx",
      "outputs": [],
      "stateMutability": "nonpayable",
      "type": "function"
    },
    {
      "inputs": [
        {
          "internalType": "string",
          "name": "_title",
          "type": "string"
        },
        {
          "internalType": "string",
          "name": "_description",
          "type": "string"
        },
        {
          "internalType": "contract IERC721",
          "name": "_asset_address",
          "type": "address"
        },
        {
          "internalType": "uint256",
          "name": "_asset_id",
          "type": "uint256"
        }
      ],
      "name": "propose_sell",
      "outputs": [],
      "stateMutability": "nonpayable",
      "type": "function"
    },
    {
      "inputs": [
        {
          "internalType": "uint256",
          "name": "_proposal_id",
          "type": "uint256"
        }
      ],
      "name": "get_proposal",
      "outputs": [
        {
          "components": [
            {
              "internalType": "enum Dao.proposal_status",
              "name": "status",
              "type": "uint8"
            },
            {
              "internalType": "string",
              "name": "title",
              "type": "string"
            },
            {
              "internalType": "string",
              "name": "description",
              "type": "string"
            },
            {
              "internalType": "bytes",
              "name": "tx",
              "type": "bytes"
            },
            {
              "components": [
                {
                  "internalType": "address",
                  "name": "addr",
                  "type": "address"
                },
                {
                  "internalType": "uint256",
                  "name": "id",
                  "type": "uint256"
                }
              ],
              "internalType": "struct Dao.Asset",
              "name": "asset",
              "type": "tuple"
            },
            {
              "internalType": "uint256",
              "name": "votes_for",
              "type": "uint256"
            },
            {
              "internalType": "uint256",
              "name": "votes_against",
              "type": "uint256"
            },
            {
              "internalType": "uint256",
              "name": "threshold",
              "type": "uint256"
            }
          ],
          "internalType": "struct Dao.Proposal",
          "name": "",
          "type": "tuple"
        }
      ],
      "stateMutability": "view",
      "type": "function"
    },
    {
      "inputs": [
        {
          "internalType": "uint256",
          "name": "_proposal_id",
          "type": "uint256"
        },
        {
          "internalType": "bool",
          "name": "_vote",
          "type": "bool"
        }
      ],
      "name": "vote",
      "outputs": [],
      "stateMutability": "nonpayable",
      "type": "function"
    },
    {
      "inputs": [
        {
          "internalType": "uint256",
          "name": "_proposal_id",
          "type": "uint256"
        }
      ],
      "name": "votes_distribution",
      "outputs": [
        {
          "internalType": "uint256[2]",
          "name": "",
          "type": "uint256[2]"
        }
      ],
      "stateMutability": "view",
      "type": "function"
    },
    {
      "inputs": [
        {
          "internalType": "address",
          "name": "_asset_address",
          "type": "address"
        },
        {
          "internalType": "uint256",
          "name": "_asset_id",
          "type": "uint256"
        }
      ],
      "name": "add_asset",
      "outputs": [],
      "stateMutability": "nonpayable",
      "type": "function"
    },
    {
      "inputs": [
        {
          "internalType": "uint256",
          "name": "_asset_type",
          "type": "uint256"
        }
      ],
      "name": "get_asset",
      "outputs": [
        {
          "components": [
            {
              "internalType": "address",
              "name": "addr",
              "type": "address"
            },
            {
              "internalType": "uint256",
              "name": "id",
              "type": "uint256"
            }
          ],
          "internalType": "struct Dao.Asset[]",
          "name": "",
          "type": "tuple[]"
        }
      ],
      "stateMutability": "view",
      "type": "function"
    },
    {
      "inputs": [
        {
          "internalType": "address",
          "name": "operator",
          "type": "address"
        },
        {
          "internalType": "address",
          "name": "from",
          "type": "address"
        },
        {
          "internalType": "uint256",
          "name": "tokenId",
          "type": "uint256"
        },
        {
          "internalType": "bytes",
          "name": "data",
          "type": "bytes"
        }
      ],
      "name": "onERC721Received",
      "outputs": [
        {
          "internalType": "bytes4",
          "name": "",
          "type": "bytes4"
        }
      ],
      "stateMutability": "pure",
      "type": "function"
    }
  ],
  "bytecode": "0x60806040523480156200001157600080fd5b5060405162003096380380620030968339818101604052810190620000379190620001d1565b81600190805190602001906200004f92919062000098565b50806000806101000a81548173ffffffffffffffffffffffffffffffffffffffff021916908373ffffffffffffffffffffffffffffffffffffffff1602179055505050620003fd565b828054620000a69062000308565b90600052602060002090601f016020900481019282620000ca576000855562000116565b82601f10620000e557805160ff191683800117855562000116565b8280016001018555821562000116579182015b8281111562000115578251825591602001919060010190620000f8565b5b50905062000125919062000129565b5090565b5b80821115620001445760008160009055506001016200012a565b5090565b60006200015f620001598462000254565b6200022b565b9050828152602081018484840111156200017857600080fd5b62000185848285620002d2565b509392505050565b6000815190506200019e81620003e3565b92915050565b600082601f830112620001b657600080fd5b8151620001c884826020860162000148565b91505092915050565b60008060408385031215620001e557600080fd5b600083015167ffffffffffffffff8111156200020057600080fd5b6200020e85828601620001a4565b925050602062000221858286016200018d565b9150509250929050565b6000620002376200024a565b90506200024582826200033e565b919050565b6000604051905090565b600067ffffffffffffffff821115620002725762000271620003a3565b5b6200027d82620003d2565b9050602081019050919050565b60006200029782620002b2565b9050919050565b6000620002ab826200028a565b9050919050565b600073ffffffffffffffffffffffffffffffffffffffff82169050919050565b60005b83811015620002f2578082015181840152602081019050620002d5565b8381111562000302576000848401525b50505050565b600060028204905060018216806200032157607f821691505b6020821081141562000338576200033762000374565b5b50919050565b6200034982620003d2565b810181811067ffffffffffffffff821117156200036b576200036a620003a3565b5b80604052505050565b7f4e487b7100000000000000000000000000000000000000000000000000000000600052602260045260246000fd5b7f4e487b7100000000000000000000000000000000000000000000000000000000600052604160045260246000fd5b6000601f19601f8301169050919050565b620003ee816200029e565b8114620003fa57600080fd5b50565b612c89806200040d6000396000f3fe608060405234801561001057600080fd5b50600436106100cf5760003560e01c80633eda52001161008c5780637acb7757116100665780637acb775714610226578063c9d27afe14610242578063e4dd26cf1461025e578063e9a4b6911461027a576100cf565b80633eda5200146101ba578063528f9d55146101ea578063688e1d3114610208576100cf565b806306fdde03146100d45780630f9e4fb5146100f257806310b1939f1461010e578063150b7a021461013e57806317eb2f091461016e578063379607f51461019e575b600080fd5b6100dc610296565b6040516100e9919061258d565b60405180910390f35b61010c60048036038101906101079190611eaa565b610324565b005b61012860048036038101906101239190612039565b61069d565b604051610135919061251a565b60405180910390f35b61015860048036038101906101539190611e2a565b610841565b6040516101659190612557565b60405180910390f35b61018860048036038101906101839190612039565b610856565b604051610195919061253c565b60405180910390f35b6101b860048036038101906101b39190612039565b6108a6565b005b6101d460048036038101906101cf9190612039565b610b14565b6040516101e1919061262f565b60405180910390f35b6101f2610e11565b6040516101ff9190612651565b60405180910390f35b610210610e17565b60405161021d9190612572565b60405180910390f35b610240600480360381019061023b919061208b565b610e3b565b005b61025c600480360381019061025791906120c7565b6110a6565b005b61027860048036038101906102739190611f0f565b6112e6565b005b610294600480360381019061028f9190611fa6565b61168d565b005b600180546102a390612994565b80601f01602080910402602001604051908101604052809291908181526020018280546102cf90612994565b801561031c5780601f106102f15761010080835404028352916020019161031c565b820191906000526020600020905b8154815290600101906020018083116102ff57829003601f168201915b505050505081565b60001515600360000160008473ffffffffffffffffffffffffffffffffffffffff1673ffffffffffffffffffffffffffffffffffffffff168152602001908152602001600020600083815260200190815260200160002060009054906101000a900460ff161515146103cb576040517f08c379a00000000000000000000000000000000000000000000000000000000081526004016103c2906125ef565b60405180910390fd5b600081146105805760008290503073ffffffffffffffffffffffffffffffffffffffff168173ffffffffffffffffffffffffffffffffffffffff16636352211e846040518263ffffffff1660e01b81526004016104289190612651565b60206040518083038186803b15801561044057600080fd5b505afa158015610454573d6000803e3d6000fd5b505050506040513d601f19601f820116820180604052508101906104789190611e01565b73ffffffffffffffffffffffffffffffffffffffff16146104ce576040517f08c379a00000000000000000000000000000000000000000000000000000000081526004016104c59061260f565b60405180910390fd5b600360010160405180604001604052808573ffffffffffffffffffffffffffffffffffffffff16815260200184815250908060018154018082558091505060019003906000526020600020906002020160009091909190915060008201518160000160006101000a81548173ffffffffffffffffffffffffffffffffffffffff021916908373ffffffffffffffffffffffffffffffffffffffff1602179055506020820151816001015550505061062d565b600360020160405180604001604052808473ffffffffffffffffffffffffffffffffffffffff16815260200183815250908060018154018082558091505060019003906000526020600020906002020160009091909190915060008201518160000160006101000a81548173ffffffffffffffffffffffffffffffffffffffff021916908373ffffffffffffffffffffffffffffffffffffffff1602179055506020820151816001015550505b6001600360000160008473ffffffffffffffffffffffffffffffffffffffff1673ffffffffffffffffffffffffffffffffffffffff168152602001908152602001600020600083815260200190815260200160002060006101000a81548160ff0219169083151502179055505050565b6060600082141561076a576003600101805480602002602001604051908101604052809291908181526020016000905b8282101561075f57838290600052602060002090600202016040518060400160405290816000820160009054906101000a900473ffffffffffffffffffffffffffffffffffffffff1673ffffffffffffffffffffffffffffffffffffffff1673ffffffffffffffffffffffffffffffffffffffff168152602001600182015481525050815260200190600101906106cd565b50505050905061083c565b6001821415610835576003600201805480602002602001604051908101604052809291908181526020016000905b8282101561082a57838290600052602060002090600202016040518060400160405290816000820160009054906101000a900473ffffffffffffffffffffffffffffffffffffffff1673ffffffffffffffffffffffffffffffffffffffff1673ffffffffffffffffffffffffffffffffffffffff16815260200160018201548152505081526020019060010190610798565b50505050905061083c565b6060809150505b919050565b600063150b7a0260e01b905095945050505050565b61085e611a56565b60405180604001604052806006600085815260200190815260200160002060060154815260200160066000858152602001908152602001600020600701548152509050919050565b6000600760003373ffffffffffffffffffffffffffffffffffffffff1673ffffffffffffffffffffffffffffffffffffffff168152602001908152602001600020549050818110156109a55760008054906101000a900473ffffffffffffffffffffffffffffffffffffffff1673ffffffffffffffffffffffffffffffffffffffff1663a9059cbb33836040518363ffffffff1660e01b815260040161094d9291906124f1565b602060405180830381600087803b15801561096757600080fd5b505af115801561097b573d6000803e3d6000fd5b505050506040513d601f19601f8201168201806040525081019061099f9190611ee6565b50610b10565b81811015610a605760008054906101000a900473ffffffffffffffffffffffffffffffffffffffff1673ffffffffffffffffffffffffffffffffffffffff1663a9059cbb33836040518363ffffffff1660e01b8152600401610a089291906124f1565b602060405180830381600087803b158015610a2257600080fd5b505af1158015610a36573d6000803e3d6000fd5b505050506040513d601f19601f82011682018060405250810190610a5a9190611ee6565b50610b0f565b60008054906101000a900473ffffffffffffffffffffffffffffffffffffffff1673ffffffffffffffffffffffffffffffffffffffff1663a9059cbb33846040518363ffffffff1660e01b8152600401610abb9291906124f1565b602060405180830381600087803b158015610ad557600080fd5b505af1158015610ae9573d6000803e3d6000fd5b505050506040513d601f19601f82011682018060405250810190610b0d9190611ee6565b505b5b5050565b610b1c611a78565b60066000838152602001908152602001600020604051806101000160405290816000820160009054906101000a900460ff166002811115610b86577f4e487b7100000000000000000000000000000000000000000000000000000000600052602160045260246000fd5b6002811115610bbe577f4e487b7100000000000000000000000000000000000000000000000000000000600052602160045260246000fd5b8152602001600182018054610bd290612994565b80601f0160208091040260200160405190810160405280929190818152602001828054610bfe90612994565b8015610c4b5780601f10610c2057610100808354040283529160200191610c4b565b820191906000526020600020905b815481529060010190602001808311610c2e57829003601f168201915b50505050508152602001600282018054610c6490612994565b80601f0160208091040260200160405190810160405280929190818152602001828054610c9090612994565b8015610cdd5780601f10610cb257610100808354040283529160200191610cdd565b820191906000526020600020905b815481529060010190602001808311610cc057829003601f168201915b50505050508152602001600382018054610cf690612994565b80601f0160208091040260200160405190810160405280929190818152602001828054610d2290612994565b8015610d6f5780601f10610d4457610100808354040283529160200191610d6f565b820191906000526020600020905b815481529060010190602001808311610d5257829003601f168201915b50505050508152602001600482016040518060400160405290816000820160009054906101000a900473ffffffffffffffffffffffffffffffffffffffff1673ffffffffffffffffffffffffffffffffffffffff1673ffffffffffffffffffffffffffffffffffffffff168152602001600182015481525050815260200160068201548152602001600782015481526020016008820154815250509050919050565b60025481565b60008054906101000a900473ffffffffffffffffffffffffffffffffffffffff1681565b8160008054906101000a900473ffffffffffffffffffffffffffffffffffffffff1673ffffffffffffffffffffffffffffffffffffffff1663dd62ed3e83306040518363ffffffff1660e01b8152600401610e97929190612491565b60206040518083038186803b158015610eaf57600080fd5b505afa158015610ec3573d6000803e3d6000fd5b505050506040513d601f19601f82011682018060405250810190610ee79190612062565b1015610f9c5760008054906101000a900473ffffffffffffffffffffffffffffffffffffffff1673ffffffffffffffffffffffffffffffffffffffff1663095ea7b330846040518363ffffffff1660e01b8152600401610f489291906124f1565b602060405180830381600087803b158015610f6257600080fd5b505af1158015610f76573d6000803e3d6000fd5b505050506040513d601f19601f82011682018060405250810190610f9a9190611ee6565b505b60008054906101000a900473ffffffffffffffffffffffffffffffffffffffff1673ffffffffffffffffffffffffffffffffffffffff166323b872dd8230856040518463ffffffff1660e01b8152600401610ff9939291906124ba565b602060405180830381600087803b15801561101357600080fd5b505af1158015611027573d6000803e3d6000fd5b505050506040513d601f19601f8201168201806040525081019061104b9190611ee6565b5081600760003373ffffffffffffffffffffffffffffffffffffffff1673ffffffffffffffffffffffffffffffffffffffff168152602001908152602001600020600082825461109b91906127a2565b925050819055505050565b60008060009054906101000a900473ffffffffffffffffffffffffffffffffffffffff1673ffffffffffffffffffffffffffffffffffffffff166370a08231336040518263ffffffff1660e01b81526004016111029190612476565b60206040518083038186803b15801561111a57600080fd5b505afa15801561112e573d6000803e3d6000fd5b505050506040513d601f19601f820116820180604052508101906111529190612062565b1415611193576040517f08c379a000000000000000000000000000000000000000000000000000000000815260040161118a906125af565b60405180910390fd5b60011515811515141561121157600760003373ffffffffffffffffffffffffffffffffffffffff1673ffffffffffffffffffffffffffffffffffffffff1681526020019081526020016000205460066000848152602001908152602001600020600601600082825461120591906127a2565b9250508190555061127e565b600760003373ffffffffffffffffffffffffffffffffffffffff1673ffffffffffffffffffffffffffffffffffffffff1681526020019081526020016000205460066000848152602001908152602001600020600701600082825461127691906127a2565b925050819055505b6000600660008481526020019081526020016000206007015460066000858152602001908152602001600020600601546112b891906127a2565b9050600660008481526020019081526020016000206008015481106112e1576112e08361194f565b5b505050565b60008060009054906101000a900473ffffffffffffffffffffffffffffffffffffffff1673ffffffffffffffffffffffffffffffffffffffff166370a08231336040518263ffffffff1660e01b81526004016113429190612476565b60206040518083038186803b15801561135a57600080fd5b505afa15801561136e573d6000803e3d6000fd5b505050506040513d601f19601f820116820180604052508101906113929190612062565b14156113d3576040517f08c379a00000000000000000000000000000000000000000000000000000000081526004016113ca906125cf565b60405180910390fd5b6001600260008282546113e691906127a2565b92505081905550600060405180610100016040528060006002811115611435577f4e487b7100000000000000000000000000000000000000000000000000000000600052602160045260246000fd5b81526020018581526020018481526020018381526020016040518060400160405280600073ffffffffffffffffffffffffffffffffffffffff168152602001600081525081526020016000815260200160008152602001600460008054906101000a900473ffffffffffffffffffffffffffffffffffffffff1673ffffffffffffffffffffffffffffffffffffffff166318160ddd6040518163ffffffff1660e01b815260040160206040518083038186803b1580156114f457600080fd5b505afa158015611508573d6000803e3d6000fd5b505050506040513d601f19601f8201168201806040525081019061152c9190612062565b60036115389190612829565b61154291906127f8565b81525090508060066000600254815260200190815260200160002060008201518160000160006101000a81548160ff021916908360028111156115ae577f4e487b7100000000000000000000000000000000000000000000000000000000600052602160045260246000fd5b021790555060208201518160010190805190602001906115cf929190611afb565b5060408201518160020190805190602001906115ec929190611afb565b506060820151816003019080519060200190611609929190611b81565b5060808201518160040160008201518160000160006101000a81548173ffffffffffffffffffffffffffffffffffffffff021916908373ffffffffffffffffffffffffffffffffffffffff16021790555060208201518160010155505060a0820151816006015560c0820151816007015560e0820151816008015590505050505050565b6001600260008282546116a091906127a2565b925050819055506060600060405180604001604052808573ffffffffffffffffffffffffffffffffffffffff168152602001848152509050600060405180610100016040528060006002811115611720577f4e487b7100000000000000000000000000000000000000000000000000000000600052602160045260246000fd5b81526020018881526020018781526020018481526020018381526020016000815260200160008152602001600460008054906101000a900473ffffffffffffffffffffffffffffffffffffffff1673ffffffffffffffffffffffffffffffffffffffff166318160ddd6040518163ffffffff1660e01b815260040160206040518083038186803b1580156117b357600080fd5b505afa1580156117c7573d6000803e3d6000fd5b505050506040513d601f19601f820116820180604052508101906117eb9190612062565b60036117f79190612829565b61180191906127f8565b81525090508060066000600254815260200190815260200160002060008201518160000160006101000a81548160ff0219169083600281111561186d577f4e487b7100000000000000000000000000000000000000000000000000000000600052602160045260246000fd5b0217905550602082015181600101908051906020019061188e929190611afb565b5060408201518160020190805190602001906118ab929190611afb565b5060608201518160030190805190602001906118c8929190611b81565b5060808201518160040160008201518160000160006101000a81548173ffffffffffffffffffffffffffffffffffffffff021916908373ffffffffffffffffffffffffffffffffffffffff16021790555060208201518160010155505060a0820151816006015560c0820151816007015560e0820151816008015590505050505050505050565b6006600082815260200190815260200160002060070154600660008381526020019081526020016000206006015411156119ed5760016006600083815260200190815260200160002060000160006101000a81548160ff021916908360028111156119e3577f4e487b7100000000000000000000000000000000000000000000000000000000600052602160045260246000fd5b0217905550611a53565b60026006600083815260200190815260200160002060000160006101000a81548160ff02191690836002811115611a4d577f4e487b7100000000000000000000000000000000000000000000000000000000600052602160045260246000fd5b02179055505b50565b6040518060400160405280600290602082028036833780820191505090505090565b60405180610100016040528060006002811115611abe577f4e487b7100000000000000000000000000000000000000000000000000000000600052602160045260246000fd5b8152602001606081526020016060815260200160608152602001611ae0611c07565b81526020016000815260200160008152602001600081525090565b828054611b0790612994565b90600052602060002090601f016020900481019282611b295760008555611b70565b82601f10611b4257805160ff1916838001178555611b70565b82800160010185558215611b70579182015b82811115611b6f578251825591602001919060010190611b54565b5b509050611b7d9190611c37565b5090565b828054611b8d90612994565b90600052602060002090601f016020900481019282611baf5760008555611bf6565b82601f10611bc857805160ff1916838001178555611bf6565b82800160010185558215611bf6579182015b82811115611bf5578251825591602001919060010190611bda565b5b509050611c039190611c37565b5090565b6040518060400160405280600073ffffffffffffffffffffffffffffffffffffffff168152602001600081525090565b5b80821115611c50576000816000905550600101611c38565b5090565b6000611c67611c6284612691565b61266c565b905082815260208101848484011115611c7f57600080fd5b611c8a848285612952565b509392505050565b6000611ca5611ca0846126c2565b61266c565b905082815260208101848484011115611cbd57600080fd5b611cc8848285612952565b509392505050565b600081359050611cdf81612bf7565b92915050565b600081519050611cf481612bf7565b92915050565b600081359050611d0981612c0e565b92915050565b600081519050611d1e81612c0e565b92915050565b60008083601f840112611d3657600080fd5b8235905067ffffffffffffffff811115611d4f57600080fd5b602083019150836001820283011115611d6757600080fd5b9250929050565b600082601f830112611d7f57600080fd5b8135611d8f848260208601611c54565b91505092915050565b600081359050611da781612c25565b92915050565b600082601f830112611dbe57600080fd5b8135611dce848260208601611c92565b91505092915050565b600081359050611de681612c3c565b92915050565b600081519050611dfb81612c3c565b92915050565b600060208284031215611e1357600080fd5b6000611e2184828501611ce5565b91505092915050565b600080600080600060808688031215611e4257600080fd5b6000611e5088828901611cd0565b9550506020611e6188828901611cd0565b9450506040611e7288828901611dd7565b935050606086013567ffffffffffffffff811115611e8f57600080fd5b611e9b88828901611d24565b92509250509295509295909350565b60008060408385031215611ebd57600080fd5b6000611ecb85828601611cd0565b9250506020611edc85828601611dd7565b9150509250929050565b600060208284031215611ef857600080fd5b6000611f0684828501611d0f565b91505092915050565b600080600060608486031215611f2457600080fd5b600084013567ffffffffffffffff811115611f3e57600080fd5b611f4a86828701611dad565b935050602084013567ffffffffffffffff811115611f6757600080fd5b611f7386828701611dad565b925050604084013567ffffffffffffffff811115611f9057600080fd5b611f9c86828701611d6e565b9150509250925092565b60008060008060808587031215611fbc57600080fd5b600085013567ffffffffffffffff811115611fd657600080fd5b611fe287828801611dad565b945050602085013567ffffffffffffffff811115611fff57600080fd5b61200b87828801611dad565b935050604061201c87828801611d98565b925050606061202d87828801611dd7565b91505092959194509250565b60006020828403121561204b57600080fd5b600061205984828501611dd7565b91505092915050565b60006020828403121561207457600080fd5b600061208284828501611dec565b91505092915050565b6000806040838503121561209e57600080fd5b60006120ac85828601611dd7565b92505060206120bd85828601611cd0565b9150509250929050565b600080604083850312156120da57600080fd5b60006120e885828601611dd7565b92505060206120f985828601611cfa565b9150509250929050565b600061210f838361236a565b60408301905092915050565b60006121278383612458565b60208301905092915050565b61213c81612883565b82525050565b61214b81612883565b82525050565b600061215c8261270d565b6121668185612753565b9350612171836126f3565b8060005b838110156121a25781516121898882612103565b975061219483612739565b925050600181019050612175565b5085935050505092915050565b6121b881612718565b6121c28184612764565b92506121cd82612703565b8060005b838110156121fe5781516121e5878261211b565b96506121f083612746565b9250506001810190506121d1565b505050505050565b61220f816128a1565b82525050565b600061222082612723565b61222a818561276f565b935061223a818560208601612961565b61224381612ae2565b840191505092915050565b6122578161291c565b82525050565b61226681612940565b82525050565b60006122778261272e565b6122818185612780565b9350612291818560208601612961565b61229a81612ae2565b840191505092915050565b60006122b08261272e565b6122ba8185612791565b93506122ca818560208601612961565b6122d381612ae2565b840191505092915050565b60006122eb602b83612791565b91506122f682612af3565b604082019050919050565b600061230e603c83612791565b915061231982612b42565b604082019050919050565b6000612331601c83612791565b915061233c82612b91565b602082019050919050565b6000612354601783612791565b915061235f82612bba565b602082019050919050565b6040820160008201516123806000850182612133565b5060208201516123936020850182612458565b50505050565b6000610120830160008301516123b2600086018261225d565b50602083015184820360208601526123ca828261226c565b915050604083015184820360408601526123e4828261226c565b915050606083015184820360608601526123fe8282612215565b9150506080830151612413608086018261236a565b5060a083015161242660c0860182612458565b5060c083015161243960e0860182612458565b5060e083015161244d610100860182612458565b508091505092915050565b61246181612912565b82525050565b61247081612912565b82525050565b600060208201905061248b6000830184612142565b92915050565b60006040820190506124a66000830185612142565b6124b36020830184612142565b9392505050565b60006060820190506124cf6000830186612142565b6124dc6020830185612142565b6124e96040830184612467565b949350505050565b60006040820190506125066000830185612142565b6125136020830184612467565b9392505050565b600060208201905081810360008301526125348184612151565b905092915050565b600060408201905061255160008301846121af565b92915050565b600060208201905061256c6000830184612206565b92915050565b6000602082019050612587600083018461224e565b92915050565b600060208201905081810360008301526125a781846122a5565b905092915050565b600060208201905081810360008301526125c8816122de565b9050919050565b600060208201905081810360008301526125e881612301565b9050919050565b6000602082019050818103600083015261260881612324565b9050919050565b6000602082019050818103600083015261262881612347565b9050919050565b600060208201905081810360008301526126498184612399565b905092915050565b60006020820190506126666000830184612467565b92915050565b6000612676612687565b905061268282826129c6565b919050565b6000604051905090565b600067ffffffffffffffff8211156126ac576126ab612ab3565b5b6126b582612ae2565b9050602081019050919050565b600067ffffffffffffffff8211156126dd576126dc612ab3565b5b6126e682612ae2565b9050602081019050919050565b6000819050602082019050919050565b6000819050919050565b600081519050919050565b600060029050919050565b600081519050919050565b600081519050919050565b6000602082019050919050565b6000602082019050919050565b600082825260208201905092915050565b600081905092915050565b600082825260208201905092915050565b600082825260208201905092915050565b600082825260208201905092915050565b60006127ad82612912565b91506127b883612912565b9250827fffffffffffffffffffffffffffffffffffffffffffffffffffffffffffffffff038211156127ed576127ec6129f7565b5b828201905092915050565b600061280382612912565b915061280e83612912565b92508261281e5761281d612a26565b5b828204905092915050565b600061283482612912565b915061283f83612912565b9250817fffffffffffffffffffffffffffffffffffffffffffffffffffffffffffffffff0483118215151615612878576128776129f7565b5b828202905092915050565b600061288e826128f2565b9050919050565b60008115159050919050565b60007fffffffff0000000000000000000000000000000000000000000000000000000082169050919050565b60006128d882612883565b9050919050565b60008190506128ed82612be3565b919050565b600073ffffffffffffffffffffffffffffffffffffffff82169050919050565b6000819050919050565b60006129278261292e565b9050919050565b6000612939826128f2565b9050919050565b600061294b826128df565b9050919050565b82818337600083830152505050565b60005b8381101561297f578082015181840152602081019050612964565b8381111561298e576000848401525b50505050565b600060028204905060018216806129ac57607f821691505b602082108114156129c0576129bf612a84565b5b50919050565b6129cf82612ae2565b810181811067ffffffffffffffff821117156129ee576129ed612ab3565b5b80604052505050565b7f4e487b7100000000000000000000000000000000000000000000000000000000600052601160045260246000fd5b7f4e487b7100000000000000000000000000000000000000000000000000000000600052601260045260246000fd5b7f4e487b7100000000000000000000000000000000000000000000000000000000600052602160045260246000fd5b7f4e487b7100000000000000000000000000000000000000000000000000000000600052602260045260246000fd5b7f4e487b7100000000000000000000000000000000000000000000000000000000600052604160045260246000fd5b6000601f19601f8301169050919050565b7f506c65617365207374616b6520796f757220676f7665726e616e636520746f6b60008201527f656e7320746f20766f7465000000000000000000000000000000000000000000602082015250565b7f506c65617365207374616b6520796f757220676f7665726e616e636520746f6b60008201527f656e7320746f206372656174652061206e65772070726f706f73616c00000000602082015250565b7f5468697320617373657420697320616c7265616479206c6f636b656400000000600082015250565b7f546869732061737365742069736e2774206c6f636b6564000000000000000000600082015250565b60038110612bf457612bf3612a55565b5b50565b612c0081612883565b8114612c0b57600080fd5b50565b612c1781612895565b8114612c2257600080fd5b50565b612c2e816128cd565b8114612c3957600080fd5b50565b612c4581612912565b8114612c5057600080fd5b5056fea264697066735822122064f5e18faeb6c8dcf2c90a53ad5ed901d024e57de6d97ee31b1f0da824888ef664736f6c63430008040033",
  "immutableReferences": {},
  "source": "pragma solidity ^0.8.0;\nimport \"@openzeppelin/contracts/token/ERC20/IERC20.sol\";\nimport \"@openzeppelin/contracts/token/ERC721/IERC721.sol\";\nimport \"@openzeppelin/contracts/token/ERC721/IERC721Receiver.sol\";\n\ncontract Dao is IERC721Receiver {\n\n    IERC20 public dao_token;\n    string public name;\n    uint public proposal_id;\n\n    enum proposal_status{ ACTIVE, PASSED, FAILED }\n\n    struct Proposal {\n        proposal_status status;\n        string title;\n        string description;\n        bytes tx;  // Transaction to be executed when proposal passes\n        Asset asset;\n        uint votes_for;  // Amount of \"For\" votes\n        uint votes_against;  // Amount of \"Against\" votes\n        uint threshold;  // Amount of voting power which took a part in voting process for the proposal to be closed\n    }\n\n    struct Asset {\n        address addr;  // Address of stored asset\n        uint id;  // Should be zero for ERC20 and non-zero for ERC721\n    }\n\n    struct Vault {\n        mapping(address => mapping(uint => bool)) asset_locked;\n        Asset[] erc721;  // Locked NFTs\n        Asset[] erc20;  // Locked ERC20\n    }\n\n    Vault vault;\n    mapping(uint => Proposal) proposals;  // Sale proposals by their ids\n    mapping(address => uint) stakes;  // Staked voting power: user => amount. DEPRECATED\n\n    constructor(string memory _name,\n                IERC20 _dao_token) {\n        name = _name;\n        dao_token = _dao_token;\n    }\n\n    function stake(uint _amount, address stake_for) public {\n        if (dao_token.allowance(stake_for, address(this)) < _amount) {\n            dao_token.approve(address(this), _amount);\n        }\n        dao_token.transferFrom(stake_for, address(this), _amount);\n        stakes[msg.sender] += _amount;\n    }\n\n    function claim(uint _amount) public {  // 50\n        uint user_stake = stakes[msg.sender];  // 2\n        if (user_stake < _amount) {  // 2*50 < 50\n            dao_token.transfer(msg.sender, user_stake);\n        } else {\n            if (user_stake < _amount) {\n                dao_token.transfer(msg.sender, user_stake);\n            } else {\n                dao_token.transfer(msg.sender, _amount);\n            }\n        }\n    }\n\n    function propose_tx(string memory _title, string memory _description, bytes memory _tx_to_execute) public {\n        require(dao_token.balanceOf(msg.sender) != 0, \"Please stake your governance tokens to create a new proposal\");\n        proposal_id += 1;\n        Proposal memory proposal = Proposal(proposal_status.ACTIVE,\n                                            _title,\n                                            _description,\n                                            _tx_to_execute,\n                                            Asset(address(0x0), 0),\n                                            0, 0,\n                                            (3*dao_token.totalSupply())/4);\n        proposals[proposal_id] = proposal;\n    }\n\n    function propose_sell(string memory _title, string memory _description, IERC721 _asset_address, uint _asset_id) public {\n        proposal_id += 1;\n        bytes memory empty;\n        Asset memory asset = Asset(address(_asset_address), _asset_id);\n        Proposal memory proposal = Proposal(proposal_status.ACTIVE,\n                                    _title,\n                                    _description,\n                                    empty,\n                                    asset,\n                                    0, 0,\n                                    (3*dao_token.totalSupply())/4);\n        proposals[proposal_id] = proposal;\n    }\n\n    function get_proposal(uint _proposal_id) public view returns (Proposal memory) {\n        return proposals[_proposal_id];\n    }\n\n    function vote(uint _proposal_id, bool _vote) public {  // vote: true - \"For\", false - \"Against\"\n        require(dao_token.balanceOf(msg.sender) != 0, \"Please stake your governance tokens to vote\");\n        if (_vote == true) {\n            proposals[_proposal_id].votes_for += stakes[msg.sender];\n        } else {\n            proposals[_proposal_id].votes_against += stakes[msg.sender];\n        }\n        uint total_votes = proposals[_proposal_id].votes_for + proposals[_proposal_id].votes_against;\n        if (total_votes >= proposals[_proposal_id].threshold) {\n            outcome(_proposal_id);\n        }\n    }\n\n    function votes_distribution(uint _proposal_id) public view returns (uint[2] memory){\n        return [proposals[_proposal_id].votes_for, proposals[_proposal_id].votes_against];\n    }\n\n    function outcome(uint _proposal_id) internal {\n        if (proposals[_proposal_id].votes_for > proposals[_proposal_id].votes_against) {\n            proposals[_proposal_id].status = proposal_status.PASSED;\n        } else {\n        proposals[_proposal_id].status = proposal_status.FAILED;\n        }\n    }\n\n    function add_asset(address _asset_address, uint _asset_id) public {  // Check struct Asset for details\n        require(vault.asset_locked[_asset_address][_asset_id] == false, \"This asset is already locked\");\n        if (_asset_id != 0) {  // NFT\n            IERC721 asset = IERC721(_asset_address);\n            require(asset.ownerOf(_asset_id) == address(this), \"This asset isn't locked\");\n            vault.erc721.push(Asset(_asset_address, _asset_id));\n        } else {  // ERC20\n            vault.erc20.push(Asset(_asset_address, _asset_id));\n        }\n        vault.asset_locked[_asset_address][_asset_id] = true;\n    }\n\n    function get_asset(uint _asset_type) public view returns(Asset[] memory) {\n        /*\n        Get locked assets. UI should iterate over them checking the owner is this DAO\n        _asset_type: 0 - \"erc721\" / 1 - \"erc20\"\n        */\n        if (_asset_type == 0) {\n            return vault.erc721;\n        } else {\n            if (_asset_type == 1) {\n                return vault.erc20;\n            }\n        }\n        Asset[] memory empty;\n        return empty;\n    }\n\n    function onERC721Received(address operator,\n                              address from,\n                              uint256 tokenId,\n                              bytes calldata data) public pure override returns (bytes4) {\n        return this.onERC721Received.selector;\n    }\n\n}\n",
  "sourcePath": "/Users/y.sosunov/git/definition-hackathon/onchain/contracts/Dao.sol",
  "compiler": {
    "name": "solc",
    "version": "0.8.4+commit.c7e474f2.Emscripten.clang"
  },
  "schemaVersion": "3.3.4",
  "updatedAt": "2021-09-26T06:37:24.069Z",
  "devdoc": {
    "kind": "dev",
    "methods": {
      "onERC721Received(address,address,uint256,bytes)": {
        "details": "Whenever an {IERC721} `tokenId` token is transferred to this contract via {IERC721-safeTransferFrom} by `operator` from `from`, this function is called. It must return its Solidity selector to confirm the token transfer. If any other value is returned or the interface is not implemented by the recipient, the transfer will be reverted. The selector can be obtained in Solidity with `IERC721.onERC721Received.selector`."
      }
    },
    "version": 1
  },
  "userdoc": {
    "kind": "user",
    "methods": {},
    "version": 1
  }
}