{
  "contractName": "Dao",
  "abi": [
    {
      "inputs": [
        {
          "internalType": "string",
          "name": "_name",
          "type": "string"
        },
        {
          "internalType": "contract IERC20",
          "name": "_dao_token",
          "type": "address"
        }
      ],
      "stateMutability": "nonpayable",
      "type": "constructor"
    },
    {
      "inputs": [],
      "name": "dao_token",
      "outputs": [
        {
          "internalType": "contract IERC20",
          "name": "",
          "type": "address"
        }
      ],
      "stateMutability": "view",
      "type": "function"
    },
    {
      "inputs": [],
      "name": "name",
      "outputs": [
        {
          "internalType": "string",
          "name": "",
          "type": "string"
        }
      ],
      "stateMutability": "view",
      "type": "function"
    },
    {
      "inputs": [],
      "name": "proposal_id",
      "outputs": [
        {
          "internalType": "uint256",
          "name": "",
          "type": "uint256"
        }
      ],
      "stateMutability": "view",
      "type": "function"
    },
    {
      "inputs": [
        {
          "internalType": "uint256",
          "name": "_amount",
          "type": "uint256"
        },
        {
          "internalType": "address",
          "name": "stake_for",
          "type": "address"
        }
      ],
      "name": "stake",
      "outputs": [],
      "stateMutability": "nonpayable",
      "type": "function"
    },
    {
      "inputs": [
        {
          "internalType": "address",
          "name": "_user",
          "type": "address"
        }
      ],
      "name": "get_stake",
      "outputs": [
        {
          "internalType": "uint256",
          "name": "",
          "type": "uint256"
        }
      ],
      "stateMutability": "view",
      "type": "function"
    },
    {
      "inputs": [
        {
          "internalType": "uint256",
          "name": "_amount",
          "type": "uint256"
        }
      ],
      "name": "claim",
      "outputs": [],
      "stateMutability": "nonpayable",
      "type": "function"
    },
    {
      "inputs": [
        {
          "internalType": "string",
          "name": "_title",
          "type": "string"
        },
        {
          "internalType": "string",
          "name": "_description",
          "type": "string"
        },
        {
          "internalType": "bytes",
          "name": "_tx_to_execute",
          "type": "bytes"
        }
      ],
      "name": "propose_tx",
      "outputs": [],
      "stateMutability": "nonpayable",
      "type": "function"
    },
    {
      "inputs": [
        {
          "internalType": "string",
          "name": "_title",
          "type": "string"
        },
        {
          "internalType": "string",
          "name": "_description",
          "type": "string"
        },
        {
          "internalType": "contract IERC721",
          "name": "_asset_address",
          "type": "address"
        },
        {
          "internalType": "uint256",
          "name": "_asset_id",
          "type": "uint256"
        }
      ],
      "name": "propose_sell",
      "outputs": [],
      "stateMutability": "nonpayable",
      "type": "function"
    },
    {
      "inputs": [
        {
          "internalType": "uint256",
          "name": "_proposal_id",
          "type": "uint256"
        }
      ],
      "name": "get_proposal",
      "outputs": [
        {
          "components": [
            {
              "internalType": "enum Dao.proposal_status",
              "name": "status",
              "type": "uint8"
            },
            {
              "internalType": "string",
              "name": "title",
              "type": "string"
            },
            {
              "internalType": "string",
              "name": "description",
              "type": "string"
            },
            {
              "internalType": "bytes",
              "name": "tx",
              "type": "bytes"
            },
            {
              "components": [
                {
                  "internalType": "address",
                  "name": "addr",
                  "type": "address"
                },
                {
                  "internalType": "uint256",
                  "name": "id",
                  "type": "uint256"
                }
              ],
              "internalType": "struct Dao.Asset",
              "name": "asset",
              "type": "tuple"
            },
            {
              "internalType": "uint256",
              "name": "votes_for",
              "type": "uint256"
            },
            {
              "internalType": "uint256",
              "name": "votes_against",
              "type": "uint256"
            },
            {
              "internalType": "uint256",
              "name": "threshold",
              "type": "uint256"
            }
          ],
          "internalType": "struct Dao.Proposal",
          "name": "",
          "type": "tuple"
        }
      ],
      "stateMutability": "view",
      "type": "function"
    },
    {
      "inputs": [
        {
          "internalType": "uint256",
          "name": "_proposal_id",
          "type": "uint256"
        },
        {
          "internalType": "bool",
          "name": "_vote",
          "type": "bool"
        }
      ],
      "name": "vote",
      "outputs": [],
      "stateMutability": "nonpayable",
      "type": "function"
    },
    {
      "inputs": [
        {
          "internalType": "uint256",
          "name": "_proposal_id",
          "type": "uint256"
        }
      ],
      "name": "votes_distribution",
      "outputs": [
        {
          "internalType": "uint256[2]",
          "name": "",
          "type": "uint256[2]"
        }
      ],
      "stateMutability": "view",
      "type": "function"
    },
    {
      "inputs": [
        {
          "internalType": "address",
          "name": "_asset_address",
          "type": "address"
        },
        {
          "internalType": "uint256",
          "name": "_asset_id",
          "type": "uint256"
        }
      ],
      "name": "add_asset",
      "outputs": [],
      "stateMutability": "nonpayable",
      "type": "function"
    },
    {
      "inputs": [
        {
          "internalType": "uint256",
          "name": "_asset_type",
          "type": "uint256"
        }
      ],
      "name": "get_asset",
      "outputs": [
        {
          "components": [
            {
              "internalType": "address",
              "name": "addr",
              "type": "address"
            },
            {
              "internalType": "uint256",
              "name": "id",
              "type": "uint256"
            }
          ],
          "internalType": "struct Dao.Asset[]",
          "name": "",
          "type": "tuple[]"
        }
      ],
      "stateMutability": "view",
      "type": "function"
    },
    {
      "inputs": [
        {
          "internalType": "address",
          "name": "operator",
          "type": "address"
        },
        {
          "internalType": "address",
          "name": "from",
          "type": "address"
        },
        {
          "internalType": "uint256",
          "name": "tokenId",
          "type": "uint256"
        },
        {
          "internalType": "bytes",
          "name": "data",
          "type": "bytes"
        }
      ],
      "name": "onERC721Received",
      "outputs": [
        {
          "internalType": "bytes4",
          "name": "",
          "type": "bytes4"
        }
      ],
      "stateMutability": "pure",
      "type": "function"
    }
  ],
  "bytecode": "0x60806040523480156200001157600080fd5b5060405162003153380380620031538339818101604052810190620000379190620001d1565b81600190805190602001906200004f92919062000098565b50806000806101000a81548173ffffffffffffffffffffffffffffffffffffffff021916908373ffffffffffffffffffffffffffffffffffffffff1602179055505050620003fd565b828054620000a69062000308565b90600052602060002090601f016020900481019282620000ca576000855562000116565b82601f10620000e557805160ff191683800117855562000116565b8280016001018555821562000116579182015b8281111562000115578251825591602001919060010190620000f8565b5b50905062000125919062000129565b5090565b5b80821115620001445760008160009055506001016200012a565b5090565b60006200015f620001598462000254565b6200022b565b9050828152602081018484840111156200017857600080fd5b62000185848285620002d2565b509392505050565b6000815190506200019e81620003e3565b92915050565b600082601f830112620001b657600080fd5b8151620001c884826020860162000148565b91505092915050565b60008060408385031215620001e557600080fd5b600083015167ffffffffffffffff8111156200020057600080fd5b6200020e85828601620001a4565b925050602062000221858286016200018d565b9150509250929050565b6000620002376200024a565b90506200024582826200033e565b919050565b6000604051905090565b600067ffffffffffffffff821115620002725762000271620003a3565b5b6200027d82620003d2565b9050602081019050919050565b60006200029782620002b2565b9050919050565b6000620002ab826200028a565b9050919050565b600073ffffffffffffffffffffffffffffffffffffffff82169050919050565b60005b83811015620002f2578082015181840152602081019050620002d5565b8381111562000302576000848401525b50505050565b600060028204905060018216806200032157607f821691505b6020821081141562000338576200033762000374565b5b50919050565b6200034982620003d2565b810181811067ffffffffffffffff821117156200036b576200036a620003a3565b5b80604052505050565b7f4e487b7100000000000000000000000000000000000000000000000000000000600052602260045260246000fd5b7f4e487b7100000000000000000000000000000000000000000000000000000000600052604160045260246000fd5b6000601f19601f8301169050919050565b620003ee816200029e565b8114620003fa57600080fd5b50565b612d46806200040d6000396000f3fe608060405234801561001057600080fd5b50600436106100ea5760003560e01c8063528f9d551161008c5780637acb7757116100665780637acb775714610271578063c9d27afe1461028d578063e4dd26cf146102a9578063e9a4b691146102c5576100ea565b8063528f9d5514610205578063688e1d3114610223578063698839fd14610241576100ea565b8063150b7a02116100c8578063150b7a021461015957806317eb2f0914610189578063379607f5146101b95780633eda5200146101d5576100ea565b806306fdde03146100ef5780630f9e4fb51461010d57806310b1939f14610129575b600080fd5b6100f76102e1565b604051610104919061264a565b60405180910390f35b61012760048036038101906101229190611f67565b61036f565b005b610143600480360381019061013e91906120f6565b6106e8565b60405161015091906125d7565b60405180910390f35b610173600480360381019061016e9190611ee7565b61088c565b6040516101809190612614565b60405180910390f35b6101a3600480360381019061019e91906120f6565b6108a1565b6040516101b091906125f9565b60405180910390f35b6101d360048036038101906101ce91906120f6565b6108f1565b005b6101ef60048036038101906101ea91906120f6565b610b5f565b6040516101fc91906126ec565b60405180910390f35b61020d610e5c565b60405161021a919061270e565b60405180910390f35b61022b610e62565b604051610238919061262f565b60405180910390f35b61025b60048036038101906102569190611e95565b610e86565b604051610268919061270e565b60405180910390f35b61028b60048036038101906102869190612148565b610ecf565b005b6102a760048036038101906102a29190612184565b61113a565b005b6102c360048036038101906102be9190611fcc565b61137a565b005b6102df60048036038101906102da9190612063565b611721565b005b600180546102ee90612a51565b80601f016020809104026020016040519081016040528092919081815260200182805461031a90612a51565b80156103675780601f1061033c57610100808354040283529160200191610367565b820191906000526020600020905b81548152906001019060200180831161034a57829003601f168201915b505050505081565b60001515600360000160008473ffffffffffffffffffffffffffffffffffffffff1673ffffffffffffffffffffffffffffffffffffffff168152602001908152602001600020600083815260200190815260200160002060009054906101000a900460ff16151514610416576040517f08c379a000000000000000000000000000000000000000000000000000000000815260040161040d906126ac565b60405180910390fd5b600081146105cb5760008290503073ffffffffffffffffffffffffffffffffffffffff168173ffffffffffffffffffffffffffffffffffffffff16636352211e846040518263ffffffff1660e01b8152600401610473919061270e565b60206040518083038186803b15801561048b57600080fd5b505afa15801561049f573d6000803e3d6000fd5b505050506040513d601f19601f820116820180604052508101906104c39190611ebe565b73ffffffffffffffffffffffffffffffffffffffff1614610519576040517f08c379a0000000000000000000000000000000000000000000000000000000008152600401610510906126cc565b60405180910390fd5b600360010160405180604001604052808573ffffffffffffffffffffffffffffffffffffffff16815260200184815250908060018154018082558091505060019003906000526020600020906002020160009091909190915060008201518160000160006101000a81548173ffffffffffffffffffffffffffffffffffffffff021916908373ffffffffffffffffffffffffffffffffffffffff16021790555060208201518160010155505050610678565b600360020160405180604001604052808473ffffffffffffffffffffffffffffffffffffffff16815260200183815250908060018154018082558091505060019003906000526020600020906002020160009091909190915060008201518160000160006101000a81548173ffffffffffffffffffffffffffffffffffffffff021916908373ffffffffffffffffffffffffffffffffffffffff1602179055506020820151816001015550505b6001600360000160008473ffffffffffffffffffffffffffffffffffffffff1673ffffffffffffffffffffffffffffffffffffffff168152602001908152602001600020600083815260200190815260200160002060006101000a81548160ff0219169083151502179055505050565b606060008214156107b5576003600101805480602002602001604051908101604052809291908181526020016000905b828210156107aa57838290600052602060002090600202016040518060400160405290816000820160009054906101000a900473ffffffffffffffffffffffffffffffffffffffff1673ffffffffffffffffffffffffffffffffffffffff1673ffffffffffffffffffffffffffffffffffffffff16815260200160018201548152505081526020019060010190610718565b505050509050610887565b6001821415610880576003600201805480602002602001604051908101604052809291908181526020016000905b8282101561087557838290600052602060002090600202016040518060400160405290816000820160009054906101000a900473ffffffffffffffffffffffffffffffffffffffff1673ffffffffffffffffffffffffffffffffffffffff1673ffffffffffffffffffffffffffffffffffffffff168152602001600182015481525050815260200190600101906107e3565b505050509050610887565b6060809150505b919050565b600063150b7a0260e01b905095945050505050565b6108a9611aea565b60405180604001604052806006600085815260200190815260200160002060060154815260200160066000858152602001908152602001600020600701548152509050919050565b6000600760003373ffffffffffffffffffffffffffffffffffffffff1673ffffffffffffffffffffffffffffffffffffffff168152602001908152602001600020549050818110156109f05760008054906101000a900473ffffffffffffffffffffffffffffffffffffffff1673ffffffffffffffffffffffffffffffffffffffff1663a9059cbb33836040518363ffffffff1660e01b81526004016109989291906125ae565b602060405180830381600087803b1580156109b257600080fd5b505af11580156109c6573d6000803e3d6000fd5b505050506040513d601f19601f820116820180604052508101906109ea9190611fa3565b50610b5b565b81811015610aab5760008054906101000a900473ffffffffffffffffffffffffffffffffffffffff1673ffffffffffffffffffffffffffffffffffffffff1663a9059cbb33836040518363ffffffff1660e01b8152600401610a539291906125ae565b602060405180830381600087803b158015610a6d57600080fd5b505af1158015610a81573d6000803e3d6000fd5b505050506040513d601f19601f82011682018060405250810190610aa59190611fa3565b50610b5a565b60008054906101000a900473ffffffffffffffffffffffffffffffffffffffff1673ffffffffffffffffffffffffffffffffffffffff1663a9059cbb33846040518363ffffffff1660e01b8152600401610b069291906125ae565b602060405180830381600087803b158015610b2057600080fd5b505af1158015610b34573d6000803e3d6000fd5b505050506040513d601f19601f82011682018060405250810190610b589190611fa3565b505b5b5050565b610b67611b0c565b60066000838152602001908152602001600020604051806101000160405290816000820160009054906101000a900460ff166002811115610bd1577f4e487b7100000000000000000000000000000000000000000000000000000000600052602160045260246000fd5b6002811115610c09577f4e487b7100000000000000000000000000000000000000000000000000000000600052602160045260246000fd5b8152602001600182018054610c1d90612a51565b80601f0160208091040260200160405190810160405280929190818152602001828054610c4990612a51565b8015610c965780601f10610c6b57610100808354040283529160200191610c96565b820191906000526020600020905b815481529060010190602001808311610c7957829003601f168201915b50505050508152602001600282018054610caf90612a51565b80601f0160208091040260200160405190810160405280929190818152602001828054610cdb90612a51565b8015610d285780601f10610cfd57610100808354040283529160200191610d28565b820191906000526020600020905b815481529060010190602001808311610d0b57829003601f168201915b50505050508152602001600382018054610d4190612a51565b80601f0160208091040260200160405190810160405280929190818152602001828054610d6d90612a51565b8015610dba5780601f10610d8f57610100808354040283529160200191610dba565b820191906000526020600020905b815481529060010190602001808311610d9d57829003601f168201915b50505050508152602001600482016040518060400160405290816000820160009054906101000a900473ffffffffffffffffffffffffffffffffffffffff1673ffffffffffffffffffffffffffffffffffffffff1673ffffffffffffffffffffffffffffffffffffffff168152602001600182015481525050815260200160068201548152602001600782015481526020016008820154815250509050919050565b60025481565b60008054906101000a900473ffffffffffffffffffffffffffffffffffffffff1681565b6000600760008373ffffffffffffffffffffffffffffffffffffffff1673ffffffffffffffffffffffffffffffffffffffff168152602001908152602001600020549050919050565b8160008054906101000a900473ffffffffffffffffffffffffffffffffffffffff1673ffffffffffffffffffffffffffffffffffffffff1663dd62ed3e83306040518363ffffffff1660e01b8152600401610f2b92919061254e565b60206040518083038186803b158015610f4357600080fd5b505afa158015610f57573d6000803e3d6000fd5b505050506040513d601f19601f82011682018060405250810190610f7b919061211f565b10156110305760008054906101000a900473ffffffffffffffffffffffffffffffffffffffff1673ffffffffffffffffffffffffffffffffffffffff1663095ea7b330846040518363ffffffff1660e01b8152600401610fdc9291906125ae565b602060405180830381600087803b158015610ff657600080fd5b505af115801561100a573d6000803e3d6000fd5b505050506040513d601f19601f8201168201806040525081019061102e9190611fa3565b505b60008054906101000a900473ffffffffffffffffffffffffffffffffffffffff1673ffffffffffffffffffffffffffffffffffffffff166323b872dd8230856040518463ffffffff1660e01b815260040161108d93929190612577565b602060405180830381600087803b1580156110a757600080fd5b505af11580156110bb573d6000803e3d6000fd5b505050506040513d601f19601f820116820180604052508101906110df9190611fa3565b5081600760008373ffffffffffffffffffffffffffffffffffffffff1673ffffffffffffffffffffffffffffffffffffffff168152602001908152602001600020600082825461112f919061285f565b925050819055505050565b60008060009054906101000a900473ffffffffffffffffffffffffffffffffffffffff1673ffffffffffffffffffffffffffffffffffffffff166370a08231336040518263ffffffff1660e01b81526004016111969190612533565b60206040518083038186803b1580156111ae57600080fd5b505afa1580156111c2573d6000803e3d6000fd5b505050506040513d601f19601f820116820180604052508101906111e6919061211f565b1415611227576040517f08c379a000000000000000000000000000000000000000000000000000000000815260040161121e9061266c565b60405180910390fd5b6001151581151514156112a557600760003373ffffffffffffffffffffffffffffffffffffffff1673ffffffffffffffffffffffffffffffffffffffff16815260200190815260200160002054600660008481526020019081526020016000206006016000828254611299919061285f565b92505081905550611312565b600760003373ffffffffffffffffffffffffffffffffffffffff1673ffffffffffffffffffffffffffffffffffffffff1681526020019081526020016000205460066000848152602001908152602001600020600701600082825461130a919061285f565b925050819055505b60006006600084815260200190815260200160002060070154600660008581526020019081526020016000206006015461134c919061285f565b90506006600084815260200190815260200160002060080154811061137557611374836119e3565b5b505050565b60008060009054906101000a900473ffffffffffffffffffffffffffffffffffffffff1673ffffffffffffffffffffffffffffffffffffffff166370a08231336040518263ffffffff1660e01b81526004016113d69190612533565b60206040518083038186803b1580156113ee57600080fd5b505afa158015611402573d6000803e3d6000fd5b505050506040513d601f19601f82011682018060405250810190611426919061211f565b1415611467576040517f08c379a000000000000000000000000000000000000000000000000000000000815260040161145e9061268c565b60405180910390fd5b60016002600082825461147a919061285f565b925050819055506000604051806101000160405280600060028111156114c9577f4e487b7100000000000000000000000000000000000000000000000000000000600052602160045260246000fd5b81526020018581526020018481526020018381526020016040518060400160405280600073ffffffffffffffffffffffffffffffffffffffff168152602001600081525081526020016000815260200160008152602001600460008054906101000a900473ffffffffffffffffffffffffffffffffffffffff1673ffffffffffffffffffffffffffffffffffffffff166318160ddd6040518163ffffffff1660e01b815260040160206040518083038186803b15801561158857600080fd5b505afa15801561159c573d6000803e3d6000fd5b505050506040513d601f19601f820116820180604052508101906115c0919061211f565b60036115cc91906128e6565b6115d691906128b5565b81525090508060066000600254815260200190815260200160002060008201518160000160006101000a81548160ff02191690836002811115611642577f4e487b7100000000000000000000000000000000000000000000000000000000600052602160045260246000fd5b02179055506020820151816001019080519060200190611663929190611b8f565b506040820151816002019080519060200190611680929190611b8f565b50606082015181600301908051906020019061169d929190611c15565b5060808201518160040160008201518160000160006101000a81548173ffffffffffffffffffffffffffffffffffffffff021916908373ffffffffffffffffffffffffffffffffffffffff16021790555060208201518160010155505060a0820151816006015560c0820151816007015560e0820151816008015590505050505050565b600160026000828254611734919061285f565b925050819055506060600060405180604001604052808573ffffffffffffffffffffffffffffffffffffffff1681526020018481525090506000604051806101000160405280600060028111156117b4577f4e487b7100000000000000000000000000000000000000000000000000000000600052602160045260246000fd5b81526020018881526020018781526020018481526020018381526020016000815260200160008152602001600460008054906101000a900473ffffffffffffffffffffffffffffffffffffffff1673ffffffffffffffffffffffffffffffffffffffff166318160ddd6040518163ffffffff1660e01b815260040160206040518083038186803b15801561184757600080fd5b505afa15801561185b573d6000803e3d6000fd5b505050506040513d601f19601f8201168201806040525081019061187f919061211f565b600361188b91906128e6565b61189591906128b5565b81525090508060066000600254815260200190815260200160002060008201518160000160006101000a81548160ff02191690836002811115611901577f4e487b7100000000000000000000000000000000000000000000000000000000600052602160045260246000fd5b02179055506020820151816001019080519060200190611922929190611b8f565b50604082015181600201908051906020019061193f929190611b8f565b50606082015181600301908051906020019061195c929190611c15565b5060808201518160040160008201518160000160006101000a81548173ffffffffffffffffffffffffffffffffffffffff021916908373ffffffffffffffffffffffffffffffffffffffff16021790555060208201518160010155505060a0820151816006015560c0820151816007015560e0820151816008015590505050505050505050565b600660008281526020019081526020016000206007015460066000838152602001908152602001600020600601541115611a815760016006600083815260200190815260200160002060000160006101000a81548160ff02191690836002811115611a77577f4e487b7100000000000000000000000000000000000000000000000000000000600052602160045260246000fd5b0217905550611ae7565b60026006600083815260200190815260200160002060000160006101000a81548160ff02191690836002811115611ae1577f4e487b7100000000000000000000000000000000000000000000000000000000600052602160045260246000fd5b02179055505b50565b6040518060400160405280600290602082028036833780820191505090505090565b60405180610100016040528060006002811115611b52577f4e487b7100000000000000000000000000000000000000000000000000000000600052602160045260246000fd5b8152602001606081526020016060815260200160608152602001611b74611c9b565b81526020016000815260200160008152602001600081525090565b828054611b9b90612a51565b90600052602060002090601f016020900481019282611bbd5760008555611c04565b82601f10611bd657805160ff1916838001178555611c04565b82800160010185558215611c04579182015b82811115611c03578251825591602001919060010190611be8565b5b509050611c119190611ccb565b5090565b828054611c2190612a51565b90600052602060002090601f016020900481019282611c435760008555611c8a565b82601f10611c5c57805160ff1916838001178555611c8a565b82800160010185558215611c8a579182015b82811115611c89578251825591602001919060010190611c6e565b5b509050611c979190611ccb565b5090565b6040518060400160405280600073ffffffffffffffffffffffffffffffffffffffff168152602001600081525090565b5b80821115611ce4576000816000905550600101611ccc565b5090565b6000611cfb611cf68461274e565b612729565b905082815260208101848484011115611d1357600080fd5b611d1e848285612a0f565b509392505050565b6000611d39611d348461277f565b612729565b905082815260208101848484011115611d5157600080fd5b611d5c848285612a0f565b509392505050565b600081359050611d7381612cb4565b92915050565b600081519050611d8881612cb4565b92915050565b600081359050611d9d81612ccb565b92915050565b600081519050611db281612ccb565b92915050565b60008083601f840112611dca57600080fd5b8235905067ffffffffffffffff811115611de357600080fd5b602083019150836001820283011115611dfb57600080fd5b9250929050565b600082601f830112611e1357600080fd5b8135611e23848260208601611ce8565b91505092915050565b600081359050611e3b81612ce2565b92915050565b600082601f830112611e5257600080fd5b8135611e62848260208601611d26565b91505092915050565b600081359050611e7a81612cf9565b92915050565b600081519050611e8f81612cf9565b92915050565b600060208284031215611ea757600080fd5b6000611eb584828501611d64565b91505092915050565b600060208284031215611ed057600080fd5b6000611ede84828501611d79565b91505092915050565b600080600080600060808688031215611eff57600080fd5b6000611f0d88828901611d64565b9550506020611f1e88828901611d64565b9450506040611f2f88828901611e6b565b935050606086013567ffffffffffffffff811115611f4c57600080fd5b611f5888828901611db8565b92509250509295509295909350565b60008060408385031215611f7a57600080fd5b6000611f8885828601611d64565b9250506020611f9985828601611e6b565b9150509250929050565b600060208284031215611fb557600080fd5b6000611fc384828501611da3565b91505092915050565b600080600060608486031215611fe157600080fd5b600084013567ffffffffffffffff811115611ffb57600080fd5b61200786828701611e41565b935050602084013567ffffffffffffffff81111561202457600080fd5b61203086828701611e41565b925050604084013567ffffffffffffffff81111561204d57600080fd5b61205986828701611e02565b9150509250925092565b6000806000806080858703121561207957600080fd5b600085013567ffffffffffffffff81111561209357600080fd5b61209f87828801611e41565b945050602085013567ffffffffffffffff8111156120bc57600080fd5b6120c887828801611e41565b93505060406120d987828801611e2c565b92505060606120ea87828801611e6b565b91505092959194509250565b60006020828403121561210857600080fd5b600061211684828501611e6b565b91505092915050565b60006020828403121561213157600080fd5b600061213f84828501611e80565b91505092915050565b6000806040838503121561215b57600080fd5b600061216985828601611e6b565b925050602061217a85828601611d64565b9150509250929050565b6000806040838503121561219757600080fd5b60006121a585828601611e6b565b92505060206121b685828601611d8e565b9150509250929050565b60006121cc8383612427565b60408301905092915050565b60006121e48383612515565b60208301905092915050565b6121f981612940565b82525050565b61220881612940565b82525050565b6000612219826127ca565b6122238185612810565b935061222e836127b0565b8060005b8381101561225f57815161224688826121c0565b9750612251836127f6565b925050600181019050612232565b5085935050505092915050565b612275816127d5565b61227f8184612821565b925061228a826127c0565b8060005b838110156122bb5781516122a287826121d8565b96506122ad83612803565b92505060018101905061228e565b505050505050565b6122cc8161295e565b82525050565b60006122dd826127e0565b6122e7818561282c565b93506122f7818560208601612a1e565b61230081612b9f565b840191505092915050565b612314816129d9565b82525050565b612323816129fd565b82525050565b6000612334826127eb565b61233e818561283d565b935061234e818560208601612a1e565b61235781612b9f565b840191505092915050565b600061236d826127eb565b612377818561284e565b9350612387818560208601612a1e565b61239081612b9f565b840191505092915050565b60006123a8602b8361284e565b91506123b382612bb0565b604082019050919050565b60006123cb603c8361284e565b91506123d682612bff565b604082019050919050565b60006123ee601c8361284e565b91506123f982612c4e565b602082019050919050565b600061241160178361284e565b915061241c82612c77565b602082019050919050565b60408201600082015161243d60008501826121f0565b5060208201516124506020850182612515565b50505050565b60006101208301600083015161246f600086018261231a565b50602083015184820360208601526124878282612329565b915050604083015184820360408601526124a18282612329565b915050606083015184820360608601526124bb82826122d2565b91505060808301516124d06080860182612427565b5060a08301516124e360c0860182612515565b5060c08301516124f660e0860182612515565b5060e083015161250a610100860182612515565b508091505092915050565b61251e816129cf565b82525050565b61252d816129cf565b82525050565b600060208201905061254860008301846121ff565b92915050565b600060408201905061256360008301856121ff565b61257060208301846121ff565b9392505050565b600060608201905061258c60008301866121ff565b61259960208301856121ff565b6125a66040830184612524565b949350505050565b60006040820190506125c360008301856121ff565b6125d06020830184612524565b9392505050565b600060208201905081810360008301526125f1818461220e565b905092915050565b600060408201905061260e600083018461226c565b92915050565b600060208201905061262960008301846122c3565b92915050565b6000602082019050612644600083018461230b565b92915050565b600060208201905081810360008301526126648184612362565b905092915050565b600060208201905081810360008301526126858161239b565b9050919050565b600060208201905081810360008301526126a5816123be565b9050919050565b600060208201905081810360008301526126c5816123e1565b9050919050565b600060208201905081810360008301526126e581612404565b9050919050565b600060208201905081810360008301526127068184612456565b905092915050565b60006020820190506127236000830184612524565b92915050565b6000612733612744565b905061273f8282612a83565b919050565b6000604051905090565b600067ffffffffffffffff82111561276957612768612b70565b5b61277282612b9f565b9050602081019050919050565b600067ffffffffffffffff82111561279a57612799612b70565b5b6127a382612b9f565b9050602081019050919050565b6000819050602082019050919050565b6000819050919050565b600081519050919050565b600060029050919050565b600081519050919050565b600081519050919050565b6000602082019050919050565b6000602082019050919050565b600082825260208201905092915050565b600081905092915050565b600082825260208201905092915050565b600082825260208201905092915050565b600082825260208201905092915050565b600061286a826129cf565b9150612875836129cf565b9250827fffffffffffffffffffffffffffffffffffffffffffffffffffffffffffffffff038211156128aa576128a9612ab4565b5b828201905092915050565b60006128c0826129cf565b91506128cb836129cf565b9250826128db576128da612ae3565b5b828204905092915050565b60006128f1826129cf565b91506128fc836129cf565b9250817fffffffffffffffffffffffffffffffffffffffffffffffffffffffffffffffff048311821515161561293557612934612ab4565b5b828202905092915050565b600061294b826129af565b9050919050565b60008115159050919050565b60007fffffffff0000000000000000000000000000000000000000000000000000000082169050919050565b600061299582612940565b9050919050565b60008190506129aa82612ca0565b919050565b600073ffffffffffffffffffffffffffffffffffffffff82169050919050565b6000819050919050565b60006129e4826129eb565b9050919050565b60006129f6826129af565b9050919050565b6000612a088261299c565b9050919050565b82818337600083830152505050565b60005b83811015612a3c578082015181840152602081019050612a21565b83811115612a4b576000848401525b50505050565b60006002820490506001821680612a6957607f821691505b60208210811415612a7d57612a7c612b41565b5b50919050565b612a8c82612b9f565b810181811067ffffffffffffffff82111715612aab57612aaa612b70565b5b80604052505050565b7f4e487b7100000000000000000000000000000000000000000000000000000000600052601160045260246000fd5b7f4e487b7100000000000000000000000000000000000000000000000000000000600052601260045260246000fd5b7f4e487b7100000000000000000000000000000000000000000000000000000000600052602160045260246000fd5b7f4e487b7100000000000000000000000000000000000000000000000000000000600052602260045260246000fd5b7f4e487b7100000000000000000000000000000000000000000000000000000000600052604160045260246000fd5b6000601f19601f8301169050919050565b7f506c65617365207374616b6520796f757220676f7665726e616e636520746f6b60008201527f656e7320746f20766f7465000000000000000000000000000000000000000000602082015250565b7f506c65617365207374616b6520796f757220676f7665726e616e636520746f6b60008201527f656e7320746f206372656174652061206e65772070726f706f73616c00000000602082015250565b7f5468697320617373657420697320616c7265616479206c6f636b656400000000600082015250565b7f546869732061737365742069736e2774206c6f636b6564000000000000000000600082015250565b60038110612cb157612cb0612b12565b5b50565b612cbd81612940565b8114612cc857600080fd5b50565b612cd481612952565b8114612cdf57600080fd5b50565b612ceb8161298a565b8114612cf657600080fd5b50565b612d02816129cf565b8114612d0d57600080fd5b5056fea2646970667358221220fa22f7a0235be2c90d7d0f9276ba1f193015a9d58edfbb82e753aa4772a29cff64736f6c63430008040033",
  "immutableReferences": {},
  "source": "pragma solidity ^0.8.0;\nimport \"@openzeppelin/contracts/token/ERC20/IERC20.sol\";\nimport \"@openzeppelin/contracts/token/ERC721/IERC721.sol\";\nimport \"@openzeppelin/contracts/token/ERC721/IERC721Receiver.sol\";\n\ncontract Dao is IERC721Receiver {\n\n    IERC20 public dao_token;\n    string public name;\n    uint public proposal_id;\n\n    enum proposal_status{ ACTIVE, PASSED, FAILED }\n\n    struct Proposal {\n        proposal_status status;\n        string title;\n        string description;\n        bytes tx;  // Transaction to be executed when proposal passes\n        Asset asset;\n        uint votes_for;  // Amount of \"For\" votes\n        uint votes_against;  // Amount of \"Against\" votes\n        uint threshold;  // Amount of voting power which took a part in voting process for the proposal to be closed\n    }\n\n    struct Asset {\n        address addr;  // Address of stored asset\n        uint id;  // Should be zero for ERC20 and non-zero for ERC721\n    }\n\n    struct Vault {\n        mapping(address => mapping(uint => bool)) asset_locked;\n        Asset[] erc721;  // Locked NFTs\n        Asset[] erc20;  // Locked ERC20\n    }\n\n    Vault vault;\n    mapping(uint => Proposal) proposals;  // Sale proposals by their ids\n    mapping(address => uint) stakes;  // Staked voting power: user => amount. DEPRECATED\n\n    constructor(string memory _name,\n                IERC20 _dao_token) {\n        name = _name;\n        dao_token = _dao_token;\n    }\n\n    function stake(uint _amount, address stake_for) public {\n        if (dao_token.allowance(stake_for, address(this)) < _amount) {\n            dao_token.approve(address(this), _amount);\n        }\n        dao_token.transferFrom(stake_for, address(this), _amount);\n        stakes[stake_for] += _amount;\n    }\n\n    function get_stake(address _user) public view returns (uint){\n        return stakes[_user];\n    }\n\n    function claim(uint _amount) public {  // 50\n        uint user_stake = stakes[msg.sender];  // 2\n        if (user_stake < _amount) {  // 2*50 < 50\n            dao_token.transfer(msg.sender, user_stake);\n        } else {\n            if (user_stake < _amount) {\n                dao_token.transfer(msg.sender, user_stake);\n            } else {\n                dao_token.transfer(msg.sender, _amount);\n            }\n        }\n    }\n\n    function propose_tx(string memory _title, string memory _description, bytes memory _tx_to_execute) public {\n        require(dao_token.balanceOf(msg.sender) != 0, \"Please stake your governance tokens to create a new proposal\");\n        proposal_id += 1;\n        Proposal memory proposal = Proposal(proposal_status.ACTIVE,\n                                            _title,\n                                            _description,\n                                            _tx_to_execute,\n                                            Asset(address(0x0), 0),\n                                            0, 0,\n                                            (3*dao_token.totalSupply())/4);\n        proposals[proposal_id] = proposal;\n    }\n\n    function propose_sell(string memory _title, string memory _description, IERC721 _asset_address, uint _asset_id) public {\n        proposal_id += 1;\n        bytes memory empty;\n        Asset memory asset = Asset(address(_asset_address), _asset_id);\n        Proposal memory proposal = Proposal(proposal_status.ACTIVE,\n                                    _title,\n                                    _description,\n                                    empty,\n                                    asset,\n                                    0, 0,\n                                    (3*dao_token.totalSupply())/4);\n        proposals[proposal_id] = proposal;\n    }\n\n    function get_proposal(uint _proposal_id) public view returns (Proposal memory) {\n        return proposals[_proposal_id];\n    }\n\n    function vote(uint _proposal_id, bool _vote) public {  // vote: true - \"For\", false - \"Against\"\n        require(dao_token.balanceOf(msg.sender) != 0, \"Please stake your governance tokens to vote\");\n        if (_vote == true) {\n            proposals[_proposal_id].votes_for += stakes[msg.sender];\n        } else {\n            proposals[_proposal_id].votes_against += stakes[msg.sender];\n        }\n        uint total_votes = proposals[_proposal_id].votes_for + proposals[_proposal_id].votes_against;\n        if (total_votes >= proposals[_proposal_id].threshold) {\n            outcome(_proposal_id);\n        }\n    }\n\n    function votes_distribution(uint _proposal_id) public view returns (uint[2] memory){\n        return [proposals[_proposal_id].votes_for, proposals[_proposal_id].votes_against];\n    }\n\n    function outcome(uint _proposal_id) internal {\n        if (proposals[_proposal_id].votes_for > proposals[_proposal_id].votes_against) {\n            proposals[_proposal_id].status = proposal_status.PASSED;\n        } else {\n        proposals[_proposal_id].status = proposal_status.FAILED;\n        }\n    }\n\n    function add_asset(address _asset_address, uint _asset_id) public {  // Check struct Asset for details\n        require(vault.asset_locked[_asset_address][_asset_id] == false, \"This asset is already locked\");\n        if (_asset_id != 0) {  // NFT\n            IERC721 asset = IERC721(_asset_address);\n            require(asset.ownerOf(_asset_id) == address(this), \"This asset isn't locked\");\n            vault.erc721.push(Asset(_asset_address, _asset_id));\n        } else {  // ERC20\n            vault.erc20.push(Asset(_asset_address, _asset_id));\n        }\n        vault.asset_locked[_asset_address][_asset_id] = true;\n    }\n\n    function get_asset(uint _asset_type) public view returns(Asset[] memory) {\n        /*\n        Get locked assets. UI should iterate over them checking the owner is this DAO\n        _asset_type: 0 - \"erc721\" / 1 - \"erc20\"\n        */\n        if (_asset_type == 0) {\n            return vault.erc721;\n        } else {\n            if (_asset_type == 1) {\n                return vault.erc20;\n            }\n        }\n        Asset[] memory empty;\n        return empty;\n    }\n\n    function onERC721Received(address operator,\n                              address from,\n                              uint256 tokenId,\n                              bytes calldata data) public pure override returns (bytes4) {\n        return this.onERC721Received.selector;\n    }\n\n}\n",
  "sourcePath": "/Users/y.sosunov/git/definition-hackathon/onchain/contracts/Dao.sol",
  "compiler": {
    "name": "solc",
    "version": "0.8.4+commit.c7e474f2.Emscripten.clang"
  },
  "schemaVersion": "3.3.4",
  "updatedAt": "2021-09-26T06:52:18.625Z",
  "devdoc": {
    "kind": "dev",
    "methods": {
      "onERC721Received(address,address,uint256,bytes)": {
        "details": "Whenever an {IERC721} `tokenId` token is transferred to this contract via {IERC721-safeTransferFrom} by `operator` from `from`, this function is called. It must return its Solidity selector to confirm the token transfer. If any other value is returned or the interface is not implemented by the recipient, the transfer will be reverted. The selector can be obtained in Solidity with `IERC721.onERC721Received.selector`."
      }
    },
    "version": 1
  },
  "userdoc": {
    "kind": "user",
    "methods": {},
    "version": 1
  }
}