{
  "contractName": "Dao",
  "abi": [
    {
      "inputs": [
        {
          "internalType": "string",
          "name": "_name",
          "type": "string"
        },
        {
          "internalType": "contract IERC20",
          "name": "_dao_token",
          "type": "address"
        },
        {
          "internalType": "contract Pool",
          "name": "_pool",
          "type": "address"
        }
      ],
      "stateMutability": "nonpayable",
      "type": "constructor"
    },
    {
      "inputs": [],
      "name": "dao_token",
      "outputs": [
        {
          "internalType": "contract IERC20",
          "name": "",
          "type": "address"
        }
      ],
      "stateMutability": "view",
      "type": "function"
    },
    {
      "inputs": [],
      "name": "name",
      "outputs": [
        {
          "internalType": "string",
          "name": "",
          "type": "string"
        }
      ],
      "stateMutability": "view",
      "type": "function"
    },
    {
      "inputs": [],
      "name": "proposal_id",
      "outputs": [
        {
          "internalType": "uint256",
          "name": "",
          "type": "uint256"
        }
      ],
      "stateMutability": "view",
      "type": "function"
    },
    {
      "inputs": [
        {
          "internalType": "uint256",
          "name": "_amount",
          "type": "uint256"
        },
        {
          "internalType": "address",
          "name": "stake_for",
          "type": "address"
        }
      ],
      "name": "stake",
      "outputs": [],
      "stateMutability": "nonpayable",
      "type": "function"
    },
    {
      "inputs": [
        {
          "internalType": "uint256",
          "name": "_amount",
          "type": "uint256"
        },
        {
          "internalType": "address",
          "name": "_stake_for",
          "type": "address"
        }
      ],
      "name": "auto_stake",
      "outputs": [],
      "stateMutability": "nonpayable",
      "type": "function"
    },
    {
      "inputs": [
        {
          "internalType": "address",
          "name": "_user",
          "type": "address"
        }
      ],
      "name": "get_stake",
      "outputs": [
        {
          "internalType": "uint256",
          "name": "",
          "type": "uint256"
        }
      ],
      "stateMutability": "view",
      "type": "function"
    },
    {
      "inputs": [
        {
          "internalType": "uint256",
          "name": "_amount",
          "type": "uint256"
        }
      ],
      "name": "claim",
      "outputs": [],
      "stateMutability": "nonpayable",
      "type": "function"
    },
    {
      "inputs": [
        {
          "internalType": "string",
          "name": "_title",
          "type": "string"
        },
        {
          "internalType": "string",
          "name": "_description",
          "type": "string"
        },
        {
          "internalType": "bytes",
          "name": "_tx_to_execute",
          "type": "bytes"
        }
      ],
      "name": "propose_tx",
      "outputs": [],
      "stateMutability": "nonpayable",
      "type": "function"
    },
    {
      "inputs": [
        {
          "internalType": "string",
          "name": "_title",
          "type": "string"
        },
        {
          "internalType": "string",
          "name": "_description",
          "type": "string"
        },
        {
          "internalType": "contract IERC721",
          "name": "_asset_address",
          "type": "address"
        },
        {
          "internalType": "uint256",
          "name": "_asset_id",
          "type": "uint256"
        }
      ],
      "name": "propose_sell",
      "outputs": [],
      "stateMutability": "nonpayable",
      "type": "function"
    },
    {
      "inputs": [
        {
          "internalType": "uint256",
          "name": "_proposal_id",
          "type": "uint256"
        }
      ],
      "name": "get_proposal",
      "outputs": [
        {
          "components": [
            {
              "internalType": "enum Dao.proposal_status",
              "name": "status",
              "type": "uint8"
            },
            {
              "internalType": "string",
              "name": "title",
              "type": "string"
            },
            {
              "internalType": "string",
              "name": "description",
              "type": "string"
            },
            {
              "internalType": "bytes",
              "name": "tx",
              "type": "bytes"
            },
            {
              "components": [
                {
                  "internalType": "address",
                  "name": "addr",
                  "type": "address"
                },
                {
                  "internalType": "uint256",
                  "name": "id",
                  "type": "uint256"
                }
              ],
              "internalType": "struct Dao.Asset",
              "name": "asset",
              "type": "tuple"
            },
            {
              "internalType": "uint256",
              "name": "votes_for",
              "type": "uint256"
            },
            {
              "internalType": "uint256",
              "name": "votes_against",
              "type": "uint256"
            },
            {
              "internalType": "uint256",
              "name": "threshold",
              "type": "uint256"
            }
          ],
          "internalType": "struct Dao.Proposal",
          "name": "",
          "type": "tuple"
        }
      ],
      "stateMutability": "view",
      "type": "function"
    },
    {
      "inputs": [
        {
          "internalType": "uint256",
          "name": "_proposal_id",
          "type": "uint256"
        },
        {
          "internalType": "bool",
          "name": "_vote",
          "type": "bool"
        }
      ],
      "name": "vote",
      "outputs": [],
      "stateMutability": "nonpayable",
      "type": "function"
    },
    {
      "inputs": [
        {
          "internalType": "uint256",
          "name": "_proposal_id",
          "type": "uint256"
        }
      ],
      "name": "votes_distribution",
      "outputs": [
        {
          "internalType": "uint256[2]",
          "name": "",
          "type": "uint256[2]"
        }
      ],
      "stateMutability": "view",
      "type": "function"
    },
    {
      "inputs": [
        {
          "internalType": "address",
          "name": "_asset_address",
          "type": "address"
        },
        {
          "internalType": "uint256",
          "name": "_asset_id",
          "type": "uint256"
        }
      ],
      "name": "add_asset",
      "outputs": [],
      "stateMutability": "nonpayable",
      "type": "function"
    },
    {
      "inputs": [
        {
          "internalType": "uint256",
          "name": "_asset_type",
          "type": "uint256"
        }
      ],
      "name": "get_asset",
      "outputs": [
        {
          "components": [
            {
              "internalType": "address",
              "name": "addr",
              "type": "address"
            },
            {
              "internalType": "uint256",
              "name": "id",
              "type": "uint256"
            }
          ],
          "internalType": "struct Dao.Asset[]",
          "name": "",
          "type": "tuple[]"
        }
      ],
      "stateMutability": "view",
      "type": "function"
    },
    {
      "inputs": [
        {
          "internalType": "address",
          "name": "operator",
          "type": "address"
        },
        {
          "internalType": "address",
          "name": "from",
          "type": "address"
        },
        {
          "internalType": "uint256",
          "name": "tokenId",
          "type": "uint256"
        },
        {
          "internalType": "bytes",
          "name": "data",
          "type": "bytes"
        }
      ],
      "name": "onERC721Received",
      "outputs": [
        {
          "internalType": "bytes4",
          "name": "",
          "type": "bytes4"
        }
      ],
      "stateMutability": "pure",
      "type": "function"
    }
  ],
  "bytecode": "0x60806040523480156200001157600080fd5b50604051620031973803806200319783398181016040528101906200003791906200022a565b82600190805190602001906200004f929190620000da565b50816000806101000a81548173ffffffffffffffffffffffffffffffffffffffff021916908373ffffffffffffffffffffffffffffffffffffffff16021790555080600660006101000a81548173ffffffffffffffffffffffffffffffffffffffff021916908373ffffffffffffffffffffffffffffffffffffffff16021790555050505062000499565b828054620000e8906200038a565b90600052602060002090601f0160209004810192826200010c576000855562000158565b82601f106200012757805160ff191683800117855562000158565b8280016001018555821562000158579182015b82811115620001575782518255916020019190600101906200013a565b5b5090506200016791906200016b565b5090565b5b80821115620001865760008160009055506001016200016c565b5090565b6000620001a16200019b84620002c2565b62000299565b905082815260208101848484011115620001ba57600080fd5b620001c784828562000354565b509392505050565b600081519050620001e08162000465565b92915050565b600081519050620001f7816200047f565b92915050565b600082601f8301126200020f57600080fd5b8151620002218482602086016200018a565b91505092915050565b6000806000606084860312156200024057600080fd5b600084015167ffffffffffffffff8111156200025b57600080fd5b6200026986828701620001fd565b93505060206200027c86828701620001cf565b92505060406200028f86828701620001e6565b9150509250925092565b6000620002a5620002b8565b9050620002b38282620003c0565b919050565b6000604051905090565b600067ffffffffffffffff821115620002e057620002df62000425565b5b620002eb8262000454565b9050602081019050919050565b6000620003058262000334565b9050919050565b60006200031982620002f8565b9050919050565b60006200032d82620002f8565b9050919050565b600073ffffffffffffffffffffffffffffffffffffffff82169050919050565b60005b838110156200037457808201518184015260208101905062000357565b8381111562000384576000848401525b50505050565b60006002820490506001821680620003a357607f821691505b60208210811415620003ba57620003b9620003f6565b5b50919050565b620003cb8262000454565b810181811067ffffffffffffffff82111715620003ed57620003ec62000425565b5b80604052505050565b7f4e487b7100000000000000000000000000000000000000000000000000000000600052602260045260246000fd5b7f4e487b7100000000000000000000000000000000000000000000000000000000600052604160045260246000fd5b6000601f19601f8301169050919050565b62000470816200030c565b81146200047c57600080fd5b50565b6200048a8162000320565b81146200049657600080fd5b50565b612cee80620004a96000396000f3fe608060405234801561001057600080fd5b50600436106100f55760003560e01c8063528f9d55116100975780637acb7757116100665780637acb775714610298578063c9d27afe146102b4578063e4dd26cf146102d0578063e9a4b691146102ec576100f5565b8063528f9d5514610210578063561f4a6a1461022e578063688e1d311461024a578063698839fd14610268576100f5565b8063150b7a02116100d3578063150b7a021461016457806317eb2f0914610194578063379607f5146101c45780633eda5200146101e0576100f5565b806306fdde03146100fa5780630f9e4fb51461011857806310b1939f14610134575b600080fd5b610102610308565b60405161010f91906125f2565b60405180910390f35b610132600480360381019061012d9190611f2a565b610396565b005b61014e600480360381019061014991906120b9565b61070f565b60405161015b919061257f565b60405180910390f35b61017e60048036038101906101799190611eaa565b6108b3565b60405161018b91906125bc565b60405180910390f35b6101ae60048036038101906101a991906120b9565b6108c8565b6040516101bb91906125a1565b60405180910390f35b6101de60048036038101906101d991906120b9565b610918565b005b6101fa60048036038101906101f591906120b9565b610aca565b6040516102079190612694565b60405180910390f35b610218610dc7565b60405161022591906126b6565b60405180910390f35b6102486004803603810190610243919061210b565b610dcd565b005b610252610ef9565b60405161025f91906125d7565b60405180910390f35b610282600480360381019061027d9190611e58565b610f1d565b60405161028f91906126b6565b60405180910390f35b6102b260048036038101906102ad919061210b565b610f66565b005b6102ce60048036038101906102c99190612147565b6111d1565b005b6102ea60048036038101906102e59190611f8f565b6113a7565b005b61030660048036038101906103019190612026565b6116e4565b005b60018054610315906129f9565b80601f0160208091040260200160405190810160405280929190818152602001828054610341906129f9565b801561038e5780601f106103635761010080835404028352916020019161038e565b820191906000526020600020905b81548152906001019060200180831161037157829003601f168201915b505050505081565b60001515600360000160008473ffffffffffffffffffffffffffffffffffffffff1673ffffffffffffffffffffffffffffffffffffffff168152602001908152602001600020600083815260200190815260200160002060009054906101000a900460ff1615151461043d576040517f08c379a000000000000000000000000000000000000000000000000000000000815260040161043490612654565b60405180910390fd5b600081146105f25760008290503073ffffffffffffffffffffffffffffffffffffffff168173ffffffffffffffffffffffffffffffffffffffff16636352211e846040518263ffffffff1660e01b815260040161049a91906126b6565b60206040518083038186803b1580156104b257600080fd5b505afa1580156104c6573d6000803e3d6000fd5b505050506040513d601f19601f820116820180604052508101906104ea9190611e81565b73ffffffffffffffffffffffffffffffffffffffff1614610540576040517f08c379a000000000000000000000000000000000000000000000000000000000815260040161053790612674565b60405180910390fd5b600360010160405180604001604052808573ffffffffffffffffffffffffffffffffffffffff16815260200184815250908060018154018082558091505060019003906000526020600020906002020160009091909190915060008201518160000160006101000a81548173ffffffffffffffffffffffffffffffffffffffff021916908373ffffffffffffffffffffffffffffffffffffffff1602179055506020820151816001015550505061069f565b600360020160405180604001604052808473ffffffffffffffffffffffffffffffffffffffff16815260200183815250908060018154018082558091505060019003906000526020600020906002020160009091909190915060008201518160000160006101000a81548173ffffffffffffffffffffffffffffffffffffffff021916908373ffffffffffffffffffffffffffffffffffffffff1602179055506020820151816001015550505b6001600360000160008473ffffffffffffffffffffffffffffffffffffffff1673ffffffffffffffffffffffffffffffffffffffff168152602001908152602001600020600083815260200190815260200160002060006101000a81548160ff0219169083151502179055505050565b606060008214156107dc576003600101805480602002602001604051908101604052809291908181526020016000905b828210156107d157838290600052602060002090600202016040518060400160405290816000820160009054906101000a900473ffffffffffffffffffffffffffffffffffffffff1673ffffffffffffffffffffffffffffffffffffffff1673ffffffffffffffffffffffffffffffffffffffff1681526020016001820154815250508152602001906001019061073f565b5050505090506108ae565b60018214156108a7576003600201805480602002602001604051908101604052809291908181526020016000905b8282101561089c57838290600052602060002090600202016040518060400160405290816000820160009054906101000a900473ffffffffffffffffffffffffffffffffffffffff1673ffffffffffffffffffffffffffffffffffffffff1673ffffffffffffffffffffffffffffffffffffffff1681526020016001820154815250508152602001906001019061080a565b5050505090506108ae565b6060809150505b919050565b600063150b7a0260e01b905095945050505050565b6108d0611aad565b60405180604001604052806007600085815260200190815260200160002060060154815260200160076000858152602001908152602001600020600701548152509050919050565b6000600860003373ffffffffffffffffffffffffffffffffffffffff1673ffffffffffffffffffffffffffffffffffffffff16815260200190815260200160002054905081811015610a175760008054906101000a900473ffffffffffffffffffffffffffffffffffffffff1673ffffffffffffffffffffffffffffffffffffffff1663a9059cbb33836040518363ffffffff1660e01b81526004016109bf929190612556565b602060405180830381600087803b1580156109d957600080fd5b505af11580156109ed573d6000803e3d6000fd5b505050506040513d601f19601f82011682018060405250810190610a119190611f66565b50610ac6565b60008054906101000a900473ffffffffffffffffffffffffffffffffffffffff1673ffffffffffffffffffffffffffffffffffffffff1663a9059cbb33846040518363ffffffff1660e01b8152600401610a72929190612556565b602060405180830381600087803b158015610a8c57600080fd5b505af1158015610aa0573d6000803e3d6000fd5b505050506040513d601f19601f82011682018060405250810190610ac49190611f66565b505b5050565b610ad2611acf565b60076000838152602001908152602001600020604051806101000160405290816000820160009054906101000a900460ff166002811115610b3c577f4e487b7100000000000000000000000000000000000000000000000000000000600052602160045260246000fd5b6002811115610b74577f4e487b7100000000000000000000000000000000000000000000000000000000600052602160045260246000fd5b8152602001600182018054610b88906129f9565b80601f0160208091040260200160405190810160405280929190818152602001828054610bb4906129f9565b8015610c015780601f10610bd657610100808354040283529160200191610c01565b820191906000526020600020905b815481529060010190602001808311610be457829003601f168201915b50505050508152602001600282018054610c1a906129f9565b80601f0160208091040260200160405190810160405280929190818152602001828054610c46906129f9565b8015610c935780601f10610c6857610100808354040283529160200191610c93565b820191906000526020600020905b815481529060010190602001808311610c7657829003601f168201915b50505050508152602001600382018054610cac906129f9565b80601f0160208091040260200160405190810160405280929190818152602001828054610cd8906129f9565b8015610d255780601f10610cfa57610100808354040283529160200191610d25565b820191906000526020600020905b815481529060010190602001808311610d0857829003601f168201915b50505050508152602001600482016040518060400160405290816000820160009054906101000a900473ffffffffffffffffffffffffffffffffffffffff1673ffffffffffffffffffffffffffffffffffffffff1673ffffffffffffffffffffffffffffffffffffffff168152602001600182015481525050815260200160068201548152602001600782015481526020016008820154815250509050919050565b60025481565b60008054906101000a900473ffffffffffffffffffffffffffffffffffffffff1673ffffffffffffffffffffffffffffffffffffffff166323b872dd600660009054906101000a900473ffffffffffffffffffffffffffffffffffffffff1630856040518463ffffffff1660e01b8152600401610e4c9392919061251f565b602060405180830381600087803b158015610e6657600080fd5b505af1158015610e7a573d6000803e3d6000fd5b505050506040513d601f19601f82011682018060405250810190610e9e9190611f66565b5081600860008373ffffffffffffffffffffffffffffffffffffffff1673ffffffffffffffffffffffffffffffffffffffff1681526020019081526020016000206000828254610eee9190612807565b925050819055505050565b60008054906101000a900473ffffffffffffffffffffffffffffffffffffffff1681565b6000600860008373ffffffffffffffffffffffffffffffffffffffff1673ffffffffffffffffffffffffffffffffffffffff168152602001908152602001600020549050919050565b8160008054906101000a900473ffffffffffffffffffffffffffffffffffffffff1673ffffffffffffffffffffffffffffffffffffffff1663dd62ed3e83306040518363ffffffff1660e01b8152600401610fc29291906124f6565b60206040518083038186803b158015610fda57600080fd5b505afa158015610fee573d6000803e3d6000fd5b505050506040513d601f19601f8201168201806040525081019061101291906120e2565b10156110c75760008054906101000a900473ffffffffffffffffffffffffffffffffffffffff1673ffffffffffffffffffffffffffffffffffffffff1663095ea7b330846040518363ffffffff1660e01b8152600401611073929190612556565b602060405180830381600087803b15801561108d57600080fd5b505af11580156110a1573d6000803e3d6000fd5b505050506040513d601f19601f820116820180604052508101906110c59190611f66565b505b60008054906101000a900473ffffffffffffffffffffffffffffffffffffffff1673ffffffffffffffffffffffffffffffffffffffff166323b872dd3330856040518463ffffffff1660e01b81526004016111249392919061251f565b602060405180830381600087803b15801561113e57600080fd5b505af1158015611152573d6000803e3d6000fd5b505050506040513d601f19601f820116820180604052508101906111769190611f66565b5081600860008373ffffffffffffffffffffffffffffffffffffffff1673ffffffffffffffffffffffffffffffffffffffff16815260200190815260200160002060008282546111c69190612807565b925050819055505050565b6000600860003373ffffffffffffffffffffffffffffffffffffffff1673ffffffffffffffffffffffffffffffffffffffff168152602001908152602001600020541415611254576040517f08c379a000000000000000000000000000000000000000000000000000000000815260040161124b90612614565b60405180910390fd5b6001151581151514156112d257600860003373ffffffffffffffffffffffffffffffffffffffff1673ffffffffffffffffffffffffffffffffffffffff168152602001908152602001600020546007600084815260200190815260200160002060060160008282546112c69190612807565b9250508190555061133f565b600860003373ffffffffffffffffffffffffffffffffffffffff1673ffffffffffffffffffffffffffffffffffffffff168152602001908152602001600020546007600084815260200190815260200160002060070160008282546113379190612807565b925050819055505b6000600760008481526020019081526020016000206007015460076000858152602001908152602001600020600601546113799190612807565b9050600760008481526020019081526020016000206008015481106113a2576113a1836119a6565b5b505050565b6000600860003373ffffffffffffffffffffffffffffffffffffffff1673ffffffffffffffffffffffffffffffffffffffff16815260200190815260200160002054141561142a576040517f08c379a000000000000000000000000000000000000000000000000000000000815260040161142190612634565b60405180910390fd5b60016002600082825461143d9190612807565b9250508190555060006040518061010001604052806000600281111561148c577f4e487b7100000000000000000000000000000000000000000000000000000000600052602160045260246000fd5b81526020018581526020018481526020018381526020016040518060400160405280600073ffffffffffffffffffffffffffffffffffffffff168152602001600081525081526020016000815260200160008152602001600460008054906101000a900473ffffffffffffffffffffffffffffffffffffffff1673ffffffffffffffffffffffffffffffffffffffff166318160ddd6040518163ffffffff1660e01b815260040160206040518083038186803b15801561154b57600080fd5b505afa15801561155f573d6000803e3d6000fd5b505050506040513d601f19601f8201168201806040525081019061158391906120e2565b600361158f919061288e565b611599919061285d565b81525090508060076000600254815260200190815260200160002060008201518160000160006101000a81548160ff02191690836002811115611605577f4e487b7100000000000000000000000000000000000000000000000000000000600052602160045260246000fd5b02179055506020820151816001019080519060200190611626929190611b52565b506040820151816002019080519060200190611643929190611b52565b506060820151816003019080519060200190611660929190611bd8565b5060808201518160040160008201518160000160006101000a81548173ffffffffffffffffffffffffffffffffffffffff021916908373ffffffffffffffffffffffffffffffffffffffff16021790555060208201518160010155505060a0820151816006015560c0820151816007015560e0820151816008015590505050505050565b6001600260008282546116f79190612807565b925050819055506060600060405180604001604052808573ffffffffffffffffffffffffffffffffffffffff168152602001848152509050600060405180610100016040528060006002811115611777577f4e487b7100000000000000000000000000000000000000000000000000000000600052602160045260246000fd5b81526020018881526020018781526020018481526020018381526020016000815260200160008152602001600460008054906101000a900473ffffffffffffffffffffffffffffffffffffffff1673ffffffffffffffffffffffffffffffffffffffff166318160ddd6040518163ffffffff1660e01b815260040160206040518083038186803b15801561180a57600080fd5b505afa15801561181e573d6000803e3d6000fd5b505050506040513d601f19601f8201168201806040525081019061184291906120e2565b600361184e919061288e565b611858919061285d565b81525090508060076000600254815260200190815260200160002060008201518160000160006101000a81548160ff021916908360028111156118c4577f4e487b7100000000000000000000000000000000000000000000000000000000600052602160045260246000fd5b021790555060208201518160010190805190602001906118e5929190611b52565b506040820151816002019080519060200190611902929190611b52565b50606082015181600301908051906020019061191f929190611bd8565b5060808201518160040160008201518160000160006101000a81548173ffffffffffffffffffffffffffffffffffffffff021916908373ffffffffffffffffffffffffffffffffffffffff16021790555060208201518160010155505060a0820151816006015560c0820151816007015560e0820151816008015590505050505050505050565b600760008281526020019081526020016000206007015460076000838152602001908152602001600020600601541115611a445760016007600083815260200190815260200160002060000160006101000a81548160ff02191690836002811115611a3a577f4e487b7100000000000000000000000000000000000000000000000000000000600052602160045260246000fd5b0217905550611aaa565b60026007600083815260200190815260200160002060000160006101000a81548160ff02191690836002811115611aa4577f4e487b7100000000000000000000000000000000000000000000000000000000600052602160045260246000fd5b02179055505b50565b6040518060400160405280600290602082028036833780820191505090505090565b60405180610100016040528060006002811115611b15577f4e487b7100000000000000000000000000000000000000000000000000000000600052602160045260246000fd5b8152602001606081526020016060815260200160608152602001611b37611c5e565b81526020016000815260200160008152602001600081525090565b828054611b5e906129f9565b90600052602060002090601f016020900481019282611b805760008555611bc7565b82601f10611b9957805160ff1916838001178555611bc7565b82800160010185558215611bc7579182015b82811115611bc6578251825591602001919060010190611bab565b5b509050611bd49190611c8e565b5090565b828054611be4906129f9565b90600052602060002090601f016020900481019282611c065760008555611c4d565b82601f10611c1f57805160ff1916838001178555611c4d565b82800160010185558215611c4d579182015b82811115611c4c578251825591602001919060010190611c31565b5b509050611c5a9190611c8e565b5090565b6040518060400160405280600073ffffffffffffffffffffffffffffffffffffffff168152602001600081525090565b5b80821115611ca7576000816000905550600101611c8f565b5090565b6000611cbe611cb9846126f6565b6126d1565b905082815260208101848484011115611cd657600080fd5b611ce18482856129b7565b509392505050565b6000611cfc611cf784612727565b6126d1565b905082815260208101848484011115611d1457600080fd5b611d1f8482856129b7565b509392505050565b600081359050611d3681612c5c565b92915050565b600081519050611d4b81612c5c565b92915050565b600081359050611d6081612c73565b92915050565b600081519050611d7581612c73565b92915050565b60008083601f840112611d8d57600080fd5b8235905067ffffffffffffffff811115611da657600080fd5b602083019150836001820283011115611dbe57600080fd5b9250929050565b600082601f830112611dd657600080fd5b8135611de6848260208601611cab565b91505092915050565b600081359050611dfe81612c8a565b92915050565b600082601f830112611e1557600080fd5b8135611e25848260208601611ce9565b91505092915050565b600081359050611e3d81612ca1565b92915050565b600081519050611e5281612ca1565b92915050565b600060208284031215611e6a57600080fd5b6000611e7884828501611d27565b91505092915050565b600060208284031215611e9357600080fd5b6000611ea184828501611d3c565b91505092915050565b600080600080600060808688031215611ec257600080fd5b6000611ed088828901611d27565b9550506020611ee188828901611d27565b9450506040611ef288828901611e2e565b935050606086013567ffffffffffffffff811115611f0f57600080fd5b611f1b88828901611d7b565b92509250509295509295909350565b60008060408385031215611f3d57600080fd5b6000611f4b85828601611d27565b9250506020611f5c85828601611e2e565b9150509250929050565b600060208284031215611f7857600080fd5b6000611f8684828501611d66565b91505092915050565b600080600060608486031215611fa457600080fd5b600084013567ffffffffffffffff811115611fbe57600080fd5b611fca86828701611e04565b935050602084013567ffffffffffffffff811115611fe757600080fd5b611ff386828701611e04565b925050604084013567ffffffffffffffff81111561201057600080fd5b61201c86828701611dc5565b9150509250925092565b6000806000806080858703121561203c57600080fd5b600085013567ffffffffffffffff81111561205657600080fd5b61206287828801611e04565b945050602085013567ffffffffffffffff81111561207f57600080fd5b61208b87828801611e04565b935050604061209c87828801611def565b92505060606120ad87828801611e2e565b91505092959194509250565b6000602082840312156120cb57600080fd5b60006120d984828501611e2e565b91505092915050565b6000602082840312156120f457600080fd5b600061210284828501611e43565b91505092915050565b6000806040838503121561211e57600080fd5b600061212c85828601611e2e565b925050602061213d85828601611d27565b9150509250929050565b6000806040838503121561215a57600080fd5b600061216885828601611e2e565b925050602061217985828601611d51565b9150509250929050565b600061218f83836123ea565b60408301905092915050565b60006121a783836124d8565b60208301905092915050565b6121bc816128e8565b82525050565b6121cb816128e8565b82525050565b60006121dc82612772565b6121e681856127b8565b93506121f183612758565b8060005b838110156122225781516122098882612183565b97506122148361279e565b9250506001810190506121f5565b5085935050505092915050565b6122388161277d565b61224281846127c9565b925061224d82612768565b8060005b8381101561227e578151612265878261219b565b9650612270836127ab565b925050600181019050612251565b505050505050565b61228f81612906565b82525050565b60006122a082612788565b6122aa81856127d4565b93506122ba8185602086016129c6565b6122c381612b47565b840191505092915050565b6122d781612981565b82525050565b6122e6816129a5565b82525050565b60006122f782612793565b61230181856127e5565b93506123118185602086016129c6565b61231a81612b47565b840191505092915050565b600061233082612793565b61233a81856127f6565b935061234a8185602086016129c6565b61235381612b47565b840191505092915050565b600061236b602b836127f6565b915061237682612b58565b604082019050919050565b600061238e603c836127f6565b915061239982612ba7565b604082019050919050565b60006123b1601c836127f6565b91506123bc82612bf6565b602082019050919050565b60006123d46017836127f6565b91506123df82612c1f565b602082019050919050565b60408201600082015161240060008501826121b3565b50602082015161241360208501826124d8565b50505050565b60006101208301600083015161243260008601826122dd565b506020830151848203602086015261244a82826122ec565b9150506040830151848203604086015261246482826122ec565b9150506060830151848203606086015261247e8282612295565b915050608083015161249360808601826123ea565b5060a08301516124a660c08601826124d8565b5060c08301516124b960e08601826124d8565b5060e08301516124cd6101008601826124d8565b508091505092915050565b6124e181612977565b82525050565b6124f081612977565b82525050565b600060408201905061250b60008301856121c2565b61251860208301846121c2565b9392505050565b600060608201905061253460008301866121c2565b61254160208301856121c2565b61254e60408301846124e7565b949350505050565b600060408201905061256b60008301856121c2565b61257860208301846124e7565b9392505050565b6000602082019050818103600083015261259981846121d1565b905092915050565b60006040820190506125b6600083018461222f565b92915050565b60006020820190506125d16000830184612286565b92915050565b60006020820190506125ec60008301846122ce565b92915050565b6000602082019050818103600083015261260c8184612325565b905092915050565b6000602082019050818103600083015261262d8161235e565b9050919050565b6000602082019050818103600083015261264d81612381565b9050919050565b6000602082019050818103600083015261266d816123a4565b9050919050565b6000602082019050818103600083015261268d816123c7565b9050919050565b600060208201905081810360008301526126ae8184612419565b905092915050565b60006020820190506126cb60008301846124e7565b92915050565b60006126db6126ec565b90506126e78282612a2b565b919050565b6000604051905090565b600067ffffffffffffffff82111561271157612710612b18565b5b61271a82612b47565b9050602081019050919050565b600067ffffffffffffffff82111561274257612741612b18565b5b61274b82612b47565b9050602081019050919050565b6000819050602082019050919050565b6000819050919050565b600081519050919050565b600060029050919050565b600081519050919050565b600081519050919050565b6000602082019050919050565b6000602082019050919050565b600082825260208201905092915050565b600081905092915050565b600082825260208201905092915050565b600082825260208201905092915050565b600082825260208201905092915050565b600061281282612977565b915061281d83612977565b9250827fffffffffffffffffffffffffffffffffffffffffffffffffffffffffffffffff0382111561285257612851612a5c565b5b828201905092915050565b600061286882612977565b915061287383612977565b92508261288357612882612a8b565b5b828204905092915050565b600061289982612977565b91506128a483612977565b9250817fffffffffffffffffffffffffffffffffffffffffffffffffffffffffffffffff04831182151516156128dd576128dc612a5c565b5b828202905092915050565b60006128f382612957565b9050919050565b60008115159050919050565b60007fffffffff0000000000000000000000000000000000000000000000000000000082169050919050565b600061293d826128e8565b9050919050565b600081905061295282612c48565b919050565b600073ffffffffffffffffffffffffffffffffffffffff82169050919050565b6000819050919050565b600061298c82612993565b9050919050565b600061299e82612957565b9050919050565b60006129b082612944565b9050919050565b82818337600083830152505050565b60005b838110156129e45780820151818401526020810190506129c9565b838111156129f3576000848401525b50505050565b60006002820490506001821680612a1157607f821691505b60208210811415612a2557612a24612ae9565b5b50919050565b612a3482612b47565b810181811067ffffffffffffffff82111715612a5357612a52612b18565b5b80604052505050565b7f4e487b7100000000000000000000000000000000000000000000000000000000600052601160045260246000fd5b7f4e487b7100000000000000000000000000000000000000000000000000000000600052601260045260246000fd5b7f4e487b7100000000000000000000000000000000000000000000000000000000600052602160045260246000fd5b7f4e487b7100000000000000000000000000000000000000000000000000000000600052602260045260246000fd5b7f4e487b7100000000000000000000000000000000000000000000000000000000600052604160045260246000fd5b6000601f19601f8301169050919050565b7f506c65617365207374616b6520796f757220676f7665726e616e636520746f6b60008201527f656e7320746f20766f7465000000000000000000000000000000000000000000602082015250565b7f506c65617365207374616b6520796f757220676f7665726e616e636520746f6b60008201527f656e7320746f206372656174652061206e65772070726f706f73616c00000000602082015250565b7f5468697320617373657420697320616c7265616479206c6f636b656400000000600082015250565b7f546869732061737365742069736e2774206c6f636b6564000000000000000000600082015250565b60038110612c5957612c58612aba565b5b50565b612c65816128e8565b8114612c7057600080fd5b50565b612c7c816128fa565b8114612c8757600080fd5b50565b612c9381612932565b8114612c9e57600080fd5b50565b612caa81612977565b8114612cb557600080fd5b5056fea2646970667358221220ec8d936fa65caff98913aef1cc07f19843bae16ce79dab34f3e439a27ac057b264736f6c63430008040033",
  "immutableReferences": {},
  "source": "pragma solidity ^0.8.0;\nimport \"@openzeppelin/contracts/token/ERC20/IERC20.sol\";\nimport \"@openzeppelin/contracts/token/ERC721/IERC721.sol\";\nimport \"@openzeppelin/contracts/token/ERC721/IERC721Receiver.sol\";\nimport \"./Pool.sol\";\n\ncontract Dao is IERC721Receiver {\n\n    IERC20 public dao_token;\n    string public name;\n    uint public proposal_id;\n\n    enum proposal_status{ ACTIVE, PASSED, FAILED }\n\n    struct Proposal {\n        proposal_status status;\n        string title;\n        string description;\n        bytes tx;  // Transaction to be executed when proposal passes.\n        Asset asset;\n        uint votes_for;  // Amount of \"For\" votes\n        uint votes_against;  // Amount of \"Against\" votes\n        uint threshold;  // Amount of voting power which took a part in voting process for the proposal to be closed\n    }\n\n    struct Asset {\n        address addr;  // Address of stored asset\n        uint id;  // Should be zero for ERC20 and non-zero for ERC721\n    }\n\n    struct Vault {\n        mapping(address => mapping(uint => bool)) asset_locked;\n        Asset[] erc721;  // Locked NFTs\n        Asset[] erc20;  // Locked ERC20\n    }\n\n    Vault vault;\n    Pool pool_contract;\n    mapping(uint => Proposal) proposals;  // Sale proposals by their ids\n    mapping(address => uint) stakes;  // Staked voting power: user => amount. DEPRECATED\n\n    constructor(string memory _name,\n                IERC20 _dao_token,\n                Pool _pool) {\n        name = _name;\n        dao_token = _dao_token;\n        pool_contract = _pool;\n    }\n\n    function stake(uint _amount, address stake_for) public {\n        if (dao_token.allowance(stake_for, address(this)) < _amount) {\n            dao_token.approve(address(this), _amount);\n        }\n        dao_token.transferFrom(msg.sender, address(this), _amount);\n        stakes[stake_for] += _amount;\n    }\n\n    function auto_stake(uint _amount, address _stake_for) public {\n        dao_token.transferFrom(address(pool_contract), address(this), _amount);\n        stakes[_stake_for] += _amount;\n    }\n\n    function get_stake(address _user) public view returns (uint){\n        return stakes[_user];\n    }\n\n    function claim(uint _amount) public {  // 50\n        uint user_stake = stakes[msg.sender];  // 2\n        if (user_stake < _amount) {  // 2*50 < 50\n            dao_token.transfer(msg.sender, user_stake);\n        } else {\n            dao_token.transfer(msg.sender, _amount);\n            }\n        \n    }\n\n    function propose_tx(string memory _title, string memory _description, bytes memory _tx_to_execute) public {\n        require(stakes[msg.sender] != 0, \"Please stake your governance tokens to create a new proposal\");\n        proposal_id += 1;\n        Proposal memory proposal = Proposal(proposal_status.ACTIVE,\n                                            _title,\n                                            _description,\n                                            _tx_to_execute,\n                                            Asset(address(0x0), 0),\n                                            0, 0,\n                                            (3*dao_token.totalSupply())/4);\n        proposals[proposal_id] = proposal;\n    }\n\n    function propose_sell(string memory _title, string memory _description, IERC721 _asset_address, uint _asset_id) public {\n        proposal_id += 1;\n        bytes memory empty;\n        Asset memory asset = Asset(address(_asset_address), _asset_id);\n        Proposal memory proposal = Proposal(proposal_status.ACTIVE,\n                                    _title,\n                                    _description,\n                                    empty,\n                                    asset,\n                                    0, 0,\n                                    (3*dao_token.totalSupply())/4);\n        proposals[proposal_id] = proposal;\n    }\n\n    function get_proposal(uint _proposal_id) public view returns (Proposal memory) {\n        return proposals[_proposal_id];\n    }\n\n    function vote(uint _proposal_id, bool _vote) public {  // vote: true - \"For\", false - \"Against\"\n        require(stakes[msg.sender] != 0, \"Please stake your governance tokens to vote\");\n        if (_vote == true) {\n            proposals[_proposal_id].votes_for += stakes[msg.sender];\n        } else {\n            proposals[_proposal_id].votes_against += stakes[msg.sender];\n        }\n        uint total_votes = proposals[_proposal_id].votes_for + proposals[_proposal_id].votes_against;\n        if (total_votes >= proposals[_proposal_id].threshold) {\n            outcome(_proposal_id);\n        }\n    }\n\n    function votes_distribution(uint _proposal_id) public view returns (uint[2] memory){\n        return [proposals[_proposal_id].votes_for, proposals[_proposal_id].votes_against];\n    }\n\n    function outcome(uint _proposal_id) internal {\n        if (proposals[_proposal_id].votes_for > proposals[_proposal_id].votes_against) {\n            proposals[_proposal_id].status = proposal_status.PASSED;\n        } else {\n            proposals[_proposal_id].status = proposal_status.FAILED;\n        }\n    }\n\n    function add_asset(address _asset_address, uint _asset_id) public {  // Check struct Asset for details\n        require(vault.asset_locked[_asset_address][_asset_id] == false, \"This asset is already locked\");\n        if (_asset_id != 0) {  // NFT\n            IERC721 asset = IERC721(_asset_address);\n            require(asset.ownerOf(_asset_id) == address(this), \"This asset isn't locked\");\n            vault.erc721.push(Asset(_asset_address, _asset_id));\n        } else {  // ERC20\n            vault.erc20.push(Asset(_asset_address, _asset_id));\n        }\n        vault.asset_locked[_asset_address][_asset_id] = true;\n    }\n\n    function get_asset(uint _asset_type) public view returns(Asset[] memory) {\n        /*\n        Get locked assets. UI should iterate over them checking the owner is this DAO\n        _asset_type: 0 - \"erc721\" / 1 - \"erc20\"\n        */\n        if (_asset_type == 0) {\n            return vault.erc721;\n        } else {\n            if (_asset_type == 1) {\n                return vault.erc20;\n            }\n        }\n        Asset[] memory empty;\n        return empty;\n    }\n\n    function onERC721Received(address operator,\n                              address from,\n                              uint256 tokenId,\n                              bytes calldata data) public pure override returns (bytes4) {\n        return this.onERC721Received.selector;\n    }\n\n}\n",
  "sourcePath": "/Users/y.sosunov/git/definition-hackathon/onchain/contracts/Dao.sol",
  "compiler": {
    "name": "solc",
    "version": "0.8.4+commit.c7e474f2.Emscripten.clang"
  },
  "schemaVersion": "3.3.4",
  "updatedAt": "2021-09-26T08:31:03.995Z",
  "devdoc": {
    "kind": "dev",
    "methods": {
      "onERC721Received(address,address,uint256,bytes)": {
        "details": "Whenever an {IERC721} `tokenId` token is transferred to this contract via {IERC721-safeTransferFrom} by `operator` from `from`, this function is called. It must return its Solidity selector to confirm the token transfer. If any other value is returned or the interface is not implemented by the recipient, the transfer will be reverted. The selector can be obtained in Solidity with `IERC721.onERC721Received.selector`."
      }
    },
    "version": 1
  },
  "userdoc": {
    "kind": "user",
    "methods": {},
    "version": 1
  }
}