{
  "contractName": "Dao",
  "abi": [
    {
      "inputs": [
        {
          "internalType": "string",
          "name": "_name",
          "type": "string"
        },
        {
          "internalType": "contract IERC20",
          "name": "_dao_token",
          "type": "address"
        }
      ],
      "stateMutability": "nonpayable",
      "type": "constructor"
    },
    {
      "inputs": [],
      "name": "dao_token",
      "outputs": [
        {
          "internalType": "contract IERC20",
          "name": "",
          "type": "address"
        }
      ],
      "stateMutability": "view",
      "type": "function"
    },
    {
      "inputs": [],
      "name": "name",
      "outputs": [
        {
          "internalType": "string",
          "name": "",
          "type": "string"
        }
      ],
      "stateMutability": "view",
      "type": "function"
    },
    {
      "inputs": [],
      "name": "proposal_id",
      "outputs": [
        {
          "internalType": "uint256",
          "name": "",
          "type": "uint256"
        }
      ],
      "stateMutability": "view",
      "type": "function"
    },
    {
      "inputs": [
        {
          "internalType": "uint256",
          "name": "_amount",
          "type": "uint256"
        }
      ],
      "name": "stake",
      "outputs": [],
      "stateMutability": "nonpayable",
      "type": "function"
    },
    {
      "inputs": [
        {
          "internalType": "uint256",
          "name": "_amount",
          "type": "uint256"
        }
      ],
      "name": "claim",
      "outputs": [],
      "stateMutability": "nonpayable",
      "type": "function"
    },
    {
      "inputs": [
        {
          "internalType": "string",
          "name": "_title",
          "type": "string"
        },
        {
          "internalType": "string",
          "name": "_description",
          "type": "string"
        },
        {
          "internalType": "bytes",
          "name": "_tx_to_execute",
          "type": "bytes"
        }
      ],
      "name": "propose",
      "outputs": [],
      "stateMutability": "nonpayable",
      "type": "function"
    },
    {
      "inputs": [
        {
          "internalType": "uint256",
          "name": "_proposal_id",
          "type": "uint256"
        },
        {
          "internalType": "bool",
          "name": "_vote",
          "type": "bool"
        }
      ],
      "name": "vote",
      "outputs": [],
      "stateMutability": "nonpayable",
      "type": "function"
    },
    {
      "inputs": [
        {
          "internalType": "address",
          "name": "_asset_address",
          "type": "address"
        },
        {
          "internalType": "uint256",
          "name": "_asset_id",
          "type": "uint256"
        }
      ],
      "name": "add_asset",
      "outputs": [],
      "stateMutability": "nonpayable",
      "type": "function"
    },
    {
      "inputs": [
        {
          "internalType": "uint256",
          "name": "_asset_type",
          "type": "uint256"
        }
      ],
      "name": "get_asset",
      "outputs": [
        {
          "components": [
            {
              "internalType": "address",
              "name": "addr",
              "type": "address"
            },
            {
              "internalType": "uint256",
              "name": "id",
              "type": "uint256"
            }
          ],
          "internalType": "struct Dao.Asset[]",
          "name": "",
          "type": "tuple[]"
        }
      ],
      "stateMutability": "view",
      "type": "function"
    },
    {
      "inputs": [
        {
          "internalType": "address",
          "name": "operator",
          "type": "address"
        },
        {
          "internalType": "address",
          "name": "from",
          "type": "address"
        },
        {
          "internalType": "uint256",
          "name": "tokenId",
          "type": "uint256"
        },
        {
          "internalType": "bytes",
          "name": "data",
          "type": "bytes"
        }
      ],
      "name": "onERC721Received",
      "outputs": [
        {
          "internalType": "bytes4",
          "name": "",
          "type": "bytes4"
        }
      ],
      "stateMutability": "pure",
      "type": "function"
    }
  ],
  "bytecode": "0x60806040523480156200001157600080fd5b50604051620024bb380380620024bb8339818101604052810190620000379190620001d1565b81600190805190602001906200004f92919062000098565b50806000806101000a81548173ffffffffffffffffffffffffffffffffffffffff021916908373ffffffffffffffffffffffffffffffffffffffff1602179055505050620003fd565b828054620000a69062000308565b90600052602060002090601f016020900481019282620000ca576000855562000116565b82601f10620000e557805160ff191683800117855562000116565b8280016001018555821562000116579182015b8281111562000115578251825591602001919060010190620000f8565b5b50905062000125919062000129565b5090565b5b80821115620001445760008160009055506001016200012a565b5090565b60006200015f620001598462000254565b6200022b565b9050828152602081018484840111156200017857600080fd5b62000185848285620002d2565b509392505050565b6000815190506200019e81620003e3565b92915050565b600082601f830112620001b657600080fd5b8151620001c884826020860162000148565b91505092915050565b60008060408385031215620001e557600080fd5b600083015167ffffffffffffffff8111156200020057600080fd5b6200020e85828601620001a4565b925050602062000221858286016200018d565b9150509250929050565b6000620002376200024a565b90506200024582826200033e565b919050565b6000604051905090565b600067ffffffffffffffff821115620002725762000271620003a3565b5b6200027d82620003d2565b9050602081019050919050565b60006200029782620002b2565b9050919050565b6000620002ab826200028a565b9050919050565b600073ffffffffffffffffffffffffffffffffffffffff82169050919050565b60005b83811015620002f2578082015181840152602081019050620002d5565b8381111562000302576000848401525b50505050565b600060028204905060018216806200032157607f821691505b6020821081141562000338576200033762000374565b5b50919050565b6200034982620003d2565b810181811067ffffffffffffffff821117156200036b576200036a620003a3565b5b80604052505050565b7f4e487b7100000000000000000000000000000000000000000000000000000000600052602260045260246000fd5b7f4e487b7100000000000000000000000000000000000000000000000000000000600052604160045260246000fd5b6000601f19601f8301169050919050565b620003ee816200029e565b8114620003fa57600080fd5b50565b6120ae806200040d6000396000f3fe608060405234801561001057600080fd5b506004361061009e5760003560e01c8063528f9d5511610066578063528f9d5514610159578063688e1d3114610177578063a694fc3a14610195578063c9d27afe146101b1578063f8c0e00f146101cd5761009e565b806306fdde03146100a35780630f9e4fb5146100c157806310b1939f146100dd578063150b7a021461010d578063379607f51461013d575b600080fd5b6100ab6101e9565b6040516100b89190611abf565b60405180910390f35b6100db60048036038101906100d69190611675565b610277565b005b6100f760048036038101906100f29190611771565b6105f1565b6040516101049190611a67565b60405180910390f35b610127600480360381019061012291906115f5565b610795565b6040516101349190611a89565b60405180910390f35b61015760048036038101906101529190611771565b6107aa565b005b610161610a18565b60405161016e9190611b61565b60405180910390f35b61017f610a1e565b60405161018c9190611aa4565b60405180910390f35b6101af60048036038101906101aa9190611771565b610a42565b005b6101cb60048036038101906101c691906117c3565b610cac565b005b6101e760048036038101906101e291906116da565b610eec565b005b600180546101f690611e13565b80601f016020809104026020016040519081016040528092919081815260200182805461022290611e13565b801561026f5780601f106102445761010080835404028352916020019161026f565b820191906000526020600020905b81548152906001019060200180831161025257829003601f168201915b505050505081565b60001515600360000160008473ffffffffffffffffffffffffffffffffffffffff1673ffffffffffffffffffffffffffffffffffffffff168152602001908152602001600020600083815260200190815260200160002060009054906101000a900460ff1615151461031e576040517f08c379a000000000000000000000000000000000000000000000000000000000815260040161031590611b21565b60405180910390fd5b600081146104d45760008290503073ffffffffffffffffffffffffffffffffffffffff168173ffffffffffffffffffffffffffffffffffffffff16636352211e846040518263ffffffff1660e01b815260040161037b9190611b61565b60206040518083038186803b15801561039357600080fd5b505afa1580156103a7573d6000803e3d6000fd5b505050506040513d601f19601f820116820180604052508101906103cb91906115cc565b73ffffffffffffffffffffffffffffffffffffffff161415610422576040517f08c379a000000000000000000000000000000000000000000000000000000000815260040161041990611b41565b60405180910390fd5b600360010160405180604001604052808573ffffffffffffffffffffffffffffffffffffffff16815260200184815250908060018154018082558091505060019003906000526020600020906002020160009091909190915060008201518160000160006101000a81548173ffffffffffffffffffffffffffffffffffffffff021916908373ffffffffffffffffffffffffffffffffffffffff16021790555060208201518160010155505050610581565b600360020160405180604001604052808473ffffffffffffffffffffffffffffffffffffffff16815260200183815250908060018154018082558091505060019003906000526020600020906002020160009091909190915060008201518160000160006101000a81548173ffffffffffffffffffffffffffffffffffffffff021916908373ffffffffffffffffffffffffffffffffffffffff1602179055506020820151816001015550505b6001600360000160008473ffffffffffffffffffffffffffffffffffffffff1673ffffffffffffffffffffffffffffffffffffffff168152602001908152602001600020600083815260200190815260200160002060006101000a81548160ff0219169083151502179055505050565b606060008214156106be576003600101805480602002602001604051908101604052809291908181526020016000905b828210156106b357838290600052602060002090600202016040518060400160405290816000820160009054906101000a900473ffffffffffffffffffffffffffffffffffffffff1673ffffffffffffffffffffffffffffffffffffffff1673ffffffffffffffffffffffffffffffffffffffff16815260200160018201548152505081526020019060010190610621565b505050509050610790565b6001821415610789576003600201805480602002602001604051908101604052809291908181526020016000905b8282101561077e57838290600052602060002090600202016040518060400160405290816000820160009054906101000a900473ffffffffffffffffffffffffffffffffffffffff1673ffffffffffffffffffffffffffffffffffffffff1673ffffffffffffffffffffffffffffffffffffffff168152602001600182015481525050815260200190600101906106ec565b505050509050610790565b6060809150505b919050565b600063150b7a0260e01b905095945050505050565b6000600760003373ffffffffffffffffffffffffffffffffffffffff1673ffffffffffffffffffffffffffffffffffffffff168152602001908152602001600020549050818110156108a95760008054906101000a900473ffffffffffffffffffffffffffffffffffffffff1673ffffffffffffffffffffffffffffffffffffffff1663a9059cbb33836040518363ffffffff1660e01b8152600401610851929190611a3e565b602060405180830381600087803b15801561086b57600080fd5b505af115801561087f573d6000803e3d6000fd5b505050506040513d601f19601f820116820180604052508101906108a391906116b1565b50610a14565b818110156109645760008054906101000a900473ffffffffffffffffffffffffffffffffffffffff1673ffffffffffffffffffffffffffffffffffffffff1663a9059cbb33836040518363ffffffff1660e01b815260040161090c929190611a3e565b602060405180830381600087803b15801561092657600080fd5b505af115801561093a573d6000803e3d6000fd5b505050506040513d601f19601f8201168201806040525081019061095e91906116b1565b50610a13565b60008054906101000a900473ffffffffffffffffffffffffffffffffffffffff1673ffffffffffffffffffffffffffffffffffffffff1663a9059cbb33846040518363ffffffff1660e01b81526004016109bf929190611a3e565b602060405180830381600087803b1580156109d957600080fd5b505af11580156109ed573d6000803e3d6000fd5b505050506040513d601f19601f82011682018060405250810190610a1191906116b1565b505b5b5050565b60025481565b60008054906101000a900473ffffffffffffffffffffffffffffffffffffffff1681565b8060008054906101000a900473ffffffffffffffffffffffffffffffffffffffff1673ffffffffffffffffffffffffffffffffffffffff1663dd62ed3e33306040518363ffffffff1660e01b8152600401610a9e9291906119de565b60206040518083038186803b158015610ab657600080fd5b505afa158015610aca573d6000803e3d6000fd5b505050506040513d601f19601f82011682018060405250810190610aee919061179a565b1015610ba35760008054906101000a900473ffffffffffffffffffffffffffffffffffffffff1673ffffffffffffffffffffffffffffffffffffffff1663095ea7b330836040518363ffffffff1660e01b8152600401610b4f929190611a3e565b602060405180830381600087803b158015610b6957600080fd5b505af1158015610b7d573d6000803e3d6000fd5b505050506040513d601f19601f82011682018060405250810190610ba191906116b1565b505b60008054906101000a900473ffffffffffffffffffffffffffffffffffffffff1673ffffffffffffffffffffffffffffffffffffffff166323b872dd3330846040518463ffffffff1660e01b8152600401610c0093929190611a07565b602060405180830381600087803b158015610c1a57600080fd5b505af1158015610c2e573d6000803e3d6000fd5b505050506040513d601f19601f82011682018060405250810190610c5291906116b1565b5080600760003373ffffffffffffffffffffffffffffffffffffffff1673ffffffffffffffffffffffffffffffffffffffff1681526020019081526020016000206000828254610ca29190611c58565b9250508190555050565b60008060009054906101000a900473ffffffffffffffffffffffffffffffffffffffff1673ffffffffffffffffffffffffffffffffffffffff166370a08231336040518263ffffffff1660e01b8152600401610d0891906119c3565b60206040518083038186803b158015610d2057600080fd5b505afa158015610d34573d6000803e3d6000fd5b505050506040513d601f19601f82011682018060405250810190610d58919061179a565b1415610d99576040517f08c379a0000000000000000000000000000000000000000000000000000000008152600401610d9090611ae1565b60405180910390fd5b600115158115151415610e1757600760003373ffffffffffffffffffffffffffffffffffffffff1673ffffffffffffffffffffffffffffffffffffffff16815260200190815260200160002054600660008481526020019081526020016000206004016000828254610e0b9190611c58565b92505081905550610e84565b600760003373ffffffffffffffffffffffffffffffffffffffff1673ffffffffffffffffffffffffffffffffffffffff16815260200190815260200160002054600660008481526020019081526020016000206005016000828254610e7c9190611c58565b925050819055505b600060066000848152602001908152602001600020600501546006600085815260200190815260200160002060040154610ebe9190611c58565b905060066000848152602001908152602001600020600601548110610ee757610ee683611204565b5b505050565b60008060009054906101000a900473ffffffffffffffffffffffffffffffffffffffff1673ffffffffffffffffffffffffffffffffffffffff166370a08231336040518263ffffffff1660e01b8152600401610f4891906119c3565b60206040518083038186803b158015610f6057600080fd5b505afa158015610f74573d6000803e3d6000fd5b505050506040513d601f19601f82011682018060405250810190610f98919061179a565b1415610fd9576040517f08c379a0000000000000000000000000000000000000000000000000000000008152600401610fd090611b01565b60405180910390fd5b600160026000828254610fec9190611c58565b9250508190555060006040518060e001604052806000600281111561103a577f4e487b7100000000000000000000000000000000000000000000000000000000600052602160045260246000fd5b81526020018581526020018481526020018381526020016000815260200160008152602001600460008054906101000a900473ffffffffffffffffffffffffffffffffffffffff1673ffffffffffffffffffffffffffffffffffffffff166318160ddd6040518163ffffffff1660e01b815260040160206040518083038186803b1580156110c757600080fd5b505afa1580156110db573d6000803e3d6000fd5b505050506040513d601f19601f820116820180604052508101906110ff919061179a565b600361110b9190611cdf565b6111159190611cae565b81525090508060066000600254815260200190815260200160002060008201518160000160006101000a81548160ff02191690836002811115611181577f4e487b7100000000000000000000000000000000000000000000000000000000600052602160045260246000fd5b021790555060208201518160010190805190602001906111a292919061130b565b5060408201518160020190805190602001906111bf92919061130b565b5060608201518160030190805190602001906111dc929190611391565b506080820151816004015560a0820151816005015560c0820151816006015590505050505050565b6006600082815260200190815260200160002060050154600660008381526020019081526020016000206004015411156112a25760016006600083815260200190815260200160002060000160006101000a81548160ff02191690836002811115611298577f4e487b7100000000000000000000000000000000000000000000000000000000600052602160045260246000fd5b0217905550611308565b60026006600083815260200190815260200160002060000160006101000a81548160ff02191690836002811115611302577f4e487b7100000000000000000000000000000000000000000000000000000000600052602160045260246000fd5b02179055505b50565b82805461131790611e13565b90600052602060002090601f0160209004810192826113395760008555611380565b82601f1061135257805160ff1916838001178555611380565b82800160010185558215611380579182015b8281111561137f578251825591602001919060010190611364565b5b50905061138d9190611417565b5090565b82805461139d90611e13565b90600052602060002090601f0160209004810192826113bf5760008555611406565b82601f106113d857805160ff1916838001178555611406565b82800160010185558215611406579182015b828111156114055782518255916020019190600101906113ea565b5b5090506114139190611417565b5090565b5b80821115611430576000816000905550600101611418565b5090565b600061144761144284611ba1565b611b7c565b90508281526020810184848401111561145f57600080fd5b61146a848285611dd1565b509392505050565b600061148561148084611bd2565b611b7c565b90508281526020810184848401111561149d57600080fd5b6114a8848285611dd1565b509392505050565b6000813590506114bf81612033565b92915050565b6000815190506114d481612033565b92915050565b6000813590506114e98161204a565b92915050565b6000815190506114fe8161204a565b92915050565b60008083601f84011261151657600080fd5b8235905067ffffffffffffffff81111561152f57600080fd5b60208301915083600182028301111561154757600080fd5b9250929050565b600082601f83011261155f57600080fd5b813561156f848260208601611434565b91505092915050565b600082601f83011261158957600080fd5b8135611599848260208601611472565b91505092915050565b6000813590506115b181612061565b92915050565b6000815190506115c681612061565b92915050565b6000602082840312156115de57600080fd5b60006115ec848285016114c5565b91505092915050565b60008060008060006080868803121561160d57600080fd5b600061161b888289016114b0565b955050602061162c888289016114b0565b945050604061163d888289016115a2565b935050606086013567ffffffffffffffff81111561165a57600080fd5b61166688828901611504565b92509250509295509295909350565b6000806040838503121561168857600080fd5b6000611696858286016114b0565b92505060206116a7858286016115a2565b9150509250929050565b6000602082840312156116c357600080fd5b60006116d1848285016114ef565b91505092915050565b6000806000606084860312156116ef57600080fd5b600084013567ffffffffffffffff81111561170957600080fd5b61171586828701611578565b935050602084013567ffffffffffffffff81111561173257600080fd5b61173e86828701611578565b925050604084013567ffffffffffffffff81111561175b57600080fd5b6117678682870161154e565b9150509250925092565b60006020828403121561178357600080fd5b6000611791848285016115a2565b91505092915050565b6000602082840312156117ac57600080fd5b60006117ba848285016115b7565b91505092915050565b600080604083850312156117d657600080fd5b60006117e4858286016115a2565b92505060206117f5858286016114da565b9150509250929050565b600061180b8383611976565b60408301905092915050565b61182081611d39565b82525050565b61182f81611d39565b82525050565b600061184082611c13565b61184a8185611c36565b935061185583611c03565b8060005b8381101561188657815161186d88826117ff565b975061187883611c29565b925050600181019050611859565b5085935050505092915050565b61189c81611d57565b82525050565b6118ab81611dad565b82525050565b60006118bc82611c1e565b6118c68185611c47565b93506118d6818560208601611de0565b6118df81611f32565b840191505092915050565b60006118f7602b83611c47565b915061190282611f43565b604082019050919050565b600061191a603c83611c47565b915061192582611f92565b604082019050919050565b600061193d601c83611c47565b915061194882611fe1565b602082019050919050565b6000611960601783611c47565b915061196b8261200a565b602082019050919050565b60408201600082015161198c6000850182611817565b50602082015161199f60208501826119a5565b50505050565b6119ae81611da3565b82525050565b6119bd81611da3565b82525050565b60006020820190506119d86000830184611826565b92915050565b60006040820190506119f36000830185611826565b611a006020830184611826565b9392505050565b6000606082019050611a1c6000830186611826565b611a296020830185611826565b611a3660408301846119b4565b949350505050565b6000604082019050611a536000830185611826565b611a6060208301846119b4565b9392505050565b60006020820190508181036000830152611a818184611835565b905092915050565b6000602082019050611a9e6000830184611893565b92915050565b6000602082019050611ab960008301846118a2565b92915050565b60006020820190508181036000830152611ad981846118b1565b905092915050565b60006020820190508181036000830152611afa816118ea565b9050919050565b60006020820190508181036000830152611b1a8161190d565b9050919050565b60006020820190508181036000830152611b3a81611930565b9050919050565b60006020820190508181036000830152611b5a81611953565b9050919050565b6000602082019050611b7660008301846119b4565b92915050565b6000611b86611b97565b9050611b928282611e45565b919050565b6000604051905090565b600067ffffffffffffffff821115611bbc57611bbb611f03565b5b611bc582611f32565b9050602081019050919050565b600067ffffffffffffffff821115611bed57611bec611f03565b5b611bf682611f32565b9050602081019050919050565b6000819050602082019050919050565b600081519050919050565b600081519050919050565b6000602082019050919050565b600082825260208201905092915050565b600082825260208201905092915050565b6000611c6382611da3565b9150611c6e83611da3565b9250827fffffffffffffffffffffffffffffffffffffffffffffffffffffffffffffffff03821115611ca357611ca2611e76565b5b828201905092915050565b6000611cb982611da3565b9150611cc483611da3565b925082611cd457611cd3611ea5565b5b828204905092915050565b6000611cea82611da3565b9150611cf583611da3565b9250817fffffffffffffffffffffffffffffffffffffffffffffffffffffffffffffffff0483118215151615611d2e57611d2d611e76565b5b828202905092915050565b6000611d4482611d83565b9050919050565b60008115159050919050565b60007fffffffff0000000000000000000000000000000000000000000000000000000082169050919050565b600073ffffffffffffffffffffffffffffffffffffffff82169050919050565b6000819050919050565b6000611db882611dbf565b9050919050565b6000611dca82611d83565b9050919050565b82818337600083830152505050565b60005b83811015611dfe578082015181840152602081019050611de3565b83811115611e0d576000848401525b50505050565b60006002820490506001821680611e2b57607f821691505b60208210811415611e3f57611e3e611ed4565b5b50919050565b611e4e82611f32565b810181811067ffffffffffffffff82111715611e6d57611e6c611f03565b5b80604052505050565b7f4e487b7100000000000000000000000000000000000000000000000000000000600052601160045260246000fd5b7f4e487b7100000000000000000000000000000000000000000000000000000000600052601260045260246000fd5b7f4e487b7100000000000000000000000000000000000000000000000000000000600052602260045260246000fd5b7f4e487b7100000000000000000000000000000000000000000000000000000000600052604160045260246000fd5b6000601f19601f8301169050919050565b7f506c65617365207374616b6520796f757220676f7665726e616e636520746f6b60008201527f656e7320746f20766f7465000000000000000000000000000000000000000000602082015250565b7f506c65617365207374616b6520796f757220676f7665726e616e636520746f6b60008201527f656e7320746f206372656174652061206e65772070726f706f73616c00000000602082015250565b7f5468697320617373657420697320616c7265616479206c6f636b656400000000600082015250565b7f546869732061737365742069736e2774206c6f636b6564000000000000000000600082015250565b61203c81611d39565b811461204757600080fd5b50565b61205381611d4b565b811461205e57600080fd5b50565b61206a81611da3565b811461207557600080fd5b5056fea26469706673582212206f2b4e4c386b474bdd4213f62495182153031b69af5c0b8ead9c69bc5a436eb564736f6c63430008040033",
  "immutableReferences": {},
  "source": "pragma solidity ^0.8.0;\nimport \"@openzeppelin/contracts/token/ERC20/IERC20.sol\";\nimport \"@openzeppelin/contracts/token/ERC721/IERC721.sol\";\nimport \"@openzeppelin/contracts/token/ERC721/IERC721Receiver.sol\";\n\ncontract Dao is IERC721Receiver {\n\n    IERC20 public dao_token;\n    string public name;\n    uint public proposal_id;\n\n    enum proposal_status{ ACTIVE, PASSED, FAILED }\n\n    struct Proposal {\n        proposal_status status;\n        string title;\n        string description;\n        bytes tx;  // Transaction to be executed when proposal passes\n        uint votes_for;  // Amount of \"For\" votes\n        uint votes_against;  // Amount of \"Against\" votes\n        uint threshold;  // Amount of voting power which took a part in voting process for the proposal to be closed\n    }\n\n    struct Asset {\n        address addr;  // Address of stored asset\n        uint id;  // Should be zero for ERC20 and non-zero for ERC721\n    }\n\n    struct Vault {\n        mapping(address => mapping(uint => bool)) asset_locked;\n        Asset[] erc721;  // Locked NFTs\n        Asset[] erc20;  // Locked ERC20\n    }\n\n    Vault vault;\n    mapping(uint => Proposal) proposals;  // All proposals by their ids\n    mapping(address => uint) stakes;  // Staked voting power: user => amount\n\n    constructor(string memory _name,\n                IERC20 _dao_token) {\n        name = _name;\n        dao_token = _dao_token;\n    }\n\n    function stake(uint _amount) public {\n        if (dao_token.allowance(msg.sender, address(this)) < _amount) {\n            dao_token.approve(address(this), _amount);\n        }\n        dao_token.transferFrom(msg.sender, address(this), _amount);\n        stakes[msg.sender] += _amount;\n    }\n\n    function claim(uint _amount) public {  // 50\n        uint user_stake = stakes[msg.sender];  // 2\n        if (user_stake < _amount) {  // 2*50 < 50\n            dao_token.transfer(msg.sender, user_stake);\n        } else {\n            if (user_stake < _amount) {\n                dao_token.transfer(msg.sender, user_stake);\n            } else {\n                dao_token.transfer(msg.sender, _amount);\n            }\n        }\n    }\n\n    function propose(string memory _title, string memory _description, bytes memory _tx_to_execute) public {\n        require(dao_token.balanceOf(msg.sender) != 0, \"Please stake your governance tokens to create a new proposal\");\n        proposal_id += 1;\n        Proposal memory proposal = Proposal(proposal_status.ACTIVE,\n                                            _title,\n                                            _description,\n                                            _tx_to_execute,\n                                            0, 0,\n                                            (3*dao_token.totalSupply())/4);\n        proposals[proposal_id] = proposal;\n    }\n\n    function vote(uint _proposal_id, bool _vote) public {  // vote: true - \"For\", false - \"Against\"\n        require(dao_token.balanceOf(msg.sender) != 0, \"Please stake your governance tokens to vote\");\n        if (_vote == true) {\n            proposals[_proposal_id].votes_for += stakes[msg.sender];\n        } else {\n            proposals[_proposal_id].votes_against += stakes[msg.sender];\n        }\n        uint total_votes = proposals[_proposal_id].votes_for + proposals[_proposal_id].votes_against;\n        if (total_votes >= proposals[_proposal_id].threshold) {\n            outcome(_proposal_id);\n        }\n    }\n\n    function outcome(uint _proposal_id) internal {\n        if (proposals[_proposal_id].votes_for > proposals[_proposal_id].votes_against) {\n            proposals[_proposal_id].status = proposal_status.PASSED;\n        } else {\n        proposals[_proposal_id].status = proposal_status.FAILED;\n        }\n    }\n\n    function add_asset(address _asset_address, uint _asset_id) public {  // Check struct Asset for details\n        require(vault.asset_locked[_asset_address][_asset_id] == false, \"This asset is already locked\");\n        if (_asset_id != 0) {  // NFT\n            IERC721 asset = IERC721(_asset_address);\n            require(asset.ownerOf(_asset_id) != address(this), \"This asset isn't locked\");\n            vault.erc721.push(Asset(_asset_address, _asset_id));\n        } else {  // ERC20\n            vault.erc20.push(Asset(_asset_address, _asset_id));\n        }\n        vault.asset_locked[_asset_address][_asset_id] = true;\n    }\n\n    function get_asset(uint _asset_type) public view returns(Asset[] memory) {\n        /*\n        Get locked assets. UI should iterate over them checking the owner is this DAO\n        _asset_type: 0 - \"erc721\" / 1 - \"erc20\"\n        */\n        if (_asset_type == 0) {\n            return vault.erc721;\n        } else {\n            if (_asset_type == 1) {\n                return vault.erc20;\n            }\n        }\n        Asset[] memory empty;\n        return empty;\n    }\n\n    function onERC721Received(address operator,\n                              address from,\n                              uint256 tokenId,\n                              bytes calldata data) public pure override returns (bytes4) {\n        return this.onERC721Received.selector;\n    }\n\n}\n",
  "sourcePath": "/Users/y.sosunov/git/definition-hackathon/onchain/contracts/Dao.sol",
  "compiler": {
    "name": "solc",
    "version": "0.8.4+commit.c7e474f2.Emscripten.clang"
  },
  "schemaVersion": "3.3.4",
  "updatedAt": "2021-09-25T15:54:43.619Z",
  "devdoc": {
    "kind": "dev",
    "methods": {
      "onERC721Received(address,address,uint256,bytes)": {
        "details": "Whenever an {IERC721} `tokenId` token is transferred to this contract via {IERC721-safeTransferFrom} by `operator` from `from`, this function is called. It must return its Solidity selector to confirm the token transfer. If any other value is returned or the interface is not implemented by the recipient, the transfer will be reverted. The selector can be obtained in Solidity with `IERC721.onERC721Received.selector`."
      }
    },
    "version": 1
  },
  "userdoc": {
    "kind": "user",
    "methods": {},
    "version": 1
  }
}