{
  "contractName": "Factory",
  "abi": [
    {
      "inputs": [
        {
          "internalType": "contract Pool",
          "name": "_pool",
          "type": "address"
        }
      ],
      "stateMutability": "nonpayable",
      "type": "constructor"
    },
    {
      "inputs": [],
      "name": "initiator",
      "outputs": [
        {
          "internalType": "address",
          "name": "",
          "type": "address"
        }
      ],
      "stateMutability": "view",
      "type": "function"
    },
    {
      "inputs": [],
      "name": "owner",
      "outputs": [
        {
          "internalType": "address",
          "name": "",
          "type": "address"
        }
      ],
      "stateMutability": "view",
      "type": "function"
    },
    {
      "inputs": [],
      "name": "pool",
      "outputs": [
        {
          "internalType": "contract Pool",
          "name": "",
          "type": "address"
        }
      ],
      "stateMutability": "view",
      "type": "function"
    },
    {
      "inputs": [
        {
          "internalType": "address",
          "name": "_new_initiator",
          "type": "address"
        }
      ],
      "name": "setup",
      "outputs": [],
      "stateMutability": "nonpayable",
      "type": "function"
    },
    {
      "inputs": [
        {
          "internalType": "uint256",
          "name": "_shares_amount",
          "type": "uint256"
        },
        {
          "internalType": "uint256",
          "name": "_pool_id",
          "type": "uint256"
        }
      ],
      "name": "new_dao",
      "outputs": [],
      "stateMutability": "nonpayable",
      "type": "function"
    }
  ],
  "bytecode": "0x608060405234801561001057600080fd5b50604051614d1d380380614d1d8339818101604052810190610032919061010f565b33600160006101000a81548173ffffffffffffffffffffffffffffffffffffffff021916908373ffffffffffffffffffffffffffffffffffffffff160217905550336000806101000a81548173ffffffffffffffffffffffffffffffffffffffff021916908373ffffffffffffffffffffffffffffffffffffffff16021790555080600260006101000a81548173ffffffffffffffffffffffffffffffffffffffff021916908373ffffffffffffffffffffffffffffffffffffffff16021790555050610193565b6000815190506101098161017c565b92915050565b60006020828403121561012157600080fd5b600061012f848285016100fa565b91505092915050565b60006101438261015c565b9050919050565b600061015582610138565b9050919050565b600073ffffffffffffffffffffffffffffffffffffffff82169050919050565b6101858161014a565b811461019057600080fd5b50565b614b7b806101a26000396000f3fe60806040523480156200001157600080fd5b50600436106200005e5760003560e01c806316f0115b14620000635780635c39fcc1146200008557806366d3820314620000a75780638da5cb5b14620000c7578063e31dff1314620000e9575b600080fd5b6200006d62000109565b6040516200007c91906200072e565b60405180910390f35b6200008f6200012f565b6040516200009e9190620006e4565b60405180910390f35b620000c56004803603810190620000bf919062000566565b62000153565b005b620000d162000227565b604051620000e09190620006e4565b60405180910390f35b620001076004803603810190620001019190620005ea565b6200024d565b005b600260009054906101000a900473ffffffffffffffffffffffffffffffffffffffff1681565b60008054906101000a900473ffffffffffffffffffffffffffffffffffffffff1681565b600160009054906101000a900473ffffffffffffffffffffffffffffffffffffffff1673ffffffffffffffffffffffffffffffffffffffff163373ffffffffffffffffffffffffffffffffffffffff1614620001ae57600080fd5b600073ffffffffffffffffffffffffffffffffffffffff168173ffffffffffffffffffffffffffffffffffffffff16146200022457806000806101000a81548173ffffffffffffffffffffffffffffffffffffffff021916908373ffffffffffffffffffffffffffffffffffffffff1602179055505b50565b600160009054906101000a900473ffffffffffffffffffffffffffffffffffffffff1681565b600160009054906101000a900473ffffffffffffffffffffffffffffffffffffffff1673ffffffffffffffffffffffffffffffffffffffff163373ffffffffffffffffffffffffffffffffffffffff1614620002a857600080fd5b600082604051620002b990620004ee565b620002c591906200077d565b604051809103906000f080158015620002e2573d6000803e3d6000fd5b50905080604051620002f490620004fc565b6200030091906200074b565b604051809103906000f0801580156200031d573d6000803e3d6000fd5b50508073ffffffffffffffffffffffffffffffffffffffff1663a9059cbb600260009054906101000a900473ffffffffffffffffffffffffffffffffffffffff168373ffffffffffffffffffffffffffffffffffffffff166318160ddd6040518163ffffffff1660e01b815260040160206040518083038186803b158015620003a557600080fd5b505afa158015620003ba573d6000803e3d6000fd5b505050506040513d601f19601f82011682018060405250810190620003e09190620005be565b6040518363ffffffff1660e01b8152600401620003ff92919062000701565b602060405180830381600087803b1580156200041a57600080fd5b505af11580156200042f573d6000803e3d6000fd5b505050506040513d601f19601f8201168201806040525081019062000455919062000592565b50600260009054906101000a900473ffffffffffffffffffffffffffffffffffffffff1673ffffffffffffffffffffffffffffffffffffffff166368bd440083836040518363ffffffff1660e01b8152600401620004b5929190620007c4565b600060405180830381600087803b158015620004d057600080fd5b505af1158015620004e5573d6000803e3d6000fd5b50505050505050565b611c88806200096683390190565b61255880620025ee83390190565b6000813590506200051b8162000917565b92915050565b600081519050620005328162000931565b92915050565b60008135905062000549816200094b565b92915050565b60008151905062000560816200094b565b92915050565b6000602082840312156200057957600080fd5b600062000589848285016200050a565b91505092915050565b600060208284031215620005a557600080fd5b6000620005b58482850162000521565b91505092915050565b600060208284031215620005d157600080fd5b6000620005e1848285016200054f565b91505092915050565b60008060408385031215620005fe57600080fd5b60006200060e8582860162000538565b9250506020620006218582860162000538565b9150509250929050565b620006368162000802565b82525050565b62000647816200084c565b82525050565b620006588162000874565b82525050565b60006200066d600483620007f1565b91506200067a826200089c565b602082019050919050565b600062000694600c83620007f1565b9150620006a182620008c5565b602082019050919050565b6000620006bb600283620007f1565b9150620006c882620008ee565b602082019050919050565b620006de8162000842565b82525050565b6000602082019050620006fb60008301846200062b565b92915050565b60006040820190506200071860008301856200062b565b620007276020830184620006d3565b9392505050565b60006020820190506200074560008301846200064d565b92915050565b6000604082019050818103600083015262000766816200065e565b90506200077760208301846200063c565b92915050565b60006060820190508181036000830152620007988162000685565b90508181036020830152620007ad81620006ac565b9050620007be6040830184620006d3565b92915050565b6000604082019050620007db6000830185620006d3565b620007ea60208301846200063c565b9392505050565b600082825260208201905092915050565b60006200080f8262000822565b9050919050565b60008115159050919050565b600073ffffffffffffffffffffffffffffffffffffffff82169050919050565b6000819050919050565b6000620008598262000860565b9050919050565b60006200086d8262000822565b9050919050565b6000620008818262000888565b9050919050565b6000620008958262000822565b9050919050565b7f6e616d6500000000000000000000000000000000000000000000000000000000600082015250565b7f43726f7764205368617265730000000000000000000000000000000000000000600082015250565b7f4353000000000000000000000000000000000000000000000000000000000000600082015250565b620009228162000802565b81146200092e57600080fd5b50565b6200093c8162000816565b81146200094857600080fd5b50565b620009568162000842565b81146200096257600080fd5b5056fe60806040523480156200001157600080fd5b5060405162001c8838038062001c88833981810160405281019062000037919062000377565b82828160039080519060200190620000519291906200023e565b5080600490805190602001906200006a9291906200023e565b505050620000a93362000082620000b260201b60201c565b600a6200009091906200059e565b836200009d9190620006db565b620000bb60201b60201c565b505050620008e3565b60006012905090565b600073ffffffffffffffffffffffffffffffffffffffff168273ffffffffffffffffffffffffffffffffffffffff1614156200012e576040517f08c379a0000000000000000000000000000000000000000000000000000000008152600401620001259062000437565b60405180910390fd5b62000142600083836200023460201b60201c565b8060026000828254620001569190620004e6565b92505081905550806000808473ffffffffffffffffffffffffffffffffffffffff1673ffffffffffffffffffffffffffffffffffffffff1681526020019081526020016000206000828254620001ad9190620004e6565b925050819055508173ffffffffffffffffffffffffffffffffffffffff16600073ffffffffffffffffffffffffffffffffffffffff167fddf252ad1be2c89b69c2b068fc378daa952ba7f163c4a11628f55a4df523b3ef8360405162000214919062000459565b60405180910390a362000230600083836200023960201b60201c565b5050565b505050565b505050565b8280546200024c9062000789565b90600052602060002090601f016020900481019282620002705760008555620002bc565b82601f106200028b57805160ff1916838001178555620002bc565b82800160010185558215620002bc579182015b82811115620002bb5782518255916020019190600101906200029e565b5b509050620002cb9190620002cf565b5090565b5b80821115620002ea576000816000905550600101620002d0565b5090565b600062000305620002ff846200049f565b62000476565b9050828152602081018484840111156200031e57600080fd5b6200032b84828562000753565b509392505050565b600082601f8301126200034557600080fd5b815162000357848260208601620002ee565b91505092915050565b6000815190506200037181620008c9565b92915050565b6000806000606084860312156200038d57600080fd5b600084015167ffffffffffffffff811115620003a857600080fd5b620003b68682870162000333565b935050602084015167ffffffffffffffff811115620003d457600080fd5b620003e28682870162000333565b9250506040620003f58682870162000360565b9150509250925092565b60006200040e601f83620004d5565b91506200041b82620008a0565b602082019050919050565b62000431816200073c565b82525050565b600060208201905081810360008301526200045281620003ff565b9050919050565b600060208201905062000470600083018462000426565b92915050565b60006200048262000495565b9050620004908282620007bf565b919050565b6000604051905090565b600067ffffffffffffffff821115620004bd57620004bc62000853565b5b620004c88262000882565b9050602081019050919050565b600082825260208201905092915050565b6000620004f3826200073c565b915062000500836200073c565b9250827fffffffffffffffffffffffffffffffffffffffffffffffffffffffffffffffff03821115620005385762000537620007f5565b5b828201905092915050565b6000808291508390505b600185111562000595578086048111156200056d576200056c620007f5565b5b60018516156200057d5780820291505b80810290506200058d8562000893565b94506200054d565b94509492505050565b6000620005ab826200073c565b9150620005b88362000746565b9250620005e77fffffffffffffffffffffffffffffffffffffffffffffffffffffffffffffffff8484620005ef565b905092915050565b600082620006015760019050620006d4565b81620006115760009050620006d4565b81600181146200062a576002811462000635576200066b565b6001915050620006d4565b60ff8411156200064a5762000649620007f5565b5b8360020a915084821115620006645762000663620007f5565b5b50620006d4565b5060208310610133831016604e8410600b8410161715620006a55782820a9050838111156200069f576200069e620007f5565b5b620006d4565b620006b4848484600162000543565b92509050818404811115620006ce57620006cd620007f5565b5b81810290505b9392505050565b6000620006e8826200073c565b9150620006f5836200073c565b9250817fffffffffffffffffffffffffffffffffffffffffffffffffffffffffffffffff0483118215151615620007315762000730620007f5565b5b828202905092915050565b6000819050919050565b600060ff82169050919050565b60005b838110156200077357808201518184015260208101905062000756565b8381111562000783576000848401525b50505050565b60006002820490506001821680620007a257607f821691505b60208210811415620007b957620007b862000824565b5b50919050565b620007ca8262000882565b810181811067ffffffffffffffff82111715620007ec57620007eb62000853565b5b80604052505050565b7f4e487b7100000000000000000000000000000000000000000000000000000000600052601160045260246000fd5b7f4e487b7100000000000000000000000000000000000000000000000000000000600052602260045260246000fd5b7f4e487b7100000000000000000000000000000000000000000000000000000000600052604160045260246000fd5b6000601f19601f8301169050919050565b60008160011c9050919050565b7f45524332303a206d696e7420746f20746865207a65726f206164647265737300600082015250565b620008d4816200073c565b8114620008e057600080fd5b50565b61139580620008f36000396000f3fe608060405234801561001057600080fd5b50600436106100a95760003560e01c80633950935111610071578063395093511461016857806370a082311461019857806395d89b41146101c8578063a457c2d7146101e6578063a9059cbb14610216578063dd62ed3e14610246576100a9565b806306fdde03146100ae578063095ea7b3146100cc57806318160ddd146100fc57806323b872dd1461011a578063313ce5671461014a575b600080fd5b6100b6610276565b6040516100c39190610e35565b60405180910390f35b6100e660048036038101906100e19190610c83565b610308565b6040516100f39190610e1a565b60405180910390f35b610104610326565b6040516101119190610f37565b60405180910390f35b610134600480360381019061012f9190610c34565b610330565b6040516101419190610e1a565b60405180910390f35b610152610428565b60405161015f9190610f52565b60405180910390f35b610182600480360381019061017d9190610c83565b610431565b60405161018f9190610e1a565b60405180910390f35b6101b260048036038101906101ad9190610bcf565b6104dd565b6040516101bf9190610f37565b60405180910390f35b6101d0610525565b6040516101dd9190610e35565b60405180910390f35b61020060048036038101906101fb9190610c83565b6105b7565b60405161020d9190610e1a565b60405180910390f35b610230600480360381019061022b9190610c83565b6106a2565b60405161023d9190610e1a565b60405180910390f35b610260600480360381019061025b9190610bf8565b6106c0565b60405161026d9190610f37565b60405180910390f35b60606003805461028590611067565b80601f01602080910402602001604051908101604052809291908181526020018280546102b190611067565b80156102fe5780601f106102d3576101008083540402835291602001916102fe565b820191906000526020600020905b8154815290600101906020018083116102e157829003601f168201915b5050505050905090565b600061031c610315610747565b848461074f565b6001905092915050565b6000600254905090565b600061033d84848461091a565b6000600160008673ffffffffffffffffffffffffffffffffffffffff1673ffffffffffffffffffffffffffffffffffffffff1681526020019081526020016000206000610388610747565b73ffffffffffffffffffffffffffffffffffffffff1673ffffffffffffffffffffffffffffffffffffffff16815260200190815260200160002054905082811015610408576040517f08c379a00000000000000000000000000000000000000000000000000000000081526004016103ff90610eb7565b60405180910390fd5b61041c85610414610747565b85840361074f565b60019150509392505050565b60006012905090565b60006104d361043e610747565b84846001600061044c610747565b73ffffffffffffffffffffffffffffffffffffffff1673ffffffffffffffffffffffffffffffffffffffff16815260200190815260200160002060008873ffffffffffffffffffffffffffffffffffffffff1673ffffffffffffffffffffffffffffffffffffffff168152602001908152602001600020546104ce9190610f89565b61074f565b6001905092915050565b60008060008373ffffffffffffffffffffffffffffffffffffffff1673ffffffffffffffffffffffffffffffffffffffff168152602001908152602001600020549050919050565b60606004805461053490611067565b80601f016020809104026020016040519081016040528092919081815260200182805461056090611067565b80156105ad5780601f10610582576101008083540402835291602001916105ad565b820191906000526020600020905b81548152906001019060200180831161059057829003601f168201915b5050505050905090565b600080600160006105c6610747565b73ffffffffffffffffffffffffffffffffffffffff1673ffffffffffffffffffffffffffffffffffffffff16815260200190815260200160002060008573ffffffffffffffffffffffffffffffffffffffff1673ffffffffffffffffffffffffffffffffffffffff16815260200190815260200160002054905082811015610683576040517f08c379a000000000000000000000000000000000000000000000000000000000815260040161067a90610f17565b60405180910390fd5b61069761068e610747565b8585840361074f565b600191505092915050565b60006106b66106af610747565b848461091a565b6001905092915050565b6000600160008473ffffffffffffffffffffffffffffffffffffffff1673ffffffffffffffffffffffffffffffffffffffff16815260200190815260200160002060008373ffffffffffffffffffffffffffffffffffffffff1673ffffffffffffffffffffffffffffffffffffffff16815260200190815260200160002054905092915050565b600033905090565b600073ffffffffffffffffffffffffffffffffffffffff168373ffffffffffffffffffffffffffffffffffffffff1614156107bf576040517f08c379a00000000000000000000000000000000000000000000000000000000081526004016107b690610ef7565b60405180910390fd5b600073ffffffffffffffffffffffffffffffffffffffff168273ffffffffffffffffffffffffffffffffffffffff16141561082f576040517f08c379a000000000000000000000000000000000000000000000000000000000815260040161082690610e77565b60405180910390fd5b80600160008573ffffffffffffffffffffffffffffffffffffffff1673ffffffffffffffffffffffffffffffffffffffff16815260200190815260200160002060008473ffffffffffffffffffffffffffffffffffffffff1673ffffffffffffffffffffffffffffffffffffffff168152602001908152602001600020819055508173ffffffffffffffffffffffffffffffffffffffff168373ffffffffffffffffffffffffffffffffffffffff167f8c5be1e5ebec7d5bd14f71427d1e84f3dd0314c0f7b2291e5b200ac8c7c3b9258360405161090d9190610f37565b60405180910390a3505050565b600073ffffffffffffffffffffffffffffffffffffffff168373ffffffffffffffffffffffffffffffffffffffff16141561098a576040517f08c379a000000000000000000000000000000000000000000000000000000000815260040161098190610ed7565b60405180910390fd5b600073ffffffffffffffffffffffffffffffffffffffff168273ffffffffffffffffffffffffffffffffffffffff1614156109fa576040517f08c379a00000000000000000000000000000000000000000000000000000000081526004016109f190610e57565b60405180910390fd5b610a05838383610b9b565b60008060008573ffffffffffffffffffffffffffffffffffffffff1673ffffffffffffffffffffffffffffffffffffffff16815260200190815260200160002054905081811015610a8b576040517f08c379a0000000000000000000000000000000000000000000000000000000008152600401610a8290610e97565b60405180910390fd5b8181036000808673ffffffffffffffffffffffffffffffffffffffff1673ffffffffffffffffffffffffffffffffffffffff16815260200190815260200160002081905550816000808573ffffffffffffffffffffffffffffffffffffffff1673ffffffffffffffffffffffffffffffffffffffff1681526020019081526020016000206000828254610b1e9190610f89565b925050819055508273ffffffffffffffffffffffffffffffffffffffff168473ffffffffffffffffffffffffffffffffffffffff167fddf252ad1be2c89b69c2b068fc378daa952ba7f163c4a11628f55a4df523b3ef84604051610b829190610f37565b60405180910390a3610b95848484610ba0565b50505050565b505050565b505050565b600081359050610bb481611331565b92915050565b600081359050610bc981611348565b92915050565b600060208284031215610be157600080fd5b6000610bef84828501610ba5565b91505092915050565b60008060408385031215610c0b57600080fd5b6000610c1985828601610ba5565b9250506020610c2a85828601610ba5565b9150509250929050565b600080600060608486031215610c4957600080fd5b6000610c5786828701610ba5565b9350506020610c6886828701610ba5565b9250506040610c7986828701610bba565b9150509250925092565b60008060408385031215610c9657600080fd5b6000610ca485828601610ba5565b9250506020610cb585828601610bba565b9150509250929050565b610cc881610ff1565b82525050565b6000610cd982610f6d565b610ce38185610f78565b9350610cf3818560208601611034565b610cfc816110f7565b840191505092915050565b6000610d14602383610f78565b9150610d1f82611108565b604082019050919050565b6000610d37602283610f78565b9150610d4282611157565b604082019050919050565b6000610d5a602683610f78565b9150610d65826111a6565b604082019050919050565b6000610d7d602883610f78565b9150610d88826111f5565b604082019050919050565b6000610da0602583610f78565b9150610dab82611244565b604082019050919050565b6000610dc3602483610f78565b9150610dce82611293565b604082019050919050565b6000610de6602583610f78565b9150610df1826112e2565b604082019050919050565b610e058161101d565b82525050565b610e1481611027565b82525050565b6000602082019050610e2f6000830184610cbf565b92915050565b60006020820190508181036000830152610e4f8184610cce565b905092915050565b60006020820190508181036000830152610e7081610d07565b9050919050565b60006020820190508181036000830152610e9081610d2a565b9050919050565b60006020820190508181036000830152610eb081610d4d565b9050919050565b60006020820190508181036000830152610ed081610d70565b9050919050565b60006020820190508181036000830152610ef081610d93565b9050919050565b60006020820190508181036000830152610f1081610db6565b9050919050565b60006020820190508181036000830152610f3081610dd9565b9050919050565b6000602082019050610f4c6000830184610dfc565b92915050565b6000602082019050610f676000830184610e0b565b92915050565b600081519050919050565b600082825260208201905092915050565b6000610f948261101d565b9150610f9f8361101d565b9250827fffffffffffffffffffffffffffffffffffffffffffffffffffffffffffffffff03821115610fd457610fd3611099565b5b828201905092915050565b6000610fea82610ffd565b9050919050565b60008115159050919050565b600073ffffffffffffffffffffffffffffffffffffffff82169050919050565b6000819050919050565b600060ff82169050919050565b60005b83811015611052578082015181840152602081019050611037565b83811115611061576000848401525b50505050565b6000600282049050600182168061107f57607f821691505b60208210811415611093576110926110c8565b5b50919050565b7f4e487b7100000000000000000000000000000000000000000000000000000000600052601160045260246000fd5b7f4e487b7100000000000000000000000000000000000000000000000000000000600052602260045260246000fd5b6000601f19601f8301169050919050565b7f45524332303a207472616e7366657220746f20746865207a65726f206164647260008201527f6573730000000000000000000000000000000000000000000000000000000000602082015250565b7f45524332303a20617070726f766520746f20746865207a65726f20616464726560008201527f7373000000000000000000000000000000000000000000000000000000000000602082015250565b7f45524332303a207472616e7366657220616d6f756e742065786365656473206260008201527f616c616e63650000000000000000000000000000000000000000000000000000602082015250565b7f45524332303a207472616e7366657220616d6f756e742065786365656473206160008201527f6c6c6f77616e6365000000000000000000000000000000000000000000000000602082015250565b7f45524332303a207472616e736665722066726f6d20746865207a65726f20616460008201527f6472657373000000000000000000000000000000000000000000000000000000602082015250565b7f45524332303a20617070726f76652066726f6d20746865207a65726f2061646460008201527f7265737300000000000000000000000000000000000000000000000000000000602082015250565b7f45524332303a2064656372656173656420616c6c6f77616e63652062656c6f7760008201527f207a65726f000000000000000000000000000000000000000000000000000000602082015250565b61133a81610fdf565b811461134557600080fd5b50565b6113518161101d565b811461135c57600080fd5b5056fea2646970667358221220546f57453c7afa0b850404e6ad550154cab9e638c3bb3f89cdd3748d5f2c158064736f6c6343000804003360806040523480156200001157600080fd5b5060405162002558380380620025588339818101604052810190620000379190620001d1565b81600190805190602001906200004f92919062000098565b50806000806101000a81548173ffffffffffffffffffffffffffffffffffffffff021916908373ffffffffffffffffffffffffffffffffffffffff1602179055505050620003fd565b828054620000a69062000308565b90600052602060002090601f016020900481019282620000ca576000855562000116565b82601f10620000e557805160ff191683800117855562000116565b8280016001018555821562000116579182015b8281111562000115578251825591602001919060010190620000f8565b5b50905062000125919062000129565b5090565b5b80821115620001445760008160009055506001016200012a565b5090565b60006200015f620001598462000254565b6200022b565b9050828152602081018484840111156200017857600080fd5b62000185848285620002d2565b509392505050565b6000815190506200019e81620003e3565b92915050565b600082601f830112620001b657600080fd5b8151620001c884826020860162000148565b91505092915050565b60008060408385031215620001e557600080fd5b600083015167ffffffffffffffff8111156200020057600080fd5b6200020e85828601620001a4565b925050602062000221858286016200018d565b9150509250929050565b6000620002376200024a565b90506200024582826200033e565b919050565b6000604051905090565b600067ffffffffffffffff821115620002725762000271620003a3565b5b6200027d82620003d2565b9050602081019050919050565b60006200029782620002b2565b9050919050565b6000620002ab826200028a565b9050919050565b600073ffffffffffffffffffffffffffffffffffffffff82169050919050565b60005b83811015620002f2578082015181840152602081019050620002d5565b8381111562000302576000848401525b50505050565b600060028204905060018216806200032157607f821691505b6020821081141562000338576200033762000374565b5b50919050565b6200034982620003d2565b810181811067ffffffffffffffff821117156200036b576200036a620003a3565b5b80604052505050565b7f4e487b7100000000000000000000000000000000000000000000000000000000600052602260045260246000fd5b7f4e487b7100000000000000000000000000000000000000000000000000000000600052604160045260246000fd5b6000601f19601f8301169050919050565b620003ee816200029e565b8114620003fa57600080fd5b50565b61214b806200040d6000396000f3fe608060405234801561001057600080fd5b50600436106100a95760003560e01c8063379607f511610071578063379607f514610166578063528f9d5514610182578063688e1d31146101a0578063a694fc3a146101be578063c9d27afe146101da578063f8c0e00f146101f6576100a9565b806306fdde03146100ae5780630f9e4fb5146100cc57806310b1939f146100e8578063150b7a021461011857806316f0115b14610148575b600080fd5b6100b6610212565b6040516100c39190611b38565b60405180910390f35b6100e660048036038101906100e191906116c4565b6102a0565b005b61010260048036038101906100fd91906117c0565b61061a565b60405161010f9190611ac5565b60405180910390f35b610132600480360381019061012d9190611644565b6107be565b60405161013f9190611ae7565b60405180910390f35b6101506107d3565b60405161015d9190611b1d565b60405180910390f35b610180600480360381019061017b91906117c0565b6107f9565b005b61018a610a67565b6040516101979190611bda565b60405180910390f35b6101a8610a6d565b6040516101b59190611b02565b60405180910390f35b6101d860048036038101906101d391906117c0565b610a91565b005b6101f460048036038101906101ef9190611812565b610cfb565b005b610210600480360381019061020b9190611729565b610f3b565b005b6001805461021f90611eb0565b80601f016020809104026020016040519081016040528092919081815260200182805461024b90611eb0565b80156102985780601f1061026d57610100808354040283529160200191610298565b820191906000526020600020905b81548152906001019060200180831161027b57829003601f168201915b505050505081565b60001515600460000160008473ffffffffffffffffffffffffffffffffffffffff1673ffffffffffffffffffffffffffffffffffffffff168152602001908152602001600020600083815260200190815260200160002060009054906101000a900460ff16151514610347576040517f08c379a000000000000000000000000000000000000000000000000000000000815260040161033e90611b9a565b60405180910390fd5b600081146104fd5760008290503073ffffffffffffffffffffffffffffffffffffffff168173ffffffffffffffffffffffffffffffffffffffff16636352211e846040518263ffffffff1660e01b81526004016103a49190611bda565b60206040518083038186803b1580156103bc57600080fd5b505afa1580156103d0573d6000803e3d6000fd5b505050506040513d601f19601f820116820180604052508101906103f4919061161b565b73ffffffffffffffffffffffffffffffffffffffff16141561044b576040517f08c379a000000000000000000000000000000000000000000000000000000000815260040161044290611bba565b60405180910390fd5b600460010160405180604001604052808573ffffffffffffffffffffffffffffffffffffffff16815260200184815250908060018154018082558091505060019003906000526020600020906002020160009091909190915060008201518160000160006101000a81548173ffffffffffffffffffffffffffffffffffffffff021916908373ffffffffffffffffffffffffffffffffffffffff160217905550602082015181600101555050506105aa565b600460020160405180604001604052808473ffffffffffffffffffffffffffffffffffffffff16815260200183815250908060018154018082558091505060019003906000526020600020906002020160009091909190915060008201518160000160006101000a81548173ffffffffffffffffffffffffffffffffffffffff021916908373ffffffffffffffffffffffffffffffffffffffff1602179055506020820151816001015550505b6001600460000160008473ffffffffffffffffffffffffffffffffffffffff1673ffffffffffffffffffffffffffffffffffffffff168152602001908152602001600020600083815260200190815260200160002060006101000a81548160ff0219169083151502179055505050565b606060008214156106e7576004600101805480602002602001604051908101604052809291908181526020016000905b828210156106dc57838290600052602060002090600202016040518060400160405290816000820160009054906101000a900473ffffffffffffffffffffffffffffffffffffffff1673ffffffffffffffffffffffffffffffffffffffff1673ffffffffffffffffffffffffffffffffffffffff1681526020016001820154815250508152602001906001019061064a565b5050505090506107b9565b60018214156107b2576004600201805480602002602001604051908101604052809291908181526020016000905b828210156107a757838290600052602060002090600202016040518060400160405290816000820160009054906101000a900473ffffffffffffffffffffffffffffffffffffffff1673ffffffffffffffffffffffffffffffffffffffff1673ffffffffffffffffffffffffffffffffffffffff16815260200160018201548152505081526020019060010190610715565b5050505090506107b9565b6060809150505b919050565b600063150b7a0260e01b905095945050505050565b600360009054906101000a900473ffffffffffffffffffffffffffffffffffffffff1681565b6000600860003373ffffffffffffffffffffffffffffffffffffffff1673ffffffffffffffffffffffffffffffffffffffff168152602001908152602001600020549050818110156108f85760008054906101000a900473ffffffffffffffffffffffffffffffffffffffff1673ffffffffffffffffffffffffffffffffffffffff1663a9059cbb33836040518363ffffffff1660e01b81526004016108a0929190611a9c565b602060405180830381600087803b1580156108ba57600080fd5b505af11580156108ce573d6000803e3d6000fd5b505050506040513d601f19601f820116820180604052508101906108f29190611700565b50610a63565b818110156109b35760008054906101000a900473ffffffffffffffffffffffffffffffffffffffff1673ffffffffffffffffffffffffffffffffffffffff1663a9059cbb33836040518363ffffffff1660e01b815260040161095b929190611a9c565b602060405180830381600087803b15801561097557600080fd5b505af1158015610989573d6000803e3d6000fd5b505050506040513d601f19601f820116820180604052508101906109ad9190611700565b50610a62565b60008054906101000a900473ffffffffffffffffffffffffffffffffffffffff1673ffffffffffffffffffffffffffffffffffffffff1663a9059cbb33846040518363ffffffff1660e01b8152600401610a0e929190611a9c565b602060405180830381600087803b158015610a2857600080fd5b505af1158015610a3c573d6000803e3d6000fd5b505050506040513d601f19601f82011682018060405250810190610a609190611700565b505b5b5050565b60025481565b60008054906101000a900473ffffffffffffffffffffffffffffffffffffffff1681565b8060008054906101000a900473ffffffffffffffffffffffffffffffffffffffff1673ffffffffffffffffffffffffffffffffffffffff1663dd62ed3e33306040518363ffffffff1660e01b8152600401610aed929190611a3c565b60206040518083038186803b158015610b0557600080fd5b505afa158015610b19573d6000803e3d6000fd5b505050506040513d601f19601f82011682018060405250810190610b3d91906117e9565b1015610bf25760008054906101000a900473ffffffffffffffffffffffffffffffffffffffff1673ffffffffffffffffffffffffffffffffffffffff1663095ea7b330836040518363ffffffff1660e01b8152600401610b9e929190611a9c565b602060405180830381600087803b158015610bb857600080fd5b505af1158015610bcc573d6000803e3d6000fd5b505050506040513d601f19601f82011682018060405250810190610bf09190611700565b505b60008054906101000a900473ffffffffffffffffffffffffffffffffffffffff1673ffffffffffffffffffffffffffffffffffffffff166323b872dd3330846040518463ffffffff1660e01b8152600401610c4f93929190611a65565b602060405180830381600087803b158015610c6957600080fd5b505af1158015610c7d573d6000803e3d6000fd5b505050506040513d601f19601f82011682018060405250810190610ca19190611700565b5080600860003373ffffffffffffffffffffffffffffffffffffffff1673ffffffffffffffffffffffffffffffffffffffff1681526020019081526020016000206000828254610cf19190611cd1565b9250508190555050565b60008060009054906101000a900473ffffffffffffffffffffffffffffffffffffffff1673ffffffffffffffffffffffffffffffffffffffff166370a08231336040518263ffffffff1660e01b8152600401610d579190611a21565b60206040518083038186803b158015610d6f57600080fd5b505afa158015610d83573d6000803e3d6000fd5b505050506040513d601f19601f82011682018060405250810190610da791906117e9565b1415610de8576040517f08c379a0000000000000000000000000000000000000000000000000000000008152600401610ddf90611b5a565b60405180910390fd5b600115158115151415610e6657600860003373ffffffffffffffffffffffffffffffffffffffff1673ffffffffffffffffffffffffffffffffffffffff16815260200190815260200160002054600760008481526020019081526020016000206004016000828254610e5a9190611cd1565b92505081905550610ed3565b600860003373ffffffffffffffffffffffffffffffffffffffff1673ffffffffffffffffffffffffffffffffffffffff16815260200190815260200160002054600760008481526020019081526020016000206005016000828254610ecb9190611cd1565b925050819055505b600060076000848152602001908152602001600020600501546007600085815260200190815260200160002060040154610f0d9190611cd1565b905060076000848152602001908152602001600020600601548110610f3657610f3583611253565b5b505050565b60008060009054906101000a900473ffffffffffffffffffffffffffffffffffffffff1673ffffffffffffffffffffffffffffffffffffffff166370a08231336040518263ffffffff1660e01b8152600401610f979190611a21565b60206040518083038186803b158015610faf57600080fd5b505afa158015610fc3573d6000803e3d6000fd5b505050506040513d601f19601f82011682018060405250810190610fe791906117e9565b1415611028576040517f08c379a000000000000000000000000000000000000000000000000000000000815260040161101f90611b7a565b60405180910390fd5b60016002600082825461103b9190611cd1565b9250508190555060006040518060e0016040528060006002811115611089577f4e487b7100000000000000000000000000000000000000000000000000000000600052602160045260246000fd5b81526020018581526020018481526020018381526020016000815260200160008152602001600460008054906101000a900473ffffffffffffffffffffffffffffffffffffffff1673ffffffffffffffffffffffffffffffffffffffff166318160ddd6040518163ffffffff1660e01b815260040160206040518083038186803b15801561111657600080fd5b505afa15801561112a573d6000803e3d6000fd5b505050506040513d601f19601f8201168201806040525081019061114e91906117e9565b600361115a9190611d58565b6111649190611d27565b81525090508060076000600254815260200190815260200160002060008201518160000160006101000a81548160ff021916908360028111156111d0577f4e487b7100000000000000000000000000000000000000000000000000000000600052602160045260246000fd5b021790555060208201518160010190805190602001906111f192919061135a565b50604082015181600201908051906020019061120e92919061135a565b50606082015181600301908051906020019061122b9291906113e0565b506080820151816004015560a0820151816005015560c0820151816006015590505050505050565b6007600082815260200190815260200160002060050154600760008381526020019081526020016000206004015411156112f15760016007600083815260200190815260200160002060000160006101000a81548160ff021916908360028111156112e7577f4e487b7100000000000000000000000000000000000000000000000000000000600052602160045260246000fd5b0217905550611357565b60026007600083815260200190815260200160002060000160006101000a81548160ff02191690836002811115611351577f4e487b7100000000000000000000000000000000000000000000000000000000600052602160045260246000fd5b02179055505b50565b82805461136690611eb0565b90600052602060002090601f01602090048101928261138857600085556113cf565b82601f106113a157805160ff19168380011785556113cf565b828001600101855582156113cf579182015b828111156113ce5782518255916020019190600101906113b3565b5b5090506113dc9190611466565b5090565b8280546113ec90611eb0565b90600052602060002090601f01602090048101928261140e5760008555611455565b82601f1061142757805160ff1916838001178555611455565b82800160010185558215611455579182015b82811115611454578251825591602001919060010190611439565b5b5090506114629190611466565b5090565b5b8082111561147f576000816000905550600101611467565b5090565b600061149661149184611c1a565b611bf5565b9050828152602081018484840111156114ae57600080fd5b6114b9848285611e6e565b509392505050565b60006114d46114cf84611c4b565b611bf5565b9050828152602081018484840111156114ec57600080fd5b6114f7848285611e6e565b509392505050565b60008135905061150e816120d0565b92915050565b600081519050611523816120d0565b92915050565b600081359050611538816120e7565b92915050565b60008151905061154d816120e7565b92915050565b60008083601f84011261156557600080fd5b8235905067ffffffffffffffff81111561157e57600080fd5b60208301915083600182028301111561159657600080fd5b9250929050565b600082601f8301126115ae57600080fd5b81356115be848260208601611483565b91505092915050565b600082601f8301126115d857600080fd5b81356115e88482602086016114c1565b91505092915050565b600081359050611600816120fe565b92915050565b600081519050611615816120fe565b92915050565b60006020828403121561162d57600080fd5b600061163b84828501611514565b91505092915050565b60008060008060006080868803121561165c57600080fd5b600061166a888289016114ff565b955050602061167b888289016114ff565b945050604061168c888289016115f1565b935050606086013567ffffffffffffffff8111156116a957600080fd5b6116b588828901611553565b92509250509295509295909350565b600080604083850312156116d757600080fd5b60006116e5858286016114ff565b92505060206116f6858286016115f1565b9150509250929050565b60006020828403121561171257600080fd5b60006117208482850161153e565b91505092915050565b60008060006060848603121561173e57600080fd5b600084013567ffffffffffffffff81111561175857600080fd5b611764868287016115c7565b935050602084013567ffffffffffffffff81111561178157600080fd5b61178d868287016115c7565b925050604084013567ffffffffffffffff8111156117aa57600080fd5b6117b68682870161159d565b9150509250925092565b6000602082840312156117d257600080fd5b60006117e0848285016115f1565b91505092915050565b6000602082840312156117fb57600080fd5b600061180984828501611606565b91505092915050565b6000806040838503121561182557600080fd5b6000611833858286016115f1565b925050602061184485828601611529565b9150509250929050565b600061185a83836119d4565b60408301905092915050565b61186f81611db2565b82525050565b61187e81611db2565b82525050565b600061188f82611c8c565b6118998185611caf565b93506118a483611c7c565b8060005b838110156118d55781516118bc888261184e565b97506118c783611ca2565b9250506001810190506118a8565b5085935050505092915050565b6118eb81611dd0565b82525050565b6118fa81611e26565b82525050565b61190981611e4a565b82525050565b600061191a82611c97565b6119248185611cc0565b9350611934818560208601611e7d565b61193d81611fcf565b840191505092915050565b6000611955602b83611cc0565b915061196082611fe0565b604082019050919050565b6000611978603c83611cc0565b91506119838261202f565b604082019050919050565b600061199b601c83611cc0565b91506119a68261207e565b602082019050919050565b60006119be601783611cc0565b91506119c9826120a7565b602082019050919050565b6040820160008201516119ea6000850182611866565b5060208201516119fd6020850182611a03565b50505050565b611a0c81611e1c565b82525050565b611a1b81611e1c565b82525050565b6000602082019050611a366000830184611875565b92915050565b6000604082019050611a516000830185611875565b611a5e6020830184611875565b9392505050565b6000606082019050611a7a6000830186611875565b611a876020830185611875565b611a946040830184611a12565b949350505050565b6000604082019050611ab16000830185611875565b611abe6020830184611a12565b9392505050565b60006020820190508181036000830152611adf8184611884565b905092915050565b6000602082019050611afc60008301846118e2565b92915050565b6000602082019050611b1760008301846118f1565b92915050565b6000602082019050611b326000830184611900565b92915050565b60006020820190508181036000830152611b52818461190f565b905092915050565b60006020820190508181036000830152611b7381611948565b9050919050565b60006020820190508181036000830152611b938161196b565b9050919050565b60006020820190508181036000830152611bb38161198e565b9050919050565b60006020820190508181036000830152611bd3816119b1565b9050919050565b6000602082019050611bef6000830184611a12565b92915050565b6000611bff611c10565b9050611c0b8282611ee2565b919050565b6000604051905090565b600067ffffffffffffffff821115611c3557611c34611fa0565b5b611c3e82611fcf565b9050602081019050919050565b600067ffffffffffffffff821115611c6657611c65611fa0565b5b611c6f82611fcf565b9050602081019050919050565b6000819050602082019050919050565b600081519050919050565b600081519050919050565b6000602082019050919050565b600082825260208201905092915050565b600082825260208201905092915050565b6000611cdc82611e1c565b9150611ce783611e1c565b9250827fffffffffffffffffffffffffffffffffffffffffffffffffffffffffffffffff03821115611d1c57611d1b611f13565b5b828201905092915050565b6000611d3282611e1c565b9150611d3d83611e1c565b925082611d4d57611d4c611f42565b5b828204905092915050565b6000611d6382611e1c565b9150611d6e83611e1c565b9250817fffffffffffffffffffffffffffffffffffffffffffffffffffffffffffffffff0483118215151615611da757611da6611f13565b5b828202905092915050565b6000611dbd82611dfc565b9050919050565b60008115159050919050565b60007fffffffff0000000000000000000000000000000000000000000000000000000082169050919050565b600073ffffffffffffffffffffffffffffffffffffffff82169050919050565b6000819050919050565b6000611e3182611e38565b9050919050565b6000611e4382611dfc565b9050919050565b6000611e5582611e5c565b9050919050565b6000611e6782611dfc565b9050919050565b82818337600083830152505050565b60005b83811015611e9b578082015181840152602081019050611e80565b83811115611eaa576000848401525b50505050565b60006002820490506001821680611ec857607f821691505b60208210811415611edc57611edb611f71565b5b50919050565b611eeb82611fcf565b810181811067ffffffffffffffff82111715611f0a57611f09611fa0565b5b80604052505050565b7f4e487b7100000000000000000000000000000000000000000000000000000000600052601160045260246000fd5b7f4e487b7100000000000000000000000000000000000000000000000000000000600052601260045260246000fd5b7f4e487b7100000000000000000000000000000000000000000000000000000000600052602260045260246000fd5b7f4e487b7100000000000000000000000000000000000000000000000000000000600052604160045260246000fd5b6000601f19601f8301169050919050565b7f506c65617365207374616b6520796f757220676f7665726e616e636520746f6b60008201527f656e7320746f20766f7465000000000000000000000000000000000000000000602082015250565b7f506c65617365207374616b6520796f757220676f7665726e616e636520746f6b60008201527f656e7320746f206372656174652061206e65772070726f706f73616c00000000602082015250565b7f5468697320617373657420697320616c7265616479206c6f636b656400000000600082015250565b7f546869732061737365742069736e2774206c6f636b6564000000000000000000600082015250565b6120d981611db2565b81146120e457600080fd5b50565b6120f081611dc4565b81146120fb57600080fd5b50565b61210781611e1c565b811461211257600080fd5b5056fea26469706673582212209cf0324afc99659533d28313481be1e18f81ad26bcb6bd08f354eaa6c93d815e64736f6c63430008040033a264697066735822122071008b26c02d628915614d70bd99ddc207cd27a92628efa2ed5e14c5f19f5abd64736f6c63430008040033",
  "immutableReferences": {},
  "source": "pragma solidity ^0.8.0;\nimport \"@openzeppelin/contracts/token/ERC20/IERC20.sol\";\nimport \"@openzeppelin/contracts/token/ERC721/IERC721.sol\";\nimport \"./Pool.sol\";\nimport \"./DaoToken.sol\";\nimport \"./Dao.sol\";\n\ncontract Factory {\n\n    address public initiator;  // Offchain initiator\n    address public owner;  // Will allow to setup offchain initiator\n    Pool public pool;\n\n    modifier ownerOnly {require(msg.sender == owner); _;}\n    modifier initiatorOnly {require(msg.sender == owner); _;}\n\n    constructor(Pool _pool) {\n        owner = msg.sender;\n        initiator = msg.sender;\n        pool = _pool;\n    }\n\n    function setup(address _new_initiator) public ownerOnly {\n        if (_new_initiator != address(0x0)) {\n            initiator = _new_initiator;\n        }\n    }\n\n    function new_dao(uint _shares_amount, uint _pool_id) public initiatorOnly {\n        //  Setting up the emission\n        IERC20 dao_token = new DaoToken(\"Crowd Shares\", \"CS\", _shares_amount);\n        //  Building the brand new DAO\n        new Dao(\"name\", dao_token);\n        //  Sending tokens to Dao for distribution\n        dao_token.transfer(address(pool), dao_token.totalSupply());\n        pool.distribute_dao_tokens(_pool_id, dao_token);\n    }\n\n}\n",
  "sourcePath": "/Users/y.sosunov/git/definition-hackathon/onchain/contracts/Factory.sol",
  "compiler": {
    "name": "solc",
    "version": "0.8.4+commit.c7e474f2.Emscripten.clang"
  },
  "schemaVersion": "3.3.4",
  "updatedAt": "2021-09-25T15:13:59.809Z",
  "devdoc": {
    "kind": "dev",
    "methods": {},
    "version": 1
  },
  "userdoc": {
    "kind": "user",
    "methods": {},
    "version": 1
  }
}