{
  "contractName": "Factory",
  "abi": [
    {
      "inputs": [
        {
          "internalType": "contract Pool",
          "name": "_pool",
          "type": "address"
        },
        {
          "internalType": "address",
          "name": "_initiator",
          "type": "address"
        }
      ],
      "stateMutability": "nonpayable",
      "type": "constructor"
    },
    {
      "anonymous": false,
      "inputs": [
        {
          "indexed": false,
          "internalType": "string",
          "name": "name",
          "type": "string"
        },
        {
          "indexed": true,
          "internalType": "address",
          "name": "dao",
          "type": "address"
        },
        {
          "indexed": true,
          "internalType": "address",
          "name": "dao_token",
          "type": "address"
        }
      ],
      "name": "NewDao",
      "type": "event"
    },
    {
      "inputs": [],
      "name": "initiator",
      "outputs": [
        {
          "internalType": "address",
          "name": "",
          "type": "address"
        }
      ],
      "stateMutability": "view",
      "type": "function"
    },
    {
      "inputs": [],
      "name": "owner",
      "outputs": [
        {
          "internalType": "address",
          "name": "",
          "type": "address"
        }
      ],
      "stateMutability": "view",
      "type": "function"
    },
    {
      "inputs": [],
      "name": "pool",
      "outputs": [
        {
          "internalType": "contract Pool",
          "name": "",
          "type": "address"
        }
      ],
      "stateMutability": "view",
      "type": "function"
    },
    {
      "inputs": [
        {
          "internalType": "address",
          "name": "_new_initiator",
          "type": "address"
        }
      ],
      "name": "setup",
      "outputs": [],
      "stateMutability": "nonpayable",
      "type": "function"
    },
    {
      "inputs": [
        {
          "internalType": "uint256",
          "name": "_shares_amount",
          "type": "uint256"
        },
        {
          "internalType": "uint256",
          "name": "_pool_id",
          "type": "uint256"
        }
      ],
      "name": "new_dao",
      "outputs": [],
      "stateMutability": "nonpayable",
      "type": "function"
    },
    {
      "inputs": [
        {
          "internalType": "uint256",
          "name": "_pool_id",
          "type": "uint256"
        }
      ],
      "name": "get_dao",
      "outputs": [
        {
          "internalType": "address",
          "name": "",
          "type": "address"
        }
      ],
      "stateMutability": "view",
      "type": "function"
    }
  ],
  "bytecode": "0x60806040523480156200001157600080fd5b506040516200604f3803806200604f83398181016040528101906200003791906200012f565b33600160006101000a81548173ffffffffffffffffffffffffffffffffffffffff021916908373ffffffffffffffffffffffffffffffffffffffff160217905550806000806101000a81548173ffffffffffffffffffffffffffffffffffffffff021916908373ffffffffffffffffffffffffffffffffffffffff16021790555081600260006101000a81548173ffffffffffffffffffffffffffffffffffffffff021916908373ffffffffffffffffffffffffffffffffffffffff1602179055505050620001ec565b6000815190506200011281620001b8565b92915050565b6000815190506200012981620001d2565b92915050565b600080604083850312156200014357600080fd5b6000620001538582860162000118565b9250506020620001668582860162000101565b9150509250929050565b60006200017d8262000198565b9050919050565b6000620001918262000170565b9050919050565b600073ffffffffffffffffffffffffffffffffffffffff82169050919050565b620001c38162000170565b8114620001cf57600080fd5b50565b620001dd8162000184565b8114620001e957600080fd5b50565b615e5380620001fc6000396000f3fe60806040523480156200001157600080fd5b50600436106200006a5760003560e01c80631672100f146200006f57806316f0115b14620000a55780635c39fcc114620000c757806366d3820314620000e95780638da5cb5b1462000109578063e31dff13146200012b575b600080fd5b6200008d60048036038101906200008791906200077d565b6200014b565b6040516200009c91906200086f565b60405180910390f35b620000af62000188565b604051620000be91906200088c565b60405180910390f35b620000d1620001ae565b604051620000e091906200086f565b60405180910390f35b620001076004803603810190620001019190620006de565b620001d2565b005b62000113620002a6565b6040516200012291906200086f565b60405180910390f35b620001496004803603810190620001439190620007a9565b620002cc565b005b60006003600083815260200190815260200160002060009054906101000a900473ffffffffffffffffffffffffffffffffffffffff169050919050565b600260009054906101000a900473ffffffffffffffffffffffffffffffffffffffff1681565b60008054906101000a900473ffffffffffffffffffffffffffffffffffffffff1681565b600160009054906101000a900473ffffffffffffffffffffffffffffffffffffffff1673ffffffffffffffffffffffffffffffffffffffff163373ffffffffffffffffffffffffffffffffffffffff16146200022d57600080fd5b600073ffffffffffffffffffffffffffffffffffffffff168173ffffffffffffffffffffffffffffffffffffffff1614620002a357806000806101000a81548173ffffffffffffffffffffffffffffffffffffffff021916908373ffffffffffffffffffffffffffffffffffffffff1602179055505b50565b600160009054906101000a900473ffffffffffffffffffffffffffffffffffffffff1681565b60008054906101000a900473ffffffffffffffffffffffffffffffffffffffff1673ffffffffffffffffffffffffffffffffffffffff163373ffffffffffffffffffffffffffffffffffffffff16146200032557600080fd5b600080600260009054906101000a900473ffffffffffffffffffffffffffffffffffffffff1673ffffffffffffffffffffffffffffffffffffffff16639215d96f846040518263ffffffff1660e01b81526004016200038591906200097c565b60006040518083038186803b1580156200039e57600080fd5b505afa158015620003b3573d6000803e3d6000fd5b505050506040513d6000823e3d601f19601f82011682018060405250810190620003de91906200070a565b915091506000828286600260009054906101000a900473ffffffffffffffffffffffffffffffffffffffff16604051620004189062000622565b62000427949392919062000921565b604051809103906000f08015801562000444573d6000803e3d6000fd5b50905060008382600260009054906101000a900473ffffffffffffffffffffffffffffffffffffffff1660008054906101000a900473ffffffffffffffffffffffffffffffffffffffff166040516200049d9062000630565b620004ac9493929190620008cd565b604051809103906000f080158015620004c9573d6000803e3d6000fd5b5090508173ffffffffffffffffffffffffffffffffffffffff168173ffffffffffffffffffffffffffffffffffffffff167f87a2ae0205f28cf6777eb213e867569f69e687e4b090364233360729fb68392d866040516200052b9190620008a9565b60405180910390a3806003600087815260200190815260200160002060006101000a81548173ffffffffffffffffffffffffffffffffffffffff021916908373ffffffffffffffffffffffffffffffffffffffff160217905550600260009054906101000a900473ffffffffffffffffffffffffffffffffffffffff1673ffffffffffffffffffffffffffffffffffffffff16635f9530108683856040518463ffffffff1660e01b8152600401620005e69392919062000999565b600060405180830381600087803b1580156200060157600080fd5b505af115801562000616573d6000803e3d6000fd5b50505050505050505050565b611d048062000bc083390190565b61355a80620028c483390190565b6000620006556200064f84620009ff565b620009d6565b9050828152602081018484840111156200066e57600080fd5b6200067b84828562000adf565b509392505050565b600081359050620006948162000b8b565b92915050565b600082601f830112620006ac57600080fd5b8151620006be8482602086016200063e565b91505092915050565b600081359050620006d88162000ba5565b92915050565b600060208284031215620006f157600080fd5b6000620007018482850162000683565b91505092915050565b600080604083850312156200071e57600080fd5b600083015167ffffffffffffffff8111156200073957600080fd5b62000747858286016200069a565b925050602083015167ffffffffffffffff8111156200076557600080fd5b62000773858286016200069a565b9150509250929050565b6000602082840312156200079057600080fd5b6000620007a084828501620006c7565b91505092915050565b60008060408385031215620007bd57600080fd5b6000620007cd85828601620006c7565b9250506020620007e085828601620006c7565b9150509250929050565b620007f58162000a51565b82525050565b620008068162000a8f565b82525050565b620008178162000ab7565b82525050565b60006200082a8262000a35565b62000836818562000a40565b93506200084881856020860162000adf565b620008538162000b7a565b840191505092915050565b620008698162000a85565b82525050565b6000602082019050620008866000830184620007ea565b92915050565b6000602082019050620008a360008301846200080c565b92915050565b60006020820190508181036000830152620008c581846200081d565b905092915050565b60006080820190508181036000830152620008e981876200081d565b9050620008fa6020830186620007fb565b6200090960408301856200080c565b620009186060830184620007ea565b95945050505050565b600060808201905081810360008301526200093d81876200081d565b905081810360208301526200095381866200081d565b90506200096460408301856200085e565b620009736060830184620007ea565b95945050505050565b60006020820190506200099360008301846200085e565b92915050565b6000606082019050620009b060008301866200085e565b620009bf6020830185620007ea565b620009ce6040830184620007fb565b949350505050565b6000620009e2620009f5565b9050620009f0828262000b15565b919050565b6000604051905090565b600067ffffffffffffffff82111562000a1d5762000a1c62000b4b565b5b62000a288262000b7a565b9050602081019050919050565b600081519050919050565b600082825260208201905092915050565b600062000a5e8262000a65565b9050919050565b600073ffffffffffffffffffffffffffffffffffffffff82169050919050565b6000819050919050565b600062000a9c8262000aa3565b9050919050565b600062000ab08262000a65565b9050919050565b600062000ac48262000acb565b9050919050565b600062000ad88262000a65565b9050919050565b60005b8381101562000aff57808201518184015260208101905062000ae2565b8381111562000b0f576000848401525b50505050565b62000b208262000b7a565b810181811067ffffffffffffffff8211171562000b425762000b4162000b4b565b5b80604052505050565b7f4e487b7100000000000000000000000000000000000000000000000000000000600052604160045260246000fd5b6000601f19601f8301169050919050565b62000b968162000a51565b811462000ba257600080fd5b50565b62000bb08162000a85565b811462000bbc57600080fd5b5056fe60806040523480156200001157600080fd5b5060405162001d0438038062001d0483398181016040528101906200003791906200038f565b83838160039080519060200190620000519291906200023f565b5080600490805190602001906200006a9291906200023f565b505050620000a98162000082620000b360201b60201c565b600a620000909190620005cc565b846200009d919062000709565b620000bc60201b60201c565b505050506200095f565b60006012905090565b600073ffffffffffffffffffffffffffffffffffffffff168273ffffffffffffffffffffffffffffffffffffffff1614156200012f576040517f08c379a0000000000000000000000000000000000000000000000000000000008152600401620001269062000465565b60405180910390fd5b62000143600083836200023560201b60201c565b806002600082825462000157919062000514565b92505081905550806000808473ffffffffffffffffffffffffffffffffffffffff1673ffffffffffffffffffffffffffffffffffffffff1681526020019081526020016000206000828254620001ae919062000514565b925050819055508173ffffffffffffffffffffffffffffffffffffffff16600073ffffffffffffffffffffffffffffffffffffffff167fddf252ad1be2c89b69c2b068fc378daa952ba7f163c4a11628f55a4df523b3ef8360405162000215919062000487565b60405180910390a362000231600083836200023a60201b60201c565b5050565b505050565b505050565b8280546200024d90620007eb565b90600052602060002090601f016020900481019282620002715760008555620002bd565b82601f106200028c57805160ff1916838001178555620002bd565b82800160010185558215620002bd579182015b82811115620002bc5782518255916020019190600101906200029f565b5b509050620002cc9190620002d0565b5090565b5b80821115620002eb576000816000905550600101620002d1565b5090565b6000620003066200030084620004cd565b620004a4565b9050828152602081018484840111156200031f57600080fd5b6200032c848285620007b5565b509392505050565b60008151905062000345816200092b565b92915050565b600082601f8301126200035d57600080fd5b81516200036f848260208601620002ef565b91505092915050565b600081519050620003898162000945565b92915050565b60008060008060808587031215620003a657600080fd5b600085015167ffffffffffffffff811115620003c157600080fd5b620003cf878288016200034b565b945050602085015167ffffffffffffffff811115620003ed57600080fd5b620003fb878288016200034b565b93505060406200040e8782880162000378565b9250506060620004218782880162000334565b91505092959194509250565b60006200043c601f8362000503565b9150620004498262000902565b602082019050919050565b6200045f816200079e565b82525050565b6000602082019050818103600083015262000480816200042d565b9050919050565b60006020820190506200049e600083018462000454565b92915050565b6000620004b0620004c3565b9050620004be828262000821565b919050565b6000604051905090565b600067ffffffffffffffff821115620004eb57620004ea620008b5565b5b620004f682620008e4565b9050602081019050919050565b600082825260208201905092915050565b600062000521826200079e565b91506200052e836200079e565b9250827fffffffffffffffffffffffffffffffffffffffffffffffffffffffffffffffff0382111562000566576200056562000857565b5b828201905092915050565b6000808291508390505b6001851115620005c3578086048111156200059b576200059a62000857565b5b6001851615620005ab5780820291505b8081029050620005bb85620008f5565b94506200057b565b94509492505050565b6000620005d9826200079e565b9150620005e683620007a8565b9250620006157fffffffffffffffffffffffffffffffffffffffffffffffffffffffffffffffff84846200061d565b905092915050565b6000826200062f576001905062000702565b816200063f576000905062000702565b8160018114620006585760028114620006635762000699565b600191505062000702565b60ff84111562000678576200067762000857565b5b8360020a91508482111562000692576200069162000857565b5b5062000702565b5060208310610133831016604e8410600b8410161715620006d35782820a905083811115620006cd57620006cc62000857565b5b62000702565b620006e2848484600162000571565b92509050818404811115620006fc57620006fb62000857565b5b81810290505b9392505050565b600062000716826200079e565b915062000723836200079e565b9250817fffffffffffffffffffffffffffffffffffffffffffffffffffffffffffffffff04831182151516156200075f576200075e62000857565b5b828202905092915050565b600062000777826200077e565b9050919050565b600073ffffffffffffffffffffffffffffffffffffffff82169050919050565b6000819050919050565b600060ff82169050919050565b60005b83811015620007d5578082015181840152602081019050620007b8565b83811115620007e5576000848401525b50505050565b600060028204905060018216806200080457607f821691505b602082108114156200081b576200081a62000886565b5b50919050565b6200082c82620008e4565b810181811067ffffffffffffffff821117156200084e576200084d620008b5565b5b80604052505050565b7f4e487b7100000000000000000000000000000000000000000000000000000000600052601160045260246000fd5b7f4e487b7100000000000000000000000000000000000000000000000000000000600052602260045260246000fd5b7f4e487b7100000000000000000000000000000000000000000000000000000000600052604160045260246000fd5b6000601f19601f8301169050919050565b60008160011c9050919050565b7f45524332303a206d696e7420746f20746865207a65726f206164647265737300600082015250565b62000936816200076a565b81146200094257600080fd5b50565b62000950816200079e565b81146200095c57600080fd5b50565b611395806200096f6000396000f3fe608060405234801561001057600080fd5b50600436106100a95760003560e01c80633950935111610071578063395093511461016857806370a082311461019857806395d89b41146101c8578063a457c2d7146101e6578063a9059cbb14610216578063dd62ed3e14610246576100a9565b806306fdde03146100ae578063095ea7b3146100cc57806318160ddd146100fc57806323b872dd1461011a578063313ce5671461014a575b600080fd5b6100b6610276565b6040516100c39190610e35565b60405180910390f35b6100e660048036038101906100e19190610c83565b610308565b6040516100f39190610e1a565b60405180910390f35b610104610326565b6040516101119190610f37565b60405180910390f35b610134600480360381019061012f9190610c34565b610330565b6040516101419190610e1a565b60405180910390f35b610152610428565b60405161015f9190610f52565b60405180910390f35b610182600480360381019061017d9190610c83565b610431565b60405161018f9190610e1a565b60405180910390f35b6101b260048036038101906101ad9190610bcf565b6104dd565b6040516101bf9190610f37565b60405180910390f35b6101d0610525565b6040516101dd9190610e35565b60405180910390f35b61020060048036038101906101fb9190610c83565b6105b7565b60405161020d9190610e1a565b60405180910390f35b610230600480360381019061022b9190610c83565b6106a2565b60405161023d9190610e1a565b60405180910390f35b610260600480360381019061025b9190610bf8565b6106c0565b60405161026d9190610f37565b60405180910390f35b60606003805461028590611067565b80601f01602080910402602001604051908101604052809291908181526020018280546102b190611067565b80156102fe5780601f106102d3576101008083540402835291602001916102fe565b820191906000526020600020905b8154815290600101906020018083116102e157829003601f168201915b5050505050905090565b600061031c610315610747565b848461074f565b6001905092915050565b6000600254905090565b600061033d84848461091a565b6000600160008673ffffffffffffffffffffffffffffffffffffffff1673ffffffffffffffffffffffffffffffffffffffff1681526020019081526020016000206000610388610747565b73ffffffffffffffffffffffffffffffffffffffff1673ffffffffffffffffffffffffffffffffffffffff16815260200190815260200160002054905082811015610408576040517f08c379a00000000000000000000000000000000000000000000000000000000081526004016103ff90610eb7565b60405180910390fd5b61041c85610414610747565b85840361074f565b60019150509392505050565b60006012905090565b60006104d361043e610747565b84846001600061044c610747565b73ffffffffffffffffffffffffffffffffffffffff1673ffffffffffffffffffffffffffffffffffffffff16815260200190815260200160002060008873ffffffffffffffffffffffffffffffffffffffff1673ffffffffffffffffffffffffffffffffffffffff168152602001908152602001600020546104ce9190610f89565b61074f565b6001905092915050565b60008060008373ffffffffffffffffffffffffffffffffffffffff1673ffffffffffffffffffffffffffffffffffffffff168152602001908152602001600020549050919050565b60606004805461053490611067565b80601f016020809104026020016040519081016040528092919081815260200182805461056090611067565b80156105ad5780601f10610582576101008083540402835291602001916105ad565b820191906000526020600020905b81548152906001019060200180831161059057829003601f168201915b5050505050905090565b600080600160006105c6610747565b73ffffffffffffffffffffffffffffffffffffffff1673ffffffffffffffffffffffffffffffffffffffff16815260200190815260200160002060008573ffffffffffffffffffffffffffffffffffffffff1673ffffffffffffffffffffffffffffffffffffffff16815260200190815260200160002054905082811015610683576040517f08c379a000000000000000000000000000000000000000000000000000000000815260040161067a90610f17565b60405180910390fd5b61069761068e610747565b8585840361074f565b600191505092915050565b60006106b66106af610747565b848461091a565b6001905092915050565b6000600160008473ffffffffffffffffffffffffffffffffffffffff1673ffffffffffffffffffffffffffffffffffffffff16815260200190815260200160002060008373ffffffffffffffffffffffffffffffffffffffff1673ffffffffffffffffffffffffffffffffffffffff16815260200190815260200160002054905092915050565b600033905090565b600073ffffffffffffffffffffffffffffffffffffffff168373ffffffffffffffffffffffffffffffffffffffff1614156107bf576040517f08c379a00000000000000000000000000000000000000000000000000000000081526004016107b690610ef7565b60405180910390fd5b600073ffffffffffffffffffffffffffffffffffffffff168273ffffffffffffffffffffffffffffffffffffffff16141561082f576040517f08c379a000000000000000000000000000000000000000000000000000000000815260040161082690610e77565b60405180910390fd5b80600160008573ffffffffffffffffffffffffffffffffffffffff1673ffffffffffffffffffffffffffffffffffffffff16815260200190815260200160002060008473ffffffffffffffffffffffffffffffffffffffff1673ffffffffffffffffffffffffffffffffffffffff168152602001908152602001600020819055508173ffffffffffffffffffffffffffffffffffffffff168373ffffffffffffffffffffffffffffffffffffffff167f8c5be1e5ebec7d5bd14f71427d1e84f3dd0314c0f7b2291e5b200ac8c7c3b9258360405161090d9190610f37565b60405180910390a3505050565b600073ffffffffffffffffffffffffffffffffffffffff168373ffffffffffffffffffffffffffffffffffffffff16141561098a576040517f08c379a000000000000000000000000000000000000000000000000000000000815260040161098190610ed7565b60405180910390fd5b600073ffffffffffffffffffffffffffffffffffffffff168273ffffffffffffffffffffffffffffffffffffffff1614156109fa576040517f08c379a00000000000000000000000000000000000000000000000000000000081526004016109f190610e57565b60405180910390fd5b610a05838383610b9b565b60008060008573ffffffffffffffffffffffffffffffffffffffff1673ffffffffffffffffffffffffffffffffffffffff16815260200190815260200160002054905081811015610a8b576040517f08c379a0000000000000000000000000000000000000000000000000000000008152600401610a8290610e97565b60405180910390fd5b8181036000808673ffffffffffffffffffffffffffffffffffffffff1673ffffffffffffffffffffffffffffffffffffffff16815260200190815260200160002081905550816000808573ffffffffffffffffffffffffffffffffffffffff1673ffffffffffffffffffffffffffffffffffffffff1681526020019081526020016000206000828254610b1e9190610f89565b925050819055508273ffffffffffffffffffffffffffffffffffffffff168473ffffffffffffffffffffffffffffffffffffffff167fddf252ad1be2c89b69c2b068fc378daa952ba7f163c4a11628f55a4df523b3ef84604051610b829190610f37565b60405180910390a3610b95848484610ba0565b50505050565b505050565b505050565b600081359050610bb481611331565b92915050565b600081359050610bc981611348565b92915050565b600060208284031215610be157600080fd5b6000610bef84828501610ba5565b91505092915050565b60008060408385031215610c0b57600080fd5b6000610c1985828601610ba5565b9250506020610c2a85828601610ba5565b9150509250929050565b600080600060608486031215610c4957600080fd5b6000610c5786828701610ba5565b9350506020610c6886828701610ba5565b9250506040610c7986828701610bba565b9150509250925092565b60008060408385031215610c9657600080fd5b6000610ca485828601610ba5565b9250506020610cb585828601610bba565b9150509250929050565b610cc881610ff1565b82525050565b6000610cd982610f6d565b610ce38185610f78565b9350610cf3818560208601611034565b610cfc816110f7565b840191505092915050565b6000610d14602383610f78565b9150610d1f82611108565b604082019050919050565b6000610d37602283610f78565b9150610d4282611157565b604082019050919050565b6000610d5a602683610f78565b9150610d65826111a6565b604082019050919050565b6000610d7d602883610f78565b9150610d88826111f5565b604082019050919050565b6000610da0602583610f78565b9150610dab82611244565b604082019050919050565b6000610dc3602483610f78565b9150610dce82611293565b604082019050919050565b6000610de6602583610f78565b9150610df1826112e2565b604082019050919050565b610e058161101d565b82525050565b610e1481611027565b82525050565b6000602082019050610e2f6000830184610cbf565b92915050565b60006020820190508181036000830152610e4f8184610cce565b905092915050565b60006020820190508181036000830152610e7081610d07565b9050919050565b60006020820190508181036000830152610e9081610d2a565b9050919050565b60006020820190508181036000830152610eb081610d4d565b9050919050565b60006020820190508181036000830152610ed081610d70565b9050919050565b60006020820190508181036000830152610ef081610d93565b9050919050565b60006020820190508181036000830152610f1081610db6565b9050919050565b60006020820190508181036000830152610f3081610dd9565b9050919050565b6000602082019050610f4c6000830184610dfc565b92915050565b6000602082019050610f676000830184610e0b565b92915050565b600081519050919050565b600082825260208201905092915050565b6000610f948261101d565b9150610f9f8361101d565b9250827fffffffffffffffffffffffffffffffffffffffffffffffffffffffffffffffff03821115610fd457610fd3611099565b5b828201905092915050565b6000610fea82610ffd565b9050919050565b60008115159050919050565b600073ffffffffffffffffffffffffffffffffffffffff82169050919050565b6000819050919050565b600060ff82169050919050565b60005b83811015611052578082015181840152602081019050611037565b83811115611061576000848401525b50505050565b6000600282049050600182168061107f57607f821691505b60208210811415611093576110926110c8565b5b50919050565b7f4e487b7100000000000000000000000000000000000000000000000000000000600052601160045260246000fd5b7f4e487b7100000000000000000000000000000000000000000000000000000000600052602260045260246000fd5b6000601f19601f8301169050919050565b7f45524332303a207472616e7366657220746f20746865207a65726f206164647260008201527f6573730000000000000000000000000000000000000000000000000000000000602082015250565b7f45524332303a20617070726f766520746f20746865207a65726f20616464726560008201527f7373000000000000000000000000000000000000000000000000000000000000602082015250565b7f45524332303a207472616e7366657220616d6f756e742065786365656473206260008201527f616c616e63650000000000000000000000000000000000000000000000000000602082015250565b7f45524332303a207472616e7366657220616d6f756e742065786365656473206160008201527f6c6c6f77616e6365000000000000000000000000000000000000000000000000602082015250565b7f45524332303a207472616e736665722066726f6d20746865207a65726f20616460008201527f6472657373000000000000000000000000000000000000000000000000000000602082015250565b7f45524332303a20617070726f76652066726f6d20746865207a65726f2061646460008201527f7265737300000000000000000000000000000000000000000000000000000000602082015250565b7f45524332303a2064656372656173656420616c6c6f77616e63652062656c6f7760008201527f207a65726f000000000000000000000000000000000000000000000000000000602082015250565b61133a81610fdf565b811461134557600080fd5b50565b6113518161101d565b811461135c57600080fd5b5056fea2646970667358221220803b65279b0b99b4cd4975d10e0ed53cdf622d5e45acf757e61245c7c8bec42a64736f6c6343000804003360806040523480156200001157600080fd5b506040516200355a3803806200355a833981810160405281019062000037919062000283565b83600190805190602001906200004f9291906200011c565b50826000806101000a81548173ffffffffffffffffffffffffffffffffffffffff021916908373ffffffffffffffffffffffffffffffffffffffff16021790555081600760006101000a81548173ffffffffffffffffffffffffffffffffffffffff021916908373ffffffffffffffffffffffffffffffffffffffff16021790555080600360006101000a81548173ffffffffffffffffffffffffffffffffffffffff021916908373ffffffffffffffffffffffffffffffffffffffff1602179055505050505062000522565b8280546200012a90620003f9565b90600052602060002090601f0160209004810192826200014e57600085556200019a565b82601f106200016957805160ff19168380011785556200019a565b828001600101855582156200019a579182015b82811115620001995782518255916020019190600101906200017c565b5b509050620001a99190620001ad565b5090565b5b80821115620001c8576000816000905550600101620001ae565b5090565b6000620001e3620001dd8462000331565b62000308565b905082815260208101848484011115620001fc57600080fd5b62000209848285620003c3565b509392505050565b6000815190506200022281620004d4565b92915050565b6000815190506200023981620004ee565b92915050565b600081519050620002508162000508565b92915050565b600082601f8301126200026857600080fd5b81516200027a848260208601620001cc565b91505092915050565b600080600080608085870312156200029a57600080fd5b600085015167ffffffffffffffff811115620002b557600080fd5b620002c38782880162000256565b9450506020620002d68782880162000228565b9350506040620002e9878288016200023f565b9250506060620002fc8782880162000211565b91505092959194509250565b60006200031462000327565b90506200032282826200042f565b919050565b6000604051905090565b600067ffffffffffffffff8211156200034f576200034e62000494565b5b6200035a82620004c3565b9050602081019050919050565b60006200037482620003a3565b9050919050565b6000620003888262000367565b9050919050565b60006200039c8262000367565b9050919050565b600073ffffffffffffffffffffffffffffffffffffffff82169050919050565b60005b83811015620003e3578082015181840152602081019050620003c6565b83811115620003f3576000848401525b50505050565b600060028204905060018216806200041257607f821691505b6020821081141562000429576200042862000465565b5b50919050565b6200043a82620004c3565b810181811067ffffffffffffffff821117156200045c576200045b62000494565b5b80604052505050565b7f4e487b7100000000000000000000000000000000000000000000000000000000600052602260045260246000fd5b7f4e487b7100000000000000000000000000000000000000000000000000000000600052604160045260246000fd5b6000601f19601f8301169050919050565b620004df8162000367565b8114620004eb57600080fd5b50565b620004f9816200037b565b81146200050557600080fd5b50565b62000513816200038f565b81146200051f57600080fd5b50565b61302880620005326000396000f3fe608060405234801561001057600080fd5b50600436106101005760003560e01c8063561f4a6a116100975780637acb7757116100665780637acb7757146102c1578063c9d27afe146102dd578063e4dd26cf146102f9578063e9a4b6911461031557610100565b8063561f4a6a146102395780635c39fcc114610255578063688e1d3114610273578063698839fd1461029157610100565b806317eb2f09116100d357806317eb2f091461019f578063379607f5146101cf5780633eda5200146101eb578063528f9d551461021b57610100565b806306fdde03146101055780630f9e4fb51461012357806310b1939f1461013f578063150b7a021461016f575b600080fd5b61010d610331565b60405161011a91906128e3565b60405180910390f35b61013d600480360381019061013891906121dd565b6103bf565b005b6101596004803603810190610154919061236c565b610738565b6040516101669190612870565b60405180910390f35b6101896004803603810190610184919061215d565b6108dc565b60405161019691906128ad565b60405180910390f35b6101b960048036038101906101b4919061236c565b6108f1565b6040516101c69190612892565b60405180910390f35b6101e960048036038101906101e4919061236c565b610941565b005b6102056004803603810190610200919061236c565b610af3565b60405161021291906129a5565b60405180910390f35b610223610df0565b60405161023091906129c7565b60405180910390f35b610253600480360381019061024e91906123be565b610df6565b005b61025d610f22565b60405161026a91906127cc565b60405180910390f35b61027b610f48565b60405161028891906128c8565b60405180910390f35b6102ab60048036038101906102a6919061210b565b610f6c565b6040516102b891906129c7565b60405180910390f35b6102db60048036038101906102d691906123be565b610fb5565b005b6102f760048036038101906102f291906123fa565b611220565b005b610313600480360381019061030e9190612242565b611503565b005b61032f600480360381019061032a91906122d9565b611840565b005b6001805461033e90612d0a565b80601f016020809104026020016040519081016040528092919081815260200182805461036a90612d0a565b80156103b75780601f1061038c576101008083540402835291602001916103b7565b820191906000526020600020905b81548152906001019060200180831161039a57829003601f168201915b505050505081565b60001515600460000160008473ffffffffffffffffffffffffffffffffffffffff1673ffffffffffffffffffffffffffffffffffffffff168152602001908152602001600020600083815260200190815260200160002060009054906101000a900460ff16151514610466576040517f08c379a000000000000000000000000000000000000000000000000000000000815260040161045d90612965565b60405180910390fd5b6000811461061b5760008290503073ffffffffffffffffffffffffffffffffffffffff168173ffffffffffffffffffffffffffffffffffffffff16636352211e846040518263ffffffff1660e01b81526004016104c391906129c7565b60206040518083038186803b1580156104db57600080fd5b505afa1580156104ef573d6000803e3d6000fd5b505050506040513d601f19601f820116820180604052508101906105139190612134565b73ffffffffffffffffffffffffffffffffffffffff1614610569576040517f08c379a000000000000000000000000000000000000000000000000000000000815260040161056090612985565b60405180910390fd5b600460010160405180604001604052808573ffffffffffffffffffffffffffffffffffffffff16815260200184815250908060018154018082558091505060019003906000526020600020906002020160009091909190915060008201518160000160006101000a81548173ffffffffffffffffffffffffffffffffffffffff021916908373ffffffffffffffffffffffffffffffffffffffff160217905550602082015181600101555050506106c8565b600460020160405180604001604052808473ffffffffffffffffffffffffffffffffffffffff16815260200183815250908060018154018082558091505060019003906000526020600020906002020160009091909190915060008201518160000160006101000a81548173ffffffffffffffffffffffffffffffffffffffff021916908373ffffffffffffffffffffffffffffffffffffffff1602179055506020820151816001015550505b6001600460000160008473ffffffffffffffffffffffffffffffffffffffff1673ffffffffffffffffffffffffffffffffffffffff168152602001908152602001600020600083815260200190815260200160002060006101000a81548160ff0219169083151502179055505050565b60606000821415610805576004600101805480602002602001604051908101604052809291908181526020016000905b828210156107fa57838290600052602060002090600202016040518060400160405290816000820160009054906101000a900473ffffffffffffffffffffffffffffffffffffffff1673ffffffffffffffffffffffffffffffffffffffff1673ffffffffffffffffffffffffffffffffffffffff16815260200160018201548152505081526020019060010190610768565b5050505090506108d7565b60018214156108d0576004600201805480602002602001604051908101604052809291908181526020016000905b828210156108c557838290600052602060002090600202016040518060400160405290816000820160009054906101000a900473ffffffffffffffffffffffffffffffffffffffff1673ffffffffffffffffffffffffffffffffffffffff1673ffffffffffffffffffffffffffffffffffffffff16815260200160018201548152505081526020019060010190610833565b5050505090506108d7565b6060809150505b919050565b600063150b7a0260e01b905095945050505050565b6108f9611d60565b60405180604001604052806008600085815260200190815260200160002060060154815260200160086000858152602001908152602001600020600701548152509050919050565b6000600a60003373ffffffffffffffffffffffffffffffffffffffff1673ffffffffffffffffffffffffffffffffffffffff16815260200190815260200160002054905081811015610a405760008054906101000a900473ffffffffffffffffffffffffffffffffffffffff1673ffffffffffffffffffffffffffffffffffffffff1663a9059cbb33836040518363ffffffff1660e01b81526004016109e8929190612847565b602060405180830381600087803b158015610a0257600080fd5b505af1158015610a16573d6000803e3d6000fd5b505050506040513d601f19601f82011682018060405250810190610a3a9190612219565b50610aef565b60008054906101000a900473ffffffffffffffffffffffffffffffffffffffff1673ffffffffffffffffffffffffffffffffffffffff1663a9059cbb33846040518363ffffffff1660e01b8152600401610a9b929190612847565b602060405180830381600087803b158015610ab557600080fd5b505af1158015610ac9573d6000803e3d6000fd5b505050506040513d601f19601f82011682018060405250810190610aed9190612219565b505b5050565b610afb611d82565b60086000838152602001908152602001600020604051806101000160405290816000820160009054906101000a900460ff166002811115610b65577f4e487b7100000000000000000000000000000000000000000000000000000000600052602160045260246000fd5b6002811115610b9d577f4e487b7100000000000000000000000000000000000000000000000000000000600052602160045260246000fd5b8152602001600182018054610bb190612d0a565b80601f0160208091040260200160405190810160405280929190818152602001828054610bdd90612d0a565b8015610c2a5780601f10610bff57610100808354040283529160200191610c2a565b820191906000526020600020905b815481529060010190602001808311610c0d57829003601f168201915b50505050508152602001600282018054610c4390612d0a565b80601f0160208091040260200160405190810160405280929190818152602001828054610c6f90612d0a565b8015610cbc5780601f10610c9157610100808354040283529160200191610cbc565b820191906000526020600020905b815481529060010190602001808311610c9f57829003601f168201915b50505050508152602001600382018054610cd590612d0a565b80601f0160208091040260200160405190810160405280929190818152602001828054610d0190612d0a565b8015610d4e5780601f10610d2357610100808354040283529160200191610d4e565b820191906000526020600020905b815481529060010190602001808311610d3157829003601f168201915b50505050508152602001600482016040518060400160405290816000820160009054906101000a900473ffffffffffffffffffffffffffffffffffffffff1673ffffffffffffffffffffffffffffffffffffffff1673ffffffffffffffffffffffffffffffffffffffff168152602001600182015481525050815260200160068201548152602001600782015481526020016008820154815250509050919050565b60025481565b60008054906101000a900473ffffffffffffffffffffffffffffffffffffffff1673ffffffffffffffffffffffffffffffffffffffff166323b872dd600760009054906101000a900473ffffffffffffffffffffffffffffffffffffffff1630856040518463ffffffff1660e01b8152600401610e7593929190612810565b602060405180830381600087803b158015610e8f57600080fd5b505af1158015610ea3573d6000803e3d6000fd5b505050506040513d601f19601f82011682018060405250810190610ec79190612219565b5081600a60008373ffffffffffffffffffffffffffffffffffffffff1673ffffffffffffffffffffffffffffffffffffffff1681526020019081526020016000206000828254610f179190612b18565b925050819055505050565b600360009054906101000a900473ffffffffffffffffffffffffffffffffffffffff1681565b60008054906101000a900473ffffffffffffffffffffffffffffffffffffffff1681565b6000600a60008373ffffffffffffffffffffffffffffffffffffffff1673ffffffffffffffffffffffffffffffffffffffff168152602001908152602001600020549050919050565b8160008054906101000a900473ffffffffffffffffffffffffffffffffffffffff1673ffffffffffffffffffffffffffffffffffffffff1663dd62ed3e83306040518363ffffffff1660e01b81526004016110119291906127e7565b60206040518083038186803b15801561102957600080fd5b505afa15801561103d573d6000803e3d6000fd5b505050506040513d601f19601f820116820180604052508101906110619190612395565b10156111165760008054906101000a900473ffffffffffffffffffffffffffffffffffffffff1673ffffffffffffffffffffffffffffffffffffffff1663095ea7b330846040518363ffffffff1660e01b81526004016110c2929190612847565b602060405180830381600087803b1580156110dc57600080fd5b505af11580156110f0573d6000803e3d6000fd5b505050506040513d601f19601f820116820180604052508101906111149190612219565b505b60008054906101000a900473ffffffffffffffffffffffffffffffffffffffff1673ffffffffffffffffffffffffffffffffffffffff166323b872dd3330856040518463ffffffff1660e01b815260040161117393929190612810565b602060405180830381600087803b15801561118d57600080fd5b505af11580156111a1573d6000803e3d6000fd5b505050506040513d601f19601f820116820180604052508101906111c59190612219565b5081600a60008373ffffffffffffffffffffffffffffffffffffffff1673ffffffffffffffffffffffffffffffffffffffff16815260200190815260200160002060008282546112159190612b18565b925050819055505050565b6000600a60003373ffffffffffffffffffffffffffffffffffffffff1673ffffffffffffffffffffffffffffffffffffffff1681526020019081526020016000205414156112a3576040517f08c379a000000000000000000000000000000000000000000000000000000000815260040161129a90612905565b60405180910390fd5b600015156009600084815260200190815260200160002060003373ffffffffffffffffffffffffffffffffffffffff1673ffffffffffffffffffffffffffffffffffffffff16815260200190815260200160002060009054906101000a900460ff16151514611347576040517f08c379a000000000000000000000000000000000000000000000000000000000815260040161133e90612925565b60405180910390fd5b6001151581151514156113c557600a60003373ffffffffffffffffffffffffffffffffffffffff1673ffffffffffffffffffffffffffffffffffffffff168152602001908152602001600020546008600084815260200190815260200160002060060160008282546113b99190612b18565b92505081905550611432565b600a60003373ffffffffffffffffffffffffffffffffffffffff1673ffffffffffffffffffffffffffffffffffffffff1681526020019081526020016000205460086000848152602001908152602001600020600701600082825461142a9190612b18565b925050819055505b60006008600084815260200190815260200160002060070154600860008581526020019081526020016000206006015461146c9190612b18565b905060016009600085815260200190815260200160002060003373ffffffffffffffffffffffffffffffffffffffff1673ffffffffffffffffffffffffffffffffffffffff16815260200190815260200160002060006101000a81548160ff021916908315150217905550600860008481526020019081526020016000206008015481106114fe576114fd83611b02565b5b505050565b6000600a60003373ffffffffffffffffffffffffffffffffffffffff1673ffffffffffffffffffffffffffffffffffffffff168152602001908152602001600020541415611586576040517f08c379a000000000000000000000000000000000000000000000000000000000815260040161157d90612945565b60405180910390fd5b6001600260008282546115999190612b18565b925050819055506000604051806101000160405280600060028111156115e8577f4e487b7100000000000000000000000000000000000000000000000000000000600052602160045260246000fd5b81526020018581526020018481526020018381526020016040518060400160405280600073ffffffffffffffffffffffffffffffffffffffff168152602001600081525081526020016000815260200160008152602001600460008054906101000a900473ffffffffffffffffffffffffffffffffffffffff1673ffffffffffffffffffffffffffffffffffffffff166318160ddd6040518163ffffffff1660e01b815260040160206040518083038186803b1580156116a757600080fd5b505afa1580156116bb573d6000803e3d6000fd5b505050506040513d601f19601f820116820180604052508101906116df9190612395565b60036116eb9190612b9f565b6116f59190612b6e565b81525090508060086000600254815260200190815260200160002060008201518160000160006101000a81548160ff02191690836002811115611761577f4e487b7100000000000000000000000000000000000000000000000000000000600052602160045260246000fd5b02179055506020820151816001019080519060200190611782929190611e05565b50604082015181600201908051906020019061179f929190611e05565b5060608201518160030190805190602001906117bc929190611e8b565b5060808201518160040160008201518160000160006101000a81548173ffffffffffffffffffffffffffffffffffffffff021916908373ffffffffffffffffffffffffffffffffffffffff16021790555060208201518160010155505060a0820151816006015560c0820151816007015560e0820151816008015590505050505050565b6001600260008282546118539190612b18565b925050819055506060600060405180604001604052808573ffffffffffffffffffffffffffffffffffffffff1681526020018481525090506000604051806101000160405280600060028111156118d3577f4e487b7100000000000000000000000000000000000000000000000000000000600052602160045260246000fd5b81526020018881526020018781526020018481526020018381526020016000815260200160008152602001600460008054906101000a900473ffffffffffffffffffffffffffffffffffffffff1673ffffffffffffffffffffffffffffffffffffffff166318160ddd6040518163ffffffff1660e01b815260040160206040518083038186803b15801561196657600080fd5b505afa15801561197a573d6000803e3d6000fd5b505050506040513d601f19601f8201168201806040525081019061199e9190612395565b60036119aa9190612b9f565b6119b49190612b6e565b81525090508060086000600254815260200190815260200160002060008201518160000160006101000a81548160ff02191690836002811115611a20577f4e487b7100000000000000000000000000000000000000000000000000000000600052602160045260246000fd5b02179055506020820151816001019080519060200190611a41929190611e05565b506040820151816002019080519060200190611a5e929190611e05565b506060820151816003019080519060200190611a7b929190611e8b565b5060808201518160040160008201518160000160006101000a81548173ffffffffffffffffffffffffffffffffffffffff021916908373ffffffffffffffffffffffffffffffffffffffff16021790555060208201518160010155505060a0820151816006015560c0820151816007015560e0820151816008015590505050505050505050565b600860008281526020019081526020016000206007015460086000838152602001908152602001600020600601541115611cf75760016008600083815260200190815260200160002060000160006101000a81548160ff02191690836002811115611b96577f4e487b7100000000000000000000000000000000000000000000000000000000600052602160045260246000fd5b0217905550600073ffffffffffffffffffffffffffffffffffffffff166008600083815260200190815260200160002060040160000160009054906101000a900473ffffffffffffffffffffffffffffffffffffffff1673ffffffffffffffffffffffffffffffffffffffff1614611cf25760006008600083815260200190815260200160002060040160000160009054906101000a900473ffffffffffffffffffffffffffffffffffffffff1690508073ffffffffffffffffffffffffffffffffffffffff166323b872dd30600360009054906101000a900473ffffffffffffffffffffffffffffffffffffffff1660086000878152602001908152602001600020600401600101546040518463ffffffff1660e01b8152600401611cbe93929190612810565b600060405180830381600087803b158015611cd857600080fd5b505af1158015611cec573d6000803e3d6000fd5b50505050505b611d5d565b60026008600083815260200190815260200160002060000160006101000a81548160ff02191690836002811115611d57577f4e487b7100000000000000000000000000000000000000000000000000000000600052602160045260246000fd5b02179055505b50565b6040518060400160405280600290602082028036833780820191505090505090565b60405180610100016040528060006002811115611dc8577f4e487b7100000000000000000000000000000000000000000000000000000000600052602160045260246000fd5b8152602001606081526020016060815260200160608152602001611dea611f11565b81526020016000815260200160008152602001600081525090565b828054611e1190612d0a565b90600052602060002090601f016020900481019282611e335760008555611e7a565b82601f10611e4c57805160ff1916838001178555611e7a565b82800160010185558215611e7a579182015b82811115611e79578251825591602001919060010190611e5e565b5b509050611e879190611f41565b5090565b828054611e9790612d0a565b90600052602060002090601f016020900481019282611eb95760008555611f00565b82601f10611ed257805160ff1916838001178555611f00565b82800160010185558215611f00579182015b82811115611eff578251825591602001919060010190611ee4565b5b509050611f0d9190611f41565b5090565b6040518060400160405280600073ffffffffffffffffffffffffffffffffffffffff168152602001600081525090565b5b80821115611f5a576000816000905550600101611f42565b5090565b6000611f71611f6c84612a07565b6129e2565b905082815260208101848484011115611f8957600080fd5b611f94848285612cc8565b509392505050565b6000611faf611faa84612a38565b6129e2565b905082815260208101848484011115611fc757600080fd5b611fd2848285612cc8565b509392505050565b600081359050611fe981612f96565b92915050565b600081519050611ffe81612f96565b92915050565b60008135905061201381612fad565b92915050565b60008151905061202881612fad565b92915050565b60008083601f84011261204057600080fd5b8235905067ffffffffffffffff81111561205957600080fd5b60208301915083600182028301111561207157600080fd5b9250929050565b600082601f83011261208957600080fd5b8135612099848260208601611f5e565b91505092915050565b6000813590506120b181612fc4565b92915050565b600082601f8301126120c857600080fd5b81356120d8848260208601611f9c565b91505092915050565b6000813590506120f081612fdb565b92915050565b60008151905061210581612fdb565b92915050565b60006020828403121561211d57600080fd5b600061212b84828501611fda565b91505092915050565b60006020828403121561214657600080fd5b600061215484828501611fef565b91505092915050565b60008060008060006080868803121561217557600080fd5b600061218388828901611fda565b955050602061219488828901611fda565b94505060406121a5888289016120e1565b935050606086013567ffffffffffffffff8111156121c257600080fd5b6121ce8882890161202e565b92509250509295509295909350565b600080604083850312156121f057600080fd5b60006121fe85828601611fda565b925050602061220f858286016120e1565b9150509250929050565b60006020828403121561222b57600080fd5b600061223984828501612019565b91505092915050565b60008060006060848603121561225757600080fd5b600084013567ffffffffffffffff81111561227157600080fd5b61227d868287016120b7565b935050602084013567ffffffffffffffff81111561229a57600080fd5b6122a6868287016120b7565b925050604084013567ffffffffffffffff8111156122c357600080fd5b6122cf86828701612078565b9150509250925092565b600080600080608085870312156122ef57600080fd5b600085013567ffffffffffffffff81111561230957600080fd5b612315878288016120b7565b945050602085013567ffffffffffffffff81111561233257600080fd5b61233e878288016120b7565b935050604061234f878288016120a2565b9250506060612360878288016120e1565b91505092959194509250565b60006020828403121561237e57600080fd5b600061238c848285016120e1565b91505092915050565b6000602082840312156123a757600080fd5b60006123b5848285016120f6565b91505092915050565b600080604083850312156123d157600080fd5b60006123df858286016120e1565b92505060206123f085828601611fda565b9150509250929050565b6000806040838503121561240d57600080fd5b600061241b858286016120e1565b925050602061242c85828601612004565b9150509250929050565b600061244283836126c0565b60408301905092915050565b600061245a83836127ae565b60208301905092915050565b61246f81612bf9565b82525050565b61247e81612bf9565b82525050565b600061248f82612a83565b6124998185612ac9565b93506124a483612a69565b8060005b838110156124d55781516124bc8882612436565b97506124c783612aaf565b9250506001810190506124a8565b5085935050505092915050565b6124eb81612a8e565b6124f58184612ada565b925061250082612a79565b8060005b83811015612531578151612518878261244e565b965061252383612abc565b925050600181019050612504565b505050505050565b61254281612c17565b82525050565b600061255382612a99565b61255d8185612ae5565b935061256d818560208601612cd7565b61257681612e58565b840191505092915050565b61258a81612c92565b82525050565b61259981612cb6565b82525050565b60006125aa82612aa4565b6125b48185612af6565b93506125c4818560208601612cd7565b6125cd81612e58565b840191505092915050565b60006125e382612aa4565b6125ed8185612b07565b93506125fd818560208601612cd7565b61260681612e58565b840191505092915050565b600061261e602b83612b07565b915061262982612e69565b604082019050919050565b6000612641601b83612b07565b915061264c82612eb8565b602082019050919050565b6000612664603c83612b07565b915061266f82612ee1565b604082019050919050565b6000612687601c83612b07565b915061269282612f30565b602082019050919050565b60006126aa601783612b07565b91506126b582612f59565b602082019050919050565b6040820160008201516126d66000850182612466565b5060208201516126e960208501826127ae565b50505050565b6000610120830160008301516127086000860182612590565b5060208301518482036020860152612720828261259f565b9150506040830151848203604086015261273a828261259f565b915050606083015184820360608601526127548282612548565b915050608083015161276960808601826126c0565b5060a083015161277c60c08601826127ae565b5060c083015161278f60e08601826127ae565b5060e08301516127a36101008601826127ae565b508091505092915050565b6127b781612c88565b82525050565b6127c681612c88565b82525050565b60006020820190506127e16000830184612475565b92915050565b60006040820190506127fc6000830185612475565b6128096020830184612475565b9392505050565b60006060820190506128256000830186612475565b6128326020830185612475565b61283f60408301846127bd565b949350505050565b600060408201905061285c6000830185612475565b61286960208301846127bd565b9392505050565b6000602082019050818103600083015261288a8184612484565b905092915050565b60006040820190506128a760008301846124e2565b92915050565b60006020820190506128c26000830184612539565b92915050565b60006020820190506128dd6000830184612581565b92915050565b600060208201905081810360008301526128fd81846125d8565b905092915050565b6000602082019050818103600083015261291e81612611565b9050919050565b6000602082019050818103600083015261293e81612634565b9050919050565b6000602082019050818103600083015261295e81612657565b9050919050565b6000602082019050818103600083015261297e8161267a565b9050919050565b6000602082019050818103600083015261299e8161269d565b9050919050565b600060208201905081810360008301526129bf81846126ef565b905092915050565b60006020820190506129dc60008301846127bd565b92915050565b60006129ec6129fd565b90506129f88282612d3c565b919050565b6000604051905090565b600067ffffffffffffffff821115612a2257612a21612e29565b5b612a2b82612e58565b9050602081019050919050565b600067ffffffffffffffff821115612a5357612a52612e29565b5b612a5c82612e58565b9050602081019050919050565b6000819050602082019050919050565b6000819050919050565b600081519050919050565b600060029050919050565b600081519050919050565b600081519050919050565b6000602082019050919050565b6000602082019050919050565b600082825260208201905092915050565b600081905092915050565b600082825260208201905092915050565b600082825260208201905092915050565b600082825260208201905092915050565b6000612b2382612c88565b9150612b2e83612c88565b9250827fffffffffffffffffffffffffffffffffffffffffffffffffffffffffffffffff03821115612b6357612b62612d6d565b5b828201905092915050565b6000612b7982612c88565b9150612b8483612c88565b925082612b9457612b93612d9c565b5b828204905092915050565b6000612baa82612c88565b9150612bb583612c88565b9250817fffffffffffffffffffffffffffffffffffffffffffffffffffffffffffffffff0483118215151615612bee57612bed612d6d565b5b828202905092915050565b6000612c0482612c68565b9050919050565b60008115159050919050565b60007fffffffff0000000000000000000000000000000000000000000000000000000082169050919050565b6000612c4e82612bf9565b9050919050565b6000819050612c6382612f82565b919050565b600073ffffffffffffffffffffffffffffffffffffffff82169050919050565b6000819050919050565b6000612c9d82612ca4565b9050919050565b6000612caf82612c68565b9050919050565b6000612cc182612c55565b9050919050565b82818337600083830152505050565b60005b83811015612cf5578082015181840152602081019050612cda565b83811115612d04576000848401525b50505050565b60006002820490506001821680612d2257607f821691505b60208210811415612d3657612d35612dfa565b5b50919050565b612d4582612e58565b810181811067ffffffffffffffff82111715612d6457612d63612e29565b5b80604052505050565b7f4e487b7100000000000000000000000000000000000000000000000000000000600052601160045260246000fd5b7f4e487b7100000000000000000000000000000000000000000000000000000000600052601260045260246000fd5b7f4e487b7100000000000000000000000000000000000000000000000000000000600052602160045260246000fd5b7f4e487b7100000000000000000000000000000000000000000000000000000000600052602260045260246000fd5b7f4e487b7100000000000000000000000000000000000000000000000000000000600052604160045260246000fd5b6000601f19601f8301169050919050565b7f506c65617365207374616b6520796f757220676f7665726e616e636520746f6b60008201527f656e7320746f20766f7465000000000000000000000000000000000000000000602082015250565b7f5468697320757365722068617320616c726561647920766f7465640000000000600082015250565b7f506c65617365207374616b6520796f757220676f7665726e616e636520746f6b60008201527f656e7320746f206372656174652061206e65772070726f706f73616c00000000602082015250565b7f5468697320617373657420697320616c7265616479206c6f636b656400000000600082015250565b7f546869732061737365742069736e2774206c6f636b6564000000000000000000600082015250565b60038110612f9357612f92612dcb565b5b50565b612f9f81612bf9565b8114612faa57600080fd5b50565b612fb681612c0b565b8114612fc157600080fd5b50565b612fcd81612c43565b8114612fd857600080fd5b50565b612fe481612c88565b8114612fef57600080fd5b5056fea264697066735822122030a1fc95ad1c049f934c27326d75415845e17cceff05e9be165841a59ae8655764736f6c63430008040033a2646970667358221220e4dca616026555e78ed41f506460f5cbfa218043fb3d745c1deef286901d579264736f6c63430008040033",
  "immutableReferences": {},
  "source": "pragma solidity ^0.8.0;\nimport \"@openzeppelin/contracts/token/ERC20/IERC20.sol\";\nimport \"@openzeppelin/contracts/token/ERC721/IERC721.sol\";\nimport \"./Pool.sol\";\nimport \"./DaoToken.sol\";\nimport \"./Dao.sol\";\n\ncontract Factory {\n\n    address public initiator;  // Offchain initiator\n    address public owner;  // Will allow to setup offchain initiator\n    Pool public pool;\n    mapping(uint => Dao) pool_to_dao;\n\n    modifier ownerOnly {require(msg.sender == owner); _;}\n    modifier initiatorOnly {require(msg.sender == initiator); _;}\n\n    event NewDao(string name, address indexed dao, address indexed dao_token);\n\n    constructor(Pool _pool, address _initiator) {\n        owner = msg.sender;\n        initiator = _initiator;\n        pool = _pool;\n    }\n\n    function setup(address _new_initiator) public ownerOnly {\n        if (_new_initiator != address(0x0)) {\n            initiator = _new_initiator;\n        }\n    }\n\n    function new_dao(uint _shares_amount, uint _pool_id) public initiatorOnly {\n        //  Setting up the emission\n        (string memory party_name, string memory  ticker) = pool.get_pool_description(_pool_id);\n        IERC20 dao_token = new DaoToken(party_name, ticker, _shares_amount, address(pool));\n        //  Building the brand new DAO.\n        Dao dao = new Dao(party_name, dao_token, pool, initiator);\n        emit NewDao(party_name, address(dao), address(dao_token));\n        pool_to_dao[_pool_id] = dao;\n        //  Sending tokens to Dao for distribution\n        pool.distribute_dao_tokens(_pool_id, address(dao), dao_token);\n    }\n\n    function get_dao(uint _pool_id) public view returns (address) {\n        return address(pool_to_dao[_pool_id]);\n    }\n\n}\n",
  "sourcePath": "/Users/y.sosunov/git/definition-hackathon/onchain/contracts/Factory.sol",
  "compiler": {
    "name": "solc",
    "version": "0.8.4+commit.c7e474f2.Emscripten.clang"
  },
  "schemaVersion": "3.3.4",
  "updatedAt": "2021-09-26T12:30:49.103Z",
  "devdoc": {
    "kind": "dev",
    "methods": {},
    "version": 1
  },
  "userdoc": {
    "kind": "user",
    "methods": {},
    "version": 1
  }
}