{
  "contractName": "Factory",
  "abi": [
    {
      "inputs": [
        {
          "internalType": "contract Pool",
          "name": "_pool",
          "type": "address"
        }
      ],
      "stateMutability": "nonpayable",
      "type": "constructor"
    },
    {
      "anonymous": false,
      "inputs": [
        {
          "indexed": false,
          "internalType": "string",
          "name": "name",
          "type": "string"
        },
        {
          "indexed": true,
          "internalType": "address",
          "name": "dao",
          "type": "address"
        },
        {
          "indexed": true,
          "internalType": "address",
          "name": "dao_token",
          "type": "address"
        }
      ],
      "name": "NewDao",
      "type": "event"
    },
    {
      "inputs": [],
      "name": "initiator",
      "outputs": [
        {
          "internalType": "address",
          "name": "",
          "type": "address"
        }
      ],
      "stateMutability": "view",
      "type": "function"
    },
    {
      "inputs": [],
      "name": "owner",
      "outputs": [
        {
          "internalType": "address",
          "name": "",
          "type": "address"
        }
      ],
      "stateMutability": "view",
      "type": "function"
    },
    {
      "inputs": [],
      "name": "pool",
      "outputs": [
        {
          "internalType": "contract Pool",
          "name": "",
          "type": "address"
        }
      ],
      "stateMutability": "view",
      "type": "function"
    },
    {
      "inputs": [
        {
          "internalType": "address",
          "name": "_new_initiator",
          "type": "address"
        }
      ],
      "name": "setup",
      "outputs": [],
      "stateMutability": "nonpayable",
      "type": "function"
    },
    {
      "inputs": [
        {
          "internalType": "uint256",
          "name": "_shares_amount",
          "type": "uint256"
        },
        {
          "internalType": "uint256",
          "name": "_pool_id",
          "type": "uint256"
        }
      ],
      "name": "new_dao",
      "outputs": [],
      "stateMutability": "nonpayable",
      "type": "function"
    }
  ],
  "bytecode": "0x608060405234801561001057600080fd5b50604051614dd7380380614dd78339818101604052810190610032919061010f565b33600160006101000a81548173ffffffffffffffffffffffffffffffffffffffff021916908373ffffffffffffffffffffffffffffffffffffffff160217905550336000806101000a81548173ffffffffffffffffffffffffffffffffffffffff021916908373ffffffffffffffffffffffffffffffffffffffff16021790555080600260006101000a81548173ffffffffffffffffffffffffffffffffffffffff021916908373ffffffffffffffffffffffffffffffffffffffff16021790555050610193565b6000815190506101098161017c565b92915050565b60006020828403121561012157600080fd5b600061012f848285016100fa565b91505092915050565b60006101438261015c565b9050919050565b600061015582610138565b9050919050565b600073ffffffffffffffffffffffffffffffffffffffff82169050919050565b6101858161014a565b811461019057600080fd5b50565b614c35806101a26000396000f3fe60806040523480156200001157600080fd5b50600436106200005e5760003560e01c806316f0115b14620000635780635c39fcc1146200008557806366d3820314620000a75780638da5cb5b14620000c7578063e31dff1314620000e9575b600080fd5b6200006d62000109565b6040516200007c919062000692565b60405180910390f35b6200008f6200012f565b6040516200009e919062000675565b60405180910390f35b620000c56004803603810190620000bf919062000510565b62000153565b005b620000d162000227565b604051620000e0919062000675565b60405180910390f35b620001076004803603810190620001019190620005af565b6200024d565b005b600260009054906101000a900473ffffffffffffffffffffffffffffffffffffffff1681565b60008054906101000a900473ffffffffffffffffffffffffffffffffffffffff1681565b600160009054906101000a900473ffffffffffffffffffffffffffffffffffffffff1673ffffffffffffffffffffffffffffffffffffffff163373ffffffffffffffffffffffffffffffffffffffff1614620001ae57600080fd5b600073ffffffffffffffffffffffffffffffffffffffff168173ffffffffffffffffffffffffffffffffffffffff16146200022457806000806101000a81548173ffffffffffffffffffffffffffffffffffffffff021916908373ffffffffffffffffffffffffffffffffffffffff1602179055505b50565b600160009054906101000a900473ffffffffffffffffffffffffffffffffffffffff1681565b600160009054906101000a900473ffffffffffffffffffffffffffffffffffffffff1673ffffffffffffffffffffffffffffffffffffffff163373ffffffffffffffffffffffffffffffffffffffff1614620002a857600080fd5b600080600260009054906101000a900473ffffffffffffffffffffffffffffffffffffffff1673ffffffffffffffffffffffffffffffffffffffff16639215d96f846040518263ffffffff1660e01b815260040162000308919062000752565b60006040518083038186803b1580156200032157600080fd5b505afa15801562000336573d6000803e3d6000fd5b505050506040513d6000823e3d601f19601f820116820180604052508101906200036191906200053c565b915091506000828286604051620003789062000454565b620003869392919062000707565b604051809103906000f080158015620003a3573d6000803e3d6000fd5b50905060008382604051620003b89062000462565b620003c5929190620006d3565b604051809103906000f080158015620003e2573d6000803e3d6000fd5b5090508173ffffffffffffffffffffffffffffffffffffffff168173ffffffffffffffffffffffffffffffffffffffff167f87a2ae0205f28cf6777eb213e867569f69e687e4b090364233360729fb68392d86604051620004449190620006af565b60405180910390a3505050505050565b611c88806200095983390190565b61261f80620025e183390190565b600062000487620004818462000798565b6200076f565b905082815260208101848484011115620004a057600080fd5b620004ad84828562000878565b509392505050565b600081359050620004c68162000924565b92915050565b600082601f830112620004de57600080fd5b8151620004f084826020860162000470565b91505092915050565b6000813590506200050a816200093e565b92915050565b6000602082840312156200052357600080fd5b60006200053384828501620004b5565b91505092915050565b600080604083850312156200055057600080fd5b600083015167ffffffffffffffff8111156200056b57600080fd5b6200057985828601620004cc565b925050602083015167ffffffffffffffff8111156200059757600080fd5b620005a585828601620004cc565b9150509250929050565b60008060408385031215620005c357600080fd5b6000620005d385828601620004f9565b9250506020620005e685828601620004f9565b9150509250929050565b620005fb81620007ea565b82525050565b6200060c8162000828565b82525050565b6200061d8162000850565b82525050565b60006200063082620007ce565b6200063c8185620007d9565b93506200064e81856020860162000878565b620006598162000913565b840191505092915050565b6200066f816200081e565b82525050565b60006020820190506200068c6000830184620005f0565b92915050565b6000602082019050620006a9600083018462000612565b92915050565b60006020820190508181036000830152620006cb818462000623565b905092915050565b60006040820190508181036000830152620006ef818562000623565b905062000700602083018462000601565b9392505050565b6000606082019050818103600083015262000723818662000623565b9050818103602083015262000739818562000623565b90506200074a604083018462000664565b949350505050565b600060208201905062000769600083018462000664565b92915050565b60006200077b6200078e565b9050620007898282620008ae565b919050565b6000604051905090565b600067ffffffffffffffff821115620007b657620007b5620008e4565b5b620007c18262000913565b9050602081019050919050565b600081519050919050565b600082825260208201905092915050565b6000620007f782620007fe565b9050919050565b600073ffffffffffffffffffffffffffffffffffffffff82169050919050565b6000819050919050565b600062000835826200083c565b9050919050565b60006200084982620007fe565b9050919050565b60006200085d8262000864565b9050919050565b60006200087182620007fe565b9050919050565b60005b83811015620008985780820151818401526020810190506200087b565b83811115620008a8576000848401525b50505050565b620008b98262000913565b810181811067ffffffffffffffff82111715620008db57620008da620008e4565b5b80604052505050565b7f4e487b7100000000000000000000000000000000000000000000000000000000600052604160045260246000fd5b6000601f19601f8301169050919050565b6200092f81620007ea565b81146200093b57600080fd5b50565b62000949816200081e565b81146200095557600080fd5b5056fe60806040523480156200001157600080fd5b5060405162001c8838038062001c88833981810160405281019062000037919062000377565b82828160039080519060200190620000519291906200023e565b5080600490805190602001906200006a9291906200023e565b505050620000a93362000082620000b260201b60201c565b600a6200009091906200059e565b836200009d9190620006db565b620000bb60201b60201c565b505050620008e3565b60006012905090565b600073ffffffffffffffffffffffffffffffffffffffff168273ffffffffffffffffffffffffffffffffffffffff1614156200012e576040517f08c379a0000000000000000000000000000000000000000000000000000000008152600401620001259062000437565b60405180910390fd5b62000142600083836200023460201b60201c565b8060026000828254620001569190620004e6565b92505081905550806000808473ffffffffffffffffffffffffffffffffffffffff1673ffffffffffffffffffffffffffffffffffffffff1681526020019081526020016000206000828254620001ad9190620004e6565b925050819055508173ffffffffffffffffffffffffffffffffffffffff16600073ffffffffffffffffffffffffffffffffffffffff167fddf252ad1be2c89b69c2b068fc378daa952ba7f163c4a11628f55a4df523b3ef8360405162000214919062000459565b60405180910390a362000230600083836200023960201b60201c565b5050565b505050565b505050565b8280546200024c9062000789565b90600052602060002090601f016020900481019282620002705760008555620002bc565b82601f106200028b57805160ff1916838001178555620002bc565b82800160010185558215620002bc579182015b82811115620002bb5782518255916020019190600101906200029e565b5b509050620002cb9190620002cf565b5090565b5b80821115620002ea576000816000905550600101620002d0565b5090565b600062000305620002ff846200049f565b62000476565b9050828152602081018484840111156200031e57600080fd5b6200032b84828562000753565b509392505050565b600082601f8301126200034557600080fd5b815162000357848260208601620002ee565b91505092915050565b6000815190506200037181620008c9565b92915050565b6000806000606084860312156200038d57600080fd5b600084015167ffffffffffffffff811115620003a857600080fd5b620003b68682870162000333565b935050602084015167ffffffffffffffff811115620003d457600080fd5b620003e28682870162000333565b9250506040620003f58682870162000360565b9150509250925092565b60006200040e601f83620004d5565b91506200041b82620008a0565b602082019050919050565b62000431816200073c565b82525050565b600060208201905081810360008301526200045281620003ff565b9050919050565b600060208201905062000470600083018462000426565b92915050565b60006200048262000495565b9050620004908282620007bf565b919050565b6000604051905090565b600067ffffffffffffffff821115620004bd57620004bc62000853565b5b620004c88262000882565b9050602081019050919050565b600082825260208201905092915050565b6000620004f3826200073c565b915062000500836200073c565b9250827fffffffffffffffffffffffffffffffffffffffffffffffffffffffffffffffff03821115620005385762000537620007f5565b5b828201905092915050565b6000808291508390505b600185111562000595578086048111156200056d576200056c620007f5565b5b60018516156200057d5780820291505b80810290506200058d8562000893565b94506200054d565b94509492505050565b6000620005ab826200073c565b9150620005b88362000746565b9250620005e77fffffffffffffffffffffffffffffffffffffffffffffffffffffffffffffffff8484620005ef565b905092915050565b600082620006015760019050620006d4565b81620006115760009050620006d4565b81600181146200062a576002811462000635576200066b565b6001915050620006d4565b60ff8411156200064a5762000649620007f5565b5b8360020a915084821115620006645762000663620007f5565b5b50620006d4565b5060208310610133831016604e8410600b8410161715620006a55782820a9050838111156200069f576200069e620007f5565b5b620006d4565b620006b4848484600162000543565b92509050818404811115620006ce57620006cd620007f5565b5b81810290505b9392505050565b6000620006e8826200073c565b9150620006f5836200073c565b9250817fffffffffffffffffffffffffffffffffffffffffffffffffffffffffffffffff0483118215151615620007315762000730620007f5565b5b828202905092915050565b6000819050919050565b600060ff82169050919050565b60005b838110156200077357808201518184015260208101905062000756565b8381111562000783576000848401525b50505050565b60006002820490506001821680620007a257607f821691505b60208210811415620007b957620007b862000824565b5b50919050565b620007ca8262000882565b810181811067ffffffffffffffff82111715620007ec57620007eb62000853565b5b80604052505050565b7f4e487b7100000000000000000000000000000000000000000000000000000000600052601160045260246000fd5b7f4e487b7100000000000000000000000000000000000000000000000000000000600052602260045260246000fd5b7f4e487b7100000000000000000000000000000000000000000000000000000000600052604160045260246000fd5b6000601f19601f8301169050919050565b60008160011c9050919050565b7f45524332303a206d696e7420746f20746865207a65726f206164647265737300600082015250565b620008d4816200073c565b8114620008e057600080fd5b50565b61139580620008f36000396000f3fe608060405234801561001057600080fd5b50600436106100a95760003560e01c80633950935111610071578063395093511461016857806370a082311461019857806395d89b41146101c8578063a457c2d7146101e6578063a9059cbb14610216578063dd62ed3e14610246576100a9565b806306fdde03146100ae578063095ea7b3146100cc57806318160ddd146100fc57806323b872dd1461011a578063313ce5671461014a575b600080fd5b6100b6610276565b6040516100c39190610e35565b60405180910390f35b6100e660048036038101906100e19190610c83565b610308565b6040516100f39190610e1a565b60405180910390f35b610104610326565b6040516101119190610f37565b60405180910390f35b610134600480360381019061012f9190610c34565b610330565b6040516101419190610e1a565b60405180910390f35b610152610428565b60405161015f9190610f52565b60405180910390f35b610182600480360381019061017d9190610c83565b610431565b60405161018f9190610e1a565b60405180910390f35b6101b260048036038101906101ad9190610bcf565b6104dd565b6040516101bf9190610f37565b60405180910390f35b6101d0610525565b6040516101dd9190610e35565b60405180910390f35b61020060048036038101906101fb9190610c83565b6105b7565b60405161020d9190610e1a565b60405180910390f35b610230600480360381019061022b9190610c83565b6106a2565b60405161023d9190610e1a565b60405180910390f35b610260600480360381019061025b9190610bf8565b6106c0565b60405161026d9190610f37565b60405180910390f35b60606003805461028590611067565b80601f01602080910402602001604051908101604052809291908181526020018280546102b190611067565b80156102fe5780601f106102d3576101008083540402835291602001916102fe565b820191906000526020600020905b8154815290600101906020018083116102e157829003601f168201915b5050505050905090565b600061031c610315610747565b848461074f565b6001905092915050565b6000600254905090565b600061033d84848461091a565b6000600160008673ffffffffffffffffffffffffffffffffffffffff1673ffffffffffffffffffffffffffffffffffffffff1681526020019081526020016000206000610388610747565b73ffffffffffffffffffffffffffffffffffffffff1673ffffffffffffffffffffffffffffffffffffffff16815260200190815260200160002054905082811015610408576040517f08c379a00000000000000000000000000000000000000000000000000000000081526004016103ff90610eb7565b60405180910390fd5b61041c85610414610747565b85840361074f565b60019150509392505050565b60006012905090565b60006104d361043e610747565b84846001600061044c610747565b73ffffffffffffffffffffffffffffffffffffffff1673ffffffffffffffffffffffffffffffffffffffff16815260200190815260200160002060008873ffffffffffffffffffffffffffffffffffffffff1673ffffffffffffffffffffffffffffffffffffffff168152602001908152602001600020546104ce9190610f89565b61074f565b6001905092915050565b60008060008373ffffffffffffffffffffffffffffffffffffffff1673ffffffffffffffffffffffffffffffffffffffff168152602001908152602001600020549050919050565b60606004805461053490611067565b80601f016020809104026020016040519081016040528092919081815260200182805461056090611067565b80156105ad5780601f10610582576101008083540402835291602001916105ad565b820191906000526020600020905b81548152906001019060200180831161059057829003601f168201915b5050505050905090565b600080600160006105c6610747565b73ffffffffffffffffffffffffffffffffffffffff1673ffffffffffffffffffffffffffffffffffffffff16815260200190815260200160002060008573ffffffffffffffffffffffffffffffffffffffff1673ffffffffffffffffffffffffffffffffffffffff16815260200190815260200160002054905082811015610683576040517f08c379a000000000000000000000000000000000000000000000000000000000815260040161067a90610f17565b60405180910390fd5b61069761068e610747565b8585840361074f565b600191505092915050565b60006106b66106af610747565b848461091a565b6001905092915050565b6000600160008473ffffffffffffffffffffffffffffffffffffffff1673ffffffffffffffffffffffffffffffffffffffff16815260200190815260200160002060008373ffffffffffffffffffffffffffffffffffffffff1673ffffffffffffffffffffffffffffffffffffffff16815260200190815260200160002054905092915050565b600033905090565b600073ffffffffffffffffffffffffffffffffffffffff168373ffffffffffffffffffffffffffffffffffffffff1614156107bf576040517f08c379a00000000000000000000000000000000000000000000000000000000081526004016107b690610ef7565b60405180910390fd5b600073ffffffffffffffffffffffffffffffffffffffff168273ffffffffffffffffffffffffffffffffffffffff16141561082f576040517f08c379a000000000000000000000000000000000000000000000000000000000815260040161082690610e77565b60405180910390fd5b80600160008573ffffffffffffffffffffffffffffffffffffffff1673ffffffffffffffffffffffffffffffffffffffff16815260200190815260200160002060008473ffffffffffffffffffffffffffffffffffffffff1673ffffffffffffffffffffffffffffffffffffffff168152602001908152602001600020819055508173ffffffffffffffffffffffffffffffffffffffff168373ffffffffffffffffffffffffffffffffffffffff167f8c5be1e5ebec7d5bd14f71427d1e84f3dd0314c0f7b2291e5b200ac8c7c3b9258360405161090d9190610f37565b60405180910390a3505050565b600073ffffffffffffffffffffffffffffffffffffffff168373ffffffffffffffffffffffffffffffffffffffff16141561098a576040517f08c379a000000000000000000000000000000000000000000000000000000000815260040161098190610ed7565b60405180910390fd5b600073ffffffffffffffffffffffffffffffffffffffff168273ffffffffffffffffffffffffffffffffffffffff1614156109fa576040517f08c379a00000000000000000000000000000000000000000000000000000000081526004016109f190610e57565b60405180910390fd5b610a05838383610b9b565b60008060008573ffffffffffffffffffffffffffffffffffffffff1673ffffffffffffffffffffffffffffffffffffffff16815260200190815260200160002054905081811015610a8b576040517f08c379a0000000000000000000000000000000000000000000000000000000008152600401610a8290610e97565b60405180910390fd5b8181036000808673ffffffffffffffffffffffffffffffffffffffff1673ffffffffffffffffffffffffffffffffffffffff16815260200190815260200160002081905550816000808573ffffffffffffffffffffffffffffffffffffffff1673ffffffffffffffffffffffffffffffffffffffff1681526020019081526020016000206000828254610b1e9190610f89565b925050819055508273ffffffffffffffffffffffffffffffffffffffff168473ffffffffffffffffffffffffffffffffffffffff167fddf252ad1be2c89b69c2b068fc378daa952ba7f163c4a11628f55a4df523b3ef84604051610b829190610f37565b60405180910390a3610b95848484610ba0565b50505050565b505050565b505050565b600081359050610bb481611331565b92915050565b600081359050610bc981611348565b92915050565b600060208284031215610be157600080fd5b6000610bef84828501610ba5565b91505092915050565b60008060408385031215610c0b57600080fd5b6000610c1985828601610ba5565b9250506020610c2a85828601610ba5565b9150509250929050565b600080600060608486031215610c4957600080fd5b6000610c5786828701610ba5565b9350506020610c6886828701610ba5565b9250506040610c7986828701610bba565b9150509250925092565b60008060408385031215610c9657600080fd5b6000610ca485828601610ba5565b9250506020610cb585828601610bba565b9150509250929050565b610cc881610ff1565b82525050565b6000610cd982610f6d565b610ce38185610f78565b9350610cf3818560208601611034565b610cfc816110f7565b840191505092915050565b6000610d14602383610f78565b9150610d1f82611108565b604082019050919050565b6000610d37602283610f78565b9150610d4282611157565b604082019050919050565b6000610d5a602683610f78565b9150610d65826111a6565b604082019050919050565b6000610d7d602883610f78565b9150610d88826111f5565b604082019050919050565b6000610da0602583610f78565b9150610dab82611244565b604082019050919050565b6000610dc3602483610f78565b9150610dce82611293565b604082019050919050565b6000610de6602583610f78565b9150610df1826112e2565b604082019050919050565b610e058161101d565b82525050565b610e1481611027565b82525050565b6000602082019050610e2f6000830184610cbf565b92915050565b60006020820190508181036000830152610e4f8184610cce565b905092915050565b60006020820190508181036000830152610e7081610d07565b9050919050565b60006020820190508181036000830152610e9081610d2a565b9050919050565b60006020820190508181036000830152610eb081610d4d565b9050919050565b60006020820190508181036000830152610ed081610d70565b9050919050565b60006020820190508181036000830152610ef081610d93565b9050919050565b60006020820190508181036000830152610f1081610db6565b9050919050565b60006020820190508181036000830152610f3081610dd9565b9050919050565b6000602082019050610f4c6000830184610dfc565b92915050565b6000602082019050610f676000830184610e0b565b92915050565b600081519050919050565b600082825260208201905092915050565b6000610f948261101d565b9150610f9f8361101d565b9250827fffffffffffffffffffffffffffffffffffffffffffffffffffffffffffffffff03821115610fd457610fd3611099565b5b828201905092915050565b6000610fea82610ffd565b9050919050565b60008115159050919050565b600073ffffffffffffffffffffffffffffffffffffffff82169050919050565b6000819050919050565b600060ff82169050919050565b60005b83811015611052578082015181840152602081019050611037565b83811115611061576000848401525b50505050565b6000600282049050600182168061107f57607f821691505b60208210811415611093576110926110c8565b5b50919050565b7f4e487b7100000000000000000000000000000000000000000000000000000000600052601160045260246000fd5b7f4e487b7100000000000000000000000000000000000000000000000000000000600052602260045260246000fd5b6000601f19601f8301169050919050565b7f45524332303a207472616e7366657220746f20746865207a65726f206164647260008201527f6573730000000000000000000000000000000000000000000000000000000000602082015250565b7f45524332303a20617070726f766520746f20746865207a65726f20616464726560008201527f7373000000000000000000000000000000000000000000000000000000000000602082015250565b7f45524332303a207472616e7366657220616d6f756e742065786365656473206260008201527f616c616e63650000000000000000000000000000000000000000000000000000602082015250565b7f45524332303a207472616e7366657220616d6f756e742065786365656473206160008201527f6c6c6f77616e6365000000000000000000000000000000000000000000000000602082015250565b7f45524332303a207472616e736665722066726f6d20746865207a65726f20616460008201527f6472657373000000000000000000000000000000000000000000000000000000602082015250565b7f45524332303a20617070726f76652066726f6d20746865207a65726f2061646460008201527f7265737300000000000000000000000000000000000000000000000000000000602082015250565b7f45524332303a2064656372656173656420616c6c6f77616e63652062656c6f7760008201527f207a65726f000000000000000000000000000000000000000000000000000000602082015250565b61133a81610fdf565b811461134557600080fd5b50565b6113518161101d565b811461135c57600080fd5b5056fea2646970667358221220546f57453c7afa0b850404e6ad550154cab9e638c3bb3f89cdd3748d5f2c158064736f6c6343000804003360806040523480156200001157600080fd5b506040516200261f3803806200261f8339818101604052810190620000379190620001d1565b81600190805190602001906200004f92919062000098565b50806000806101000a81548173ffffffffffffffffffffffffffffffffffffffff021916908373ffffffffffffffffffffffffffffffffffffffff1602179055505050620003fd565b828054620000a69062000308565b90600052602060002090601f016020900481019282620000ca576000855562000116565b82601f10620000e557805160ff191683800117855562000116565b8280016001018555821562000116579182015b8281111562000115578251825591602001919060010190620000f8565b5b50905062000125919062000129565b5090565b5b80821115620001445760008160009055506001016200012a565b5090565b60006200015f620001598462000254565b6200022b565b9050828152602081018484840111156200017857600080fd5b62000185848285620002d2565b509392505050565b6000815190506200019e81620003e3565b92915050565b600082601f830112620001b657600080fd5b8151620001c884826020860162000148565b91505092915050565b60008060408385031215620001e557600080fd5b600083015167ffffffffffffffff8111156200020057600080fd5b6200020e85828601620001a4565b925050602062000221858286016200018d565b9150509250929050565b6000620002376200024a565b90506200024582826200033e565b919050565b6000604051905090565b600067ffffffffffffffff821115620002725762000271620003a3565b5b6200027d82620003d2565b9050602081019050919050565b60006200029782620002b2565b9050919050565b6000620002ab826200028a565b9050919050565b600073ffffffffffffffffffffffffffffffffffffffff82169050919050565b60005b83811015620002f2578082015181840152602081019050620002d5565b8381111562000302576000848401525b50505050565b600060028204905060018216806200032157607f821691505b6020821081141562000338576200033762000374565b5b50919050565b6200034982620003d2565b810181811067ffffffffffffffff821117156200036b576200036a620003a3565b5b80604052505050565b7f4e487b7100000000000000000000000000000000000000000000000000000000600052602260045260246000fd5b7f4e487b7100000000000000000000000000000000000000000000000000000000600052604160045260246000fd5b6000601f19601f8301169050919050565b620003ee816200029e565b8114620003fa57600080fd5b50565b612212806200040d6000396000f3fe608060405234801561001057600080fd5b50600436106100a95760003560e01c8063379607f511610071578063379607f514610178578063528f9d5514610194578063688e1d31146101b2578063a694fc3a146101d0578063c9d27afe146101ec578063f8c0e00f14610208576100a9565b806306fdde03146100ae5780630f9e4fb5146100cc57806310b1939f146100e8578063150b7a021461011857806317eb2f0914610148575b600080fd5b6100b6610224565b6040516100c39190611bf6565b60405180910390f35b6100e660048036038101906100e19190611722565b6102b2565b005b61010260048036038101906100fd919061181e565b61062c565b60405161010f9190611b83565b60405180910390f35b610132600480360381019061012d91906116a2565b6107d0565b60405161013f9190611bc0565b60405180910390f35b610162600480360381019061015d919061181e565b6107e5565b60405161016f9190611ba5565b60405180910390f35b610192600480360381019061018d919061181e565b610835565b005b61019c610aa3565b6040516101a99190611c98565b60405180910390f35b6101ba610aa9565b6040516101c79190611bdb565b60405180910390f35b6101ea60048036038101906101e5919061181e565b610acd565b005b61020660048036038101906102019190611870565b610d37565b005b610222600480360381019061021d9190611787565b610f77565b005b6001805461023190611f77565b80601f016020809104026020016040519081016040528092919081815260200182805461025d90611f77565b80156102aa5780601f1061027f576101008083540402835291602001916102aa565b820191906000526020600020905b81548152906001019060200180831161028d57829003601f168201915b505050505081565b60001515600360000160008473ffffffffffffffffffffffffffffffffffffffff1673ffffffffffffffffffffffffffffffffffffffff168152602001908152602001600020600083815260200190815260200160002060009054906101000a900460ff16151514610359576040517f08c379a000000000000000000000000000000000000000000000000000000000815260040161035090611c58565b60405180910390fd5b6000811461050f5760008290503073ffffffffffffffffffffffffffffffffffffffff168173ffffffffffffffffffffffffffffffffffffffff16636352211e846040518263ffffffff1660e01b81526004016103b69190611c98565b60206040518083038186803b1580156103ce57600080fd5b505afa1580156103e2573d6000803e3d6000fd5b505050506040513d601f19601f820116820180604052508101906104069190611679565b73ffffffffffffffffffffffffffffffffffffffff16141561045d576040517f08c379a000000000000000000000000000000000000000000000000000000000815260040161045490611c78565b60405180910390fd5b600360010160405180604001604052808573ffffffffffffffffffffffffffffffffffffffff16815260200184815250908060018154018082558091505060019003906000526020600020906002020160009091909190915060008201518160000160006101000a81548173ffffffffffffffffffffffffffffffffffffffff021916908373ffffffffffffffffffffffffffffffffffffffff160217905550602082015181600101555050506105bc565b600360020160405180604001604052808473ffffffffffffffffffffffffffffffffffffffff16815260200183815250908060018154018082558091505060019003906000526020600020906002020160009091909190915060008201518160000160006101000a81548173ffffffffffffffffffffffffffffffffffffffff021916908373ffffffffffffffffffffffffffffffffffffffff1602179055506020820151816001015550505b6001600360000160008473ffffffffffffffffffffffffffffffffffffffff1673ffffffffffffffffffffffffffffffffffffffff168152602001908152602001600020600083815260200190815260200160002060006101000a81548160ff0219169083151502179055505050565b606060008214156106f9576003600101805480602002602001604051908101604052809291908181526020016000905b828210156106ee57838290600052602060002090600202016040518060400160405290816000820160009054906101000a900473ffffffffffffffffffffffffffffffffffffffff1673ffffffffffffffffffffffffffffffffffffffff1673ffffffffffffffffffffffffffffffffffffffff1681526020016001820154815250508152602001906001019061065c565b5050505090506107cb565b60018214156107c4576003600201805480602002602001604051908101604052809291908181526020016000905b828210156107b957838290600052602060002090600202016040518060400160405290816000820160009054906101000a900473ffffffffffffffffffffffffffffffffffffffff1673ffffffffffffffffffffffffffffffffffffffff1673ffffffffffffffffffffffffffffffffffffffff16815260200160018201548152505081526020019060010190610727565b5050505090506107cb565b6060809150505b919050565b600063150b7a0260e01b905095945050505050565b6107ed611396565b60405180604001604052806006600085815260200190815260200160002060040154815260200160066000858152602001908152602001600020600501548152509050919050565b6000600760003373ffffffffffffffffffffffffffffffffffffffff1673ffffffffffffffffffffffffffffffffffffffff168152602001908152602001600020549050818110156109345760008054906101000a900473ffffffffffffffffffffffffffffffffffffffff1673ffffffffffffffffffffffffffffffffffffffff1663a9059cbb33836040518363ffffffff1660e01b81526004016108dc929190611b5a565b602060405180830381600087803b1580156108f657600080fd5b505af115801561090a573d6000803e3d6000fd5b505050506040513d601f19601f8201168201806040525081019061092e919061175e565b50610a9f565b818110156109ef5760008054906101000a900473ffffffffffffffffffffffffffffffffffffffff1673ffffffffffffffffffffffffffffffffffffffff1663a9059cbb33836040518363ffffffff1660e01b8152600401610997929190611b5a565b602060405180830381600087803b1580156109b157600080fd5b505af11580156109c5573d6000803e3d6000fd5b505050506040513d601f19601f820116820180604052508101906109e9919061175e565b50610a9e565b60008054906101000a900473ffffffffffffffffffffffffffffffffffffffff1673ffffffffffffffffffffffffffffffffffffffff1663a9059cbb33846040518363ffffffff1660e01b8152600401610a4a929190611b5a565b602060405180830381600087803b158015610a6457600080fd5b505af1158015610a78573d6000803e3d6000fd5b505050506040513d601f19601f82011682018060405250810190610a9c919061175e565b505b5b5050565b60025481565b60008054906101000a900473ffffffffffffffffffffffffffffffffffffffff1681565b8060008054906101000a900473ffffffffffffffffffffffffffffffffffffffff1673ffffffffffffffffffffffffffffffffffffffff1663dd62ed3e33306040518363ffffffff1660e01b8152600401610b29929190611afa565b60206040518083038186803b158015610b4157600080fd5b505afa158015610b55573d6000803e3d6000fd5b505050506040513d601f19601f82011682018060405250810190610b799190611847565b1015610c2e5760008054906101000a900473ffffffffffffffffffffffffffffffffffffffff1673ffffffffffffffffffffffffffffffffffffffff1663095ea7b330836040518363ffffffff1660e01b8152600401610bda929190611b5a565b602060405180830381600087803b158015610bf457600080fd5b505af1158015610c08573d6000803e3d6000fd5b505050506040513d601f19601f82011682018060405250810190610c2c919061175e565b505b60008054906101000a900473ffffffffffffffffffffffffffffffffffffffff1673ffffffffffffffffffffffffffffffffffffffff166323b872dd3330846040518463ffffffff1660e01b8152600401610c8b93929190611b23565b602060405180830381600087803b158015610ca557600080fd5b505af1158015610cb9573d6000803e3d6000fd5b505050506040513d601f19601f82011682018060405250810190610cdd919061175e565b5080600760003373ffffffffffffffffffffffffffffffffffffffff1673ffffffffffffffffffffffffffffffffffffffff1681526020019081526020016000206000828254610d2d9190611dbc565b9250508190555050565b60008060009054906101000a900473ffffffffffffffffffffffffffffffffffffffff1673ffffffffffffffffffffffffffffffffffffffff166370a08231336040518263ffffffff1660e01b8152600401610d939190611adf565b60206040518083038186803b158015610dab57600080fd5b505afa158015610dbf573d6000803e3d6000fd5b505050506040513d601f19601f82011682018060405250810190610de39190611847565b1415610e24576040517f08c379a0000000000000000000000000000000000000000000000000000000008152600401610e1b90611c18565b60405180910390fd5b600115158115151415610ea257600760003373ffffffffffffffffffffffffffffffffffffffff1673ffffffffffffffffffffffffffffffffffffffff16815260200190815260200160002054600660008481526020019081526020016000206004016000828254610e969190611dbc565b92505081905550610f0f565b600760003373ffffffffffffffffffffffffffffffffffffffff1673ffffffffffffffffffffffffffffffffffffffff16815260200190815260200160002054600660008481526020019081526020016000206005016000828254610f079190611dbc565b925050819055505b600060066000848152602001908152602001600020600501546006600085815260200190815260200160002060040154610f499190611dbc565b905060066000848152602001908152602001600020600601548110610f7257610f718361128f565b5b505050565b60008060009054906101000a900473ffffffffffffffffffffffffffffffffffffffff1673ffffffffffffffffffffffffffffffffffffffff166370a08231336040518263ffffffff1660e01b8152600401610fd39190611adf565b60206040518083038186803b158015610feb57600080fd5b505afa158015610fff573d6000803e3d6000fd5b505050506040513d601f19601f820116820180604052508101906110239190611847565b1415611064576040517f08c379a000000000000000000000000000000000000000000000000000000000815260040161105b90611c38565b60405180910390fd5b6001600260008282546110779190611dbc565b9250508190555060006040518060e00160405280600060028111156110c5577f4e487b7100000000000000000000000000000000000000000000000000000000600052602160045260246000fd5b81526020018581526020018481526020018381526020016000815260200160008152602001600460008054906101000a900473ffffffffffffffffffffffffffffffffffffffff1673ffffffffffffffffffffffffffffffffffffffff166318160ddd6040518163ffffffff1660e01b815260040160206040518083038186803b15801561115257600080fd5b505afa158015611166573d6000803e3d6000fd5b505050506040513d601f19601f8201168201806040525081019061118a9190611847565b60036111969190611e43565b6111a09190611e12565b81525090508060066000600254815260200190815260200160002060008201518160000160006101000a81548160ff0219169083600281111561120c577f4e487b7100000000000000000000000000000000000000000000000000000000600052602160045260246000fd5b0217905550602082015181600101908051906020019061122d9291906113b8565b50604082015181600201908051906020019061124a9291906113b8565b50606082015181600301908051906020019061126792919061143e565b506080820151816004015560a0820151816005015560c0820151816006015590505050505050565b60066000828152602001908152602001600020600501546006600083815260200190815260200160002060040154111561132d5760016006600083815260200190815260200160002060000160006101000a81548160ff02191690836002811115611323577f4e487b7100000000000000000000000000000000000000000000000000000000600052602160045260246000fd5b0217905550611393565b60026006600083815260200190815260200160002060000160006101000a81548160ff0219169083600281111561138d577f4e487b7100000000000000000000000000000000000000000000000000000000600052602160045260246000fd5b02179055505b50565b6040518060400160405280600290602082028036833780820191505090505090565b8280546113c490611f77565b90600052602060002090601f0160209004810192826113e6576000855561142d565b82601f106113ff57805160ff191683800117855561142d565b8280016001018555821561142d579182015b8281111561142c578251825591602001919060010190611411565b5b50905061143a91906114c4565b5090565b82805461144a90611f77565b90600052602060002090601f01602090048101928261146c57600085556114b3565b82601f1061148557805160ff19168380011785556114b3565b828001600101855582156114b3579182015b828111156114b2578251825591602001919060010190611497565b5b5090506114c091906114c4565b5090565b5b808211156114dd5760008160009055506001016114c5565b5090565b60006114f46114ef84611cd8565b611cb3565b90508281526020810184848401111561150c57600080fd5b611517848285611f35565b509392505050565b600061153261152d84611d09565b611cb3565b90508281526020810184848401111561154a57600080fd5b611555848285611f35565b509392505050565b60008135905061156c81612197565b92915050565b60008151905061158181612197565b92915050565b600081359050611596816121ae565b92915050565b6000815190506115ab816121ae565b92915050565b60008083601f8401126115c357600080fd5b8235905067ffffffffffffffff8111156115dc57600080fd5b6020830191508360018202830111156115f457600080fd5b9250929050565b600082601f83011261160c57600080fd5b813561161c8482602086016114e1565b91505092915050565b600082601f83011261163657600080fd5b813561164684826020860161151f565b91505092915050565b60008135905061165e816121c5565b92915050565b600081519050611673816121c5565b92915050565b60006020828403121561168b57600080fd5b600061169984828501611572565b91505092915050565b6000806000806000608086880312156116ba57600080fd5b60006116c88882890161155d565b95505060206116d98882890161155d565b94505060406116ea8882890161164f565b935050606086013567ffffffffffffffff81111561170757600080fd5b611713888289016115b1565b92509250509295509295909350565b6000806040838503121561173557600080fd5b60006117438582860161155d565b92505060206117548582860161164f565b9150509250929050565b60006020828403121561177057600080fd5b600061177e8482850161159c565b91505092915050565b60008060006060848603121561179c57600080fd5b600084013567ffffffffffffffff8111156117b657600080fd5b6117c286828701611625565b935050602084013567ffffffffffffffff8111156117df57600080fd5b6117eb86828701611625565b925050604084013567ffffffffffffffff81111561180857600080fd5b611814868287016115fb565b9150509250925092565b60006020828403121561183057600080fd5b600061183e8482850161164f565b91505092915050565b60006020828403121561185957600080fd5b600061186784828501611664565b91505092915050565b6000806040838503121561188357600080fd5b60006118918582860161164f565b92505060206118a285828601611587565b9150509250929050565b60006118b88383611a92565b60408301905092915050565b60006118d08383611ac1565b60208301905092915050565b6118e581611e9d565b82525050565b6118f481611e9d565b82525050565b600061190582611d54565b61190f8185611d8f565b935061191a83611d3a565b8060005b8381101561194b57815161193288826118ac565b975061193d83611d75565b92505060018101905061191e565b5085935050505092915050565b61196181611d5f565b61196b8184611da0565b925061197682611d4a565b8060005b838110156119a757815161198e87826118c4565b965061199983611d82565b92505060018101905061197a565b505050505050565b6119b881611ebb565b82525050565b6119c781611f11565b82525050565b60006119d882611d6a565b6119e28185611dab565b93506119f2818560208601611f44565b6119fb81612096565b840191505092915050565b6000611a13602b83611dab565b9150611a1e826120a7565b604082019050919050565b6000611a36603c83611dab565b9150611a41826120f6565b604082019050919050565b6000611a59601c83611dab565b9150611a6482612145565b602082019050919050565b6000611a7c601783611dab565b9150611a878261216e565b602082019050919050565b604082016000820151611aa860008501826118dc565b506020820151611abb6020850182611ac1565b50505050565b611aca81611f07565b82525050565b611ad981611f07565b82525050565b6000602082019050611af460008301846118eb565b92915050565b6000604082019050611b0f60008301856118eb565b611b1c60208301846118eb565b9392505050565b6000606082019050611b3860008301866118eb565b611b4560208301856118eb565b611b526040830184611ad0565b949350505050565b6000604082019050611b6f60008301856118eb565b611b7c6020830184611ad0565b9392505050565b60006020820190508181036000830152611b9d81846118fa565b905092915050565b6000604082019050611bba6000830184611958565b92915050565b6000602082019050611bd560008301846119af565b92915050565b6000602082019050611bf060008301846119be565b92915050565b60006020820190508181036000830152611c1081846119cd565b905092915050565b60006020820190508181036000830152611c3181611a06565b9050919050565b60006020820190508181036000830152611c5181611a29565b9050919050565b60006020820190508181036000830152611c7181611a4c565b9050919050565b60006020820190508181036000830152611c9181611a6f565b9050919050565b6000602082019050611cad6000830184611ad0565b92915050565b6000611cbd611cce565b9050611cc98282611fa9565b919050565b6000604051905090565b600067ffffffffffffffff821115611cf357611cf2612067565b5b611cfc82612096565b9050602081019050919050565b600067ffffffffffffffff821115611d2457611d23612067565b5b611d2d82612096565b9050602081019050919050565b6000819050602082019050919050565b6000819050919050565b600081519050919050565b600060029050919050565b600081519050919050565b6000602082019050919050565b6000602082019050919050565b600082825260208201905092915050565b600081905092915050565b600082825260208201905092915050565b6000611dc782611f07565b9150611dd283611f07565b9250827fffffffffffffffffffffffffffffffffffffffffffffffffffffffffffffffff03821115611e0757611e06611fda565b5b828201905092915050565b6000611e1d82611f07565b9150611e2883611f07565b925082611e3857611e37612009565b5b828204905092915050565b6000611e4e82611f07565b9150611e5983611f07565b9250817fffffffffffffffffffffffffffffffffffffffffffffffffffffffffffffffff0483118215151615611e9257611e91611fda565b5b828202905092915050565b6000611ea882611ee7565b9050919050565b60008115159050919050565b60007fffffffff0000000000000000000000000000000000000000000000000000000082169050919050565b600073ffffffffffffffffffffffffffffffffffffffff82169050919050565b6000819050919050565b6000611f1c82611f23565b9050919050565b6000611f2e82611ee7565b9050919050565b82818337600083830152505050565b60005b83811015611f62578082015181840152602081019050611f47565b83811115611f71576000848401525b50505050565b60006002820490506001821680611f8f57607f821691505b60208210811415611fa357611fa2612038565b5b50919050565b611fb282612096565b810181811067ffffffffffffffff82111715611fd157611fd0612067565b5b80604052505050565b7f4e487b7100000000000000000000000000000000000000000000000000000000600052601160045260246000fd5b7f4e487b7100000000000000000000000000000000000000000000000000000000600052601260045260246000fd5b7f4e487b7100000000000000000000000000000000000000000000000000000000600052602260045260246000fd5b7f4e487b7100000000000000000000000000000000000000000000000000000000600052604160045260246000fd5b6000601f19601f8301169050919050565b7f506c65617365207374616b6520796f757220676f7665726e616e636520746f6b60008201527f656e7320746f20766f7465000000000000000000000000000000000000000000602082015250565b7f506c65617365207374616b6520796f757220676f7665726e616e636520746f6b60008201527f656e7320746f206372656174652061206e65772070726f706f73616c00000000602082015250565b7f5468697320617373657420697320616c7265616479206c6f636b656400000000600082015250565b7f546869732061737365742069736e2774206c6f636b6564000000000000000000600082015250565b6121a081611e9d565b81146121ab57600080fd5b50565b6121b781611eaf565b81146121c257600080fd5b50565b6121ce81611f07565b81146121d957600080fd5b5056fea2646970667358221220c5e3d9d515dc0770a6844b904a7cf49cd518b11b6abc7594d8886234dc479c6f64736f6c63430008040033a26469706673582212209b4dbd79309c6d26d3b0ae94d0d2e7e45e105dbdbeb249b4fd63a4d457f0ca4264736f6c63430008040033",
  "immutableReferences": {},
  "source": "pragma solidity ^0.8.0;\nimport \"@openzeppelin/contracts/token/ERC20/IERC20.sol\";\nimport \"@openzeppelin/contracts/token/ERC721/IERC721.sol\";\nimport \"./Pool.sol\";\nimport \"./DaoToken.sol\";\nimport \"./Dao.sol\";\n\ncontract Factory {\n\n    address public initiator;  // Offchain initiator\n    address public owner;  // Will allow to setup offchain initiator\n    Pool public pool;\n\n    modifier ownerOnly {require(msg.sender == owner); _;}\n    modifier initiatorOnly {require(msg.sender == owner); _;}\n\n    event NewDao(string name, address indexed dao, address indexed dao_token);\n\n    constructor(Pool _pool) {\n        owner = msg.sender;\n        initiator = msg.sender;\n        pool = _pool;\n    }\n\n    function setup(address _new_initiator) public ownerOnly {\n        if (_new_initiator != address(0x0)) {\n            initiator = _new_initiator;\n        }\n    }\n\n    function new_dao(uint _shares_amount, uint _pool_id) public initiatorOnly {\n        //  Setting up the emission\n        (string memory party_name, string memory  ticker) = pool.get_pool_description(_pool_id);\n        IERC20 dao_token = new DaoToken(party_name, ticker, _shares_amount);\n        //  Building the brand new DAO\n        Dao dao = new Dao(party_name, dao_token);\n        emit NewDao(party_name, address(dao), address(dao_token));\n        //  Sending tokens to Dao for distribution\n//        dao_token.transfer(address(pool), dao_token.totalSupply());\n//        pool.distribute_dao_tokens(_pool_id, dao_token);\n    }\n\n}\n",
  "sourcePath": "/Users/y.sosunov/git/definition-hackathon/onchain/contracts/Factory.sol",
  "compiler": {
    "name": "solc",
    "version": "0.8.4+commit.c7e474f2.Emscripten.clang"
  },
  "schemaVersion": "3.3.4",
  "updatedAt": "2021-09-26T04:44:50.201Z",
  "devdoc": {
    "kind": "dev",
    "methods": {},
    "version": 1
  },
  "userdoc": {
    "kind": "user",
    "methods": {},
    "version": 1
  }
}