{
  "contractName": "Factory",
  "abi": [
    {
      "inputs": [
        {
          "internalType": "contract Pool",
          "name": "_pool",
          "type": "address"
        }
      ],
      "stateMutability": "nonpayable",
      "type": "constructor"
    },
    {
      "anonymous": false,
      "inputs": [
        {
          "indexed": false,
          "internalType": "string",
          "name": "name",
          "type": "string"
        },
        {
          "indexed": true,
          "internalType": "address",
          "name": "dao",
          "type": "address"
        },
        {
          "indexed": true,
          "internalType": "address",
          "name": "dao_token",
          "type": "address"
        }
      ],
      "name": "NewDao",
      "type": "event"
    },
    {
      "inputs": [],
      "name": "initiator",
      "outputs": [
        {
          "internalType": "address",
          "name": "",
          "type": "address"
        }
      ],
      "stateMutability": "view",
      "type": "function"
    },
    {
      "inputs": [],
      "name": "owner",
      "outputs": [
        {
          "internalType": "address",
          "name": "",
          "type": "address"
        }
      ],
      "stateMutability": "view",
      "type": "function"
    },
    {
      "inputs": [],
      "name": "pool",
      "outputs": [
        {
          "internalType": "contract Pool",
          "name": "",
          "type": "address"
        }
      ],
      "stateMutability": "view",
      "type": "function"
    },
    {
      "inputs": [
        {
          "internalType": "address",
          "name": "_new_initiator",
          "type": "address"
        }
      ],
      "name": "setup",
      "outputs": [],
      "stateMutability": "nonpayable",
      "type": "function"
    },
    {
      "inputs": [
        {
          "internalType": "uint256",
          "name": "_shares_amount",
          "type": "uint256"
        },
        {
          "internalType": "uint256",
          "name": "_pool_id",
          "type": "uint256"
        }
      ],
      "name": "new_dao",
      "outputs": [],
      "stateMutability": "nonpayable",
      "type": "function"
    },
    {
      "inputs": [
        {
          "internalType": "uint256",
          "name": "_pool_id",
          "type": "uint256"
        }
      ],
      "name": "get_dao",
      "outputs": [
        {
          "internalType": "address",
          "name": "",
          "type": "address"
        }
      ],
      "stateMutability": "view",
      "type": "function"
    }
  ],
  "bytecode": "0x608060405234801561001057600080fd5b5060405162005d7c38038062005d7c83398181016040528101906100349190610111565b33600160006101000a81548173ffffffffffffffffffffffffffffffffffffffff021916908373ffffffffffffffffffffffffffffffffffffffff160217905550336000806101000a81548173ffffffffffffffffffffffffffffffffffffffff021916908373ffffffffffffffffffffffffffffffffffffffff16021790555080600260006101000a81548173ffffffffffffffffffffffffffffffffffffffff021916908373ffffffffffffffffffffffffffffffffffffffff16021790555050610195565b60008151905061010b8161017e565b92915050565b60006020828403121561012357600080fd5b6000610131848285016100fc565b91505092915050565b60006101458261015e565b9050919050565b60006101578261013a565b9050919050565b600073ffffffffffffffffffffffffffffffffffffffff82169050919050565b6101878161014c565b811461019257600080fd5b50565b615bd780620001a56000396000f3fe60806040523480156200001157600080fd5b50600436106200006a5760003560e01c80631672100f146200006f57806316f0115b14620000a55780635c39fcc114620000c757806366d3820314620000e95780638da5cb5b1462000109578063e31dff13146200012b575b600080fd5b6200008d60048036038101906200008791906200075b565b6200014b565b6040516200009c91906200084d565b60405180910390f35b620000af62000188565b604051620000be91906200086a565b60405180910390f35b620000d1620001ae565b604051620000e091906200084d565b60405180910390f35b620001076004803603810190620001019190620006bc565b620001d2565b005b62000113620002a6565b6040516200012291906200084d565b60405180910390f35b62000149600480360381019062000143919062000787565b620002cc565b005b60006003600083815260200190815260200160002060009054906101000a900473ffffffffffffffffffffffffffffffffffffffff169050919050565b600260009054906101000a900473ffffffffffffffffffffffffffffffffffffffff1681565b60008054906101000a900473ffffffffffffffffffffffffffffffffffffffff1681565b600160009054906101000a900473ffffffffffffffffffffffffffffffffffffffff1673ffffffffffffffffffffffffffffffffffffffff163373ffffffffffffffffffffffffffffffffffffffff16146200022d57600080fd5b600073ffffffffffffffffffffffffffffffffffffffff168173ffffffffffffffffffffffffffffffffffffffff1614620002a357806000806101000a81548173ffffffffffffffffffffffffffffffffffffffff021916908373ffffffffffffffffffffffffffffffffffffffff1602179055505b50565b600160009054906101000a900473ffffffffffffffffffffffffffffffffffffffff1681565b60008054906101000a900473ffffffffffffffffffffffffffffffffffffffff1673ffffffffffffffffffffffffffffffffffffffff163373ffffffffffffffffffffffffffffffffffffffff16146200032557600080fd5b600080600260009054906101000a900473ffffffffffffffffffffffffffffffffffffffff1673ffffffffffffffffffffffffffffffffffffffff16639215d96f846040518263ffffffff1660e01b81526004016200038591906200094a565b60006040518083038186803b1580156200039e57600080fd5b505afa158015620003b3573d6000803e3d6000fd5b505050506040513d6000823e3d601f19601f82011682018060405250810190620003de9190620006e8565b915091506000828286600260009054906101000a900473ffffffffffffffffffffffffffffffffffffffff16604051620004189062000600565b620004279493929190620008ef565b604051809103906000f08015801562000444573d6000803e3d6000fd5b50905060008382600260009054906101000a900473ffffffffffffffffffffffffffffffffffffffff166040516200047c906200060e565b6200048a93929190620008ab565b604051809103906000f080158015620004a7573d6000803e3d6000fd5b5090508173ffffffffffffffffffffffffffffffffffffffff168173ffffffffffffffffffffffffffffffffffffffff167f87a2ae0205f28cf6777eb213e867569f69e687e4b090364233360729fb68392d8660405162000509919062000887565b60405180910390a3806003600087815260200190815260200160002060006101000a81548173ffffffffffffffffffffffffffffffffffffffff021916908373ffffffffffffffffffffffffffffffffffffffff160217905550600260009054906101000a900473ffffffffffffffffffffffffffffffffffffffff1673ffffffffffffffffffffffffffffffffffffffff16635f9530108683856040518463ffffffff1660e01b8152600401620005c49392919062000967565b600060405180830381600087803b158015620005df57600080fd5b505af1158015620005f4573d6000803e3d6000fd5b50505050505050505050565b611d048062000b8e83390190565b613310806200289283390190565b6000620006336200062d84620009cd565b620009a4565b9050828152602081018484840111156200064c57600080fd5b6200065984828562000aad565b509392505050565b600081359050620006728162000b59565b92915050565b600082601f8301126200068a57600080fd5b81516200069c8482602086016200061c565b91505092915050565b600081359050620006b68162000b73565b92915050565b600060208284031215620006cf57600080fd5b6000620006df8482850162000661565b91505092915050565b60008060408385031215620006fc57600080fd5b600083015167ffffffffffffffff8111156200071757600080fd5b620007258582860162000678565b925050602083015167ffffffffffffffff8111156200074357600080fd5b620007518582860162000678565b9150509250929050565b6000602082840312156200076e57600080fd5b60006200077e84828501620006a5565b91505092915050565b600080604083850312156200079b57600080fd5b6000620007ab85828601620006a5565b9250506020620007be85828601620006a5565b9150509250929050565b620007d38162000a1f565b82525050565b620007e48162000a5d565b82525050565b620007f58162000a85565b82525050565b6000620008088262000a03565b62000814818562000a0e565b93506200082681856020860162000aad565b620008318162000b48565b840191505092915050565b620008478162000a53565b82525050565b6000602082019050620008646000830184620007c8565b92915050565b6000602082019050620008816000830184620007ea565b92915050565b60006020820190508181036000830152620008a38184620007fb565b905092915050565b60006060820190508181036000830152620008c78186620007fb565b9050620008d86020830185620007d9565b620008e76040830184620007ea565b949350505050565b600060808201905081810360008301526200090b8187620007fb565b90508181036020830152620009218186620007fb565b90506200093260408301856200083c565b620009416060830184620007c8565b95945050505050565b60006020820190506200096160008301846200083c565b92915050565b60006060820190506200097e60008301866200083c565b6200098d6020830185620007c8565b6200099c6040830184620007d9565b949350505050565b6000620009b0620009c3565b9050620009be828262000ae3565b919050565b6000604051905090565b600067ffffffffffffffff821115620009eb57620009ea62000b19565b5b620009f68262000b48565b9050602081019050919050565b600081519050919050565b600082825260208201905092915050565b600062000a2c8262000a33565b9050919050565b600073ffffffffffffffffffffffffffffffffffffffff82169050919050565b6000819050919050565b600062000a6a8262000a71565b9050919050565b600062000a7e8262000a33565b9050919050565b600062000a928262000a99565b9050919050565b600062000aa68262000a33565b9050919050565b60005b8381101562000acd57808201518184015260208101905062000ab0565b8381111562000add576000848401525b50505050565b62000aee8262000b48565b810181811067ffffffffffffffff8211171562000b105762000b0f62000b19565b5b80604052505050565b7f4e487b7100000000000000000000000000000000000000000000000000000000600052604160045260246000fd5b6000601f19601f8301169050919050565b62000b648162000a1f565b811462000b7057600080fd5b50565b62000b7e8162000a53565b811462000b8a57600080fd5b5056fe60806040523480156200001157600080fd5b5060405162001d0438038062001d0483398181016040528101906200003791906200038f565b83838160039080519060200190620000519291906200023f565b5080600490805190602001906200006a9291906200023f565b505050620000a98162000082620000b360201b60201c565b600a620000909190620005cc565b846200009d919062000709565b620000bc60201b60201c565b505050506200095f565b60006012905090565b600073ffffffffffffffffffffffffffffffffffffffff168273ffffffffffffffffffffffffffffffffffffffff1614156200012f576040517f08c379a0000000000000000000000000000000000000000000000000000000008152600401620001269062000465565b60405180910390fd5b62000143600083836200023560201b60201c565b806002600082825462000157919062000514565b92505081905550806000808473ffffffffffffffffffffffffffffffffffffffff1673ffffffffffffffffffffffffffffffffffffffff1681526020019081526020016000206000828254620001ae919062000514565b925050819055508173ffffffffffffffffffffffffffffffffffffffff16600073ffffffffffffffffffffffffffffffffffffffff167fddf252ad1be2c89b69c2b068fc378daa952ba7f163c4a11628f55a4df523b3ef8360405162000215919062000487565b60405180910390a362000231600083836200023a60201b60201c565b5050565b505050565b505050565b8280546200024d90620007eb565b90600052602060002090601f016020900481019282620002715760008555620002bd565b82601f106200028c57805160ff1916838001178555620002bd565b82800160010185558215620002bd579182015b82811115620002bc5782518255916020019190600101906200029f565b5b509050620002cc9190620002d0565b5090565b5b80821115620002eb576000816000905550600101620002d1565b5090565b6000620003066200030084620004cd565b620004a4565b9050828152602081018484840111156200031f57600080fd5b6200032c848285620007b5565b509392505050565b60008151905062000345816200092b565b92915050565b600082601f8301126200035d57600080fd5b81516200036f848260208601620002ef565b91505092915050565b600081519050620003898162000945565b92915050565b60008060008060808587031215620003a657600080fd5b600085015167ffffffffffffffff811115620003c157600080fd5b620003cf878288016200034b565b945050602085015167ffffffffffffffff811115620003ed57600080fd5b620003fb878288016200034b565b93505060406200040e8782880162000378565b9250506060620004218782880162000334565b91505092959194509250565b60006200043c601f8362000503565b9150620004498262000902565b602082019050919050565b6200045f816200079e565b82525050565b6000602082019050818103600083015262000480816200042d565b9050919050565b60006020820190506200049e600083018462000454565b92915050565b6000620004b0620004c3565b9050620004be828262000821565b919050565b6000604051905090565b600067ffffffffffffffff821115620004eb57620004ea620008b5565b5b620004f682620008e4565b9050602081019050919050565b600082825260208201905092915050565b600062000521826200079e565b91506200052e836200079e565b9250827fffffffffffffffffffffffffffffffffffffffffffffffffffffffffffffffff0382111562000566576200056562000857565b5b828201905092915050565b6000808291508390505b6001851115620005c3578086048111156200059b576200059a62000857565b5b6001851615620005ab5780820291505b8081029050620005bb85620008f5565b94506200057b565b94509492505050565b6000620005d9826200079e565b9150620005e683620007a8565b9250620006157fffffffffffffffffffffffffffffffffffffffffffffffffffffffffffffffff84846200061d565b905092915050565b6000826200062f576001905062000702565b816200063f576000905062000702565b8160018114620006585760028114620006635762000699565b600191505062000702565b60ff84111562000678576200067762000857565b5b8360020a91508482111562000692576200069162000857565b5b5062000702565b5060208310610133831016604e8410600b8410161715620006d35782820a905083811115620006cd57620006cc62000857565b5b62000702565b620006e2848484600162000571565b92509050818404811115620006fc57620006fb62000857565b5b81810290505b9392505050565b600062000716826200079e565b915062000723836200079e565b9250817fffffffffffffffffffffffffffffffffffffffffffffffffffffffffffffffff04831182151516156200075f576200075e62000857565b5b828202905092915050565b600062000777826200077e565b9050919050565b600073ffffffffffffffffffffffffffffffffffffffff82169050919050565b6000819050919050565b600060ff82169050919050565b60005b83811015620007d5578082015181840152602081019050620007b8565b83811115620007e5576000848401525b50505050565b600060028204905060018216806200080457607f821691505b602082108114156200081b576200081a62000886565b5b50919050565b6200082c82620008e4565b810181811067ffffffffffffffff821117156200084e576200084d620008b5565b5b80604052505050565b7f4e487b7100000000000000000000000000000000000000000000000000000000600052601160045260246000fd5b7f4e487b7100000000000000000000000000000000000000000000000000000000600052602260045260246000fd5b7f4e487b7100000000000000000000000000000000000000000000000000000000600052604160045260246000fd5b6000601f19601f8301169050919050565b60008160011c9050919050565b7f45524332303a206d696e7420746f20746865207a65726f206164647265737300600082015250565b62000936816200076a565b81146200094257600080fd5b50565b62000950816200079e565b81146200095c57600080fd5b50565b611395806200096f6000396000f3fe608060405234801561001057600080fd5b50600436106100a95760003560e01c80633950935111610071578063395093511461016857806370a082311461019857806395d89b41146101c8578063a457c2d7146101e6578063a9059cbb14610216578063dd62ed3e14610246576100a9565b806306fdde03146100ae578063095ea7b3146100cc57806318160ddd146100fc57806323b872dd1461011a578063313ce5671461014a575b600080fd5b6100b6610276565b6040516100c39190610e35565b60405180910390f35b6100e660048036038101906100e19190610c83565b610308565b6040516100f39190610e1a565b60405180910390f35b610104610326565b6040516101119190610f37565b60405180910390f35b610134600480360381019061012f9190610c34565b610330565b6040516101419190610e1a565b60405180910390f35b610152610428565b60405161015f9190610f52565b60405180910390f35b610182600480360381019061017d9190610c83565b610431565b60405161018f9190610e1a565b60405180910390f35b6101b260048036038101906101ad9190610bcf565b6104dd565b6040516101bf9190610f37565b60405180910390f35b6101d0610525565b6040516101dd9190610e35565b60405180910390f35b61020060048036038101906101fb9190610c83565b6105b7565b60405161020d9190610e1a565b60405180910390f35b610230600480360381019061022b9190610c83565b6106a2565b60405161023d9190610e1a565b60405180910390f35b610260600480360381019061025b9190610bf8565b6106c0565b60405161026d9190610f37565b60405180910390f35b60606003805461028590611067565b80601f01602080910402602001604051908101604052809291908181526020018280546102b190611067565b80156102fe5780601f106102d3576101008083540402835291602001916102fe565b820191906000526020600020905b8154815290600101906020018083116102e157829003601f168201915b5050505050905090565b600061031c610315610747565b848461074f565b6001905092915050565b6000600254905090565b600061033d84848461091a565b6000600160008673ffffffffffffffffffffffffffffffffffffffff1673ffffffffffffffffffffffffffffffffffffffff1681526020019081526020016000206000610388610747565b73ffffffffffffffffffffffffffffffffffffffff1673ffffffffffffffffffffffffffffffffffffffff16815260200190815260200160002054905082811015610408576040517f08c379a00000000000000000000000000000000000000000000000000000000081526004016103ff90610eb7565b60405180910390fd5b61041c85610414610747565b85840361074f565b60019150509392505050565b60006012905090565b60006104d361043e610747565b84846001600061044c610747565b73ffffffffffffffffffffffffffffffffffffffff1673ffffffffffffffffffffffffffffffffffffffff16815260200190815260200160002060008873ffffffffffffffffffffffffffffffffffffffff1673ffffffffffffffffffffffffffffffffffffffff168152602001908152602001600020546104ce9190610f89565b61074f565b6001905092915050565b60008060008373ffffffffffffffffffffffffffffffffffffffff1673ffffffffffffffffffffffffffffffffffffffff168152602001908152602001600020549050919050565b60606004805461053490611067565b80601f016020809104026020016040519081016040528092919081815260200182805461056090611067565b80156105ad5780601f10610582576101008083540402835291602001916105ad565b820191906000526020600020905b81548152906001019060200180831161059057829003601f168201915b5050505050905090565b600080600160006105c6610747565b73ffffffffffffffffffffffffffffffffffffffff1673ffffffffffffffffffffffffffffffffffffffff16815260200190815260200160002060008573ffffffffffffffffffffffffffffffffffffffff1673ffffffffffffffffffffffffffffffffffffffff16815260200190815260200160002054905082811015610683576040517f08c379a000000000000000000000000000000000000000000000000000000000815260040161067a90610f17565b60405180910390fd5b61069761068e610747565b8585840361074f565b600191505092915050565b60006106b66106af610747565b848461091a565b6001905092915050565b6000600160008473ffffffffffffffffffffffffffffffffffffffff1673ffffffffffffffffffffffffffffffffffffffff16815260200190815260200160002060008373ffffffffffffffffffffffffffffffffffffffff1673ffffffffffffffffffffffffffffffffffffffff16815260200190815260200160002054905092915050565b600033905090565b600073ffffffffffffffffffffffffffffffffffffffff168373ffffffffffffffffffffffffffffffffffffffff1614156107bf576040517f08c379a00000000000000000000000000000000000000000000000000000000081526004016107b690610ef7565b60405180910390fd5b600073ffffffffffffffffffffffffffffffffffffffff168273ffffffffffffffffffffffffffffffffffffffff16141561082f576040517f08c379a000000000000000000000000000000000000000000000000000000000815260040161082690610e77565b60405180910390fd5b80600160008573ffffffffffffffffffffffffffffffffffffffff1673ffffffffffffffffffffffffffffffffffffffff16815260200190815260200160002060008473ffffffffffffffffffffffffffffffffffffffff1673ffffffffffffffffffffffffffffffffffffffff168152602001908152602001600020819055508173ffffffffffffffffffffffffffffffffffffffff168373ffffffffffffffffffffffffffffffffffffffff167f8c5be1e5ebec7d5bd14f71427d1e84f3dd0314c0f7b2291e5b200ac8c7c3b9258360405161090d9190610f37565b60405180910390a3505050565b600073ffffffffffffffffffffffffffffffffffffffff168373ffffffffffffffffffffffffffffffffffffffff16141561098a576040517f08c379a000000000000000000000000000000000000000000000000000000000815260040161098190610ed7565b60405180910390fd5b600073ffffffffffffffffffffffffffffffffffffffff168273ffffffffffffffffffffffffffffffffffffffff1614156109fa576040517f08c379a00000000000000000000000000000000000000000000000000000000081526004016109f190610e57565b60405180910390fd5b610a05838383610b9b565b60008060008573ffffffffffffffffffffffffffffffffffffffff1673ffffffffffffffffffffffffffffffffffffffff16815260200190815260200160002054905081811015610a8b576040517f08c379a0000000000000000000000000000000000000000000000000000000008152600401610a8290610e97565b60405180910390fd5b8181036000808673ffffffffffffffffffffffffffffffffffffffff1673ffffffffffffffffffffffffffffffffffffffff16815260200190815260200160002081905550816000808573ffffffffffffffffffffffffffffffffffffffff1673ffffffffffffffffffffffffffffffffffffffff1681526020019081526020016000206000828254610b1e9190610f89565b925050819055508273ffffffffffffffffffffffffffffffffffffffff168473ffffffffffffffffffffffffffffffffffffffff167fddf252ad1be2c89b69c2b068fc378daa952ba7f163c4a11628f55a4df523b3ef84604051610b829190610f37565b60405180910390a3610b95848484610ba0565b50505050565b505050565b505050565b600081359050610bb481611331565b92915050565b600081359050610bc981611348565b92915050565b600060208284031215610be157600080fd5b6000610bef84828501610ba5565b91505092915050565b60008060408385031215610c0b57600080fd5b6000610c1985828601610ba5565b9250506020610c2a85828601610ba5565b9150509250929050565b600080600060608486031215610c4957600080fd5b6000610c5786828701610ba5565b9350506020610c6886828701610ba5565b9250506040610c7986828701610bba565b9150509250925092565b60008060408385031215610c9657600080fd5b6000610ca485828601610ba5565b9250506020610cb585828601610bba565b9150509250929050565b610cc881610ff1565b82525050565b6000610cd982610f6d565b610ce38185610f78565b9350610cf3818560208601611034565b610cfc816110f7565b840191505092915050565b6000610d14602383610f78565b9150610d1f82611108565b604082019050919050565b6000610d37602283610f78565b9150610d4282611157565b604082019050919050565b6000610d5a602683610f78565b9150610d65826111a6565b604082019050919050565b6000610d7d602883610f78565b9150610d88826111f5565b604082019050919050565b6000610da0602583610f78565b9150610dab82611244565b604082019050919050565b6000610dc3602483610f78565b9150610dce82611293565b604082019050919050565b6000610de6602583610f78565b9150610df1826112e2565b604082019050919050565b610e058161101d565b82525050565b610e1481611027565b82525050565b6000602082019050610e2f6000830184610cbf565b92915050565b60006020820190508181036000830152610e4f8184610cce565b905092915050565b60006020820190508181036000830152610e7081610d07565b9050919050565b60006020820190508181036000830152610e9081610d2a565b9050919050565b60006020820190508181036000830152610eb081610d4d565b9050919050565b60006020820190508181036000830152610ed081610d70565b9050919050565b60006020820190508181036000830152610ef081610d93565b9050919050565b60006020820190508181036000830152610f1081610db6565b9050919050565b60006020820190508181036000830152610f3081610dd9565b9050919050565b6000602082019050610f4c6000830184610dfc565b92915050565b6000602082019050610f676000830184610e0b565b92915050565b600081519050919050565b600082825260208201905092915050565b6000610f948261101d565b9150610f9f8361101d565b9250827fffffffffffffffffffffffffffffffffffffffffffffffffffffffffffffffff03821115610fd457610fd3611099565b5b828201905092915050565b6000610fea82610ffd565b9050919050565b60008115159050919050565b600073ffffffffffffffffffffffffffffffffffffffff82169050919050565b6000819050919050565b600060ff82169050919050565b60005b83811015611052578082015181840152602081019050611037565b83811115611061576000848401525b50505050565b6000600282049050600182168061107f57607f821691505b60208210811415611093576110926110c8565b5b50919050565b7f4e487b7100000000000000000000000000000000000000000000000000000000600052601160045260246000fd5b7f4e487b7100000000000000000000000000000000000000000000000000000000600052602260045260246000fd5b6000601f19601f8301169050919050565b7f45524332303a207472616e7366657220746f20746865207a65726f206164647260008201527f6573730000000000000000000000000000000000000000000000000000000000602082015250565b7f45524332303a20617070726f766520746f20746865207a65726f20616464726560008201527f7373000000000000000000000000000000000000000000000000000000000000602082015250565b7f45524332303a207472616e7366657220616d6f756e742065786365656473206260008201527f616c616e63650000000000000000000000000000000000000000000000000000602082015250565b7f45524332303a207472616e7366657220616d6f756e742065786365656473206160008201527f6c6c6f77616e6365000000000000000000000000000000000000000000000000602082015250565b7f45524332303a207472616e736665722066726f6d20746865207a65726f20616460008201527f6472657373000000000000000000000000000000000000000000000000000000602082015250565b7f45524332303a20617070726f76652066726f6d20746865207a65726f2061646460008201527f7265737300000000000000000000000000000000000000000000000000000000602082015250565b7f45524332303a2064656372656173656420616c6c6f77616e63652062656c6f7760008201527f207a65726f000000000000000000000000000000000000000000000000000000602082015250565b61133a81610fdf565b811461134557600080fd5b50565b6113518161101d565b811461135c57600080fd5b5056fea2646970667358221220803b65279b0b99b4cd4975d10e0ed53cdf622d5e45acf757e61245c7c8bec42a64736f6c6343000804003360806040523480156200001157600080fd5b50604051620033103803806200331083398181016040528101906200003791906200022a565b82600190805190602001906200004f929190620000da565b50816000806101000a81548173ffffffffffffffffffffffffffffffffffffffff021916908373ffffffffffffffffffffffffffffffffffffffff16021790555080600660006101000a81548173ffffffffffffffffffffffffffffffffffffffff021916908373ffffffffffffffffffffffffffffffffffffffff16021790555050505062000499565b828054620000e8906200038a565b90600052602060002090601f0160209004810192826200010c576000855562000158565b82601f106200012757805160ff191683800117855562000158565b8280016001018555821562000158579182015b82811115620001575782518255916020019190600101906200013a565b5b5090506200016791906200016b565b5090565b5b80821115620001865760008160009055506001016200016c565b5090565b6000620001a16200019b84620002c2565b62000299565b905082815260208101848484011115620001ba57600080fd5b620001c784828562000354565b509392505050565b600081519050620001e08162000465565b92915050565b600081519050620001f7816200047f565b92915050565b600082601f8301126200020f57600080fd5b8151620002218482602086016200018a565b91505092915050565b6000806000606084860312156200024057600080fd5b600084015167ffffffffffffffff8111156200025b57600080fd5b6200026986828701620001fd565b93505060206200027c86828701620001cf565b92505060406200028f86828701620001e6565b9150509250925092565b6000620002a5620002b8565b9050620002b38282620003c0565b919050565b6000604051905090565b600067ffffffffffffffff821115620002e057620002df62000425565b5b620002eb8262000454565b9050602081019050919050565b6000620003058262000334565b9050919050565b60006200031982620002f8565b9050919050565b60006200032d82620002f8565b9050919050565b600073ffffffffffffffffffffffffffffffffffffffff82169050919050565b60005b838110156200037457808201518184015260208101905062000357565b8381111562000384576000848401525b50505050565b60006002820490506001821680620003a357607f821691505b60208210811415620003ba57620003b9620003f6565b5b50919050565b620003cb8262000454565b810181811067ffffffffffffffff82111715620003ed57620003ec62000425565b5b80604052505050565b7f4e487b7100000000000000000000000000000000000000000000000000000000600052602260045260246000fd5b7f4e487b7100000000000000000000000000000000000000000000000000000000600052604160045260246000fd5b6000601f19601f8301169050919050565b62000470816200030c565b81146200047c57600080fd5b50565b6200048a8162000320565b81146200049657600080fd5b50565b612e6780620004a96000396000f3fe608060405234801561001057600080fd5b50600436106100f55760003560e01c8063528f9d55116100975780637acb7757116100665780637acb775714610298578063c9d27afe146102b4578063e4dd26cf146102d0578063e9a4b691146102ec576100f5565b8063528f9d5514610210578063561f4a6a1461022e578063688e1d311461024a578063698839fd14610268576100f5565b8063150b7a02116100d3578063150b7a021461016457806317eb2f0914610194578063379607f5146101c45780633eda5200146101e0576100f5565b806306fdde03146100fa5780630f9e4fb51461011857806310b1939f14610134575b600080fd5b610102610308565b60405161010f9190612722565b60405180910390f35b610132600480360381019061012d9190612037565b610396565b005b61014e600480360381019061014991906121c6565b61070f565b60405161015b91906126af565b60405180910390f35b61017e60048036038101906101799190611fb7565b6108b3565b60405161018b91906126ec565b60405180910390f35b6101ae60048036038101906101a991906121c6565b6108c8565b6040516101bb91906126d1565b60405180910390f35b6101de60048036038101906101d991906121c6565b610918565b005b6101fa60048036038101906101f591906121c6565b610aca565b60405161020791906127e4565b60405180910390f35b610218610dc7565b6040516102259190612806565b60405180910390f35b61024860048036038101906102439190612218565b610dcd565b005b610252610ef9565b60405161025f9190612707565b60405180910390f35b610282600480360381019061027d9190611f65565b610f1d565b60405161028f9190612806565b60405180910390f35b6102b260048036038101906102ad9190612218565b610f66565b005b6102ce60048036038101906102c99190612254565b6111d1565b005b6102ea60048036038101906102e5919061209c565b6114b4565b005b61030660048036038101906103019190612133565b6117f1565b005b6001805461031590612b49565b80601f016020809104026020016040519081016040528092919081815260200182805461034190612b49565b801561038e5780601f106103635761010080835404028352916020019161038e565b820191906000526020600020905b81548152906001019060200180831161037157829003601f168201915b505050505081565b60001515600360000160008473ffffffffffffffffffffffffffffffffffffffff1673ffffffffffffffffffffffffffffffffffffffff168152602001908152602001600020600083815260200190815260200160002060009054906101000a900460ff1615151461043d576040517f08c379a0000000000000000000000000000000000000000000000000000000008152600401610434906127a4565b60405180910390fd5b600081146105f25760008290503073ffffffffffffffffffffffffffffffffffffffff168173ffffffffffffffffffffffffffffffffffffffff16636352211e846040518263ffffffff1660e01b815260040161049a9190612806565b60206040518083038186803b1580156104b257600080fd5b505afa1580156104c6573d6000803e3d6000fd5b505050506040513d601f19601f820116820180604052508101906104ea9190611f8e565b73ffffffffffffffffffffffffffffffffffffffff1614610540576040517f08c379a0000000000000000000000000000000000000000000000000000000008152600401610537906127c4565b60405180910390fd5b600360010160405180604001604052808573ffffffffffffffffffffffffffffffffffffffff16815260200184815250908060018154018082558091505060019003906000526020600020906002020160009091909190915060008201518160000160006101000a81548173ffffffffffffffffffffffffffffffffffffffff021916908373ffffffffffffffffffffffffffffffffffffffff1602179055506020820151816001015550505061069f565b600360020160405180604001604052808473ffffffffffffffffffffffffffffffffffffffff16815260200183815250908060018154018082558091505060019003906000526020600020906002020160009091909190915060008201518160000160006101000a81548173ffffffffffffffffffffffffffffffffffffffff021916908373ffffffffffffffffffffffffffffffffffffffff1602179055506020820151816001015550505b6001600360000160008473ffffffffffffffffffffffffffffffffffffffff1673ffffffffffffffffffffffffffffffffffffffff168152602001908152602001600020600083815260200190815260200160002060006101000a81548160ff0219169083151502179055505050565b606060008214156107dc576003600101805480602002602001604051908101604052809291908181526020016000905b828210156107d157838290600052602060002090600202016040518060400160405290816000820160009054906101000a900473ffffffffffffffffffffffffffffffffffffffff1673ffffffffffffffffffffffffffffffffffffffff1673ffffffffffffffffffffffffffffffffffffffff1681526020016001820154815250508152602001906001019061073f565b5050505090506108ae565b60018214156108a7576003600201805480602002602001604051908101604052809291908181526020016000905b8282101561089c57838290600052602060002090600202016040518060400160405290816000820160009054906101000a900473ffffffffffffffffffffffffffffffffffffffff1673ffffffffffffffffffffffffffffffffffffffff1673ffffffffffffffffffffffffffffffffffffffff1681526020016001820154815250508152602001906001019061080a565b5050505090506108ae565b6060809150505b919050565b600063150b7a0260e01b905095945050505050565b6108d0611bba565b60405180604001604052806007600085815260200190815260200160002060060154815260200160076000858152602001908152602001600020600701548152509050919050565b6000600960003373ffffffffffffffffffffffffffffffffffffffff1673ffffffffffffffffffffffffffffffffffffffff16815260200190815260200160002054905081811015610a175760008054906101000a900473ffffffffffffffffffffffffffffffffffffffff1673ffffffffffffffffffffffffffffffffffffffff1663a9059cbb33836040518363ffffffff1660e01b81526004016109bf929190612686565b602060405180830381600087803b1580156109d957600080fd5b505af11580156109ed573d6000803e3d6000fd5b505050506040513d601f19601f82011682018060405250810190610a119190612073565b50610ac6565b60008054906101000a900473ffffffffffffffffffffffffffffffffffffffff1673ffffffffffffffffffffffffffffffffffffffff1663a9059cbb33846040518363ffffffff1660e01b8152600401610a72929190612686565b602060405180830381600087803b158015610a8c57600080fd5b505af1158015610aa0573d6000803e3d6000fd5b505050506040513d601f19601f82011682018060405250810190610ac49190612073565b505b5050565b610ad2611bdc565b60076000838152602001908152602001600020604051806101000160405290816000820160009054906101000a900460ff166002811115610b3c577f4e487b7100000000000000000000000000000000000000000000000000000000600052602160045260246000fd5b6002811115610b74577f4e487b7100000000000000000000000000000000000000000000000000000000600052602160045260246000fd5b8152602001600182018054610b8890612b49565b80601f0160208091040260200160405190810160405280929190818152602001828054610bb490612b49565b8015610c015780601f10610bd657610100808354040283529160200191610c01565b820191906000526020600020905b815481529060010190602001808311610be457829003601f168201915b50505050508152602001600282018054610c1a90612b49565b80601f0160208091040260200160405190810160405280929190818152602001828054610c4690612b49565b8015610c935780601f10610c6857610100808354040283529160200191610c93565b820191906000526020600020905b815481529060010190602001808311610c7657829003601f168201915b50505050508152602001600382018054610cac90612b49565b80601f0160208091040260200160405190810160405280929190818152602001828054610cd890612b49565b8015610d255780601f10610cfa57610100808354040283529160200191610d25565b820191906000526020600020905b815481529060010190602001808311610d0857829003601f168201915b50505050508152602001600482016040518060400160405290816000820160009054906101000a900473ffffffffffffffffffffffffffffffffffffffff1673ffffffffffffffffffffffffffffffffffffffff1673ffffffffffffffffffffffffffffffffffffffff168152602001600182015481525050815260200160068201548152602001600782015481526020016008820154815250509050919050565b60025481565b60008054906101000a900473ffffffffffffffffffffffffffffffffffffffff1673ffffffffffffffffffffffffffffffffffffffff166323b872dd600660009054906101000a900473ffffffffffffffffffffffffffffffffffffffff1630856040518463ffffffff1660e01b8152600401610e4c9392919061264f565b602060405180830381600087803b158015610e6657600080fd5b505af1158015610e7a573d6000803e3d6000fd5b505050506040513d601f19601f82011682018060405250810190610e9e9190612073565b5081600960008373ffffffffffffffffffffffffffffffffffffffff1673ffffffffffffffffffffffffffffffffffffffff1681526020019081526020016000206000828254610eee9190612957565b925050819055505050565b60008054906101000a900473ffffffffffffffffffffffffffffffffffffffff1681565b6000600960008373ffffffffffffffffffffffffffffffffffffffff1673ffffffffffffffffffffffffffffffffffffffff168152602001908152602001600020549050919050565b8160008054906101000a900473ffffffffffffffffffffffffffffffffffffffff1673ffffffffffffffffffffffffffffffffffffffff1663dd62ed3e83306040518363ffffffff1660e01b8152600401610fc2929190612626565b60206040518083038186803b158015610fda57600080fd5b505afa158015610fee573d6000803e3d6000fd5b505050506040513d601f19601f8201168201806040525081019061101291906121ef565b10156110c75760008054906101000a900473ffffffffffffffffffffffffffffffffffffffff1673ffffffffffffffffffffffffffffffffffffffff1663095ea7b330846040518363ffffffff1660e01b8152600401611073929190612686565b602060405180830381600087803b15801561108d57600080fd5b505af11580156110a1573d6000803e3d6000fd5b505050506040513d601f19601f820116820180604052508101906110c59190612073565b505b60008054906101000a900473ffffffffffffffffffffffffffffffffffffffff1673ffffffffffffffffffffffffffffffffffffffff166323b872dd3330856040518463ffffffff1660e01b81526004016111249392919061264f565b602060405180830381600087803b15801561113e57600080fd5b505af1158015611152573d6000803e3d6000fd5b505050506040513d601f19601f820116820180604052508101906111769190612073565b5081600960008373ffffffffffffffffffffffffffffffffffffffff1673ffffffffffffffffffffffffffffffffffffffff16815260200190815260200160002060008282546111c69190612957565b925050819055505050565b6000600960003373ffffffffffffffffffffffffffffffffffffffff1673ffffffffffffffffffffffffffffffffffffffff168152602001908152602001600020541415611254576040517f08c379a000000000000000000000000000000000000000000000000000000000815260040161124b90612744565b60405180910390fd5b600015156008600084815260200190815260200160002060003373ffffffffffffffffffffffffffffffffffffffff1673ffffffffffffffffffffffffffffffffffffffff16815260200190815260200160002060009054906101000a900460ff161515146112f8576040517f08c379a00000000000000000000000000000000000000000000000000000000081526004016112ef90612764565b60405180910390fd5b60011515811515141561137657600960003373ffffffffffffffffffffffffffffffffffffffff1673ffffffffffffffffffffffffffffffffffffffff1681526020019081526020016000205460076000848152602001908152602001600020600601600082825461136a9190612957565b925050819055506113e3565b600960003373ffffffffffffffffffffffffffffffffffffffff1673ffffffffffffffffffffffffffffffffffffffff168152602001908152602001600020546007600084815260200190815260200160002060070160008282546113db9190612957565b925050819055505b60006007600084815260200190815260200160002060070154600760008581526020019081526020016000206006015461141d9190612957565b905060016008600085815260200190815260200160002060003373ffffffffffffffffffffffffffffffffffffffff1673ffffffffffffffffffffffffffffffffffffffff16815260200190815260200160002060006101000a81548160ff021916908315150217905550600760008481526020019081526020016000206008015481106114af576114ae83611ab3565b5b505050565b6000600960003373ffffffffffffffffffffffffffffffffffffffff1673ffffffffffffffffffffffffffffffffffffffff168152602001908152602001600020541415611537576040517f08c379a000000000000000000000000000000000000000000000000000000000815260040161152e90612784565b60405180910390fd5b60016002600082825461154a9190612957565b92505081905550600060405180610100016040528060006002811115611599577f4e487b7100000000000000000000000000000000000000000000000000000000600052602160045260246000fd5b81526020018581526020018481526020018381526020016040518060400160405280600073ffffffffffffffffffffffffffffffffffffffff168152602001600081525081526020016000815260200160008152602001600460008054906101000a900473ffffffffffffffffffffffffffffffffffffffff1673ffffffffffffffffffffffffffffffffffffffff166318160ddd6040518163ffffffff1660e01b815260040160206040518083038186803b15801561165857600080fd5b505afa15801561166c573d6000803e3d6000fd5b505050506040513d601f19601f8201168201806040525081019061169091906121ef565b600361169c91906129de565b6116a691906129ad565b81525090508060076000600254815260200190815260200160002060008201518160000160006101000a81548160ff02191690836002811115611712577f4e487b7100000000000000000000000000000000000000000000000000000000600052602160045260246000fd5b02179055506020820151816001019080519060200190611733929190611c5f565b506040820151816002019080519060200190611750929190611c5f565b50606082015181600301908051906020019061176d929190611ce5565b5060808201518160040160008201518160000160006101000a81548173ffffffffffffffffffffffffffffffffffffffff021916908373ffffffffffffffffffffffffffffffffffffffff16021790555060208201518160010155505060a0820151816006015560c0820151816007015560e0820151816008015590505050505050565b6001600260008282546118049190612957565b925050819055506060600060405180604001604052808573ffffffffffffffffffffffffffffffffffffffff168152602001848152509050600060405180610100016040528060006002811115611884577f4e487b7100000000000000000000000000000000000000000000000000000000600052602160045260246000fd5b81526020018881526020018781526020018481526020018381526020016000815260200160008152602001600460008054906101000a900473ffffffffffffffffffffffffffffffffffffffff1673ffffffffffffffffffffffffffffffffffffffff166318160ddd6040518163ffffffff1660e01b815260040160206040518083038186803b15801561191757600080fd5b505afa15801561192b573d6000803e3d6000fd5b505050506040513d601f19601f8201168201806040525081019061194f91906121ef565b600361195b91906129de565b61196591906129ad565b81525090508060076000600254815260200190815260200160002060008201518160000160006101000a81548160ff021916908360028111156119d1577f4e487b7100000000000000000000000000000000000000000000000000000000600052602160045260246000fd5b021790555060208201518160010190805190602001906119f2929190611c5f565b506040820151816002019080519060200190611a0f929190611c5f565b506060820151816003019080519060200190611a2c929190611ce5565b5060808201518160040160008201518160000160006101000a81548173ffffffffffffffffffffffffffffffffffffffff021916908373ffffffffffffffffffffffffffffffffffffffff16021790555060208201518160010155505060a0820151816006015560c0820151816007015560e0820151816008015590505050505050505050565b600760008281526020019081526020016000206007015460076000838152602001908152602001600020600601541115611b515760016007600083815260200190815260200160002060000160006101000a81548160ff02191690836002811115611b47577f4e487b7100000000000000000000000000000000000000000000000000000000600052602160045260246000fd5b0217905550611bb7565b60026007600083815260200190815260200160002060000160006101000a81548160ff02191690836002811115611bb1577f4e487b7100000000000000000000000000000000000000000000000000000000600052602160045260246000fd5b02179055505b50565b6040518060400160405280600290602082028036833780820191505090505090565b60405180610100016040528060006002811115611c22577f4e487b7100000000000000000000000000000000000000000000000000000000600052602160045260246000fd5b8152602001606081526020016060815260200160608152602001611c44611d6b565b81526020016000815260200160008152602001600081525090565b828054611c6b90612b49565b90600052602060002090601f016020900481019282611c8d5760008555611cd4565b82601f10611ca657805160ff1916838001178555611cd4565b82800160010185558215611cd4579182015b82811115611cd3578251825591602001919060010190611cb8565b5b509050611ce19190611d9b565b5090565b828054611cf190612b49565b90600052602060002090601f016020900481019282611d135760008555611d5a565b82601f10611d2c57805160ff1916838001178555611d5a565b82800160010185558215611d5a579182015b82811115611d59578251825591602001919060010190611d3e565b5b509050611d679190611d9b565b5090565b6040518060400160405280600073ffffffffffffffffffffffffffffffffffffffff168152602001600081525090565b5b80821115611db4576000816000905550600101611d9c565b5090565b6000611dcb611dc684612846565b612821565b905082815260208101848484011115611de357600080fd5b611dee848285612b07565b509392505050565b6000611e09611e0484612877565b612821565b905082815260208101848484011115611e2157600080fd5b611e2c848285612b07565b509392505050565b600081359050611e4381612dd5565b92915050565b600081519050611e5881612dd5565b92915050565b600081359050611e6d81612dec565b92915050565b600081519050611e8281612dec565b92915050565b60008083601f840112611e9a57600080fd5b8235905067ffffffffffffffff811115611eb357600080fd5b602083019150836001820283011115611ecb57600080fd5b9250929050565b600082601f830112611ee357600080fd5b8135611ef3848260208601611db8565b91505092915050565b600081359050611f0b81612e03565b92915050565b600082601f830112611f2257600080fd5b8135611f32848260208601611df6565b91505092915050565b600081359050611f4a81612e1a565b92915050565b600081519050611f5f81612e1a565b92915050565b600060208284031215611f7757600080fd5b6000611f8584828501611e34565b91505092915050565b600060208284031215611fa057600080fd5b6000611fae84828501611e49565b91505092915050565b600080600080600060808688031215611fcf57600080fd5b6000611fdd88828901611e34565b9550506020611fee88828901611e34565b9450506040611fff88828901611f3b565b935050606086013567ffffffffffffffff81111561201c57600080fd5b61202888828901611e88565b92509250509295509295909350565b6000806040838503121561204a57600080fd5b600061205885828601611e34565b925050602061206985828601611f3b565b9150509250929050565b60006020828403121561208557600080fd5b600061209384828501611e73565b91505092915050565b6000806000606084860312156120b157600080fd5b600084013567ffffffffffffffff8111156120cb57600080fd5b6120d786828701611f11565b935050602084013567ffffffffffffffff8111156120f457600080fd5b61210086828701611f11565b925050604084013567ffffffffffffffff81111561211d57600080fd5b61212986828701611ed2565b9150509250925092565b6000806000806080858703121561214957600080fd5b600085013567ffffffffffffffff81111561216357600080fd5b61216f87828801611f11565b945050602085013567ffffffffffffffff81111561218c57600080fd5b61219887828801611f11565b93505060406121a987828801611efc565b92505060606121ba87828801611f3b565b91505092959194509250565b6000602082840312156121d857600080fd5b60006121e684828501611f3b565b91505092915050565b60006020828403121561220157600080fd5b600061220f84828501611f50565b91505092915050565b6000806040838503121561222b57600080fd5b600061223985828601611f3b565b925050602061224a85828601611e34565b9150509250929050565b6000806040838503121561226757600080fd5b600061227585828601611f3b565b925050602061228685828601611e5e565b9150509250929050565b600061229c838361251a565b60408301905092915050565b60006122b48383612608565b60208301905092915050565b6122c981612a38565b82525050565b6122d881612a38565b82525050565b60006122e9826128c2565b6122f38185612908565b93506122fe836128a8565b8060005b8381101561232f5781516123168882612290565b9750612321836128ee565b925050600181019050612302565b5085935050505092915050565b612345816128cd565b61234f8184612919565b925061235a826128b8565b8060005b8381101561238b57815161237287826122a8565b965061237d836128fb565b92505060018101905061235e565b505050505050565b61239c81612a56565b82525050565b60006123ad826128d8565b6123b78185612924565b93506123c7818560208601612b16565b6123d081612c97565b840191505092915050565b6123e481612ad1565b82525050565b6123f381612af5565b82525050565b6000612404826128e3565b61240e8185612935565b935061241e818560208601612b16565b61242781612c97565b840191505092915050565b600061243d826128e3565b6124478185612946565b9350612457818560208601612b16565b61246081612c97565b840191505092915050565b6000612478602b83612946565b915061248382612ca8565b604082019050919050565b600061249b601b83612946565b91506124a682612cf7565b602082019050919050565b60006124be603c83612946565b91506124c982612d20565b604082019050919050565b60006124e1601c83612946565b91506124ec82612d6f565b602082019050919050565b6000612504601783612946565b915061250f82612d98565b602082019050919050565b60408201600082015161253060008501826122c0565b5060208201516125436020850182612608565b50505050565b60006101208301600083015161256260008601826123ea565b506020830151848203602086015261257a82826123f9565b9150506040830151848203604086015261259482826123f9565b915050606083015184820360608601526125ae82826123a2565b91505060808301516125c3608086018261251a565b5060a08301516125d660c0860182612608565b5060c08301516125e960e0860182612608565b5060e08301516125fd610100860182612608565b508091505092915050565b61261181612ac7565b82525050565b61262081612ac7565b82525050565b600060408201905061263b60008301856122cf565b61264860208301846122cf565b9392505050565b600060608201905061266460008301866122cf565b61267160208301856122cf565b61267e6040830184612617565b949350505050565b600060408201905061269b60008301856122cf565b6126a86020830184612617565b9392505050565b600060208201905081810360008301526126c981846122de565b905092915050565b60006040820190506126e6600083018461233c565b92915050565b60006020820190506127016000830184612393565b92915050565b600060208201905061271c60008301846123db565b92915050565b6000602082019050818103600083015261273c8184612432565b905092915050565b6000602082019050818103600083015261275d8161246b565b9050919050565b6000602082019050818103600083015261277d8161248e565b9050919050565b6000602082019050818103600083015261279d816124b1565b9050919050565b600060208201905081810360008301526127bd816124d4565b9050919050565b600060208201905081810360008301526127dd816124f7565b9050919050565b600060208201905081810360008301526127fe8184612549565b905092915050565b600060208201905061281b6000830184612617565b92915050565b600061282b61283c565b90506128378282612b7b565b919050565b6000604051905090565b600067ffffffffffffffff82111561286157612860612c68565b5b61286a82612c97565b9050602081019050919050565b600067ffffffffffffffff82111561289257612891612c68565b5b61289b82612c97565b9050602081019050919050565b6000819050602082019050919050565b6000819050919050565b600081519050919050565b600060029050919050565b600081519050919050565b600081519050919050565b6000602082019050919050565b6000602082019050919050565b600082825260208201905092915050565b600081905092915050565b600082825260208201905092915050565b600082825260208201905092915050565b600082825260208201905092915050565b600061296282612ac7565b915061296d83612ac7565b9250827fffffffffffffffffffffffffffffffffffffffffffffffffffffffffffffffff038211156129a2576129a1612bac565b5b828201905092915050565b60006129b882612ac7565b91506129c383612ac7565b9250826129d3576129d2612bdb565b5b828204905092915050565b60006129e982612ac7565b91506129f483612ac7565b9250817fffffffffffffffffffffffffffffffffffffffffffffffffffffffffffffffff0483118215151615612a2d57612a2c612bac565b5b828202905092915050565b6000612a4382612aa7565b9050919050565b60008115159050919050565b60007fffffffff0000000000000000000000000000000000000000000000000000000082169050919050565b6000612a8d82612a38565b9050919050565b6000819050612aa282612dc1565b919050565b600073ffffffffffffffffffffffffffffffffffffffff82169050919050565b6000819050919050565b6000612adc82612ae3565b9050919050565b6000612aee82612aa7565b9050919050565b6000612b0082612a94565b9050919050565b82818337600083830152505050565b60005b83811015612b34578082015181840152602081019050612b19565b83811115612b43576000848401525b50505050565b60006002820490506001821680612b6157607f821691505b60208210811415612b7557612b74612c39565b5b50919050565b612b8482612c97565b810181811067ffffffffffffffff82111715612ba357612ba2612c68565b5b80604052505050565b7f4e487b7100000000000000000000000000000000000000000000000000000000600052601160045260246000fd5b7f4e487b7100000000000000000000000000000000000000000000000000000000600052601260045260246000fd5b7f4e487b7100000000000000000000000000000000000000000000000000000000600052602160045260246000fd5b7f4e487b7100000000000000000000000000000000000000000000000000000000600052602260045260246000fd5b7f4e487b7100000000000000000000000000000000000000000000000000000000600052604160045260246000fd5b6000601f19601f8301169050919050565b7f506c65617365207374616b6520796f757220676f7665726e616e636520746f6b60008201527f656e7320746f20766f7465000000000000000000000000000000000000000000602082015250565b7f5468697320757365722068617320616c726561647920766f7465640000000000600082015250565b7f506c65617365207374616b6520796f757220676f7665726e616e636520746f6b60008201527f656e7320746f206372656174652061206e65772070726f706f73616c00000000602082015250565b7f5468697320617373657420697320616c7265616479206c6f636b656400000000600082015250565b7f546869732061737365742069736e2774206c6f636b6564000000000000000000600082015250565b60038110612dd257612dd1612c0a565b5b50565b612dde81612a38565b8114612de957600080fd5b50565b612df581612a4a565b8114612e0057600080fd5b50565b612e0c81612a82565b8114612e1757600080fd5b50565b612e2381612ac7565b8114612e2e57600080fd5b5056fea26469706673582212200ca22f7b44cb0564db5caf9178da190799fe322c03cbea4ae77c38861840f17264736f6c63430008040033a264697066735822122062800af4b76b6e5f67174b49ab8a77fd2f27acbcc605509423b41f86ec50758f64736f6c63430008040033",
  "immutableReferences": {},
  "source": "pragma solidity ^0.8.0;\nimport \"@openzeppelin/contracts/token/ERC20/IERC20.sol\";\nimport \"@openzeppelin/contracts/token/ERC721/IERC721.sol\";\nimport \"./Pool.sol\";\nimport \"./DaoToken.sol\";\nimport \"./Dao.sol\";\n\ncontract Factory {\n\n    address public initiator;  // Offchain initiator\n    address public owner;  // Will allow to setup offchain initiator\n    Pool public pool;\n    mapping(uint => Dao) pool_to_dao;\n\n    modifier ownerOnly {require(msg.sender == owner); _;}\n    modifier initiatorOnly {require(msg.sender == initiator); _;}\n\n    event NewDao(string name, address indexed dao, address indexed dao_token);\n\n    constructor(Pool _pool) {\n        owner = msg.sender;\n        initiator = msg.sender;\n        pool = _pool;\n    }\n\n    function setup(address _new_initiator) public ownerOnly {\n        if (_new_initiator != address(0x0)) {\n            initiator = _new_initiator;\n        }\n    }\n\n    function new_dao(uint _shares_amount, uint _pool_id) public initiatorOnly {\n        //  Setting up the emission\n        (string memory party_name, string memory  ticker) = pool.get_pool_description(_pool_id);\n        IERC20 dao_token = new DaoToken(party_name, ticker, _shares_amount, address(pool));\n        //  Building the brand new DAO.\n        Dao dao = new Dao(party_name, dao_token, pool);\n        emit NewDao(party_name, address(dao), address(dao_token));\n        pool_to_dao[_pool_id] = dao;\n        //  Sending tokens to Dao for distribution\n        pool.distribute_dao_tokens(_pool_id, address(dao), dao_token);\n    }\n\n    function get_dao(uint _pool_id) public view returns (address) {\n        return address(pool_to_dao[_pool_id]);\n    }\n\n}\n",
  "sourcePath": "/Users/y.sosunov/git/definition-hackathon/onchain/contracts/Factory.sol",
  "compiler": {
    "name": "solc",
    "version": "0.8.4+commit.c7e474f2.Emscripten.clang"
  },
  "schemaVersion": "3.3.4",
  "updatedAt": "2021-09-26T11:00:16.507Z",
  "devdoc": {
    "kind": "dev",
    "methods": {},
    "version": 1
  },
  "userdoc": {
    "kind": "user",
    "methods": {},
    "version": 1
  }
}