{
  "contractName": "Pool",
  "abi": [
    {
      "inputs": [],
      "stateMutability": "nonpayable",
      "type": "constructor"
    },
    {
      "anonymous": false,
      "inputs": [
        {
          "indexed": true,
          "internalType": "contract IERC721",
          "name": "nft_address",
          "type": "address"
        },
        {
          "indexed": false,
          "internalType": "uint256",
          "name": "nft_id",
          "type": "uint256"
        },
        {
          "indexed": false,
          "internalType": "address",
          "name": "sender",
          "type": "address"
        }
      ],
      "name": "DistributionDaoToken",
      "type": "event"
    },
    {
      "anonymous": false,
      "inputs": [
        {
          "indexed": true,
          "internalType": "contract IERC721",
          "name": "nft_address",
          "type": "address"
        },
        {
          "indexed": true,
          "internalType": "uint256",
          "name": "nft_id",
          "type": "uint256"
        },
        {
          "indexed": false,
          "internalType": "address",
          "name": "sender",
          "type": "address"
        },
        {
          "indexed": false,
          "internalType": "uint256",
          "name": "deposit",
          "type": "uint256"
        }
      ],
      "name": "NewDeposit",
      "type": "event"
    },
    {
      "anonymous": false,
      "inputs": [
        {
          "indexed": true,
          "internalType": "contract IERC721",
          "name": "nft_address",
          "type": "address"
        },
        {
          "indexed": true,
          "internalType": "uint256",
          "name": "nft_id",
          "type": "uint256"
        },
        {
          "indexed": true,
          "internalType": "uint256",
          "name": "pool_id",
          "type": "uint256"
        }
      ],
      "name": "NewParty",
      "type": "event"
    },
    {
      "anonymous": false,
      "inputs": [
        {
          "indexed": true,
          "internalType": "contract IERC721",
          "name": "nft_address",
          "type": "address"
        },
        {
          "indexed": false,
          "internalType": "uint256",
          "name": "nft_id",
          "type": "uint256"
        },
        {
          "indexed": false,
          "internalType": "address",
          "name": "sender",
          "type": "address"
        }
      ],
      "name": "TotalDaoToken",
      "type": "event"
    },
    {
      "inputs": [],
      "name": "owner",
      "outputs": [
        {
          "internalType": "address",
          "name": "",
          "type": "address"
        }
      ],
      "stateMutability": "view",
      "type": "function",
      "constant": true
    },
    {
      "inputs": [],
      "name": "pool_id",
      "outputs": [
        {
          "internalType": "uint256",
          "name": "",
          "type": "uint256"
        }
      ],
      "stateMutability": "view",
      "type": "function",
      "constant": true
    },
    {
      "inputs": [
        {
          "internalType": "contract IERC721",
          "name": "_nft_address",
          "type": "address"
        },
        {
          "internalType": "uint256",
          "name": "_nft_id",
          "type": "uint256"
        },
        {
          "internalType": "string",
          "name": "_party_name",
          "type": "string"
        },
        {
          "internalType": "string",
          "name": "_ticker",
          "type": "string"
        }
      ],
      "name": "new_party",
      "outputs": [
        {
          "internalType": "uint256",
          "name": "",
          "type": "uint256"
        }
      ],
      "stateMutability": "nonpayable",
      "type": "function"
    },
    {
      "inputs": [
        {
          "internalType": "uint256",
          "name": "_pool_id",
          "type": "uint256"
        }
      ],
      "name": "set_deposit",
      "outputs": [],
      "stateMutability": "payable",
      "type": "function",
      "payable": true
    },
    {
      "inputs": [
        {
          "internalType": "uint256",
          "name": "_pool_id",
          "type": "uint256"
        }
      ],
      "name": "get_pool_description",
      "outputs": [
        {
          "internalType": "string",
          "name": "",
          "type": "string"
        },
        {
          "internalType": "string",
          "name": "",
          "type": "string"
        }
      ],
      "stateMutability": "view",
      "type": "function",
      "constant": true
    },
    {
      "inputs": [
        {
          "internalType": "uint256",
          "name": "_pool_id",
          "type": "uint256"
        }
      ],
      "name": "get_pool",
      "outputs": [
        {
          "components": [
            {
              "internalType": "string",
              "name": "party_name",
              "type": "string"
            },
            {
              "internalType": "string",
              "name": "ticker",
              "type": "string"
            },
            {
              "internalType": "contract IERC721",
              "name": "nft_address",
              "type": "address"
            },
            {
              "internalType": "uint256",
              "name": "nft_id",
              "type": "uint256"
            },
            {
              "internalType": "uint256",
              "name": "total",
              "type": "uint256"
            },
            {
              "internalType": "bool",
              "name": "closed",
              "type": "bool"
            },
            {
              "internalType": "address[]",
              "name": "participants",
              "type": "address[]"
            }
          ],
          "internalType": "struct Pool.Party",
          "name": "",
          "type": "tuple"
        }
      ],
      "stateMutability": "view",
      "type": "function",
      "constant": true
    },
    {
      "inputs": [
        {
          "internalType": "uint256",
          "name": "_pool_id",
          "type": "uint256"
        },
        {
          "internalType": "address",
          "name": "_user",
          "type": "address"
        }
      ],
      "name": "check_participant_in_pool",
      "outputs": [
        {
          "internalType": "bool",
          "name": "",
          "type": "bool"
        }
      ],
      "stateMutability": "view",
      "type": "function",
      "constant": true
    },
    {
      "inputs": [
        {
          "internalType": "uint256",
          "name": "_pool_id",
          "type": "uint256"
        },
        {
          "internalType": "address",
          "name": "_user",
          "type": "address"
        }
      ],
      "name": "get_absolute",
      "outputs": [
        {
          "internalType": "uint256",
          "name": "",
          "type": "uint256"
        }
      ],
      "stateMutability": "view",
      "type": "function",
      "constant": true
    },
    {
      "inputs": [
        {
          "internalType": "uint256",
          "name": "_pool_id",
          "type": "uint256"
        }
      ],
      "name": "get_total",
      "outputs": [
        {
          "internalType": "uint256",
          "name": "",
          "type": "uint256"
        }
      ],
      "stateMutability": "view",
      "type": "function",
      "constant": true
    },
    {
      "inputs": [
        {
          "internalType": "uint256",
          "name": "_pool_id",
          "type": "uint256"
        },
        {
          "internalType": "address",
          "name": "_dao_address",
          "type": "address"
        },
        {
          "internalType": "contract IERC20",
          "name": "_dao_token",
          "type": "address"
        }
      ],
      "name": "distribute_dao_tokens",
      "outputs": [],
      "stateMutability": "nonpayable",
      "type": "function"
    },
    {
      "inputs": [
        {
          "internalType": "address",
          "name": "_user",
          "type": "address"
        }
      ],
      "name": "get_user_daos",
      "outputs": [
        {
          "internalType": "address[]",
          "name": "",
          "type": "address[]"
        }
      ],
      "stateMutability": "nonpayable",
      "type": "function"
    }
  ],
  "bytecode": "0x608060405234801561001057600080fd5b50336000806101000a81548173ffffffffffffffffffffffffffffffffffffffff021916908373ffffffffffffffffffffffffffffffffffffffff160217905550611fa4806100606000396000f3fe60806040526004361061009c5760003560e01c80638da5cb5b116100645780638da5cb5b146101be5780639215d96f146101e95780639d8ad6e414610227578063a5a3901214610252578063b1183c531461028f578063cf12433d146102cc5761009c565b806307a67fb3146100a157806338a1ada4146100de5780634442a49c1461011b5780635f9530101461015857806376561eb014610181575b600080fd5b3480156100ad57600080fd5b506100c860048036038101906100c391906115d6565b6102e8565b6040516100d59190611a4a565b60405180910390f35b3480156100ea57600080fd5b5061010560048036038101906101009190611543565b61054c565b6040516101129190611a6c565b60405180910390f35b34801561012757600080fd5b50610142600480360381019061013d91906114f1565b6107ab565b60405161014f9190611996565b60405180910390f35b34801561016457600080fd5b5061017f600480360381019061017a9190611664565b610878565b005b34801561018d57600080fd5b506101a860048036038101906101a39190611628565b610cf1565b6040516101b591906119b8565b60405180910390f35b3480156101ca57600080fd5b506101d3610d59565b6040516101e09190611952565b60405180910390f35b3480156101f557600080fd5b50610210600480360381019061020b91906115d6565b610d7d565b60405161021e9291906119d3565b60405180910390f35b34801561023357600080fd5b5061023c610ecd565b6040516102499190611a6c565b60405180910390f35b34801561025e57600080fd5b5061027960048036038101906102749190611628565b610ed3565b6040516102869190611a6c565b60405180910390f35b34801561029b57600080fd5b506102b660048036038101906102b191906115d6565b610f2e565b6040516102c39190611a6c565b60405180910390f35b6102e660048036038101906102e191906115d6565b610f4e565b005b6102f0611289565b600460008381526020019081526020016000206040518060e001604052908160008201805461031e90611d30565b80601f016020809104026020016040519081016040528092919081815260200182805461034a90611d30565b80156103975780601f1061036c57610100808354040283529160200191610397565b820191906000526020600020905b81548152906001019060200180831161037a57829003601f168201915b505050505081526020016001820180546103b090611d30565b80601f01602080910402602001604051908101604052809291908181526020018280546103dc90611d30565b80156104295780601f106103fe57610100808354040283529160200191610429565b820191906000526020600020905b81548152906001019060200180831161040c57829003601f168201915b505050505081526020016002820160009054906101000a900473ffffffffffffffffffffffffffffffffffffffff1673ffffffffffffffffffffffffffffffffffffffff1673ffffffffffffffffffffffffffffffffffffffff16815260200160038201548152602001600482015481526020016005820160009054906101000a900460ff161515151581526020016006820180548060200260200160405190810160405280929190818152602001828054801561053c57602002820191906000526020600020905b8160009054906101000a900473ffffffffffffffffffffffffffffffffffffffff1673ffffffffffffffffffffffffffffffffffffffff16815260200190600101908083116104f2575b5050505050815250509050919050565b600080600560008773ffffffffffffffffffffffffffffffffffffffff1673ffffffffffffffffffffffffffffffffffffffff168152602001908152602001600020600086815260200190815260200160002054146105fd57600560008673ffffffffffffffffffffffffffffffffffffffff1673ffffffffffffffffffffffffffffffffffffffff16815260200190815260200160002060008581526020019081526020016000205490506107a3565b600180600082825461060f9190611b7d565b92505081905550606060006040518060e001604052808681526020018581526020018873ffffffffffffffffffffffffffffffffffffffff1681526020018781526020016000815260200160001515815260200183815250905080600460006001548152602001908152602001600020600082015181600001908051906020019061069b9291906112de565b5060208201518160010190805190602001906106b89291906112de565b5060408201518160020160006101000a81548173ffffffffffffffffffffffffffffffffffffffff021916908373ffffffffffffffffffffffffffffffffffffffff160217905550606082015181600301556080820151816004015560a08201518160050160006101000a81548160ff02191690831515021790555060c0820151816006019080519060200190610750929190611364565b50905050600154868873ffffffffffffffffffffffffffffffffffffffff167f365da4d82c1a043e1ae188b50efdf5d63783fce5cf1e6e21a3621fdd7deabd6e60405160405180910390a4600154925050505b949350505050565b6060600660008373ffffffffffffffffffffffffffffffffffffffff1673ffffffffffffffffffffffffffffffffffffffff16815260200190815260200160002080548060200260200160405190810160405280929190818152602001828054801561086c57602002820191906000526020600020905b8160009054906101000a900473ffffffffffffffffffffffffffffffffffffffff1673ffffffffffffffffffffffffffffffffffffffff1681526020019060010190808311610822575b50505050509050919050565b6000151560046000600154815260200190815260200160002060050160009054906101000a900460ff161515146108e4576040517f08c379a00000000000000000000000000000000000000000000000000000000081526004016108db90611a0a565b60405180910390fd5b60016004600085815260200190815260200160002060050160006101000a81548160ff021916908315150217905550600060046000858152602001908152602001600020600401548273ffffffffffffffffffffffffffffffffffffffff166318160ddd6040518163ffffffff1660e01b815260040160206040518083038186803b15801561097257600080fd5b505afa158015610986573d6000803e3d6000fd5b505050506040513d601f19601f820116820180604052508101906109aa91906115ff565b6109b49190611bd3565b9050600060046000868152602001908152602001600020905060008490508373ffffffffffffffffffffffffffffffffffffffff1663095ea7b3868673ffffffffffffffffffffffffffffffffffffffff166318160ddd6040518163ffffffff1660e01b815260040160206040518083038186803b158015610a3557600080fd5b505afa158015610a49573d6000803e3d6000fd5b505050506040513d601f19601f82011682018060405250810190610a6d91906115ff565b6040518363ffffffff1660e01b8152600401610a8a92919061196d565b602060405180830381600087803b158015610aa457600080fd5b505af1158015610ab8573d6000803e3d6000fd5b505050506040513d601f19601f82011682018060405250810190610adc919061151a565b5060005b6004600088815260200190815260200160002060060180549050811015610ce8576000836006018281548110610b3f577f4e487b7100000000000000000000000000000000000000000000000000000000600052603260045260246000fd5b9060005260206000200160009054906101000a900473ffffffffffffffffffffffffffffffffffffffff1690508273ffffffffffffffffffffffffffffffffffffffff1663561f4a6a86600260008c815260200190815260200160002060008573ffffffffffffffffffffffffffffffffffffffff1673ffffffffffffffffffffffffffffffffffffffff16815260200190815260200160002054610be49190611c04565b836040518363ffffffff1660e01b8152600401610c02929190611a87565b600060405180830381600087803b158015610c1c57600080fd5b505af1158015610c30573d6000803e3d6000fd5b50505050600660008273ffffffffffffffffffffffffffffffffffffffff1673ffffffffffffffffffffffffffffffffffffffff168152602001908152602001600020879080600181540180825580915050600190039060005260206000200160009091909190916101000a81548173ffffffffffffffffffffffffffffffffffffffff021916908373ffffffffffffffffffffffffffffffffffffffff160217905550508080610ce090611d93565b915050610ae0565b50505050505050565b60006003600084815260200190815260200160002060008373ffffffffffffffffffffffffffffffffffffffff1673ffffffffffffffffffffffffffffffffffffffff16815260200190815260200160002060009054906101000a900460ff16905092915050565b60008054906101000a900473ffffffffffffffffffffffffffffffffffffffff1681565b6060806004600084815260200190815260200160002060000160046000858152602001908152602001600020600101818054610db890611d30565b80601f0160208091040260200160405190810160405280929190818152602001828054610de490611d30565b8015610e315780601f10610e0657610100808354040283529160200191610e31565b820191906000526020600020905b815481529060010190602001808311610e1457829003601f168201915b50505050509150808054610e4490611d30565b80601f0160208091040260200160405190810160405280929190818152602001828054610e7090611d30565b8015610ebd5780601f10610e9257610100808354040283529160200191610ebd565b820191906000526020600020905b815481529060010190602001808311610ea057829003601f168201915b5050505050905091509150915091565b60015481565b60006002600084815260200190815260200160002060008373ffffffffffffffffffffffffffffffffffffffff1673ffffffffffffffffffffffffffffffffffffffff16815260200190815260200160002054905092915050565b600060046000838152602001908152602001600020600401549050919050565b600154811115610f93576040517f08c379a0000000000000000000000000000000000000000000000000000000008152600401610f8a90611a2a565b60405180910390fd5b6000151560046000600154815260200190815260200160002060050160009054906101000a900460ff16151514610fff576040517f08c379a0000000000000000000000000000000000000000000000000000000008152600401610ff690611a0a565b60405180910390fd5b6001151560036000600154815260200190815260200160002060003373ffffffffffffffffffffffffffffffffffffffff1673ffffffffffffffffffffffffffffffffffffffff16815260200190815260200160002060009054906101000a900460ff1615151461114f57600460006001548152602001908152602001600020600601339080600181540180825580915050600190039060005260206000200160009091909190916101000a81548173ffffffffffffffffffffffffffffffffffffffff021916908373ffffffffffffffffffffffffffffffffffffffff160217905550600160036000600154815260200190815260200160002060003373ffffffffffffffffffffffffffffffffffffffff1673ffffffffffffffffffffffffffffffffffffffff16815260200190815260200160002060006101000a81548160ff0219169083151502179055505b346002600083815260200190815260200160002060003373ffffffffffffffffffffffffffffffffffffffff1673ffffffffffffffffffffffffffffffffffffffff16815260200190815260200160002060008282546111af9190611b7d565b925050819055503460046000600154815260200190815260200160002060040160008282546111de9190611b7d565b925050819055506004600060015481526020019081526020016000206003015460046000600154815260200190815260200160002060020160009054906101000a900473ffffffffffffffffffffffffffffffffffffffff1673ffffffffffffffffffffffffffffffffffffffff167f70fe5df63fc76eaa9159b26105d2ee3c345742207dc75d838bc560ac0f9862e0333460405161127e92919061196d565b60405180910390a350565b6040518060e001604052806060815260200160608152602001600073ffffffffffffffffffffffffffffffffffffffff1681526020016000815260200160008152602001600015158152602001606081525090565b8280546112ea90611d30565b90600052602060002090601f01602090048101928261130c5760008555611353565b82601f1061132557805160ff1916838001178555611353565b82800160010185558215611353579182015b82811115611352578251825591602001919060010190611337565b5b50905061136091906113ee565b5090565b8280548282559060005260206000209081019282156113dd579160200282015b828111156113dc5782518260006101000a81548173ffffffffffffffffffffffffffffffffffffffff021916908373ffffffffffffffffffffffffffffffffffffffff16021790555091602001919060010190611384565b5b5090506113ea91906113ee565b5090565b5b808211156114075760008160009055506001016113ef565b5090565b600061141e61141984611ad5565b611ab0565b90508281526020810184848401111561143657600080fd5b611441848285611cee565b509392505050565b60008135905061145881611efb565b92915050565b60008151905061146d81611f12565b92915050565b60008135905061148281611f29565b92915050565b60008135905061149781611f40565b92915050565b600082601f8301126114ae57600080fd5b81356114be84826020860161140b565b91505092915050565b6000813590506114d681611f57565b92915050565b6000815190506114eb81611f57565b92915050565b60006020828403121561150357600080fd5b600061151184828501611449565b91505092915050565b60006020828403121561152c57600080fd5b600061153a8482850161145e565b91505092915050565b6000806000806080858703121561155957600080fd5b600061156787828801611488565b9450506020611578878288016114c7565b935050604085013567ffffffffffffffff81111561159557600080fd5b6115a18782880161149d565b925050606085013567ffffffffffffffff8111156115be57600080fd5b6115ca8782880161149d565b91505092959194509250565b6000602082840312156115e857600080fd5b60006115f6848285016114c7565b91505092915050565b60006020828403121561161157600080fd5b600061161f848285016114dc565b91505092915050565b6000806040838503121561163b57600080fd5b6000611649858286016114c7565b925050602061165a85828601611449565b9150509250929050565b60008060006060848603121561167957600080fd5b6000611687868287016114c7565b935050602061169886828701611449565b92505060406116a986828701611473565b9150509250925092565b60006116bf83836116cb565b60208301905092915050565b6116d481611c5e565b82525050565b6116e381611c5e565b82525050565b60006116f482611b16565b6116fe8185611b39565b935061170983611b06565b8060005b8381101561173a57815161172188826116b3565b975061172c83611b2c565b92505060018101905061170d565b5085935050505092915050565b600061175282611b16565b61175c8185611b4a565b935061176783611b06565b8060005b8381101561179857815161177f88826116b3565b975061178a83611b2c565b92505060018101905061176b565b5085935050505092915050565b6117ae81611c70565b82525050565b6117bd81611c70565b82525050565b6117cc81611cca565b82525050565b60006117dd82611b21565b6117e78185611b5b565b93506117f7818560208601611cfd565b61180081611e98565b840191505092915050565b600061181682611b21565b6118208185611b6c565b9350611830818560208601611cfd565b61183981611e98565b840191505092915050565b6000611851601383611b6c565b915061185c82611ea9565b602082019050919050565b6000611874601883611b6c565b915061187f82611ed2565b602082019050919050565b600060e08301600083015184820360008601526118a782826117d2565b915050602083015184820360208601526118c182826117d2565b91505060408301516118d660408601826117c3565b5060608301516118e96060860182611934565b5060808301516118fc6080860182611934565b5060a083015161190f60a08601826117a5565b5060c083015184820360c086015261192782826116e9565b9150508091505092915050565b61193d81611cc0565b82525050565b61194c81611cc0565b82525050565b600060208201905061196760008301846116da565b92915050565b600060408201905061198260008301856116da565b61198f6020830184611943565b9392505050565b600060208201905081810360008301526119b08184611747565b905092915050565b60006020820190506119cd60008301846117b4565b92915050565b600060408201905081810360008301526119ed818561180b565b90508181036020830152611a01818461180b565b90509392505050565b60006020820190508181036000830152611a2381611844565b9050919050565b60006020820190508181036000830152611a4381611867565b9050919050565b60006020820190508181036000830152611a64818461188a565b905092915050565b6000602082019050611a816000830184611943565b92915050565b6000604082019050611a9c6000830185611943565b611aa960208301846116da565b9392505050565b6000611aba611acb565b9050611ac68282611d62565b919050565b6000604051905090565b600067ffffffffffffffff821115611af057611aef611e69565b5b611af982611e98565b9050602081019050919050565b6000819050602082019050919050565b600081519050919050565b600081519050919050565b6000602082019050919050565b600082825260208201905092915050565b600082825260208201905092915050565b600082825260208201905092915050565b600082825260208201905092915050565b6000611b8882611cc0565b9150611b9383611cc0565b9250827fffffffffffffffffffffffffffffffffffffffffffffffffffffffffffffffff03821115611bc857611bc7611ddc565b5b828201905092915050565b6000611bde82611cc0565b9150611be983611cc0565b925082611bf957611bf8611e0b565b5b828204905092915050565b6000611c0f82611cc0565b9150611c1a83611cc0565b9250817fffffffffffffffffffffffffffffffffffffffffffffffffffffffffffffffff0483118215151615611c5357611c52611ddc565b5b828202905092915050565b6000611c6982611ca0565b9050919050565b60008115159050919050565b6000611c8782611c5e565b9050919050565b6000611c9982611c5e565b9050919050565b600073ffffffffffffffffffffffffffffffffffffffff82169050919050565b6000819050919050565b6000611cd582611cdc565b9050919050565b6000611ce782611ca0565b9050919050565b82818337600083830152505050565b60005b83811015611d1b578082015181840152602081019050611d00565b83811115611d2a576000848401525b50505050565b60006002820490506001821680611d4857607f821691505b60208210811415611d5c57611d5b611e3a565b5b50919050565b611d6b82611e98565b810181811067ffffffffffffffff82111715611d8a57611d89611e69565b5b80604052505050565b6000611d9e82611cc0565b91507fffffffffffffffffffffffffffffffffffffffffffffffffffffffffffffffff821415611dd157611dd0611ddc565b5b600182019050919050565b7f4e487b7100000000000000000000000000000000000000000000000000000000600052601160045260246000fd5b7f4e487b7100000000000000000000000000000000000000000000000000000000600052601260045260246000fd5b7f4e487b7100000000000000000000000000000000000000000000000000000000600052602260045260246000fd5b7f4e487b7100000000000000000000000000000000000000000000000000000000600052604160045260246000fd5b6000601f19601f8301169050919050565b7f5468697320706f6f6c20697320636c6f73656400000000000000000000000000600082015250565b7f5468697320706f6f6c7320646f65736e27742065786973740000000000000000600082015250565b611f0481611c5e565b8114611f0f57600080fd5b50565b611f1b81611c70565b8114611f2657600080fd5b50565b611f3281611c7c565b8114611f3d57600080fd5b50565b611f4981611c8e565b8114611f5457600080fd5b50565b611f6081611cc0565b8114611f6b57600080fd5b5056fea26469706673582212207e30bb26263904abbfc00848d40dc453df14b5cd370c8adb4e587498498ebfb364736f6c63430008040033",
  "immutableReferences": {},
  "source": "pragma solidity ^0.8.0;\nimport \"@openzeppelin/contracts/token/ERC721/IERC721.sol\";\nimport \"@openzeppelin/contracts/token/ERC20/IERC20.sol\";\nimport \"./Dao.sol\";\nimport \"./DaoToken.sol\";\nimport \"./Factory.sol\";\n\n\ncontract Pool {\n    address public owner;\n    \n    struct Party {\n        /*\n        Contains the properties of the target IERC721 token.\n        */\n        string party_name;\n        string ticker;\n        // Store the account address.\n        IERC721 nft_address;\n        // Store the ID of the token.\n        uint nft_id;\n        // Store the total deposited sum.\n        uint total;\n        // Track whether the acquisition process is already closed.\n        bool closed;\n        // Store the array of all unique participanting addresses.\n        address[] participants;\n    }\n\n    uint public pool_id;\n    // function get_pool_id() public view returns(uint) {return pool_id;}\n    // Map pool_id => user address => absolute deposit amount.\n    mapping(uint => mapping(address => uint)) shares;\n    // Store whether the user participates the specific pool. \n    // pool_id => user address => bool is participant.\n    mapping(uint => mapping(address => bool)) participant_in_pool;\n    mapping(uint => Party) pools;\n    // Map target IERC721 address and ID to the pool ID.\n    mapping(IERC721 => mapping(uint => uint)) pool_id_by_nft;\n    // Map users to all DAOs they've ever participated.\n    mapping(address => address[]) user_to_daos;\n\n    // Declare the events.\n    event NewDeposit(IERC721 indexed nft_address, uint indexed nft_id, address sender, uint deposit);\n    event NewParty(IERC721 indexed nft_address, uint indexed nft_id, uint indexed pool_id);\n    event DistributionDaoToken(IERC721 indexed nft_address, uint nft_id, address sender);\n    event TotalDaoToken(IERC721 indexed nft_address, uint nft_id, address sender);\n\n\n    constructor(){\n        owner = msg.sender;\n    }\n\n    function new_party(IERC721 _nft_address, uint _nft_id, string memory _party_name, string memory _ticker) public returns (uint) {\n        if (pool_id_by_nft[_nft_address][_nft_id] != 0) {\n            return pool_id_by_nft[_nft_address][_nft_id];\n        }\n        pool_id += 1;\n        address[] memory empty;\n        Party memory party = Party(_party_name, _ticker, _nft_address, _nft_id, 0, false, empty);\n        pools[pool_id] = party;\n        emit NewParty(_nft_address, _nft_id, pool_id);\n        return pool_id;\n    }\n\n    function set_deposit(uint _pool_id) public payable {\n        /*\n        Receive the payment and update the pool statistics.\n        */\n        require(_pool_id <= pool_id, \"This pools doesn't exist\");\n        require(pools[pool_id].closed == false, \"This pool is closed\");\n        if (participant_in_pool[pool_id][msg.sender] != true) {\n            pools[pool_id].participants.push(msg.sender);\n            participant_in_pool[pool_id][msg.sender] = true;\n        }\n        shares[_pool_id][msg.sender] += msg.value;\n        pools[pool_id].total += msg.value;  \n        emit NewDeposit(pools[pool_id].nft_address, pools[pool_id].nft_id, msg.sender, msg.value);\n    }\n\n    function get_pool_description(uint _pool_id) public view returns (string memory, string memory) {\n        return (pools[_pool_id].party_name, pools[_pool_id].ticker);\n    }\n\n    function get_pool(uint _pool_id) public view returns (Party memory) {\n        return pools[_pool_id];\n    }\n\n    function check_participant_in_pool(uint _pool_id, address _user) public view returns (bool) {\n        return participant_in_pool[_pool_id][_user];\n    }\n\n    function get_absolute(uint _pool_id, address _user) public view returns (uint) {\n        /*\n        Get the absolute amount of WEI deposited by the specified user to the target `IERC721` token.\n        */\n        return shares[_pool_id][_user];\n    }\n\n    function get_total(uint _pool_id) public view returns (uint) {\n        /*\n        Get the total deposit sum for the target `IERC721` token.\n        */\n        return pools[_pool_id].total;\n    }\n\n    function distribute_dao_tokens(uint _pool_id, address _dao_address, IERC20 _dao_token) public {\n        require(pools[pool_id].closed == false, \"This pool is closed\");\n        pools[_pool_id].closed = true;\n        uint k = _dao_token.totalSupply() / pools[_pool_id].total;\n        Party storage pool = pools[_pool_id];\n        Dao dao = Dao(_dao_address);\n        _dao_token.approve(_dao_address, _dao_token.totalSupply());\n        for (uint i = 0; i < pools[_pool_id].participants.length; i++) {\n            address recipient = pool.participants[i];\n            dao.auto_stake(shares[_pool_id][recipient]*k, recipient);\n            user_to_daos[recipient].push(_dao_address);\n        }\n    }\n\n    function get_user_daos(address _user) public returns (address[] memory){\n        return user_to_daos[_user];\n    }\n}",
  "sourcePath": "/Users/y.sosunov/git/definition-hackathon/onchain/contracts/Pool.sol",
  "compiler": {
    "name": "solc",
    "version": "0.8.4+commit.c7e474f2.Emscripten.clang"
  },
  "schemaVersion": "3.3.4",
  "updatedAt": "2021-09-26T08:33:36.175Z",
  "networkType": "ethereum",
  "devdoc": {
    "kind": "dev",
    "methods": {},
    "version": 1
  },
  "userdoc": {
    "kind": "user",
    "methods": {},
    "version": 1
  }
}