{
  "contractName": "Pool",
  "abi": [
    {
      "inputs": [],
      "stateMutability": "nonpayable",
      "type": "constructor"
    },
    {
      "anonymous": false,
      "inputs": [
        {
          "indexed": true,
          "internalType": "contract IERC721",
          "name": "nft_address",
          "type": "address"
        },
        {
          "indexed": false,
          "internalType": "uint256",
          "name": "nft_id",
          "type": "uint256"
        },
        {
          "indexed": false,
          "internalType": "address",
          "name": "sender",
          "type": "address"
        }
      ],
      "name": "DistributionDaoToken",
      "type": "event"
    },
    {
      "anonymous": false,
      "inputs": [
        {
          "indexed": true,
          "internalType": "contract IERC721",
          "name": "nft_address",
          "type": "address"
        },
        {
          "indexed": true,
          "internalType": "uint256",
          "name": "nft_id",
          "type": "uint256"
        },
        {
          "indexed": false,
          "internalType": "address",
          "name": "sender",
          "type": "address"
        },
        {
          "indexed": false,
          "internalType": "uint256",
          "name": "deposit",
          "type": "uint256"
        }
      ],
      "name": "NewDeposit",
      "type": "event"
    },
    {
      "anonymous": false,
      "inputs": [
        {
          "indexed": true,
          "internalType": "contract IERC721",
          "name": "nft_address",
          "type": "address"
        },
        {
          "indexed": true,
          "internalType": "uint256",
          "name": "nft_id",
          "type": "uint256"
        },
        {
          "indexed": true,
          "internalType": "uint256",
          "name": "pool_id",
          "type": "uint256"
        }
      ],
      "name": "NewParty",
      "type": "event"
    },
    {
      "anonymous": false,
      "inputs": [
        {
          "indexed": true,
          "internalType": "contract IERC721",
          "name": "nft_address",
          "type": "address"
        },
        {
          "indexed": false,
          "internalType": "uint256",
          "name": "nft_id",
          "type": "uint256"
        },
        {
          "indexed": false,
          "internalType": "address",
          "name": "sender",
          "type": "address"
        }
      ],
      "name": "TotalDaoToken",
      "type": "event"
    },
    {
      "inputs": [],
      "name": "owner",
      "outputs": [
        {
          "internalType": "address",
          "name": "",
          "type": "address"
        }
      ],
      "stateMutability": "view",
      "type": "function"
    },
    {
      "inputs": [],
      "name": "pool_id",
      "outputs": [
        {
          "internalType": "uint256",
          "name": "",
          "type": "uint256"
        }
      ],
      "stateMutability": "view",
      "type": "function"
    },
    {
      "inputs": [
        {
          "internalType": "contract IERC721",
          "name": "_nft_address",
          "type": "address"
        },
        {
          "internalType": "uint256",
          "name": "_nft_id",
          "type": "uint256"
        },
        {
          "internalType": "string",
          "name": "_party_name",
          "type": "string"
        },
        {
          "internalType": "string",
          "name": "_ticker",
          "type": "string"
        }
      ],
      "name": "new_party",
      "outputs": [
        {
          "internalType": "uint256",
          "name": "",
          "type": "uint256"
        }
      ],
      "stateMutability": "nonpayable",
      "type": "function"
    },
    {
      "inputs": [
        {
          "internalType": "uint256",
          "name": "_pool_id",
          "type": "uint256"
        }
      ],
      "name": "set_deposit",
      "outputs": [],
      "stateMutability": "payable",
      "type": "function"
    },
    {
      "inputs": [
        {
          "internalType": "uint256",
          "name": "_pool_id",
          "type": "uint256"
        }
      ],
      "name": "get_pool_description",
      "outputs": [
        {
          "internalType": "string",
          "name": "",
          "type": "string"
        },
        {
          "internalType": "string",
          "name": "",
          "type": "string"
        }
      ],
      "stateMutability": "view",
      "type": "function"
    },
    {
      "inputs": [
        {
          "internalType": "uint256",
          "name": "_pool_id",
          "type": "uint256"
        }
      ],
      "name": "get_pool",
      "outputs": [
        {
          "components": [
            {
              "internalType": "string",
              "name": "party_name",
              "type": "string"
            },
            {
              "internalType": "string",
              "name": "ticker",
              "type": "string"
            },
            {
              "internalType": "contract IERC721",
              "name": "nft_address",
              "type": "address"
            },
            {
              "internalType": "uint256",
              "name": "nft_id",
              "type": "uint256"
            },
            {
              "internalType": "uint256",
              "name": "total",
              "type": "uint256"
            },
            {
              "internalType": "bool",
              "name": "closed",
              "type": "bool"
            },
            {
              "internalType": "address[]",
              "name": "participants",
              "type": "address[]"
            }
          ],
          "internalType": "struct Pool.Party",
          "name": "",
          "type": "tuple"
        }
      ],
      "stateMutability": "view",
      "type": "function"
    },
    {
      "inputs": [
        {
          "internalType": "uint256",
          "name": "_pool_id",
          "type": "uint256"
        },
        {
          "internalType": "address",
          "name": "_user",
          "type": "address"
        }
      ],
      "name": "check_participant_in_pool",
      "outputs": [
        {
          "internalType": "bool",
          "name": "",
          "type": "bool"
        }
      ],
      "stateMutability": "view",
      "type": "function"
    },
    {
      "inputs": [
        {
          "internalType": "uint256",
          "name": "_pool_id",
          "type": "uint256"
        },
        {
          "internalType": "address",
          "name": "_user",
          "type": "address"
        }
      ],
      "name": "get_absolute",
      "outputs": [
        {
          "internalType": "uint256",
          "name": "",
          "type": "uint256"
        }
      ],
      "stateMutability": "view",
      "type": "function"
    },
    {
      "inputs": [
        {
          "internalType": "uint256",
          "name": "_pool_id",
          "type": "uint256"
        }
      ],
      "name": "get_total",
      "outputs": [
        {
          "internalType": "uint256",
          "name": "",
          "type": "uint256"
        }
      ],
      "stateMutability": "view",
      "type": "function"
    },
    {
      "inputs": [
        {
          "internalType": "uint256",
          "name": "_pool_id",
          "type": "uint256"
        },
        {
          "internalType": "contract IERC20",
          "name": "_dao_token",
          "type": "address"
        }
      ],
      "name": "distribute_dao_tokens",
      "outputs": [],
      "stateMutability": "nonpayable",
      "type": "function"
    }
  ],
  "bytecode": "0x608060405234801561001057600080fd5b50336000806101000a81548173ffffffffffffffffffffffffffffffffffffffff021916908373ffffffffffffffffffffffffffffffffffffffff160217905550611c08806100606000396000f3fe6080604052600436106100915760003560e01c80639215d96f116100595780639215d96f146101a15780639d8ad6e4146101df578063a5a390121461020a578063b1183c5314610247578063cf12433d1461028457610091565b806307a67fb31461009657806338a1ada4146100d357806368bd44001461011057806376561eb0146101395780638da5cb5b14610176575b600080fd5b3480156100a257600080fd5b506100bd60048036038101906100b89190611307565b6102a0565b6040516100ca91906116e8565b60405180910390f35b3480156100df57600080fd5b506100fa60048036038101906100f59190611274565b610504565b604051610107919061170a565b60405180910390f35b34801561011c57600080fd5b5061013760048036038101906101329190611395565b610763565b005b34801561014557600080fd5b50610160600480360381019061015b9190611359565b610a4b565b60405161016d9190611656565b60405180910390f35b34801561018257600080fd5b5061018b610ab3565b6040516101989190611612565b60405180910390f35b3480156101ad57600080fd5b506101c860048036038101906101c39190611307565b610ad7565b6040516101d6929190611671565b60405180910390f35b3480156101eb57600080fd5b506101f4610c27565b604051610201919061170a565b60405180910390f35b34801561021657600080fd5b50610231600480360381019061022c9190611359565b610c2d565b60405161023e919061170a565b60405180910390f35b34801561025357600080fd5b5061026e60048036038101906102699190611307565b610c88565b60405161027b919061170a565b60405180910390f35b61029e60048036038101906102999190611307565b610ca8565b005b6102a8610fe3565b600460008381526020019081526020016000206040518060e00160405290816000820180546102d690611994565b80601f016020809104026020016040519081016040528092919081815260200182805461030290611994565b801561034f5780601f106103245761010080835404028352916020019161034f565b820191906000526020600020905b81548152906001019060200180831161033257829003601f168201915b5050505050815260200160018201805461036890611994565b80601f016020809104026020016040519081016040528092919081815260200182805461039490611994565b80156103e15780601f106103b6576101008083540402835291602001916103e1565b820191906000526020600020905b8154815290600101906020018083116103c457829003601f168201915b505050505081526020016002820160009054906101000a900473ffffffffffffffffffffffffffffffffffffffff1673ffffffffffffffffffffffffffffffffffffffff1673ffffffffffffffffffffffffffffffffffffffff16815260200160038201548152602001600482015481526020016005820160009054906101000a900460ff16151515158152602001600682018054806020026020016040519081016040528092919081815260200182805480156104f457602002820191906000526020600020905b8160009054906101000a900473ffffffffffffffffffffffffffffffffffffffff1673ffffffffffffffffffffffffffffffffffffffff16815260200190600101908083116104aa575b5050505050815250509050919050565b600080600560008773ffffffffffffffffffffffffffffffffffffffff1673ffffffffffffffffffffffffffffffffffffffff168152602001908152602001600020600086815260200190815260200160002054146105b557600560008673ffffffffffffffffffffffffffffffffffffffff1673ffffffffffffffffffffffffffffffffffffffff168152602001908152602001600020600085815260200190815260200160002054905061075b565b60018060008282546105c791906117e1565b92505081905550606060006040518060e001604052808681526020018581526020018873ffffffffffffffffffffffffffffffffffffffff16815260200187815260200160008152602001600015158152602001838152509050806004600060015481526020019081526020016000206000820151816000019080519060200190610653929190611038565b506020820151816001019080519060200190610670929190611038565b5060408201518160020160006101000a81548173ffffffffffffffffffffffffffffffffffffffff021916908373ffffffffffffffffffffffffffffffffffffffff160217905550606082015181600301556080820151816004015560a08201518160050160006101000a81548160ff02191690831515021790555060c08201518160060190805190602001906107089291906110be565b50905050600154868873ffffffffffffffffffffffffffffffffffffffff167f365da4d82c1a043e1ae188b50efdf5d63783fce5cf1e6e21a3621fdd7deabd6e60405160405180910390a4600154925050505b949350505050565b6000151560046000600154815260200190815260200160002060050160009054906101000a900460ff161515146107cf576040517f08c379a00000000000000000000000000000000000000000000000000000000081526004016107c6906116a8565b60405180910390fd5b60016004600084815260200190815260200160002060050160006101000a81548160ff021916908315150217905550600060046000848152602001908152602001600020600401548273ffffffffffffffffffffffffffffffffffffffff166318160ddd6040518163ffffffff1660e01b815260040160206040518083038186803b15801561085d57600080fd5b505afa158015610871573d6000803e3d6000fd5b505050506040513d601f19601f820116820180604052508101906108959190611330565b61089f9190611837565b9050600060046000858152602001908152602001600020905060005b6004600086815260200190815260200160002060060180549050811015610a4457600082600601828154811061091a577f4e487b7100000000000000000000000000000000000000000000000000000000600052603260045260246000fd5b9060005260206000200160009054906101000a900473ffffffffffffffffffffffffffffffffffffffff1690508473ffffffffffffffffffffffffffffffffffffffff1663a9059cbb8286600260008b815260200190815260200160002060008673ffffffffffffffffffffffffffffffffffffffff1673ffffffffffffffffffffffffffffffffffffffff168152602001908152602001600020546109c09190611868565b6040518363ffffffff1660e01b81526004016109dd92919061162d565b602060405180830381600087803b1580156109f757600080fd5b505af1158015610a0b573d6000803e3d6000fd5b505050506040513d601f19601f82011682018060405250810190610a2f919061124b565b50508080610a3c906119f7565b9150506108bb565b5050505050565b60006003600084815260200190815260200160002060008373ffffffffffffffffffffffffffffffffffffffff1673ffffffffffffffffffffffffffffffffffffffff16815260200190815260200160002060009054906101000a900460ff16905092915050565b60008054906101000a900473ffffffffffffffffffffffffffffffffffffffff1681565b6060806004600084815260200190815260200160002060000160046000858152602001908152602001600020600101818054610b1290611994565b80601f0160208091040260200160405190810160405280929190818152602001828054610b3e90611994565b8015610b8b5780601f10610b6057610100808354040283529160200191610b8b565b820191906000526020600020905b815481529060010190602001808311610b6e57829003601f168201915b50505050509150808054610b9e90611994565b80601f0160208091040260200160405190810160405280929190818152602001828054610bca90611994565b8015610c175780601f10610bec57610100808354040283529160200191610c17565b820191906000526020600020905b815481529060010190602001808311610bfa57829003601f168201915b5050505050905091509150915091565b60015481565b60006002600084815260200190815260200160002060008373ffffffffffffffffffffffffffffffffffffffff1673ffffffffffffffffffffffffffffffffffffffff16815260200190815260200160002054905092915050565b600060046000838152602001908152602001600020600401549050919050565b600154811115610ced576040517f08c379a0000000000000000000000000000000000000000000000000000000008152600401610ce4906116c8565b60405180910390fd5b6000151560046000600154815260200190815260200160002060050160009054906101000a900460ff16151514610d59576040517f08c379a0000000000000000000000000000000000000000000000000000000008152600401610d50906116a8565b60405180910390fd5b6001151560036000600154815260200190815260200160002060003373ffffffffffffffffffffffffffffffffffffffff1673ffffffffffffffffffffffffffffffffffffffff16815260200190815260200160002060009054906101000a900460ff16151514610ea957600460006001548152602001908152602001600020600601339080600181540180825580915050600190039060005260206000200160009091909190916101000a81548173ffffffffffffffffffffffffffffffffffffffff021916908373ffffffffffffffffffffffffffffffffffffffff160217905550600160036000600154815260200190815260200160002060003373ffffffffffffffffffffffffffffffffffffffff1673ffffffffffffffffffffffffffffffffffffffff16815260200190815260200160002060006101000a81548160ff0219169083151502179055505b346002600083815260200190815260200160002060003373ffffffffffffffffffffffffffffffffffffffff1673ffffffffffffffffffffffffffffffffffffffff1681526020019081526020016000206000828254610f0991906117e1565b92505081905550346004600060015481526020019081526020016000206004016000828254610f3891906117e1565b925050819055506004600060015481526020019081526020016000206003015460046000600154815260200190815260200160002060020160009054906101000a900473ffffffffffffffffffffffffffffffffffffffff1673ffffffffffffffffffffffffffffffffffffffff167f70fe5df63fc76eaa9159b26105d2ee3c345742207dc75d838bc560ac0f9862e03334604051610fd892919061162d565b60405180910390a350565b6040518060e001604052806060815260200160608152602001600073ffffffffffffffffffffffffffffffffffffffff1681526020016000815260200160008152602001600015158152602001606081525090565b82805461104490611994565b90600052602060002090601f01602090048101928261106657600085556110ad565b82601f1061107f57805160ff19168380011785556110ad565b828001600101855582156110ad579182015b828111156110ac578251825591602001919060010190611091565b5b5090506110ba9190611148565b5090565b828054828255906000526020600020908101928215611137579160200282015b828111156111365782518260006101000a81548173ffffffffffffffffffffffffffffffffffffffff021916908373ffffffffffffffffffffffffffffffffffffffff160217905550916020019190600101906110de565b5b5090506111449190611148565b5090565b5b80821115611161576000816000905550600101611149565b5090565b60006111786111738461174a565b611725565b90508281526020810184848401111561119057600080fd5b61119b848285611952565b509392505050565b6000813590506111b281611b5f565b92915050565b6000815190506111c781611b76565b92915050565b6000813590506111dc81611b8d565b92915050565b6000813590506111f181611ba4565b92915050565b600082601f83011261120857600080fd5b8135611218848260208601611165565b91505092915050565b60008135905061123081611bbb565b92915050565b60008151905061124581611bbb565b92915050565b60006020828403121561125d57600080fd5b600061126b848285016111b8565b91505092915050565b6000806000806080858703121561128a57600080fd5b6000611298878288016111e2565b94505060206112a987828801611221565b935050604085013567ffffffffffffffff8111156112c657600080fd5b6112d2878288016111f7565b925050606085013567ffffffffffffffff8111156112ef57600080fd5b6112fb878288016111f7565b91505092959194509250565b60006020828403121561131957600080fd5b600061132784828501611221565b91505092915050565b60006020828403121561134257600080fd5b600061135084828501611236565b91505092915050565b6000806040838503121561136c57600080fd5b600061137a85828601611221565b925050602061138b858286016111a3565b9150509250929050565b600080604083850312156113a857600080fd5b60006113b685828601611221565b92505060206113c7858286016111cd565b9150509250929050565b60006113dd83836113e9565b60208301905092915050565b6113f2816118c2565b82525050565b611401816118c2565b82525050565b60006114128261178b565b61141c81856117ae565b93506114278361177b565b8060005b8381101561145857815161143f88826113d1565b975061144a836117a1565b92505060018101905061142b565b5085935050505092915050565b61146e816118d4565b82525050565b61147d816118d4565b82525050565b61148c8161192e565b82525050565b600061149d82611796565b6114a781856117bf565b93506114b7818560208601611961565b6114c081611afc565b840191505092915050565b60006114d682611796565b6114e081856117d0565b93506114f0818560208601611961565b6114f981611afc565b840191505092915050565b60006115116013836117d0565b915061151c82611b0d565b602082019050919050565b60006115346018836117d0565b915061153f82611b36565b602082019050919050565b600060e08301600083015184820360008601526115678282611492565b915050602083015184820360208601526115818282611492565b91505060408301516115966040860182611483565b5060608301516115a960608601826115f4565b5060808301516115bc60808601826115f4565b5060a08301516115cf60a0860182611465565b5060c083015184820360c08601526115e78282611407565b9150508091505092915050565b6115fd81611924565b82525050565b61160c81611924565b82525050565b600060208201905061162760008301846113f8565b92915050565b600060408201905061164260008301856113f8565b61164f6020830184611603565b9392505050565b600060208201905061166b6000830184611474565b92915050565b6000604082019050818103600083015261168b81856114cb565b9050818103602083015261169f81846114cb565b90509392505050565b600060208201905081810360008301526116c181611504565b9050919050565b600060208201905081810360008301526116e181611527565b9050919050565b60006020820190508181036000830152611702818461154a565b905092915050565b600060208201905061171f6000830184611603565b92915050565b600061172f611740565b905061173b82826119c6565b919050565b6000604051905090565b600067ffffffffffffffff82111561176557611764611acd565b5b61176e82611afc565b9050602081019050919050565b6000819050602082019050919050565b600081519050919050565b600081519050919050565b6000602082019050919050565b600082825260208201905092915050565b600082825260208201905092915050565b600082825260208201905092915050565b60006117ec82611924565b91506117f783611924565b9250827fffffffffffffffffffffffffffffffffffffffffffffffffffffffffffffffff0382111561182c5761182b611a40565b5b828201905092915050565b600061184282611924565b915061184d83611924565b92508261185d5761185c611a6f565b5b828204905092915050565b600061187382611924565b915061187e83611924565b9250817fffffffffffffffffffffffffffffffffffffffffffffffffffffffffffffffff04831182151516156118b7576118b6611a40565b5b828202905092915050565b60006118cd82611904565b9050919050565b60008115159050919050565b60006118eb826118c2565b9050919050565b60006118fd826118c2565b9050919050565b600073ffffffffffffffffffffffffffffffffffffffff82169050919050565b6000819050919050565b600061193982611940565b9050919050565b600061194b82611904565b9050919050565b82818337600083830152505050565b60005b8381101561197f578082015181840152602081019050611964565b8381111561198e576000848401525b50505050565b600060028204905060018216806119ac57607f821691505b602082108114156119c0576119bf611a9e565b5b50919050565b6119cf82611afc565b810181811067ffffffffffffffff821117156119ee576119ed611acd565b5b80604052505050565b6000611a0282611924565b91507fffffffffffffffffffffffffffffffffffffffffffffffffffffffffffffffff821415611a3557611a34611a40565b5b600182019050919050565b7f4e487b7100000000000000000000000000000000000000000000000000000000600052601160045260246000fd5b7f4e487b7100000000000000000000000000000000000000000000000000000000600052601260045260246000fd5b7f4e487b7100000000000000000000000000000000000000000000000000000000600052602260045260246000fd5b7f4e487b7100000000000000000000000000000000000000000000000000000000600052604160045260246000fd5b6000601f19601f8301169050919050565b7f5468697320706f6f6c20697320636c6f73656400000000000000000000000000600082015250565b7f5468697320706f6f6c7320646f65736e27742065786973740000000000000000600082015250565b611b68816118c2565b8114611b7357600080fd5b50565b611b7f816118d4565b8114611b8a57600080fd5b50565b611b96816118e0565b8114611ba157600080fd5b50565b611bad816118f2565b8114611bb857600080fd5b50565b611bc481611924565b8114611bcf57600080fd5b5056fea2646970667358221220a03319a18dfceb345b927f41b9958722bfb96a984f9f4afd7904f3a775aafec264736f6c63430008040033",
  "immutableReferences": {},
  "source": "pragma solidity ^0.8.0;\nimport \"@openzeppelin/contracts/token/ERC721/IERC721.sol\";\nimport \"@openzeppelin/contracts/token/ERC20/IERC20.sol\";\nimport \"./DaoToken.sol\";\nimport \"./Factory.sol\";\n\n\ncontract Pool {\n    address public owner;\n    \n    struct Party {\n        /*\n        Contains the properties of the target IERC721 token.\n        */\n        string party_name;\n        string ticker;\n        // Store the account address.\n        IERC721 nft_address;\n        // Store the ID of the token.\n        uint nft_id;\n        // Store the total deposited sum.\n        uint total;\n        // Track whether the acquisition process is already closed.\n        bool closed;\n        // Store the array of all unique participanting addresses.\n        address[] participants;\n    }\n\n    uint public pool_id;\n//    function get_pool_id() public view returns(uint) {return pool_id;}\n    // Map pool_id => user address => absolute deposit amount.\n    mapping(uint => mapping(address => uint)) shares;\n\n    // Store whether the user participates the specific pool. \n    // pool_id => user address => bool is participant.\n    mapping(uint => mapping(address => bool)) participant_in_pool;\n    mapping(uint => Party) pools;\n\n    // Map target IERC721 address and ID to the pool ID.\n    mapping(IERC721 => mapping(uint => uint)) pool_id_by_nft;\n\n    // Declare the events.\n    event NewDeposit(IERC721 indexed nft_address, uint indexed nft_id, address sender, uint deposit);\n    event NewParty(IERC721 indexed nft_address, uint indexed nft_id, uint indexed pool_id);\n    event DistributionDaoToken(IERC721 indexed nft_address, uint nft_id, address sender);\n    event TotalDaoToken(IERC721 indexed nft_address, uint nft_id, address sender);\n\n\n    constructor(){\n        owner = msg.sender;\n    }\n\n    function new_party(IERC721 _nft_address, uint _nft_id, string memory _party_name, string memory _ticker) public returns (uint) {\n        if (pool_id_by_nft[_nft_address][_nft_id] != 0) {\n            return pool_id_by_nft[_nft_address][_nft_id];\n        }\n        pool_id += 1;\n        address[] memory empty;\n        Party memory party = Party(_party_name, _ticker, _nft_address, _nft_id, 0, false, empty);\n        pools[pool_id] = party;\n        emit NewParty(_nft_address, _nft_id, pool_id);\n        return pool_id;\n    }\n\n    function set_deposit(uint _pool_id) public payable {\n        /*\n        Receive the payment and update the pool statistics.\n        */\n        require(_pool_id <= pool_id, \"This pools doesn't exist\");\n        require(pools[pool_id].closed == false, \"This pool is closed\");\n        if (participant_in_pool[pool_id][msg.sender] != true) {\n            pools[pool_id].participants.push(msg.sender);\n            participant_in_pool[pool_id][msg.sender] = true;\n        }\n        shares[_pool_id][msg.sender] += msg.value;\n        pools[pool_id].total += msg.value;  \n        emit NewDeposit(pools[pool_id].nft_address, pools[pool_id].nft_id, msg.sender, msg.value);\n    }\n\n    function get_pool_description(uint _pool_id) public view returns (string memory, string memory) {\n        return (pools[_pool_id].party_name, pools[_pool_id].ticker);\n    }\n\n    function get_pool(uint _pool_id) public view returns (Party memory) {\n        return pools[_pool_id];\n    }\n\n    function check_participant_in_pool(uint _pool_id, address _user) public view returns (bool) {\n        return participant_in_pool[_pool_id][_user];\n    }\n\n    function get_absolute(uint _pool_id, address _user) public view returns (uint) {\n        /*\n        Get the absolute amount of WEI deposited by the specified user to the target `IERC721` token.\n        */\n        return shares[_pool_id][_user];\n    }\n\n    function get_total(uint _pool_id) public view returns (uint) {\n        /*\n        Get the total deposit sum for the target `IERC721` token.\n        */\n        return pools[_pool_id].total;\n    }\n\n    function distribute_dao_tokens(uint _pool_id, IERC20 _dao_token) public {\n        require(pools[pool_id].closed == false, \"This pool is closed\");\n        pools[_pool_id].closed = true;\n        uint k = _dao_token.totalSupply() / pools[_pool_id].total;\n        Party storage pool = pools[_pool_id];\n        for (uint i = 0; i < pools[_pool_id].participants.length; i++) {\n            address recipient = pool.participants[i];\n            _dao_token.transfer(recipient, shares[_pool_id][recipient]*k);\n        }\n    }\n}",
  "sourcePath": "/Users/y.sosunov/git/definition-hackathon/onchain/contracts/Pool.sol",
  "compiler": {
    "name": "solc",
    "version": "0.8.4+commit.c7e474f2.Emscripten.clang"
  },
  "schemaVersion": "3.3.4",
  "updatedAt": "2021-09-26T06:27:27.426Z",
  "devdoc": {
    "kind": "dev",
    "methods": {},
    "version": 1
  },
  "userdoc": {
    "kind": "user",
    "methods": {},
    "version": 1
  }
}