{
  "contractName": "Pool",
  "abi": [
    {
      "inputs": [],
      "stateMutability": "nonpayable",
      "type": "constructor"
    },
    {
      "anonymous": false,
      "inputs": [
        {
          "indexed": true,
          "internalType": "contract IERC721",
          "name": "nft_address",
          "type": "address"
        },
        {
          "indexed": false,
          "internalType": "uint256",
          "name": "nft_id",
          "type": "uint256"
        },
        {
          "indexed": false,
          "internalType": "address",
          "name": "sender",
          "type": "address"
        }
      ],
      "name": "DistributionDaoToken",
      "type": "event"
    },
    {
      "anonymous": false,
      "inputs": [
        {
          "indexed": true,
          "internalType": "contract IERC721",
          "name": "nft_address",
          "type": "address"
        },
        {
          "indexed": false,
          "internalType": "uint256",
          "name": "nft_id",
          "type": "uint256"
        },
        {
          "indexed": false,
          "internalType": "address",
          "name": "sender",
          "type": "address"
        },
        {
          "indexed": false,
          "internalType": "uint256",
          "name": "deposit",
          "type": "uint256"
        }
      ],
      "name": "NewDeposit",
      "type": "event"
    },
    {
      "anonymous": false,
      "inputs": [
        {
          "indexed": true,
          "internalType": "contract IERC721",
          "name": "nft_address",
          "type": "address"
        },
        {
          "indexed": false,
          "internalType": "uint256",
          "name": "nft_id",
          "type": "uint256"
        },
        {
          "indexed": false,
          "internalType": "address",
          "name": "sender",
          "type": "address"
        }
      ],
      "name": "TotalDaoToken",
      "type": "event"
    },
    {
      "inputs": [],
      "name": "owner",
      "outputs": [
        {
          "internalType": "address",
          "name": "",
          "type": "address"
        }
      ],
      "stateMutability": "view",
      "type": "function",
      "constant": true
    },
    {
      "inputs": [],
      "name": "pool_id",
      "outputs": [
        {
          "internalType": "uint256",
          "name": "",
          "type": "uint256"
        }
      ],
      "stateMutability": "view",
      "type": "function",
      "constant": true
    },
    {
      "inputs": [
        {
          "internalType": "contract IERC721",
          "name": "_nft_address",
          "type": "address"
        },
        {
          "internalType": "uint256",
          "name": "_nft_id",
          "type": "uint256"
        }
      ],
      "name": "new_party",
      "outputs": [
        {
          "internalType": "uint256",
          "name": "",
          "type": "uint256"
        }
      ],
      "stateMutability": "nonpayable",
      "type": "function"
    },
    {
      "inputs": [
        {
          "internalType": "uint256",
          "name": "_pool_id",
          "type": "uint256"
        }
      ],
      "name": "set_deposit",
      "outputs": [],
      "stateMutability": "payable",
      "type": "function",
      "payable": true
    },
    {
      "inputs": [
        {
          "internalType": "uint256",
          "name": "_pool_id",
          "type": "uint256"
        }
      ],
      "name": "get_absolute",
      "outputs": [
        {
          "internalType": "uint256",
          "name": "",
          "type": "uint256"
        }
      ],
      "stateMutability": "view",
      "type": "function",
      "constant": true
    },
    {
      "inputs": [
        {
          "internalType": "uint256",
          "name": "_pool_id",
          "type": "uint256"
        }
      ],
      "name": "get_total",
      "outputs": [
        {
          "internalType": "uint256",
          "name": "",
          "type": "uint256"
        }
      ],
      "stateMutability": "view",
      "type": "function",
      "constant": true
    },
    {
      "inputs": [
        {
          "internalType": "uint256",
          "name": "_pool_id",
          "type": "uint256"
        },
        {
          "internalType": "contract IERC20",
          "name": "_dao_token",
          "type": "address"
        }
      ],
      "name": "distribute_dao_tokens",
      "outputs": [],
      "stateMutability": "nonpayable",
      "type": "function"
    }
  ],
  "bytecode": "0x608060405234801561001057600080fd5b50336000806101000a81548173ffffffffffffffffffffffffffffffffffffffff021916908373ffffffffffffffffffffffffffffffffffffffff160217905550611086806100606000396000f3fe6080604052600436106100705760003560e01c80639d8ad6e41161004e5780639d8ad6e414610106578063b1183c5314610131578063cf12433d1461016e578063e79df58f1461018a57610070565b806368bd4400146100755780637945b4571461009e5780638da5cb5b146100db575b600080fd5b34801561008157600080fd5b5061009c60048036038101906100979190610c27565b6101c7565b005b3480156100aa57600080fd5b506100c560048036038101906100c09190610b99565b6104af565b6040516100d29190610d4b565b60405180910390f35b3480156100e757600080fd5b506100f0610680565b6040516100fd9190610cc7565b60405180910390f35b34801561011257600080fd5b5061011b6106a4565b6040516101289190610d4b565b60405180910390f35b34801561013d57600080fd5b5061015860048036038101906101539190610bd5565b6106aa565b6040516101659190610d4b565b60405180910390f35b61018860048036038101906101839190610bd5565b6106ca565b005b34801561019657600080fd5b506101b160048036038101906101ac9190610bd5565b610a06565b6040516101be9190610d4b565b60405180910390f35b6001151560046000600154815260200190815260200160002060030160009054906101000a900460ff16151514610233576040517f08c379a000000000000000000000000000000000000000000000000000000000815260040161022a90610d0b565b60405180910390fd5b60016004600084815260200190815260200160002060030160006101000a81548160ff021916908315150217905550600060046000848152602001908152602001600020600201548273ffffffffffffffffffffffffffffffffffffffff166318160ddd6040518163ffffffff1660e01b815260040160206040518083038186803b1580156102c157600080fd5b505afa1580156102d5573d6000803e3d6000fd5b505050506040513d601f19601f820116820180604052508101906102f99190610bfe565b6103039190610e04565b9050600060046000858152602001908152602001600020905060005b60046000868152602001908152602001600020600401805490508110156104a857600082600401828154811061037e577f4e487b7100000000000000000000000000000000000000000000000000000000600052603260045260246000fd5b9060005260206000200160009054906101000a900473ffffffffffffffffffffffffffffffffffffffff1690508473ffffffffffffffffffffffffffffffffffffffff1663a9059cbb8286600260008b815260200190815260200160002060008673ffffffffffffffffffffffffffffffffffffffff1673ffffffffffffffffffffffffffffffffffffffff168152602001908152602001600020546104249190610e35565b6040518363ffffffff1660e01b8152600401610441929190610ce2565b602060405180830381600087803b15801561045b57600080fd5b505af115801561046f573d6000803e3d6000fd5b505050506040513d601f19601f820116820180604052508101906104939190610b70565b505080806104a090610efb565b91505061031f565b5050505050565b600080600560008573ffffffffffffffffffffffffffffffffffffffff1673ffffffffffffffffffffffffffffffffffffffff168152602001908152602001600020600084815260200190815260200160002054141561056157600560008473ffffffffffffffffffffffffffffffffffffffff1673ffffffffffffffffffffffffffffffffffffffff168152602001908152602001600020600083815260200190815260200160002054905061067a565b60018060008282546105739190610dae565b92505081905550606060006040518060a001604052808673ffffffffffffffffffffffffffffffffffffffff168152602001858152602001600081526020016000151581526020018381525090508060046000600154815260200190815260200160002060008201518160000160006101000a81548173ffffffffffffffffffffffffffffffffffffffff021916908373ffffffffffffffffffffffffffffffffffffffff160217905550602082015181600101556040820151816002015560608201518160030160006101000a81548160ff021916908315150217905550608082015181600401908051906020019061066e929190610a60565b50905050600154925050505b92915050565b60008054906101000a900473ffffffffffffffffffffffffffffffffffffffff1681565b60015481565b600060046000838152602001908152602001600020600201549050919050565b60015481111561070f576040517f08c379a000000000000000000000000000000000000000000000000000000000815260040161070690610d2b565b60405180910390fd5b6001151560046000600154815260200190815260200160002060030160009054906101000a900460ff1615151461077b576040517f08c379a000000000000000000000000000000000000000000000000000000000815260040161077290610d0b565b60405180910390fd5b6001151560036000600154815260200190815260200160002060003373ffffffffffffffffffffffffffffffffffffffff1673ffffffffffffffffffffffffffffffffffffffff16815260200190815260200160002060009054906101000a900460ff161515146108cb57600460006001548152602001908152602001600020600401339080600181540180825580915050600190039060005260206000200160009091909190916101000a81548173ffffffffffffffffffffffffffffffffffffffff021916908373ffffffffffffffffffffffffffffffffffffffff160217905550600160036000600154815260200190815260200160002060003373ffffffffffffffffffffffffffffffffffffffff1673ffffffffffffffffffffffffffffffffffffffff16815260200190815260200160002060006101000a81548160ff0219169083151502179055505b346002600083815260200190815260200160002060003373ffffffffffffffffffffffffffffffffffffffff1673ffffffffffffffffffffffffffffffffffffffff168152602001908152602001600020600082825461092b9190610dae565b9250508190555034600460006001548152602001908152602001600020600201600082825461095a9190610dae565b9250508190555060046000600154815260200190815260200160002060000160009054906101000a900473ffffffffffffffffffffffffffffffffffffffff1673ffffffffffffffffffffffffffffffffffffffff167f70fe5df63fc76eaa9159b26105d2ee3c345742207dc75d838bc560ac0f9862e06004600060015481526020019081526020016000206001015433346040516109fb93929190610d66565b60405180910390a250565b60006002600083815260200190815260200160002060003373ffffffffffffffffffffffffffffffffffffffff1673ffffffffffffffffffffffffffffffffffffffff168152602001908152602001600020549050919050565b828054828255906000526020600020908101928215610ad9579160200282015b82811115610ad85782518260006101000a81548173ffffffffffffffffffffffffffffffffffffffff021916908373ffffffffffffffffffffffffffffffffffffffff16021790555091602001919060010190610a80565b5b509050610ae69190610aea565b5090565b5b80821115610b03576000816000905550600101610aeb565b5090565b600081519050610b1681610ff4565b92915050565b600081359050610b2b8161100b565b92915050565b600081359050610b4081611022565b92915050565b600081359050610b5581611039565b92915050565b600081519050610b6a81611039565b92915050565b600060208284031215610b8257600080fd5b6000610b9084828501610b07565b91505092915050565b60008060408385031215610bac57600080fd5b6000610bba85828601610b31565b9250506020610bcb85828601610b46565b9150509250929050565b600060208284031215610be757600080fd5b6000610bf584828501610b46565b91505092915050565b600060208284031215610c1057600080fd5b6000610c1e84828501610b5b565b91505092915050565b60008060408385031215610c3a57600080fd5b6000610c4885828601610b46565b9250506020610c5985828601610b1c565b9150509250929050565b610c6c81610e8f565b82525050565b6000610c7f601383610d9d565b9150610c8a82610fa2565b602082019050919050565b6000610ca2601883610d9d565b9150610cad82610fcb565b602082019050919050565b610cc181610ef1565b82525050565b6000602082019050610cdc6000830184610c63565b92915050565b6000604082019050610cf76000830185610c63565b610d046020830184610cb8565b9392505050565b60006020820190508181036000830152610d2481610c72565b9050919050565b60006020820190508181036000830152610d4481610c95565b9050919050565b6000602082019050610d606000830184610cb8565b92915050565b6000606082019050610d7b6000830186610cb8565b610d886020830185610c63565b610d956040830184610cb8565b949350505050565b600082825260208201905092915050565b6000610db982610ef1565b9150610dc483610ef1565b9250827fffffffffffffffffffffffffffffffffffffffffffffffffffffffffffffffff03821115610df957610df8610f44565b5b828201905092915050565b6000610e0f82610ef1565b9150610e1a83610ef1565b925082610e2a57610e29610f73565b5b828204905092915050565b6000610e4082610ef1565b9150610e4b83610ef1565b9250817fffffffffffffffffffffffffffffffffffffffffffffffffffffffffffffffff0483118215151615610e8457610e83610f44565b5b828202905092915050565b6000610e9a82610ed1565b9050919050565b60008115159050919050565b6000610eb882610e8f565b9050919050565b6000610eca82610e8f565b9050919050565b600073ffffffffffffffffffffffffffffffffffffffff82169050919050565b6000819050919050565b6000610f0682610ef1565b91507fffffffffffffffffffffffffffffffffffffffffffffffffffffffffffffffff821415610f3957610f38610f44565b5b600182019050919050565b7f4e487b7100000000000000000000000000000000000000000000000000000000600052601160045260246000fd5b7f4e487b7100000000000000000000000000000000000000000000000000000000600052601260045260246000fd5b7f5468697320706f6f6c20697320636c6f73656400000000000000000000000000600082015250565b7f5468697320706f6f6c7320646f65736e27742065786973740000000000000000600082015250565b610ffd81610ea1565b811461100857600080fd5b50565b61101481610ead565b811461101f57600080fd5b50565b61102b81610ebf565b811461103657600080fd5b50565b61104281610ef1565b811461104d57600080fd5b5056fea264697066735822122067eb860c18f642264952fa0bb7d90ca05b582d691c50a545e1f59e803fd535d964736f6c63430008040033",
  "immutableReferences": {},
  "source": "pragma solidity ^0.8.0;\nimport \"@openzeppelin/contracts/token/ERC721/IERC721.sol\";\nimport \"@openzeppelin/contracts/token/ERC20/IERC20.sol\";\nimport \"./DaoToken.sol\";\n\n\ncontract Pool {\n    address public owner;\n    // For each `IERC721` and it's ID store the WEI amount deposited by user. \n    // {IERC721 => {IERC721_id => {sender => WEI}}}\n\n    struct Party {\n        IERC721 nft_address;\n        uint nft_id;\n\n        uint total;\n        bool closed;\n        address[] participants;\n    }\n\n    uint public pool_id;\n    mapping(uint => mapping(address => uint)) shares; // pool_id => owner => share\n    mapping(uint => mapping(address => bool)) participant_in_pool;\n    mapping(uint => Party) pools;\n    mapping(IERC721 => mapping(uint => uint)) pool_id_by_nft;\n\n    // Declare the events.\n    event NewDeposit(IERC721 indexed nft_address, uint nft_id, address sender, uint deposit);\n    event DistributionDaoToken(IERC721 indexed nft_address, uint nft_id, address sender);\n    event TotalDaoToken(IERC721 indexed nft_address, uint nft_id, address sender);\n\n\n    constructor(){\n        owner = msg.sender;\n    }\n\n    function new_party(IERC721 _nft_address, uint _nft_id) public returns (uint) {\n        if (pool_id_by_nft[_nft_address][_nft_id] == 0) {\n            return pool_id_by_nft[_nft_address][_nft_id];\n        }\n        pool_id += 1;\n        address[] memory empty;\n        Party memory party = Party(_nft_address, _nft_id, 0, false, empty);\n        pools[pool_id] = party;\n        return pool_id;\n    }\n\n    function set_deposit(uint _pool_id) public payable {\n        /*\n        Receive the payment and update the pool statistics.\n        */\n        require(_pool_id <= pool_id, \"This pools doesn't exist\");\n        require(pools[pool_id].closed == true, \"This pool is closed\");\n        if (participant_in_pool[pool_id][msg.sender] != true) {\n            pools[pool_id].participants.push(msg.sender);\n            participant_in_pool[pool_id][msg.sender] = true;\n        }\n        shares[_pool_id][msg.sender] += msg.value;\n        pools[pool_id].total += msg.value;\n        emit NewDeposit(pools[pool_id].nft_address, pools[pool_id].nft_id, msg.sender, msg.value);\n    }\n\n    function get_absolute(uint _pool_id) public view returns (uint) {\n        /*\n        Get the absolute amount of WEI deposited by the specified user to the target `IERC721` token.\n        */\n        return shares[_pool_id][msg.sender];\n    }\n\n    function get_total(uint _pool_id) public view returns(uint) {\n        /*\n        Get the total deposit sum for the target `IERC721` token.\n        */\n        return pools[_pool_id].total;\n    }\n\n    function distribute_dao_tokens(uint _pool_id, IERC20 _dao_token) public {\n        require(pools[pool_id].closed == true, \"This pool is closed\");\n        pools[_pool_id].closed = true;\n        uint k = _dao_token.totalSupply() / pools[_pool_id].total;\n        Party storage pool = pools[_pool_id];\n        for (uint i = 0; i < pools[_pool_id].participants.length; i++) {\n            address recipient = pool.participants[i];\n            _dao_token.transfer(recipient, shares[_pool_id][recipient]*k);\n        }\n    }\n}",
  "sourcePath": "/Users/y.sosunov/git/definition-hackathon/onchain/contracts/Pool.sol",
  "compiler": {
    "name": "solc",
    "version": "0.8.4+commit.c7e474f2.Emscripten.clang"
  },
  "schemaVersion": "3.3.4",
  "updatedAt": "2021-09-25T16:34:33.903Z",
  "networkType": "ethereum",
  "devdoc": {
    "kind": "dev",
    "methods": {},
    "version": 1
  },
  "userdoc": {
    "kind": "user",
    "methods": {},
    "version": 1
  }
}