{
  "contractName": "Pool",
  "abi": [
    {
      "inputs": [],
      "stateMutability": "nonpayable",
      "type": "constructor"
    },
    {
      "anonymous": false,
      "inputs": [
        {
          "indexed": true,
          "internalType": "contract IERC721",
          "name": "nft_address",
          "type": "address"
        },
        {
          "indexed": false,
          "internalType": "uint256",
          "name": "nft_id",
          "type": "uint256"
        },
        {
          "indexed": false,
          "internalType": "address",
          "name": "sender",
          "type": "address"
        }
      ],
      "name": "DistributionDaoToken",
      "type": "event"
    },
    {
      "anonymous": false,
      "inputs": [
        {
          "indexed": true,
          "internalType": "contract IERC721",
          "name": "nft_address",
          "type": "address"
        },
        {
          "indexed": false,
          "internalType": "uint256",
          "name": "nft_id",
          "type": "uint256"
        },
        {
          "indexed": false,
          "internalType": "address",
          "name": "sender",
          "type": "address"
        },
        {
          "indexed": false,
          "internalType": "uint256",
          "name": "deposit",
          "type": "uint256"
        }
      ],
      "name": "NewDeposit",
      "type": "event"
    },
    {
      "anonymous": false,
      "inputs": [
        {
          "indexed": true,
          "internalType": "contract IERC721",
          "name": "nft_address",
          "type": "address"
        },
        {
          "indexed": false,
          "internalType": "uint256",
          "name": "nft_id",
          "type": "uint256"
        },
        {
          "indexed": false,
          "internalType": "address",
          "name": "sender",
          "type": "address"
        }
      ],
      "name": "TotalDaoToken",
      "type": "event"
    },
    {
      "inputs": [],
      "name": "owner",
      "outputs": [
        {
          "internalType": "address",
          "name": "",
          "type": "address"
        }
      ],
      "stateMutability": "view",
      "type": "function",
      "constant": true
    },
    {
      "inputs": [],
      "name": "pool_id",
      "outputs": [
        {
          "internalType": "uint256",
          "name": "",
          "type": "uint256"
        }
      ],
      "stateMutability": "view",
      "type": "function",
      "constant": true
    },
    {
      "inputs": [
        {
          "internalType": "contract IERC721",
          "name": "",
          "type": "address"
        },
        {
          "internalType": "uint256",
          "name": "",
          "type": "uint256"
        }
      ],
      "name": "pool_total",
      "outputs": [
        {
          "internalType": "uint256",
          "name": "",
          "type": "uint256"
        }
      ],
      "stateMutability": "view",
      "type": "function",
      "constant": true
    },
    {
      "inputs": [
        {
          "internalType": "uint256",
          "name": "_pool_id",
          "type": "uint256"
        }
      ],
      "name": "set_deposit",
      "outputs": [],
      "stateMutability": "payable",
      "type": "function",
      "payable": true
    },
    {
      "inputs": [
        {
          "internalType": "uint256",
          "name": "_pool_id",
          "type": "uint256"
        }
      ],
      "name": "get_absolute",
      "outputs": [
        {
          "internalType": "uint256",
          "name": "",
          "type": "uint256"
        }
      ],
      "stateMutability": "view",
      "type": "function",
      "constant": true
    },
    {
      "inputs": [
        {
          "internalType": "uint256",
          "name": "_pool_id",
          "type": "uint256"
        }
      ],
      "name": "get_total",
      "outputs": [
        {
          "internalType": "uint256",
          "name": "",
          "type": "uint256"
        }
      ],
      "stateMutability": "view",
      "type": "function",
      "constant": true
    },
    {
      "inputs": [
        {
          "internalType": "uint256",
          "name": "_pool_id",
          "type": "uint256"
        },
        {
          "internalType": "contract IERC20",
          "name": "_dao_token",
          "type": "address"
        }
      ],
      "name": "distribute_dao_tokens",
      "outputs": [],
      "stateMutability": "nonpayable",
      "type": "function"
    }
  ],
  "bytecode": "0x608060405234801561001057600080fd5b50336000806101000a81548173ffffffffffffffffffffffffffffffffffffffff021916908373ffffffffffffffffffffffffffffffffffffffff160217905550610e32806100606000396000f3fe6080604052600436106100705760003560e01c80639d8ad6e41161004e5780639d8ad6e414610106578063b1183c5314610131578063cf12433d1461016e578063e79df58f1461018a57610070565b80634dcc3da61461007557806368bd4400146100b25780638da5cb5b146100db575b600080fd5b34801561008157600080fd5b5061009c60048036038101906100979190610945565b6101c7565b6040516100a99190610af7565b60405180910390f35b3480156100be57600080fd5b506100d960048036038101906100d491906109d3565b6101ec565b005b3480156100e757600080fd5b506100f06104c5565b6040516100fd9190610a73565b60405180910390f35b34801561011257600080fd5b5061011b6104e9565b6040516101289190610af7565b60405180910390f35b34801561013d57600080fd5b5061015860048036038101906101539190610981565b6104ef565b6040516101659190610af7565b60405180910390f35b61018860048036038101906101839190610981565b61050f565b005b34801561019657600080fd5b506101b160048036038101906101ac9190610981565b610856565b6040516101be9190610af7565b60405180910390f35b6003602052816000526040600020602052806000526040600020600091509150505481565b6001151560026000600154815260200190815260200160002060060160009054906101000a900460ff16151514610258576040517f08c379a000000000000000000000000000000000000000000000000000000000815260040161024f90610ab7565b60405180910390fd5b60016002600084815260200190815260200160002060060160006101000a81548160ff021916908315150217905550600060026000848152602001908152602001600020600101548273ffffffffffffffffffffffffffffffffffffffff166318160ddd6040518163ffffffff1660e01b815260040160206040518083038186803b1580156102e657600080fd5b505afa1580156102fa573d6000803e3d6000fd5b505050506040513d601f19601f8201168201806040525081019061031e91906109aa565b6103289190610bb0565b9050600060026000858152602001908152602001600020905060005b60026000868152602001908152602001600020600201805490508110156104be5760008260020182815481106103a3577f4e487b7100000000000000000000000000000000000000000000000000000000600052603260045260246000fd5b9060005260206000200160009054906101000a900473ffffffffffffffffffffffffffffffffffffffff1690508473ffffffffffffffffffffffffffffffffffffffff1663a9059cbb82868660000160008673ffffffffffffffffffffffffffffffffffffffff1673ffffffffffffffffffffffffffffffffffffffff1681526020019081526020016000205461043a9190610be1565b6040518363ffffffff1660e01b8152600401610457929190610a8e565b602060405180830381600087803b15801561047157600080fd5b505af1158015610485573d6000803e3d6000fd5b505050506040513d601f19601f820116820180604052508101906104a9919061091c565b505080806104b690610ca7565b915050610344565b5050505050565b60008054906101000a900473ffffffffffffffffffffffffffffffffffffffff1681565b60015481565b600060026000838152602001908152602001600020600101549050919050565b600154811115610554576040517f08c379a000000000000000000000000000000000000000000000000000000000815260040161054b90610ad7565b60405180910390fd5b6001151560026000600154815260200190815260200160002060060160009054906101000a900460ff161515146105c0576040517f08c379a00000000000000000000000000000000000000000000000000000000081526004016105b790610ab7565b60405180910390fd5b6001151560026000600154815260200190815260200160002060030160003373ffffffffffffffffffffffffffffffffffffffff1673ffffffffffffffffffffffffffffffffffffffff16815260200190815260200160002060009054906101000a900460ff1615151461071657600260006001548152602001908152602001600020600201339080600181540180825580915050600190039060005260206000200160009091909190916101000a81548173ffffffffffffffffffffffffffffffffffffffff021916908373ffffffffffffffffffffffffffffffffffffffff160217905550600160026000600154815260200190815260200160002060030160003373ffffffffffffffffffffffffffffffffffffffff1673ffffffffffffffffffffffffffffffffffffffff16815260200190815260200160002060006101000a81548160ff0219169083151502179055505b3460026000600154815260200190815260200160002060000160003373ffffffffffffffffffffffffffffffffffffffff1673ffffffffffffffffffffffffffffffffffffffff168152602001908152602001600020600082825461077b9190610b5a565b925050819055503460026000600154815260200190815260200160002060010160008282546107aa9190610b5a565b9250508190555060026000600154815260200190815260200160002060040160009054906101000a900473ffffffffffffffffffffffffffffffffffffffff1673ffffffffffffffffffffffffffffffffffffffff167f70fe5df63fc76eaa9159b26105d2ee3c345742207dc75d838bc560ac0f9862e060026000600154815260200190815260200160002060050154333460405161084b93929190610b12565b60405180910390a250565b60006002600083815260200190815260200160002060000160003373ffffffffffffffffffffffffffffffffffffffff1673ffffffffffffffffffffffffffffffffffffffff168152602001908152602001600020549050919050565b6000815190506108c281610da0565b92915050565b6000813590506108d781610db7565b92915050565b6000813590506108ec81610dce565b92915050565b60008135905061090181610de5565b92915050565b60008151905061091681610de5565b92915050565b60006020828403121561092e57600080fd5b600061093c848285016108b3565b91505092915050565b6000806040838503121561095857600080fd5b6000610966858286016108dd565b9250506020610977858286016108f2565b9150509250929050565b60006020828403121561099357600080fd5b60006109a1848285016108f2565b91505092915050565b6000602082840312156109bc57600080fd5b60006109ca84828501610907565b91505092915050565b600080604083850312156109e657600080fd5b60006109f4858286016108f2565b9250506020610a05858286016108c8565b9150509250929050565b610a1881610c3b565b82525050565b6000610a2b601383610b49565b9150610a3682610d4e565b602082019050919050565b6000610a4e601883610b49565b9150610a5982610d77565b602082019050919050565b610a6d81610c9d565b82525050565b6000602082019050610a886000830184610a0f565b92915050565b6000604082019050610aa36000830185610a0f565b610ab06020830184610a64565b9392505050565b60006020820190508181036000830152610ad081610a1e565b9050919050565b60006020820190508181036000830152610af081610a41565b9050919050565b6000602082019050610b0c6000830184610a64565b92915050565b6000606082019050610b276000830186610a64565b610b346020830185610a0f565b610b416040830184610a64565b949350505050565b600082825260208201905092915050565b6000610b6582610c9d565b9150610b7083610c9d565b9250827fffffffffffffffffffffffffffffffffffffffffffffffffffffffffffffffff03821115610ba557610ba4610cf0565b5b828201905092915050565b6000610bbb82610c9d565b9150610bc683610c9d565b925082610bd657610bd5610d1f565b5b828204905092915050565b6000610bec82610c9d565b9150610bf783610c9d565b9250817fffffffffffffffffffffffffffffffffffffffffffffffffffffffffffffffff0483118215151615610c3057610c2f610cf0565b5b828202905092915050565b6000610c4682610c7d565b9050919050565b60008115159050919050565b6000610c6482610c3b565b9050919050565b6000610c7682610c3b565b9050919050565b600073ffffffffffffffffffffffffffffffffffffffff82169050919050565b6000819050919050565b6000610cb282610c9d565b91507fffffffffffffffffffffffffffffffffffffffffffffffffffffffffffffffff821415610ce557610ce4610cf0565b5b600182019050919050565b7f4e487b7100000000000000000000000000000000000000000000000000000000600052601160045260246000fd5b7f4e487b7100000000000000000000000000000000000000000000000000000000600052601260045260246000fd5b7f5468697320706f6f6c20697320636c6f73656400000000000000000000000000600082015250565b7f5468697320706f6f6c7320646f65736e27742065786973740000000000000000600082015250565b610da981610c4d565b8114610db457600080fd5b50565b610dc081610c59565b8114610dcb57600080fd5b50565b610dd781610c6b565b8114610de257600080fd5b50565b610dee81610c9d565b8114610df957600080fd5b5056fea2646970667358221220727c69b74a7574299ab8369b639eff6705f21d8e937ce055529ebb513fe5642e64736f6c63430008040033",
  "immutableReferences": {},
  "source": "pragma solidity ^0.8.0;\nimport \"@openzeppelin/contracts/token/ERC721/IERC721.sol\";\nimport \"@openzeppelin/contracts/token/ERC20/IERC20.sol\";\nimport \"./DaoToken.sol\";\n\n\ncontract Pool {\n    address public owner;\n    // For each `IERC721` and it's ID store the WEI amount deposited by user. \n    // {IERC721 => {IERC721_id => {sender => WEI}}}\n\n    struct Holder {\n        mapping(address => uint) shares;\n        uint total;\n\n        address[] participants;\n        mapping(address => bool) participant_in_pool;\n\n        IERC721 nft_address;\n        uint nft_id;\n\n        bool closed;\n    }\n\n    uint public pool_id;\n    mapping(uint => Holder) pools;\n//    mapping(IERC721 => mapping(uint => mapping(address => uint))) public pool;\n//    mapping(IERC721 => mapping(uint => address[])) public pool_participants;\n\n    // Store the total deposit amount for each `IERC721` token.\n    mapping(IERC721 => mapping(uint => uint)) public pool_total;\n    // Declare the events.\n    event NewDeposit(IERC721 indexed nft_address, uint nft_id, address sender, uint deposit);\n    event DistributionDaoToken(IERC721 indexed nft_address, uint nft_id, address sender);\n    event TotalDaoToken(IERC721 indexed nft_address, uint nft_id, address sender);\n\n\n    constructor(){\n        owner = msg.sender;\n    }\n\n    function set_deposit(uint _pool_id) public payable {\n        /*\n        Receive the payment and update the pool statistics.\n        */\n        require(_pool_id <= pool_id, \"This pools doesn't exist\");\n        require(pools[pool_id].closed == true, \"This pool is closed\");\n        if (pools[pool_id].participant_in_pool[msg.sender] != true) {\n            pools[pool_id].participants.push(msg.sender);\n            pools[pool_id].participant_in_pool[msg.sender] = true;\n        }\n        pools[pool_id].shares[msg.sender] += msg.value;\n        pools[pool_id].total += msg.value;\n        emit NewDeposit(pools[pool_id].nft_address, pools[pool_id].nft_id, msg.sender, msg.value);\n    }\n\n    function get_absolute(uint _pool_id) public view returns (uint) {\n        /*\n        Get the absolute amount of WEI deposited by the specified user to the target `IERC721` token.\n        */\n        return pools[_pool_id].shares[msg.sender];\n    }\n\n    function get_total(uint _pool_id) public view returns(uint) {\n        /*\n        Get the total deposit sum for the target `IERC721` token.\n        */\n        return pools[_pool_id].total;\n    }\n\n    function distribute_dao_tokens(uint _pool_id, IERC20 _dao_token) public {\n        require(pools[pool_id].closed == true, \"This pool is closed\");\n        pools[_pool_id].closed = true;\n        uint k = _dao_token.totalSupply() / pools[_pool_id].total;\n        Holder storage pool = pools[_pool_id];\n        for (uint i = 0; i < pools[_pool_id].participants.length; i++) {\n            address recipient = pool.participants[i];\n            _dao_token.transfer(recipient, pool.shares[recipient]*k);\n        }\n    }\n}",
  "sourcePath": "/Users/y.sosunov/git/definition-hackathon/onchain/contracts/Pool.sol",
  "compiler": {
    "name": "solc",
    "version": "0.8.4+commit.c7e474f2.Emscripten.clang"
  },
  "schemaVersion": "3.3.4",
  "updatedAt": "2021-09-25T15:56:09.122Z",
  "networkType": "ethereum",
  "devdoc": {
    "kind": "dev",
    "methods": {},
    "version": 1
  },
  "userdoc": {
    "kind": "user",
    "methods": {},
    "version": 1
  }
}