{
  "contractName": "Pool",
  "abi": [
    {
      "inputs": [],
      "stateMutability": "nonpayable",
      "type": "constructor"
    },
    {
      "anonymous": false,
      "inputs": [
        {
          "indexed": true,
          "internalType": "contract IERC721",
          "name": "nft_address",
          "type": "address"
        },
        {
          "indexed": false,
          "internalType": "uint256",
          "name": "nft_id",
          "type": "uint256"
        },
        {
          "indexed": false,
          "internalType": "address",
          "name": "sender",
          "type": "address"
        }
      ],
      "name": "DistributionDaoToken",
      "type": "event"
    },
    {
      "anonymous": false,
      "inputs": [
        {
          "indexed": true,
          "internalType": "contract IERC721",
          "name": "nft_address",
          "type": "address"
        },
        {
          "indexed": true,
          "internalType": "uint256",
          "name": "nft_id",
          "type": "uint256"
        },
        {
          "indexed": false,
          "internalType": "address",
          "name": "sender",
          "type": "address"
        },
        {
          "indexed": false,
          "internalType": "uint256",
          "name": "deposit",
          "type": "uint256"
        }
      ],
      "name": "NewDeposit",
      "type": "event"
    },
    {
      "anonymous": false,
      "inputs": [
        {
          "indexed": true,
          "internalType": "contract IERC721",
          "name": "nft_address",
          "type": "address"
        },
        {
          "indexed": true,
          "internalType": "uint256",
          "name": "nft_id",
          "type": "uint256"
        },
        {
          "indexed": true,
          "internalType": "uint256",
          "name": "pool_id",
          "type": "uint256"
        }
      ],
      "name": "NewParty",
      "type": "event"
    },
    {
      "anonymous": false,
      "inputs": [
        {
          "indexed": true,
          "internalType": "contract IERC721",
          "name": "nft_address",
          "type": "address"
        },
        {
          "indexed": false,
          "internalType": "uint256",
          "name": "nft_id",
          "type": "uint256"
        },
        {
          "indexed": false,
          "internalType": "address",
          "name": "sender",
          "type": "address"
        }
      ],
      "name": "TotalDaoToken",
      "type": "event"
    },
    {
      "inputs": [],
      "name": "owner",
      "outputs": [
        {
          "internalType": "address",
          "name": "",
          "type": "address"
        }
      ],
      "stateMutability": "view",
      "type": "function",
      "constant": true
    },
    {
      "inputs": [],
      "name": "pool_id",
      "outputs": [
        {
          "internalType": "uint256",
          "name": "",
          "type": "uint256"
        }
      ],
      "stateMutability": "view",
      "type": "function",
      "constant": true
    },
    {
      "inputs": [
        {
          "internalType": "contract IERC721",
          "name": "_nft_address",
          "type": "address"
        },
        {
          "internalType": "uint256",
          "name": "_nft_id",
          "type": "uint256"
        },
        {
          "internalType": "string",
          "name": "_party_name",
          "type": "string"
        },
        {
          "internalType": "string",
          "name": "_ticker",
          "type": "string"
        }
      ],
      "name": "new_party",
      "outputs": [
        {
          "internalType": "uint256",
          "name": "",
          "type": "uint256"
        }
      ],
      "stateMutability": "nonpayable",
      "type": "function"
    },
    {
      "inputs": [
        {
          "internalType": "uint256",
          "name": "_pool_id",
          "type": "uint256"
        }
      ],
      "name": "set_deposit",
      "outputs": [],
      "stateMutability": "payable",
      "type": "function",
      "payable": true
    },
    {
      "inputs": [
        {
          "internalType": "uint256",
          "name": "_pool_id",
          "type": "uint256"
        }
      ],
      "name": "get_pool_description",
      "outputs": [
        {
          "internalType": "string",
          "name": "",
          "type": "string"
        },
        {
          "internalType": "string",
          "name": "",
          "type": "string"
        }
      ],
      "stateMutability": "view",
      "type": "function",
      "constant": true
    },
    {
      "inputs": [
        {
          "internalType": "uint256",
          "name": "_pool_id",
          "type": "uint256"
        }
      ],
      "name": "get_pool",
      "outputs": [
        {
          "components": [
            {
              "internalType": "string",
              "name": "party_name",
              "type": "string"
            },
            {
              "internalType": "string",
              "name": "ticker",
              "type": "string"
            },
            {
              "internalType": "contract IERC721",
              "name": "nft_address",
              "type": "address"
            },
            {
              "internalType": "uint256",
              "name": "nft_id",
              "type": "uint256"
            },
            {
              "internalType": "uint256",
              "name": "total",
              "type": "uint256"
            },
            {
              "internalType": "bool",
              "name": "closed",
              "type": "bool"
            },
            {
              "internalType": "address[]",
              "name": "participants",
              "type": "address[]"
            }
          ],
          "internalType": "struct Pool.Party",
          "name": "",
          "type": "tuple"
        }
      ],
      "stateMutability": "view",
      "type": "function",
      "constant": true
    },
    {
      "inputs": [
        {
          "internalType": "uint256",
          "name": "_pool_id",
          "type": "uint256"
        },
        {
          "internalType": "address",
          "name": "_user",
          "type": "address"
        }
      ],
      "name": "check_participant_in_pool",
      "outputs": [
        {
          "internalType": "bool",
          "name": "",
          "type": "bool"
        }
      ],
      "stateMutability": "view",
      "type": "function",
      "constant": true
    },
    {
      "inputs": [
        {
          "internalType": "uint256",
          "name": "_pool_id",
          "type": "uint256"
        },
        {
          "internalType": "address",
          "name": "_user",
          "type": "address"
        }
      ],
      "name": "get_absolute",
      "outputs": [
        {
          "internalType": "uint256",
          "name": "",
          "type": "uint256"
        }
      ],
      "stateMutability": "view",
      "type": "function",
      "constant": true
    },
    {
      "inputs": [
        {
          "internalType": "uint256",
          "name": "_pool_id",
          "type": "uint256"
        }
      ],
      "name": "get_total",
      "outputs": [
        {
          "internalType": "uint256",
          "name": "",
          "type": "uint256"
        }
      ],
      "stateMutability": "view",
      "type": "function",
      "constant": true
    },
    {
      "inputs": [
        {
          "internalType": "uint256",
          "name": "_pool_id",
          "type": "uint256"
        },
        {
          "internalType": "address",
          "name": "_dao_address",
          "type": "address"
        },
        {
          "internalType": "contract IERC20",
          "name": "_dao_token",
          "type": "address"
        }
      ],
      "name": "distribute_dao_tokens",
      "outputs": [],
      "stateMutability": "nonpayable",
      "type": "function"
    },
    {
      "inputs": [
        {
          "internalType": "address",
          "name": "_user",
          "type": "address"
        }
      ],
      "name": "get_user_daos",
      "outputs": [
        {
          "internalType": "address[]",
          "name": "",
          "type": "address[]"
        }
      ],
      "stateMutability": "nonpayable",
      "type": "function"
    }
  ],
  "bytecode": "0x608060405234801561001057600080fd5b50336000806101000a81548173ffffffffffffffffffffffffffffffffffffffff021916908373ffffffffffffffffffffffffffffffffffffffff160217905550611e8b806100606000396000f3fe60806040526004361061009c5760003560e01c80638da5cb5b116100645780638da5cb5b146101be5780639215d96f146101e95780639d8ad6e414610227578063a5a3901214610252578063b1183c531461028f578063cf12433d146102cc5761009c565b806307a67fb3146100a157806338a1ada4146100de5780634442a49c1461011b5780635f9530101461015857806376561eb014610181575b600080fd5b3480156100ad57600080fd5b506100c860048036038101906100c391906114e6565b6102e8565b6040516100d5919061195a565b60405180910390f35b3480156100ea57600080fd5b5061010560048036038101906101009190611453565b61054c565b604051610112919061197c565b60405180910390f35b34801561012757600080fd5b50610142600480360381019061013d9190611401565b6107ab565b60405161014f91906118a6565b60405180910390f35b34801561016457600080fd5b5061017f600480360381019061017a9190611574565b610878565b005b34801561018d57600080fd5b506101a860048036038101906101a39190611538565b610c01565b6040516101b591906118c8565b60405180910390f35b3480156101ca57600080fd5b506101d3610c69565b6040516101e09190611862565b60405180910390f35b3480156101f557600080fd5b50610210600480360381019061020b91906114e6565b610c8d565b60405161021e9291906118e3565b60405180910390f35b34801561023357600080fd5b5061023c610ddd565b604051610249919061197c565b60405180910390f35b34801561025e57600080fd5b5061027960048036038101906102749190611538565b610de3565b604051610286919061197c565b60405180910390f35b34801561029b57600080fd5b506102b660048036038101906102b191906114e6565b610e3e565b6040516102c3919061197c565b60405180910390f35b6102e660048036038101906102e191906114e6565b610e5e565b005b6102f0611199565b600460008381526020019081526020016000206040518060e001604052908160008201805461031e90611c17565b80601f016020809104026020016040519081016040528092919081815260200182805461034a90611c17565b80156103975780601f1061036c57610100808354040283529160200191610397565b820191906000526020600020905b81548152906001019060200180831161037a57829003601f168201915b505050505081526020016001820180546103b090611c17565b80601f01602080910402602001604051908101604052809291908181526020018280546103dc90611c17565b80156104295780601f106103fe57610100808354040283529160200191610429565b820191906000526020600020905b81548152906001019060200180831161040c57829003601f168201915b505050505081526020016002820160009054906101000a900473ffffffffffffffffffffffffffffffffffffffff1673ffffffffffffffffffffffffffffffffffffffff1673ffffffffffffffffffffffffffffffffffffffff16815260200160038201548152602001600482015481526020016005820160009054906101000a900460ff161515151581526020016006820180548060200260200160405190810160405280929190818152602001828054801561053c57602002820191906000526020600020905b8160009054906101000a900473ffffffffffffffffffffffffffffffffffffffff1673ffffffffffffffffffffffffffffffffffffffff16815260200190600101908083116104f2575b5050505050815250509050919050565b600080600560008773ffffffffffffffffffffffffffffffffffffffff1673ffffffffffffffffffffffffffffffffffffffff168152602001908152602001600020600086815260200190815260200160002054146105fd57600560008673ffffffffffffffffffffffffffffffffffffffff1673ffffffffffffffffffffffffffffffffffffffff16815260200190815260200160002060008581526020019081526020016000205490506107a3565b600180600082825461060f9190611a64565b92505081905550606060006040518060e001604052808681526020018581526020018873ffffffffffffffffffffffffffffffffffffffff1681526020018781526020016000815260200160001515815260200183815250905080600460006001548152602001908152602001600020600082015181600001908051906020019061069b9291906111ee565b5060208201518160010190805190602001906106b89291906111ee565b5060408201518160020160006101000a81548173ffffffffffffffffffffffffffffffffffffffff021916908373ffffffffffffffffffffffffffffffffffffffff160217905550606082015181600301556080820151816004015560a08201518160050160006101000a81548160ff02191690831515021790555060c0820151816006019080519060200190610750929190611274565b50905050600154868873ffffffffffffffffffffffffffffffffffffffff167f365da4d82c1a043e1ae188b50efdf5d63783fce5cf1e6e21a3621fdd7deabd6e60405160405180910390a4600154925050505b949350505050565b6060600660008373ffffffffffffffffffffffffffffffffffffffff1673ffffffffffffffffffffffffffffffffffffffff16815260200190815260200160002080548060200260200160405190810160405280929190818152602001828054801561086c57602002820191906000526020600020905b8160009054906101000a900473ffffffffffffffffffffffffffffffffffffffff1673ffffffffffffffffffffffffffffffffffffffff1681526020019060010190808311610822575b50505050509050919050565b6000151560046000600154815260200190815260200160002060050160009054906101000a900460ff161515146108e4576040517f08c379a00000000000000000000000000000000000000000000000000000000081526004016108db9061191a565b60405180910390fd5b60016004600085815260200190815260200160002060050160006101000a81548160ff021916908315150217905550600060046000858152602001908152602001600020600401548273ffffffffffffffffffffffffffffffffffffffff166318160ddd6040518163ffffffff1660e01b815260040160206040518083038186803b15801561097257600080fd5b505afa158015610986573d6000803e3d6000fd5b505050506040513d601f19601f820116820180604052508101906109aa919061150f565b6109b49190611aba565b9050600060046000868152602001908152602001600020905060005b6004600087815260200190815260200160002060060180549050811015610bf9576000826006018281548110610a2f577f4e487b7100000000000000000000000000000000000000000000000000000000600052603260045260246000fd5b9060005260206000200160009054906101000a900473ffffffffffffffffffffffffffffffffffffffff1690508473ffffffffffffffffffffffffffffffffffffffff1663a9059cbb8286600260008c815260200190815260200160002060008673ffffffffffffffffffffffffffffffffffffffff1673ffffffffffffffffffffffffffffffffffffffff16815260200190815260200160002054610ad59190611aeb565b6040518363ffffffff1660e01b8152600401610af292919061187d565b602060405180830381600087803b158015610b0c57600080fd5b505af1158015610b20573d6000803e3d6000fd5b505050506040513d601f19601f82011682018060405250810190610b44919061142a565b50600660008273ffffffffffffffffffffffffffffffffffffffff1673ffffffffffffffffffffffffffffffffffffffff168152602001908152602001600020869080600181540180825580915050600190039060005260206000200160009091909190916101000a81548173ffffffffffffffffffffffffffffffffffffffff021916908373ffffffffffffffffffffffffffffffffffffffff160217905550508080610bf190611c7a565b9150506109d0565b505050505050565b60006003600084815260200190815260200160002060008373ffffffffffffffffffffffffffffffffffffffff1673ffffffffffffffffffffffffffffffffffffffff16815260200190815260200160002060009054906101000a900460ff16905092915050565b60008054906101000a900473ffffffffffffffffffffffffffffffffffffffff1681565b6060806004600084815260200190815260200160002060000160046000858152602001908152602001600020600101818054610cc890611c17565b80601f0160208091040260200160405190810160405280929190818152602001828054610cf490611c17565b8015610d415780601f10610d1657610100808354040283529160200191610d41565b820191906000526020600020905b815481529060010190602001808311610d2457829003601f168201915b50505050509150808054610d5490611c17565b80601f0160208091040260200160405190810160405280929190818152602001828054610d8090611c17565b8015610dcd5780601f10610da257610100808354040283529160200191610dcd565b820191906000526020600020905b815481529060010190602001808311610db057829003601f168201915b5050505050905091509150915091565b60015481565b60006002600084815260200190815260200160002060008373ffffffffffffffffffffffffffffffffffffffff1673ffffffffffffffffffffffffffffffffffffffff16815260200190815260200160002054905092915050565b600060046000838152602001908152602001600020600401549050919050565b600154811115610ea3576040517f08c379a0000000000000000000000000000000000000000000000000000000008152600401610e9a9061193a565b60405180910390fd5b6000151560046000600154815260200190815260200160002060050160009054906101000a900460ff16151514610f0f576040517f08c379a0000000000000000000000000000000000000000000000000000000008152600401610f069061191a565b60405180910390fd5b6001151560036000600154815260200190815260200160002060003373ffffffffffffffffffffffffffffffffffffffff1673ffffffffffffffffffffffffffffffffffffffff16815260200190815260200160002060009054906101000a900460ff1615151461105f57600460006001548152602001908152602001600020600601339080600181540180825580915050600190039060005260206000200160009091909190916101000a81548173ffffffffffffffffffffffffffffffffffffffff021916908373ffffffffffffffffffffffffffffffffffffffff160217905550600160036000600154815260200190815260200160002060003373ffffffffffffffffffffffffffffffffffffffff1673ffffffffffffffffffffffffffffffffffffffff16815260200190815260200160002060006101000a81548160ff0219169083151502179055505b346002600083815260200190815260200160002060003373ffffffffffffffffffffffffffffffffffffffff1673ffffffffffffffffffffffffffffffffffffffff16815260200190815260200160002060008282546110bf9190611a64565b925050819055503460046000600154815260200190815260200160002060040160008282546110ee9190611a64565b925050819055506004600060015481526020019081526020016000206003015460046000600154815260200190815260200160002060020160009054906101000a900473ffffffffffffffffffffffffffffffffffffffff1673ffffffffffffffffffffffffffffffffffffffff167f70fe5df63fc76eaa9159b26105d2ee3c345742207dc75d838bc560ac0f9862e0333460405161118e92919061187d565b60405180910390a350565b6040518060e001604052806060815260200160608152602001600073ffffffffffffffffffffffffffffffffffffffff1681526020016000815260200160008152602001600015158152602001606081525090565b8280546111fa90611c17565b90600052602060002090601f01602090048101928261121c5760008555611263565b82601f1061123557805160ff1916838001178555611263565b82800160010185558215611263579182015b82811115611262578251825591602001919060010190611247565b5b50905061127091906112fe565b5090565b8280548282559060005260206000209081019282156112ed579160200282015b828111156112ec5782518260006101000a81548173ffffffffffffffffffffffffffffffffffffffff021916908373ffffffffffffffffffffffffffffffffffffffff16021790555091602001919060010190611294565b5b5090506112fa91906112fe565b5090565b5b808211156113175760008160009055506001016112ff565b5090565b600061132e611329846119bc565b611997565b90508281526020810184848401111561134657600080fd5b611351848285611bd5565b509392505050565b60008135905061136881611de2565b92915050565b60008151905061137d81611df9565b92915050565b60008135905061139281611e10565b92915050565b6000813590506113a781611e27565b92915050565b600082601f8301126113be57600080fd5b81356113ce84826020860161131b565b91505092915050565b6000813590506113e681611e3e565b92915050565b6000815190506113fb81611e3e565b92915050565b60006020828403121561141357600080fd5b600061142184828501611359565b91505092915050565b60006020828403121561143c57600080fd5b600061144a8482850161136e565b91505092915050565b6000806000806080858703121561146957600080fd5b600061147787828801611398565b9450506020611488878288016113d7565b935050604085013567ffffffffffffffff8111156114a557600080fd5b6114b1878288016113ad565b925050606085013567ffffffffffffffff8111156114ce57600080fd5b6114da878288016113ad565b91505092959194509250565b6000602082840312156114f857600080fd5b6000611506848285016113d7565b91505092915050565b60006020828403121561152157600080fd5b600061152f848285016113ec565b91505092915050565b6000806040838503121561154b57600080fd5b6000611559858286016113d7565b925050602061156a85828601611359565b9150509250929050565b60008060006060848603121561158957600080fd5b6000611597868287016113d7565b93505060206115a886828701611359565b92505060406115b986828701611383565b9150509250925092565b60006115cf83836115db565b60208301905092915050565b6115e481611b45565b82525050565b6115f381611b45565b82525050565b6000611604826119fd565b61160e8185611a20565b9350611619836119ed565b8060005b8381101561164a57815161163188826115c3565b975061163c83611a13565b92505060018101905061161d565b5085935050505092915050565b6000611662826119fd565b61166c8185611a31565b9350611677836119ed565b8060005b838110156116a857815161168f88826115c3565b975061169a83611a13565b92505060018101905061167b565b5085935050505092915050565b6116be81611b57565b82525050565b6116cd81611b57565b82525050565b6116dc81611bb1565b82525050565b60006116ed82611a08565b6116f78185611a42565b9350611707818560208601611be4565b61171081611d7f565b840191505092915050565b600061172682611a08565b6117308185611a53565b9350611740818560208601611be4565b61174981611d7f565b840191505092915050565b6000611761601383611a53565b915061176c82611d90565b602082019050919050565b6000611784601883611a53565b915061178f82611db9565b602082019050919050565b600060e08301600083015184820360008601526117b782826116e2565b915050602083015184820360208601526117d182826116e2565b91505060408301516117e660408601826116d3565b5060608301516117f96060860182611844565b50608083015161180c6080860182611844565b5060a083015161181f60a08601826116b5565b5060c083015184820360c086015261183782826115f9565b9150508091505092915050565b61184d81611ba7565b82525050565b61185c81611ba7565b82525050565b600060208201905061187760008301846115ea565b92915050565b600060408201905061189260008301856115ea565b61189f6020830184611853565b9392505050565b600060208201905081810360008301526118c08184611657565b905092915050565b60006020820190506118dd60008301846116c4565b92915050565b600060408201905081810360008301526118fd818561171b565b90508181036020830152611911818461171b565b90509392505050565b6000602082019050818103600083015261193381611754565b9050919050565b6000602082019050818103600083015261195381611777565b9050919050565b60006020820190508181036000830152611974818461179a565b905092915050565b60006020820190506119916000830184611853565b92915050565b60006119a16119b2565b90506119ad8282611c49565b919050565b6000604051905090565b600067ffffffffffffffff8211156119d7576119d6611d50565b5b6119e082611d7f565b9050602081019050919050565b6000819050602082019050919050565b600081519050919050565b600081519050919050565b6000602082019050919050565b600082825260208201905092915050565b600082825260208201905092915050565b600082825260208201905092915050565b600082825260208201905092915050565b6000611a6f82611ba7565b9150611a7a83611ba7565b9250827fffffffffffffffffffffffffffffffffffffffffffffffffffffffffffffffff03821115611aaf57611aae611cc3565b5b828201905092915050565b6000611ac582611ba7565b9150611ad083611ba7565b925082611ae057611adf611cf2565b5b828204905092915050565b6000611af682611ba7565b9150611b0183611ba7565b9250817fffffffffffffffffffffffffffffffffffffffffffffffffffffffffffffffff0483118215151615611b3a57611b39611cc3565b5b828202905092915050565b6000611b5082611b87565b9050919050565b60008115159050919050565b6000611b6e82611b45565b9050919050565b6000611b8082611b45565b9050919050565b600073ffffffffffffffffffffffffffffffffffffffff82169050919050565b6000819050919050565b6000611bbc82611bc3565b9050919050565b6000611bce82611b87565b9050919050565b82818337600083830152505050565b60005b83811015611c02578082015181840152602081019050611be7565b83811115611c11576000848401525b50505050565b60006002820490506001821680611c2f57607f821691505b60208210811415611c4357611c42611d21565b5b50919050565b611c5282611d7f565b810181811067ffffffffffffffff82111715611c7157611c70611d50565b5b80604052505050565b6000611c8582611ba7565b91507fffffffffffffffffffffffffffffffffffffffffffffffffffffffffffffffff821415611cb857611cb7611cc3565b5b600182019050919050565b7f4e487b7100000000000000000000000000000000000000000000000000000000600052601160045260246000fd5b7f4e487b7100000000000000000000000000000000000000000000000000000000600052601260045260246000fd5b7f4e487b7100000000000000000000000000000000000000000000000000000000600052602260045260246000fd5b7f4e487b7100000000000000000000000000000000000000000000000000000000600052604160045260246000fd5b6000601f19601f8301169050919050565b7f5468697320706f6f6c20697320636c6f73656400000000000000000000000000600082015250565b7f5468697320706f6f6c7320646f65736e27742065786973740000000000000000600082015250565b611deb81611b45565b8114611df657600080fd5b50565b611e0281611b57565b8114611e0d57600080fd5b50565b611e1981611b63565b8114611e2457600080fd5b50565b611e3081611b75565b8114611e3b57600080fd5b50565b611e4781611ba7565b8114611e5257600080fd5b5056fea2646970667358221220803d1b12bea1d9d98b0230d4ae0fa9b1740925024beb66631523f732e580100364736f6c63430008040033",
  "immutableReferences": {},
  "source": "pragma solidity ^0.8.0;\nimport \"@openzeppelin/contracts/token/ERC721/IERC721.sol\";\nimport \"@openzeppelin/contracts/token/ERC20/IERC20.sol\";\nimport \"./DaoToken.sol\";\nimport \"./Factory.sol\";\n\n\ncontract Pool {\n    address public owner;\n    \n    struct Party {\n        /*\n        Contains the properties of the target IERC721 token.\n        */\n        string party_name;\n        string ticker;\n        // Store the account address.\n        IERC721 nft_address;\n        // Store the ID of the token.\n        uint nft_id;\n        // Store the total deposited sum.\n        uint total;\n        // Track whether the acquisition process is already closed.\n        bool closed;\n        // Store the array of all unique participanting addresses.\n        address[] participants;\n    }\n\n    uint public pool_id;\n//    function get_pool_id() public view returns(uint) {return pool_id;}\n    // Map pool_id => user address => absolute deposit amount.\n    mapping(uint => mapping(address => uint)) shares;\n    // Store whether the user participates the specific pool. \n    // pool_id => user address => bool is participant.\n    mapping(uint => mapping(address => bool)) participant_in_pool;\n    mapping(uint => Party) pools;\n    // Map target IERC721 address and ID to the pool ID.\n    mapping(IERC721 => mapping(uint => uint)) pool_id_by_nft;\n    // Map users to all DAOs they've ever participated.\n    mapping(address => address[]) user_to_daos;\n\n    // Declare the events.\n    event NewDeposit(IERC721 indexed nft_address, uint indexed nft_id, address sender, uint deposit);\n    event NewParty(IERC721 indexed nft_address, uint indexed nft_id, uint indexed pool_id);\n    event DistributionDaoToken(IERC721 indexed nft_address, uint nft_id, address sender);\n    event TotalDaoToken(IERC721 indexed nft_address, uint nft_id, address sender);\n\n\n    constructor(){\n        owner = msg.sender;\n    }\n\n    function new_party(IERC721 _nft_address, uint _nft_id, string memory _party_name, string memory _ticker) public returns (uint) {\n        if (pool_id_by_nft[_nft_address][_nft_id] != 0) {\n            return pool_id_by_nft[_nft_address][_nft_id];\n        }\n        pool_id += 1;\n        address[] memory empty;\n        Party memory party = Party(_party_name, _ticker, _nft_address, _nft_id, 0, false, empty);\n        pools[pool_id] = party;\n        emit NewParty(_nft_address, _nft_id, pool_id);\n        return pool_id;\n    }\n\n    function set_deposit(uint _pool_id) public payable {\n        /*\n        Receive the payment and update the pool statistics.\n        */\n        require(_pool_id <= pool_id, \"This pools doesn't exist\");\n        require(pools[pool_id].closed == false, \"This pool is closed\");\n        if (participant_in_pool[pool_id][msg.sender] != true) {\n            pools[pool_id].participants.push(msg.sender);\n            participant_in_pool[pool_id][msg.sender] = true;\n        }\n        shares[_pool_id][msg.sender] += msg.value;\n        pools[pool_id].total += msg.value;  \n        emit NewDeposit(pools[pool_id].nft_address, pools[pool_id].nft_id, msg.sender, msg.value);\n    }\n\n    function get_pool_description(uint _pool_id) public view returns (string memory, string memory) {\n        return (pools[_pool_id].party_name, pools[_pool_id].ticker);\n    }\n\n    function get_pool(uint _pool_id) public view returns (Party memory) {\n        return pools[_pool_id];\n    }\n\n    function check_participant_in_pool(uint _pool_id, address _user) public view returns (bool) {\n        return participant_in_pool[_pool_id][_user];\n    }\n\n    function get_absolute(uint _pool_id, address _user) public view returns (uint) {\n        /*\n        Get the absolute amount of WEI deposited by the specified user to the target `IERC721` token.\n        */\n        return shares[_pool_id][_user];\n    }\n\n    function get_total(uint _pool_id) public view returns (uint) {\n        /*\n        Get the total deposit sum for the target `IERC721` token.\n        */\n        return pools[_pool_id].total;\n    }\n\n    function distribute_dao_tokens(uint _pool_id, address _dao_address, IERC20 _dao_token) public {\n        require(pools[pool_id].closed == false, \"This pool is closed\");\n        pools[_pool_id].closed = true;\n        uint k = _dao_token.totalSupply() / pools[_pool_id].total;\n        Party storage pool = pools[_pool_id];\n        for (uint i = 0; i < pools[_pool_id].participants.length; i++) {\n            address recipient = pool.participants[i];\n            _dao_token.transfer(recipient, shares[_pool_id][recipient]*k);\n            user_to_daos[recipient].push(_dao_address);\n        }\n    }\n\n    function get_user_daos(address _user) public returns (address[] memory){\n        return user_to_daos[_user];\n    }\n}",
  "sourcePath": "/Users/y.sosunov/git/definition-hackathon/onchain/contracts/Pool.sol",
  "compiler": {
    "name": "solc",
    "version": "0.8.4+commit.c7e474f2.Emscripten.clang"
  },
  "schemaVersion": "3.3.4",
  "updatedAt": "2021-09-26T06:31:26.355Z",
  "networkType": "ethereum",
  "devdoc": {
    "kind": "dev",
    "methods": {},
    "version": 1
  },
  "userdoc": {
    "kind": "user",
    "methods": {},
    "version": 1
  }
}