{
  "contractName": "Pool",
  "abi": [
    {
      "inputs": [
        {
          "internalType": "address",
          "name": "_initiator",
          "type": "address"
        }
      ],
      "stateMutability": "nonpayable",
      "type": "constructor"
    },
    {
      "anonymous": false,
      "inputs": [
        {
          "indexed": true,
          "internalType": "contract IERC721",
          "name": "nft_address",
          "type": "address"
        },
        {
          "indexed": false,
          "internalType": "uint256",
          "name": "nft_id",
          "type": "uint256"
        },
        {
          "indexed": false,
          "internalType": "address",
          "name": "sender",
          "type": "address"
        }
      ],
      "name": "DistributionDaoToken",
      "type": "event"
    },
    {
      "anonymous": false,
      "inputs": [
        {
          "indexed": true,
          "internalType": "contract IERC721",
          "name": "nft_address",
          "type": "address"
        },
        {
          "indexed": true,
          "internalType": "uint256",
          "name": "nft_id",
          "type": "uint256"
        },
        {
          "indexed": false,
          "internalType": "address",
          "name": "sender",
          "type": "address"
        },
        {
          "indexed": false,
          "internalType": "uint256",
          "name": "deposit",
          "type": "uint256"
        }
      ],
      "name": "NewDeposit",
      "type": "event"
    },
    {
      "anonymous": false,
      "inputs": [
        {
          "indexed": true,
          "internalType": "contract IERC721",
          "name": "nft_address",
          "type": "address"
        },
        {
          "indexed": true,
          "internalType": "uint256",
          "name": "nft_id",
          "type": "uint256"
        },
        {
          "indexed": true,
          "internalType": "uint256",
          "name": "pool_id",
          "type": "uint256"
        }
      ],
      "name": "NewParty",
      "type": "event"
    },
    {
      "anonymous": false,
      "inputs": [
        {
          "indexed": true,
          "internalType": "contract IERC721",
          "name": "nft_address",
          "type": "address"
        },
        {
          "indexed": false,
          "internalType": "uint256",
          "name": "nft_id",
          "type": "uint256"
        },
        {
          "indexed": false,
          "internalType": "address",
          "name": "sender",
          "type": "address"
        }
      ],
      "name": "TotalDaoToken",
      "type": "event"
    },
    {
      "inputs": [],
      "name": "initiator",
      "outputs": [
        {
          "internalType": "address",
          "name": "",
          "type": "address"
        }
      ],
      "stateMutability": "view",
      "type": "function",
      "constant": true
    },
    {
      "inputs": [],
      "name": "owner",
      "outputs": [
        {
          "internalType": "address",
          "name": "",
          "type": "address"
        }
      ],
      "stateMutability": "view",
      "type": "function",
      "constant": true
    },
    {
      "inputs": [],
      "name": "pool_id",
      "outputs": [
        {
          "internalType": "uint256",
          "name": "",
          "type": "uint256"
        }
      ],
      "stateMutability": "view",
      "type": "function",
      "constant": true
    },
    {
      "inputs": [
        {
          "internalType": "contract IERC721",
          "name": "_nft_address",
          "type": "address"
        },
        {
          "internalType": "uint256",
          "name": "_nft_id",
          "type": "uint256"
        },
        {
          "internalType": "string",
          "name": "_party_name",
          "type": "string"
        },
        {
          "internalType": "string",
          "name": "_ticker",
          "type": "string"
        }
      ],
      "name": "new_party",
      "outputs": [
        {
          "internalType": "uint256",
          "name": "",
          "type": "uint256"
        }
      ],
      "stateMutability": "nonpayable",
      "type": "function"
    },
    {
      "inputs": [
        {
          "internalType": "uint256",
          "name": "_pool_id",
          "type": "uint256"
        }
      ],
      "name": "set_deposit",
      "outputs": [],
      "stateMutability": "payable",
      "type": "function",
      "payable": true
    },
    {
      "inputs": [
        {
          "internalType": "uint256",
          "name": "_pool_id",
          "type": "uint256"
        }
      ],
      "name": "get_pool_description",
      "outputs": [
        {
          "internalType": "string",
          "name": "",
          "type": "string"
        },
        {
          "internalType": "string",
          "name": "",
          "type": "string"
        }
      ],
      "stateMutability": "view",
      "type": "function",
      "constant": true
    },
    {
      "inputs": [
        {
          "internalType": "uint256",
          "name": "_pool_id",
          "type": "uint256"
        }
      ],
      "name": "get_pool",
      "outputs": [
        {
          "components": [
            {
              "internalType": "string",
              "name": "party_name",
              "type": "string"
            },
            {
              "internalType": "string",
              "name": "ticker",
              "type": "string"
            },
            {
              "internalType": "contract IERC721",
              "name": "nft_address",
              "type": "address"
            },
            {
              "internalType": "uint256",
              "name": "nft_id",
              "type": "uint256"
            },
            {
              "internalType": "uint256",
              "name": "total",
              "type": "uint256"
            },
            {
              "internalType": "bool",
              "name": "closed",
              "type": "bool"
            },
            {
              "internalType": "address[]",
              "name": "participants",
              "type": "address[]"
            }
          ],
          "internalType": "struct Pool.Party",
          "name": "",
          "type": "tuple"
        }
      ],
      "stateMutability": "view",
      "type": "function",
      "constant": true
    },
    {
      "inputs": [
        {
          "internalType": "uint256",
          "name": "_pool_id",
          "type": "uint256"
        },
        {
          "internalType": "address",
          "name": "_user",
          "type": "address"
        }
      ],
      "name": "check_participant_in_pool",
      "outputs": [
        {
          "internalType": "bool",
          "name": "",
          "type": "bool"
        }
      ],
      "stateMutability": "view",
      "type": "function",
      "constant": true
    },
    {
      "inputs": [
        {
          "internalType": "uint256",
          "name": "_pool_id",
          "type": "uint256"
        },
        {
          "internalType": "address",
          "name": "_user",
          "type": "address"
        }
      ],
      "name": "get_absolute",
      "outputs": [
        {
          "internalType": "uint256",
          "name": "",
          "type": "uint256"
        }
      ],
      "stateMutability": "view",
      "type": "function",
      "constant": true
    },
    {
      "inputs": [
        {
          "internalType": "uint256",
          "name": "_pool_id",
          "type": "uint256"
        }
      ],
      "name": "get_total",
      "outputs": [
        {
          "internalType": "uint256",
          "name": "",
          "type": "uint256"
        }
      ],
      "stateMutability": "view",
      "type": "function",
      "constant": true
    },
    {
      "inputs": [
        {
          "internalType": "uint256",
          "name": "_pool_id",
          "type": "uint256"
        },
        {
          "internalType": "address",
          "name": "_dao_address",
          "type": "address"
        },
        {
          "internalType": "contract IERC20",
          "name": "_dao_token",
          "type": "address"
        }
      ],
      "name": "distribute_dao_tokens",
      "outputs": [],
      "stateMutability": "nonpayable",
      "type": "function"
    },
    {
      "inputs": [
        {
          "internalType": "address",
          "name": "_user",
          "type": "address"
        }
      ],
      "name": "get_user_daos",
      "outputs": [
        {
          "internalType": "address[]",
          "name": "",
          "type": "address[]"
        }
      ],
      "stateMutability": "nonpayable",
      "type": "function"
    },
    {
      "inputs": [
        {
          "internalType": "uint256",
          "name": "_pool_id",
          "type": "uint256"
        }
      ],
      "name": "get_funds_for_buyout",
      "outputs": [],
      "stateMutability": "nonpayable",
      "type": "function"
    }
  ],
  "bytecode": "0x60806040523480156200001157600080fd5b50604051620022da380380620022da8339818101604052810190620000379190620000d6565b336000806101000a81548173ffffffffffffffffffffffffffffffffffffffff021916908373ffffffffffffffffffffffffffffffffffffffff16021790555080600160006101000a81548173ffffffffffffffffffffffffffffffffffffffff021916908373ffffffffffffffffffffffffffffffffffffffff1602179055505062000150565b600081519050620000d08162000136565b92915050565b600060208284031215620000e957600080fd5b6000620000f984828501620000bf565b91505092915050565b60006200010f8262000116565b9050919050565b600073ffffffffffffffffffffffffffffffffffffffff82169050919050565b620001418162000102565b81146200014d57600080fd5b50565b61217a80620001606000396000f3fe6080604052600436106100c25760003560e01c80638da5cb5b1161007f578063a5a3901211610059578063a5a39012146102a3578063b1183c53146102e0578063b1d70dfd1461031d578063cf12433d14610346576100c2565b80638da5cb5b1461020f5780639215d96f1461023a5780639d8ad6e414610278576100c2565b806307a67fb3146100c757806338a1ada4146101045780634442a49c146101415780635c39fcc11461017e5780635f953010146101a957806376561eb0146101d2575b600080fd5b3480156100d357600080fd5b506100ee60048036038101906100e99190611766565b610362565b6040516100fb9190611c12565b60405180910390f35b34801561011057600080fd5b5061012b600480360381019061012691906116d3565b6105c6565b6040516101389190611c34565b60405180910390f35b34801561014d57600080fd5b5061016860048036038101906101639190611681565b610826565b6040516101759190611b5e565b60405180910390f35b34801561018a57600080fd5b506101936108f3565b6040516101a09190611b1a565b60405180910390f35b3480156101b557600080fd5b506101d060048036038101906101cb91906117f4565b610919565b005b3480156101de57600080fd5b506101f960048036038101906101f491906117b8565b610d92565b6040516102069190611b80565b60405180910390f35b34801561021b57600080fd5b50610224610dfa565b6040516102319190611b1a565b60405180910390f35b34801561024657600080fd5b50610261600480360381019061025c9190611766565b610e1e565b60405161026f929190611b9b565b60405180910390f35b34801561028457600080fd5b5061028d610f6e565b60405161029a9190611c34565b60405180910390f35b3480156102af57600080fd5b506102ca60048036038101906102c591906117b8565b610f74565b6040516102d79190611c34565b60405180910390f35b3480156102ec57600080fd5b5061030760048036038101906103029190611766565b610fcf565b6040516103149190611c34565b60405180910390f35b34801561032957600080fd5b50610344600480360381019061033f9190611766565b610fef565b005b610360600480360381019061035b9190611766565b6110de565b005b61036a611419565b600560008381526020019081526020016000206040518060e001604052908160008201805461039890611f03565b80601f01602080910402602001604051908101604052809291908181526020018280546103c490611f03565b80156104115780601f106103e657610100808354040283529160200191610411565b820191906000526020600020905b8154815290600101906020018083116103f457829003601f168201915b5050505050815260200160018201805461042a90611f03565b80601f016020809104026020016040519081016040528092919081815260200182805461045690611f03565b80156104a35780601f10610478576101008083540402835291602001916104a3565b820191906000526020600020905b81548152906001019060200180831161048657829003601f168201915b505050505081526020016002820160009054906101000a900473ffffffffffffffffffffffffffffffffffffffff1673ffffffffffffffffffffffffffffffffffffffff1673ffffffffffffffffffffffffffffffffffffffff16815260200160038201548152602001600482015481526020016005820160009054906101000a900460ff16151515158152602001600682018054806020026020016040519081016040528092919081815260200182805480156105b657602002820191906000526020600020905b8160009054906101000a900473ffffffffffffffffffffffffffffffffffffffff1673ffffffffffffffffffffffffffffffffffffffff168152602001906001019080831161056c575b5050505050815250509050919050565b600080600660008773ffffffffffffffffffffffffffffffffffffffff1673ffffffffffffffffffffffffffffffffffffffff1681526020019081526020016000206000868152602001908152602001600020541461067757600660008673ffffffffffffffffffffffffffffffffffffffff1673ffffffffffffffffffffffffffffffffffffffff168152602001908152602001600020600085815260200190815260200160002054905061081e565b60016002600082825461068a9190611d50565b92505081905550606060006040518060e001604052808681526020018581526020018873ffffffffffffffffffffffffffffffffffffffff1681526020018781526020016000815260200160001515815260200183815250905080600560006002548152602001908152602001600020600082015181600001908051906020019061071692919061146e565b50602082015181600101908051906020019061073392919061146e565b5060408201518160020160006101000a81548173ffffffffffffffffffffffffffffffffffffffff021916908373ffffffffffffffffffffffffffffffffffffffff160217905550606082015181600301556080820151816004015560a08201518160050160006101000a81548160ff02191690831515021790555060c08201518160060190805190602001906107cb9291906114f4565b50905050600254868873ffffffffffffffffffffffffffffffffffffffff167f365da4d82c1a043e1ae188b50efdf5d63783fce5cf1e6e21a3621fdd7deabd6e60405160405180910390a4600254925050505b949350505050565b6060600760008373ffffffffffffffffffffffffffffffffffffffff1673ffffffffffffffffffffffffffffffffffffffff1681526020019081526020016000208054806020026020016040519081016040528092919081815260200182805480156108e757602002820191906000526020600020905b8160009054906101000a900473ffffffffffffffffffffffffffffffffffffffff1673ffffffffffffffffffffffffffffffffffffffff168152602001906001019080831161089d575b50505050509050919050565b600160009054906101000a900473ffffffffffffffffffffffffffffffffffffffff1681565b6000151560056000600254815260200190815260200160002060050160009054906101000a900460ff16151514610985576040517f08c379a000000000000000000000000000000000000000000000000000000000815260040161097c90611bd2565b60405180910390fd5b60016005600085815260200190815260200160002060050160006101000a81548160ff021916908315150217905550600060056000858152602001908152602001600020600401548273ffffffffffffffffffffffffffffffffffffffff166318160ddd6040518163ffffffff1660e01b815260040160206040518083038186803b158015610a1357600080fd5b505afa158015610a27573d6000803e3d6000fd5b505050506040513d601f19601f82011682018060405250810190610a4b919061178f565b610a559190611da6565b9050600060056000868152602001908152602001600020905060008490508373ffffffffffffffffffffffffffffffffffffffff1663095ea7b3868673ffffffffffffffffffffffffffffffffffffffff166318160ddd6040518163ffffffff1660e01b815260040160206040518083038186803b158015610ad657600080fd5b505afa158015610aea573d6000803e3d6000fd5b505050506040513d601f19601f82011682018060405250810190610b0e919061178f565b6040518363ffffffff1660e01b8152600401610b2b929190611b35565b602060405180830381600087803b158015610b4557600080fd5b505af1158015610b59573d6000803e3d6000fd5b505050506040513d601f19601f82011682018060405250810190610b7d91906116aa565b5060005b6005600088815260200190815260200160002060060180549050811015610d89576000836006018281548110610be0577f4e487b7100000000000000000000000000000000000000000000000000000000600052603260045260246000fd5b9060005260206000200160009054906101000a900473ffffffffffffffffffffffffffffffffffffffff1690508273ffffffffffffffffffffffffffffffffffffffff1663561f4a6a86600360008c815260200190815260200160002060008573ffffffffffffffffffffffffffffffffffffffff1673ffffffffffffffffffffffffffffffffffffffff16815260200190815260200160002054610c859190611dd7565b836040518363ffffffff1660e01b8152600401610ca3929190611c4f565b600060405180830381600087803b158015610cbd57600080fd5b505af1158015610cd1573d6000803e3d6000fd5b50505050600760008273ffffffffffffffffffffffffffffffffffffffff1673ffffffffffffffffffffffffffffffffffffffff168152602001908152602001600020879080600181540180825580915050600190039060005260206000200160009091909190916101000a81548173ffffffffffffffffffffffffffffffffffffffff021916908373ffffffffffffffffffffffffffffffffffffffff160217905550508080610d8190611f66565b915050610b81565b50505050505050565b60006004600084815260200190815260200160002060008373ffffffffffffffffffffffffffffffffffffffff1673ffffffffffffffffffffffffffffffffffffffff16815260200190815260200160002060009054906101000a900460ff16905092915050565b60008054906101000a900473ffffffffffffffffffffffffffffffffffffffff1681565b6060806005600084815260200190815260200160002060000160056000858152602001908152602001600020600101818054610e5990611f03565b80601f0160208091040260200160405190810160405280929190818152602001828054610e8590611f03565b8015610ed25780601f10610ea757610100808354040283529160200191610ed2565b820191906000526020600020905b815481529060010190602001808311610eb557829003601f168201915b50505050509150808054610ee590611f03565b80601f0160208091040260200160405190810160405280929190818152602001828054610f1190611f03565b8015610f5e5780601f10610f3357610100808354040283529160200191610f5e565b820191906000526020600020905b815481529060010190602001808311610f4157829003601f168201915b5050505050905091509150915091565b60025481565b60006003600084815260200190815260200160002060008373ffffffffffffffffffffffffffffffffffffffff1673ffffffffffffffffffffffffffffffffffffffff16815260200190815260200160002054905092915050565b600060056000838152602001908152602001600020600401549050919050565b600160009054906101000a900473ffffffffffffffffffffffffffffffffffffffff1673ffffffffffffffffffffffffffffffffffffffff163373ffffffffffffffffffffffffffffffffffffffff161461104957600080fd5b600080600160009054906101000a900473ffffffffffffffffffffffffffffffffffffffff1673ffffffffffffffffffffffffffffffffffffffff168360405161109290611b05565b60006040518083038185875af1925050503d80600081146110cf576040519150601f19603f3d011682016040523d82523d6000602084013e6110d4565b606091505b5091509150505050565b600254811115611123576040517f08c379a000000000000000000000000000000000000000000000000000000000815260040161111a90611bf2565b60405180910390fd5b6000151560056000600254815260200190815260200160002060050160009054906101000a900460ff1615151461118f576040517f08c379a000000000000000000000000000000000000000000000000000000000815260040161118690611bd2565b60405180910390fd5b6001151560046000600254815260200190815260200160002060003373ffffffffffffffffffffffffffffffffffffffff1673ffffffffffffffffffffffffffffffffffffffff16815260200190815260200160002060009054906101000a900460ff161515146112df57600560006002548152602001908152602001600020600601339080600181540180825580915050600190039060005260206000200160009091909190916101000a81548173ffffffffffffffffffffffffffffffffffffffff021916908373ffffffffffffffffffffffffffffffffffffffff160217905550600160046000600254815260200190815260200160002060003373ffffffffffffffffffffffffffffffffffffffff1673ffffffffffffffffffffffffffffffffffffffff16815260200190815260200160002060006101000a81548160ff0219169083151502179055505b346003600083815260200190815260200160002060003373ffffffffffffffffffffffffffffffffffffffff1673ffffffffffffffffffffffffffffffffffffffff168152602001908152602001600020600082825461133f9190611d50565b9250508190555034600560006002548152602001908152602001600020600401600082825461136e9190611d50565b925050819055506005600060025481526020019081526020016000206003015460056000600254815260200190815260200160002060020160009054906101000a900473ffffffffffffffffffffffffffffffffffffffff1673ffffffffffffffffffffffffffffffffffffffff167f70fe5df63fc76eaa9159b26105d2ee3c345742207dc75d838bc560ac0f9862e0333460405161140e929190611b35565b60405180910390a350565b6040518060e001604052806060815260200160608152602001600073ffffffffffffffffffffffffffffffffffffffff1681526020016000815260200160008152602001600015158152602001606081525090565b82805461147a90611f03565b90600052602060002090601f01602090048101928261149c57600085556114e3565b82601f106114b557805160ff19168380011785556114e3565b828001600101855582156114e3579182015b828111156114e25782518255916020019190600101906114c7565b5b5090506114f0919061157e565b5090565b82805482825590600052602060002090810192821561156d579160200282015b8281111561156c5782518260006101000a81548173ffffffffffffffffffffffffffffffffffffffff021916908373ffffffffffffffffffffffffffffffffffffffff16021790555091602001919060010190611514565b5b50905061157a919061157e565b5090565b5b8082111561159757600081600090555060010161157f565b5090565b60006115ae6115a984611c9d565b611c78565b9050828152602081018484840111156115c657600080fd5b6115d1848285611ec1565b509392505050565b6000813590506115e8816120d1565b92915050565b6000815190506115fd816120e8565b92915050565b600081359050611612816120ff565b92915050565b60008135905061162781612116565b92915050565b600082601f83011261163e57600080fd5b813561164e84826020860161159b565b91505092915050565b6000813590506116668161212d565b92915050565b60008151905061167b8161212d565b92915050565b60006020828403121561169357600080fd5b60006116a1848285016115d9565b91505092915050565b6000602082840312156116bc57600080fd5b60006116ca848285016115ee565b91505092915050565b600080600080608085870312156116e957600080fd5b60006116f787828801611618565b945050602061170887828801611657565b935050604085013567ffffffffffffffff81111561172557600080fd5b6117318782880161162d565b925050606085013567ffffffffffffffff81111561174e57600080fd5b61175a8782880161162d565b91505092959194509250565b60006020828403121561177857600080fd5b600061178684828501611657565b91505092915050565b6000602082840312156117a157600080fd5b60006117af8482850161166c565b91505092915050565b600080604083850312156117cb57600080fd5b60006117d985828601611657565b92505060206117ea858286016115d9565b9150509250929050565b60008060006060848603121561180957600080fd5b600061181786828701611657565b9350506020611828868287016115d9565b925050604061183986828701611603565b9150509250925092565b600061184f838361185b565b60208301905092915050565b61186481611e31565b82525050565b61187381611e31565b82525050565b600061188482611cde565b61188e8185611d01565b935061189983611cce565b8060005b838110156118ca5781516118b18882611843565b97506118bc83611cf4565b92505060018101905061189d565b5085935050505092915050565b60006118e282611cde565b6118ec8185611d12565b93506118f783611cce565b8060005b8381101561192857815161190f8882611843565b975061191a83611cf4565b9250506001810190506118fb565b5085935050505092915050565b61193e81611e43565b82525050565b61194d81611e43565b82525050565b61195c81611e9d565b82525050565b600061196d82611ce9565b6119778185611d2e565b9350611987818560208601611ed0565b6119908161206b565b840191505092915050565b60006119a682611ce9565b6119b08185611d3f565b93506119c0818560208601611ed0565b6119c98161206b565b840191505092915050565b60006119e1601383611d3f565b91506119ec8261207c565b602082019050919050565b6000611a04601883611d3f565b9150611a0f826120a5565b602082019050919050565b6000611a27600083611d23565b9150611a32826120ce565b600082019050919050565b600060e0830160008301518482036000860152611a5a8282611962565b91505060208301518482036020860152611a748282611962565b9150506040830151611a896040860182611953565b506060830151611a9c6060860182611ae7565b506080830151611aaf6080860182611ae7565b5060a0830151611ac260a0860182611935565b5060c083015184820360c0860152611ada8282611879565b9150508091505092915050565b611af081611e93565b82525050565b611aff81611e93565b82525050565b6000611b1082611a1a565b9150819050919050565b6000602082019050611b2f600083018461186a565b92915050565b6000604082019050611b4a600083018561186a565b611b576020830184611af6565b9392505050565b60006020820190508181036000830152611b7881846118d7565b905092915050565b6000602082019050611b956000830184611944565b92915050565b60006040820190508181036000830152611bb5818561199b565b90508181036020830152611bc9818461199b565b90509392505050565b60006020820190508181036000830152611beb816119d4565b9050919050565b60006020820190508181036000830152611c0b816119f7565b9050919050565b60006020820190508181036000830152611c2c8184611a3d565b905092915050565b6000602082019050611c496000830184611af6565b92915050565b6000604082019050611c646000830185611af6565b611c71602083018461186a565b9392505050565b6000611c82611c93565b9050611c8e8282611f35565b919050565b6000604051905090565b600067ffffffffffffffff821115611cb857611cb761203c565b5b611cc18261206b565b9050602081019050919050565b6000819050602082019050919050565b600081519050919050565b600081519050919050565b6000602082019050919050565b600082825260208201905092915050565b600082825260208201905092915050565b600081905092915050565b600082825260208201905092915050565b600082825260208201905092915050565b6000611d5b82611e93565b9150611d6683611e93565b9250827fffffffffffffffffffffffffffffffffffffffffffffffffffffffffffffffff03821115611d9b57611d9a611faf565b5b828201905092915050565b6000611db182611e93565b9150611dbc83611e93565b925082611dcc57611dcb611fde565b5b828204905092915050565b6000611de282611e93565b9150611ded83611e93565b9250817fffffffffffffffffffffffffffffffffffffffffffffffffffffffffffffffff0483118215151615611e2657611e25611faf565b5b828202905092915050565b6000611e3c82611e73565b9050919050565b60008115159050919050565b6000611e5a82611e31565b9050919050565b6000611e6c82611e31565b9050919050565b600073ffffffffffffffffffffffffffffffffffffffff82169050919050565b6000819050919050565b6000611ea882611eaf565b9050919050565b6000611eba82611e73565b9050919050565b82818337600083830152505050565b60005b83811015611eee578082015181840152602081019050611ed3565b83811115611efd576000848401525b50505050565b60006002820490506001821680611f1b57607f821691505b60208210811415611f2f57611f2e61200d565b5b50919050565b611f3e8261206b565b810181811067ffffffffffffffff82111715611f5d57611f5c61203c565b5b80604052505050565b6000611f7182611e93565b91507fffffffffffffffffffffffffffffffffffffffffffffffffffffffffffffffff821415611fa457611fa3611faf565b5b600182019050919050565b7f4e487b7100000000000000000000000000000000000000000000000000000000600052601160045260246000fd5b7f4e487b7100000000000000000000000000000000000000000000000000000000600052601260045260246000fd5b7f4e487b7100000000000000000000000000000000000000000000000000000000600052602260045260246000fd5b7f4e487b7100000000000000000000000000000000000000000000000000000000600052604160045260246000fd5b6000601f19601f8301169050919050565b7f5468697320706f6f6c20697320636c6f73656400000000000000000000000000600082015250565b7f5468697320706f6f6c7320646f65736e27742065786973740000000000000000600082015250565b50565b6120da81611e31565b81146120e557600080fd5b50565b6120f181611e43565b81146120fc57600080fd5b50565b61210881611e4f565b811461211357600080fd5b50565b61211f81611e61565b811461212a57600080fd5b50565b61213681611e93565b811461214157600080fd5b5056fea2646970667358221220aaa5156bf779699f1d008a47aa0830179c8f0617914f02c17e1135432a48939864736f6c63430008040033",
  "immutableReferences": {},
  "source": "pragma solidity ^0.8.0;\nimport \"@openzeppelin/contracts/token/ERC721/IERC721.sol\";\nimport \"@openzeppelin/contracts/token/ERC20/IERC20.sol\";\nimport \"./Dao.sol\";\nimport \"./DaoToken.sol\";\nimport \"./Factory.sol\";\n\n\ncontract Pool {\n    address public owner;\n    address public initiator;\n\n    struct Party {\n        /*\n        Contains the properties of the target IERC721 token.\n        */\n        string party_name;\n        string ticker;\n        // Store the account address.\n        IERC721 nft_address;\n        // Store the ID of the token.\n        uint nft_id;\n        // Store the total deposited sum.\n        uint total;\n        // Track whether the acquisition process is already closed.\n        bool closed;\n        // Store the array of all unique participanting addresses.\n        address[] participants;\n    }\n\n    uint public pool_id;\n    // function get_pool_id() public view returns(uint) {return pool_id;}\n    // Map pool_id => user address => absolute deposit amount.\n    mapping(uint => mapping(address => uint)) shares;\n    // Store whether the user participates the specific pool. \n    // pool_id => user address => bool is participant.\n    mapping(uint => mapping(address => bool)) participant_in_pool;\n    mapping(uint => Party) pools;\n    // Map target IERC721 address and ID to the pool ID.\n    mapping(IERC721 => mapping(uint => uint)) pool_id_by_nft;\n    // Map users to all DAOs they've ever participated.\n    mapping(address => address[]) user_to_daos;\n\n    // Declare the events.\n    event NewDeposit(IERC721 indexed nft_address, uint indexed nft_id, address sender, uint deposit);\n    event NewParty(IERC721 indexed nft_address, uint indexed nft_id, uint indexed pool_id);\n    event DistributionDaoToken(IERC721 indexed nft_address, uint nft_id, address sender);\n    event TotalDaoToken(IERC721 indexed nft_address, uint nft_id, address sender);\n\n    modifier initiatorOnly {require(msg.sender == initiator); _;}\n\n    constructor(address _initiator){\n        owner = msg.sender;\n        initiator = _initiator;  // hardcoded for now\n    }\n\n    function new_party(IERC721 _nft_address, uint _nft_id, string memory _party_name, string memory _ticker) public returns (uint) {\n        if (pool_id_by_nft[_nft_address][_nft_id] != 0) {\n            return pool_id_by_nft[_nft_address][_nft_id];\n        }\n        pool_id += 1;\n        address[] memory empty;\n        Party memory party = Party(_party_name, _ticker, _nft_address, _nft_id, 0, false, empty);\n        pools[pool_id] = party;\n        emit NewParty(_nft_address, _nft_id, pool_id);\n        return pool_id;\n    }\n\n    function set_deposit(uint _pool_id) public payable {\n        /*\n        Receive the payment and update the pool statistics.\n        */\n        require(_pool_id <= pool_id, \"This pools doesn't exist\");\n        require(pools[pool_id].closed == false, \"This pool is closed\");\n        if (participant_in_pool[pool_id][msg.sender] != true) {\n            pools[pool_id].participants.push(msg.sender);\n            participant_in_pool[pool_id][msg.sender] = true;\n        }\n        shares[_pool_id][msg.sender] += msg.value;\n        pools[pool_id].total += msg.value;  \n        emit NewDeposit(pools[pool_id].nft_address, pools[pool_id].nft_id, msg.sender, msg.value);\n    }\n\n    function get_pool_description(uint _pool_id) public view returns (string memory, string memory) {\n        return (pools[_pool_id].party_name, pools[_pool_id].ticker);\n    }\n\n    function get_pool(uint _pool_id) public view returns (Party memory) {\n        return pools[_pool_id];\n    }\n\n    function check_participant_in_pool(uint _pool_id, address _user) public view returns (bool) {\n        return participant_in_pool[_pool_id][_user];\n    }\n\n    function get_absolute(uint _pool_id, address _user) public view returns (uint) {\n        /*\n        Get the absolute amount of WEI deposited by the specified user to the target `IERC721` token.\n        */\n        return shares[_pool_id][_user];\n    }\n\n    function get_total(uint _pool_id) public view returns (uint) {\n        /*\n        Get the total deposit sum for the target `IERC721` token.\n        */\n        return pools[_pool_id].total;\n    }\n\n    function distribute_dao_tokens(uint _pool_id, address _dao_address, IERC20 _dao_token) public {\n        require(pools[pool_id].closed == false, \"This pool is closed\");\n        pools[_pool_id].closed = true;\n        uint k = _dao_token.totalSupply() / pools[_pool_id].total;\n        Party storage pool = pools[_pool_id];\n        Dao dao = Dao(_dao_address);\n        _dao_token.approve(_dao_address, _dao_token.totalSupply());\n        for (uint i = 0; i < pools[_pool_id].participants.length; i++) {\n            address recipient = pool.participants[i];\n            dao.auto_stake(shares[_pool_id][recipient]*k, recipient);\n            user_to_daos[recipient].push(_dao_address);\n        }\n    }\n\n    function get_user_daos(address _user) public returns (address[] memory){\n        return user_to_daos[_user];\n    }\n\n    function get_funds_for_buyout(uint _pool_id) public initiatorOnly {\n        (bool sent, bytes memory data) = initiator.call{value: _pool_id}(\"\");\n    }\n}",
  "sourcePath": "/Users/y.sosunov/git/definition-hackathon/onchain/contracts/Pool.sol",
  "compiler": {
    "name": "solc",
    "version": "0.8.4+commit.c7e474f2.Emscripten.clang"
  },
  "schemaVersion": "3.3.4",
  "updatedAt": "2021-09-26T11:26:08.481Z",
  "networkType": "ethereum",
  "devdoc": {
    "kind": "dev",
    "methods": {},
    "version": 1
  },
  "userdoc": {
    "kind": "user",
    "methods": {},
    "version": 1
  }
}