{
  "contractName": "Pool",
  "abi": [
    {
      "inputs": [],
      "stateMutability": "nonpayable",
      "type": "constructor"
    },
    {
      "anonymous": false,
      "inputs": [
        {
          "indexed": true,
          "internalType": "contract IERC721",
          "name": "nft_address",
          "type": "address"
        },
        {
          "indexed": false,
          "internalType": "uint256",
          "name": "nft_id",
          "type": "uint256"
        },
        {
          "indexed": false,
          "internalType": "address",
          "name": "sender",
          "type": "address"
        }
      ],
      "name": "DistributionDaoToken",
      "type": "event"
    },
    {
      "anonymous": false,
      "inputs": [
        {
          "indexed": true,
          "internalType": "contract IERC721",
          "name": "nft_address",
          "type": "address"
        },
        {
          "indexed": true,
          "internalType": "uint256",
          "name": "nft_id",
          "type": "uint256"
        },
        {
          "indexed": false,
          "internalType": "address",
          "name": "sender",
          "type": "address"
        },
        {
          "indexed": false,
          "internalType": "uint256",
          "name": "deposit",
          "type": "uint256"
        }
      ],
      "name": "NewDeposit",
      "type": "event"
    },
    {
      "anonymous": false,
      "inputs": [
        {
          "indexed": true,
          "internalType": "contract IERC721",
          "name": "nft_address",
          "type": "address"
        },
        {
          "indexed": true,
          "internalType": "uint256",
          "name": "nft_id",
          "type": "uint256"
        },
        {
          "indexed": true,
          "internalType": "uint256",
          "name": "pool_id",
          "type": "uint256"
        }
      ],
      "name": "NewParty",
      "type": "event"
    },
    {
      "anonymous": false,
      "inputs": [
        {
          "indexed": true,
          "internalType": "contract IERC721",
          "name": "nft_address",
          "type": "address"
        },
        {
          "indexed": false,
          "internalType": "uint256",
          "name": "nft_id",
          "type": "uint256"
        },
        {
          "indexed": false,
          "internalType": "address",
          "name": "sender",
          "type": "address"
        }
      ],
      "name": "TotalDaoToken",
      "type": "event"
    },
    {
      "inputs": [],
      "name": "owner",
      "outputs": [
        {
          "internalType": "address",
          "name": "",
          "type": "address"
        }
      ],
      "stateMutability": "view",
      "type": "function"
    },
    {
      "inputs": [],
      "name": "pool_id",
      "outputs": [
        {
          "internalType": "uint256",
          "name": "",
          "type": "uint256"
        }
      ],
      "stateMutability": "view",
      "type": "function"
    },
    {
      "inputs": [
        {
          "internalType": "contract IERC721",
          "name": "_nft_address",
          "type": "address"
        },
        {
          "internalType": "uint256",
          "name": "_nft_id",
          "type": "uint256"
        },
        {
          "internalType": "string",
          "name": "_party_name",
          "type": "string"
        },
        {
          "internalType": "string",
          "name": "_ticker",
          "type": "string"
        }
      ],
      "name": "new_party",
      "outputs": [
        {
          "internalType": "uint256",
          "name": "",
          "type": "uint256"
        }
      ],
      "stateMutability": "nonpayable",
      "type": "function"
    },
    {
      "inputs": [
        {
          "internalType": "uint256",
          "name": "_pool_id",
          "type": "uint256"
        }
      ],
      "name": "set_deposit",
      "outputs": [],
      "stateMutability": "payable",
      "type": "function"
    },
    {
      "inputs": [
        {
          "internalType": "uint256",
          "name": "_pool_id",
          "type": "uint256"
        }
      ],
      "name": "get_pool_description",
      "outputs": [
        {
          "internalType": "string",
          "name": "",
          "type": "string"
        },
        {
          "internalType": "string",
          "name": "",
          "type": "string"
        }
      ],
      "stateMutability": "view",
      "type": "function"
    },
    {
      "inputs": [
        {
          "internalType": "uint256",
          "name": "_pool_id",
          "type": "uint256"
        },
        {
          "internalType": "address",
          "name": "_user",
          "type": "address"
        }
      ],
      "name": "check_participant_in_pool",
      "outputs": [
        {
          "internalType": "bool",
          "name": "",
          "type": "bool"
        }
      ],
      "stateMutability": "view",
      "type": "function"
    },
    {
      "inputs": [
        {
          "internalType": "uint256",
          "name": "_pool_id",
          "type": "uint256"
        },
        {
          "internalType": "address",
          "name": "_user",
          "type": "address"
        }
      ],
      "name": "get_absolute",
      "outputs": [
        {
          "internalType": "uint256",
          "name": "",
          "type": "uint256"
        }
      ],
      "stateMutability": "view",
      "type": "function"
    },
    {
      "inputs": [
        {
          "internalType": "uint256",
          "name": "_pool_id",
          "type": "uint256"
        }
      ],
      "name": "get_total",
      "outputs": [
        {
          "internalType": "uint256",
          "name": "",
          "type": "uint256"
        }
      ],
      "stateMutability": "view",
      "type": "function"
    },
    {
      "inputs": [
        {
          "internalType": "uint256",
          "name": "_pool_id",
          "type": "uint256"
        },
        {
          "internalType": "contract IERC20",
          "name": "_dao_token",
          "type": "address"
        }
      ],
      "name": "distribute_dao_tokens",
      "outputs": [],
      "stateMutability": "nonpayable",
      "type": "function"
    }
  ],
  "bytecode": "0x608060405234801561001057600080fd5b50336000806101000a81548173ffffffffffffffffffffffffffffffffffffffff021916908373ffffffffffffffffffffffffffffffffffffffff1602179055506116e2806100606000396000f3fe6080604052600436106100865760003560e01c80639215d96f116100595780639215d96f146101595780639d8ad6e414610197578063a5a39012146101c2578063b1183c53146101ff578063cf12433d1461023c57610086565b806338a1ada41461008b57806368bd4400146100c857806376561eb0146100f15780638da5cb5b1461012e575b600080fd5b34801561009757600080fd5b506100b260048036038101906100ad9190610f73565b610258565b6040516100bf9190611252565b60405180910390f35b3480156100d457600080fd5b506100ef60048036038101906100ea9190611094565b6104b7565b005b3480156100fd57600080fd5b5061011860048036038101906101139190611058565b61079f565b60405161012591906111c0565b60405180910390f35b34801561013a57600080fd5b50610143610807565b604051610150919061117c565b60405180910390f35b34801561016557600080fd5b50610180600480360381019061017b9190611006565b61082b565b60405161018e9291906111db565b60405180910390f35b3480156101a357600080fd5b506101ac61097b565b6040516101b99190611252565b60405180910390f35b3480156101ce57600080fd5b506101e960048036038101906101e49190611058565b610981565b6040516101f69190611252565b60405180910390f35b34801561020b57600080fd5b5061022660048036038101906102219190611006565b6109dc565b6040516102339190611252565b60405180910390f35b61025660048036038101906102519190611006565b6109fc565b005b600080600560008773ffffffffffffffffffffffffffffffffffffffff1673ffffffffffffffffffffffffffffffffffffffff1681526020019081526020016000206000868152602001908152602001600020541461030957600560008673ffffffffffffffffffffffffffffffffffffffff1673ffffffffffffffffffffffffffffffffffffffff16815260200190815260200160002060008581526020019081526020016000205490506104af565b600180600082825461031b91906112df565b92505081905550606060006040518060e001604052808681526020018581526020018873ffffffffffffffffffffffffffffffffffffffff168152602001878152602001600081526020016000151581526020018381525090508060046000600154815260200190815260200160002060008201518160000190805190602001906103a7929190610d37565b5060208201518160010190805190602001906103c4929190610d37565b5060408201518160020160006101000a81548173ffffffffffffffffffffffffffffffffffffffff021916908373ffffffffffffffffffffffffffffffffffffffff160217905550606082015181600301556080820151816004015560a08201518160050160006101000a81548160ff02191690831515021790555060c082015181600601908051906020019061045c929190610dbd565b50905050600154868873ffffffffffffffffffffffffffffffffffffffff167f365da4d82c1a043e1ae188b50efdf5d63783fce5cf1e6e21a3621fdd7deabd6e60405160405180910390a4600154925050505b949350505050565b6001151560046000600154815260200190815260200160002060050160009054906101000a900460ff16151514610523576040517f08c379a000000000000000000000000000000000000000000000000000000000815260040161051a90611212565b60405180910390fd5b60016004600084815260200190815260200160002060050160006101000a81548160ff021916908315150217905550600060046000848152602001908152602001600020600401548273ffffffffffffffffffffffffffffffffffffffff166318160ddd6040518163ffffffff1660e01b815260040160206040518083038186803b1580156105b157600080fd5b505afa1580156105c5573d6000803e3d6000fd5b505050506040513d601f19601f820116820180604052508101906105e9919061102f565b6105f39190611335565b9050600060046000858152602001908152602001600020905060005b600460008681526020019081526020016000206006018054905081101561079857600082600601828154811061066e577f4e487b7100000000000000000000000000000000000000000000000000000000600052603260045260246000fd5b9060005260206000200160009054906101000a900473ffffffffffffffffffffffffffffffffffffffff1690508473ffffffffffffffffffffffffffffffffffffffff1663a9059cbb8286600260008b815260200190815260200160002060008673ffffffffffffffffffffffffffffffffffffffff1673ffffffffffffffffffffffffffffffffffffffff168152602001908152602001600020546107149190611366565b6040518363ffffffff1660e01b8152600401610731929190611197565b602060405180830381600087803b15801561074b57600080fd5b505af115801561075f573d6000803e3d6000fd5b505050506040513d601f19601f820116820180604052508101906107839190610f4a565b50508080610790906114d1565b91505061060f565b5050505050565b60006003600084815260200190815260200160002060008373ffffffffffffffffffffffffffffffffffffffff1673ffffffffffffffffffffffffffffffffffffffff16815260200190815260200160002060009054906101000a900460ff16905092915050565b60008054906101000a900473ffffffffffffffffffffffffffffffffffffffff1681565b60608060046000848152602001908152602001600020600001600460008581526020019081526020016000206001018180546108669061146e565b80601f01602080910402602001604051908101604052809291908181526020018280546108929061146e565b80156108df5780601f106108b4576101008083540402835291602001916108df565b820191906000526020600020905b8154815290600101906020018083116108c257829003601f168201915b505050505091508080546108f29061146e565b80601f016020809104026020016040519081016040528092919081815260200182805461091e9061146e565b801561096b5780601f106109405761010080835404028352916020019161096b565b820191906000526020600020905b81548152906001019060200180831161094e57829003601f168201915b5050505050905091509150915091565b60015481565b60006002600084815260200190815260200160002060008373ffffffffffffffffffffffffffffffffffffffff1673ffffffffffffffffffffffffffffffffffffffff16815260200190815260200160002054905092915050565b600060046000838152602001908152602001600020600401549050919050565b600154811115610a41576040517f08c379a0000000000000000000000000000000000000000000000000000000008152600401610a3890611232565b60405180910390fd5b6000151560046000600154815260200190815260200160002060050160009054906101000a900460ff16151514610aad576040517f08c379a0000000000000000000000000000000000000000000000000000000008152600401610aa490611212565b60405180910390fd5b6001151560036000600154815260200190815260200160002060003373ffffffffffffffffffffffffffffffffffffffff1673ffffffffffffffffffffffffffffffffffffffff16815260200190815260200160002060009054906101000a900460ff16151514610bfd57600460006001548152602001908152602001600020600601339080600181540180825580915050600190039060005260206000200160009091909190916101000a81548173ffffffffffffffffffffffffffffffffffffffff021916908373ffffffffffffffffffffffffffffffffffffffff160217905550600160036000600154815260200190815260200160002060003373ffffffffffffffffffffffffffffffffffffffff1673ffffffffffffffffffffffffffffffffffffffff16815260200190815260200160002060006101000a81548160ff0219169083151502179055505b346002600083815260200190815260200160002060003373ffffffffffffffffffffffffffffffffffffffff1673ffffffffffffffffffffffffffffffffffffffff1681526020019081526020016000206000828254610c5d91906112df565b92505081905550346004600060015481526020019081526020016000206004016000828254610c8c91906112df565b925050819055506004600060015481526020019081526020016000206003015460046000600154815260200190815260200160002060020160009054906101000a900473ffffffffffffffffffffffffffffffffffffffff1673ffffffffffffffffffffffffffffffffffffffff167f70fe5df63fc76eaa9159b26105d2ee3c345742207dc75d838bc560ac0f9862e03334604051610d2c929190611197565b60405180910390a350565b828054610d439061146e565b90600052602060002090601f016020900481019282610d655760008555610dac565b82601f10610d7e57805160ff1916838001178555610dac565b82800160010185558215610dac579182015b82811115610dab578251825591602001919060010190610d90565b5b509050610db99190610e47565b5090565b828054828255906000526020600020908101928215610e36579160200282015b82811115610e355782518260006101000a81548173ffffffffffffffffffffffffffffffffffffffff021916908373ffffffffffffffffffffffffffffffffffffffff16021790555091602001919060010190610ddd565b5b509050610e439190610e47565b5090565b5b80821115610e60576000816000905550600101610e48565b5090565b6000610e77610e7284611292565b61126d565b905082815260208101848484011115610e8f57600080fd5b610e9a84828561142c565b509392505050565b600081359050610eb181611639565b92915050565b600081519050610ec681611650565b92915050565b600081359050610edb81611667565b92915050565b600081359050610ef08161167e565b92915050565b600082601f830112610f0757600080fd5b8135610f17848260208601610e64565b91505092915050565b600081359050610f2f81611695565b92915050565b600081519050610f4481611695565b92915050565b600060208284031215610f5c57600080fd5b6000610f6a84828501610eb7565b91505092915050565b60008060008060808587031215610f8957600080fd5b6000610f9787828801610ee1565b9450506020610fa887828801610f20565b935050604085013567ffffffffffffffff811115610fc557600080fd5b610fd187828801610ef6565b925050606085013567ffffffffffffffff811115610fee57600080fd5b610ffa87828801610ef6565b91505092959194509250565b60006020828403121561101857600080fd5b600061102684828501610f20565b91505092915050565b60006020828403121561104157600080fd5b600061104f84828501610f35565b91505092915050565b6000806040838503121561106b57600080fd5b600061107985828601610f20565b925050602061108a85828601610ea2565b9150509250929050565b600080604083850312156110a757600080fd5b60006110b585828601610f20565b92505060206110c685828601610ecc565b9150509250929050565b6110d9816113c0565b82525050565b6110e8816113d2565b82525050565b60006110f9826112c3565b61110381856112ce565b935061111381856020860161143b565b61111c816115d6565b840191505092915050565b60006111346013836112ce565b915061113f826115e7565b602082019050919050565b60006111576018836112ce565b915061116282611610565b602082019050919050565b61117681611422565b82525050565b600060208201905061119160008301846110d0565b92915050565b60006040820190506111ac60008301856110d0565b6111b9602083018461116d565b9392505050565b60006020820190506111d560008301846110df565b92915050565b600060408201905081810360008301526111f581856110ee565b9050818103602083015261120981846110ee565b90509392505050565b6000602082019050818103600083015261122b81611127565b9050919050565b6000602082019050818103600083015261124b8161114a565b9050919050565b6000602082019050611267600083018461116d565b92915050565b6000611277611288565b905061128382826114a0565b919050565b6000604051905090565b600067ffffffffffffffff8211156112ad576112ac6115a7565b5b6112b6826115d6565b9050602081019050919050565b600081519050919050565b600082825260208201905092915050565b60006112ea82611422565b91506112f583611422565b9250827fffffffffffffffffffffffffffffffffffffffffffffffffffffffffffffffff0382111561132a5761132961151a565b5b828201905092915050565b600061134082611422565b915061134b83611422565b92508261135b5761135a611549565b5b828204905092915050565b600061137182611422565b915061137c83611422565b9250817fffffffffffffffffffffffffffffffffffffffffffffffffffffffffffffffff04831182151516156113b5576113b461151a565b5b828202905092915050565b60006113cb82611402565b9050919050565b60008115159050919050565b60006113e9826113c0565b9050919050565b60006113fb826113c0565b9050919050565b600073ffffffffffffffffffffffffffffffffffffffff82169050919050565b6000819050919050565b82818337600083830152505050565b60005b8381101561145957808201518184015260208101905061143e565b83811115611468576000848401525b50505050565b6000600282049050600182168061148657607f821691505b6020821081141561149a57611499611578565b5b50919050565b6114a9826115d6565b810181811067ffffffffffffffff821117156114c8576114c76115a7565b5b80604052505050565b60006114dc82611422565b91507fffffffffffffffffffffffffffffffffffffffffffffffffffffffffffffffff82141561150f5761150e61151a565b5b600182019050919050565b7f4e487b7100000000000000000000000000000000000000000000000000000000600052601160045260246000fd5b7f4e487b7100000000000000000000000000000000000000000000000000000000600052601260045260246000fd5b7f4e487b7100000000000000000000000000000000000000000000000000000000600052602260045260246000fd5b7f4e487b7100000000000000000000000000000000000000000000000000000000600052604160045260246000fd5b6000601f19601f8301169050919050565b7f5468697320706f6f6c20697320636c6f73656400000000000000000000000000600082015250565b7f5468697320706f6f6c7320646f65736e27742065786973740000000000000000600082015250565b611642816113c0565b811461164d57600080fd5b50565b611659816113d2565b811461166457600080fd5b50565b611670816113de565b811461167b57600080fd5b50565b611687816113f0565b811461169257600080fd5b50565b61169e81611422565b81146116a957600080fd5b5056fea264697066735822122023fb3eba980cc8fc639bcd0074ba6e01f905d8fe5f5329e6d0c0eccc4aad228964736f6c63430008040033",
  "immutableReferences": {},
  "source": "pragma solidity ^0.8.0;\nimport \"@openzeppelin/contracts/token/ERC721/IERC721.sol\";\nimport \"@openzeppelin/contracts/token/ERC20/IERC20.sol\";\nimport \"./DaoToken.sol\";\n\n\ncontract Pool {\n    address public owner;\n    \n    struct Party {\n        /*\n        Contains the properties of the target IERC721 token.\n        */\n        string party_name;\n        string ticker;\n        // Store the account address.\n        IERC721 nft_address;\n        // Store the ID of the token.\n        uint nft_id;\n        // Store the total deposited sum.\n        uint total;\n        // Track whether the acquisition process is already closed.\n        bool closed;\n        // Store the array of all unique participanting addresses.\n        address[] participants;\n    }\n\n    uint public pool_id;\n//    function get_pool_id() public view returns(uint) {return pool_id;}\n    // Map pool_id => user address => absolute deposit amount.\n    mapping(uint => mapping(address => uint)) shares;\n\n    // Store whether the user participates the specific pool. \n    // pool_id => user address => bool is participant.\n    mapping(uint => mapping(address => bool)) participant_in_pool;\n    mapping(uint => Party) pools;\n\n    // Map target IERC721 address and ID to the pool ID.\n    mapping(IERC721 => mapping(uint => uint)) pool_id_by_nft;\n\n    // Declare the events.\n    event NewDeposit(IERC721 indexed nft_address, uint indexed nft_id, address sender, uint deposit);\n    event NewParty(IERC721 indexed nft_address, uint indexed nft_id, uint indexed pool_id);\n    event DistributionDaoToken(IERC721 indexed nft_address, uint nft_id, address sender);\n    event TotalDaoToken(IERC721 indexed nft_address, uint nft_id, address sender);\n\n\n    constructor(){\n        owner = msg.sender;\n    }\n\n    function new_party(IERC721 _nft_address, uint _nft_id, string memory _party_name, string memory _ticker) public returns (uint) {\n        if (pool_id_by_nft[_nft_address][_nft_id] != 0) {\n            return pool_id_by_nft[_nft_address][_nft_id];\n        }\n        pool_id += 1;\n        address[] memory empty;\n        Party memory party = Party(_party_name, _ticker, _nft_address, _nft_id, 0, false, empty);\n        pools[pool_id] = party;\n        emit NewParty(_nft_address, _nft_id, pool_id);\n        return pool_id;\n    }\n\n    function set_deposit(uint _pool_id) public payable {\n        /*\n        Receive the payment and update the pool statistics.\n        */\n        require(_pool_id <= pool_id, \"This pools doesn't exist\");\n        require(pools[pool_id].closed == false, \"This pool is closed\");\n        if (participant_in_pool[pool_id][msg.sender] != true) {\n            pools[pool_id].participants.push(msg.sender);\n            participant_in_pool[pool_id][msg.sender] = true;\n        }\n        shares[_pool_id][msg.sender] += msg.value;\n        pools[pool_id].total += msg.value;  \n        emit NewDeposit(pools[pool_id].nft_address, pools[pool_id].nft_id, msg.sender, msg.value);\n    }\n\n    function get_pool_description(uint _pool_id) public view returns (string memory, string memory) {\n        return (pools[_pool_id].party_name, pools[_pool_id].ticker);\n    }\n\n    function check_participant_in_pool(uint _pool_id, address _user) public view returns (bool) {\n        return participant_in_pool[_pool_id][_user];\n    }\n\n    function get_absolute(uint _pool_id, address _user) public view returns (uint) {\n        /*\n        Get the absolute amount of WEI deposited by the specified user to the target `IERC721` token.\n        */\n        return shares[_pool_id][_user];\n    }\n\n    function get_total(uint _pool_id) public view returns (uint) {\n        /*\n        Get the total deposit sum for the target `IERC721` token.\n        */\n        return pools[_pool_id].total;\n    }\n\n    function distribute_dao_tokens(uint _pool_id, IERC20 _dao_token) public {\n        require(pools[pool_id].closed == true, \"This pool is closed\");\n        pools[_pool_id].closed = true;\n        uint k = _dao_token.totalSupply() / pools[_pool_id].total;\n        Party storage pool = pools[_pool_id];\n        for (uint i = 0; i < pools[_pool_id].participants.length; i++) {\n            address recipient = pool.participants[i];\n            _dao_token.transfer(recipient, shares[_pool_id][recipient]*k);\n        }\n    }\n}",
  "sourcePath": "/Users/y.sosunov/git/definition-hackathon/onchain/contracts/Pool.sol",
  "compiler": {
    "name": "solc",
    "version": "0.8.4+commit.c7e474f2.Emscripten.clang"
  },
  "schemaVersion": "3.3.4",
  "updatedAt": "2021-09-26T04:44:50.211Z",
  "devdoc": {
    "kind": "dev",
    "methods": {},
    "version": 1
  },
  "userdoc": {
    "kind": "user",
    "methods": {},
    "version": 1
  }
}